:020000040000FA
:06000000D9EF26F012000A
:060008005FEF16F012008C
:06002A000100CA4D0000B8
:08003000000200005200000074
:08003800D9CFE6FFE1CFD9FFAB
:10004000030EE126FD0EDBCFDEFFDBCFDDFFD9CFD8
:10005000E9FFDACFEAFF000ED880EE54000EED542F
:1000600011E28B0EF36E020EF3CFDBFF020EDB50BC
:10007000000803E2020EDB06F9D7DF06010E01E2FB
:10008000DB06E5D70000F56E030EE15C02E2E16AF3
:10009000E552E16EF550E552E7CFD9FF1200D9CF16
:1000A000E6FFE1CFD9FFE652DF6AFE0EDB50DF5CF0
:1000B00003E20000DF2AF9D7E552E552E7CFD9FF86
:1000C0001200D9CFE6FFE1CFD9FFACA2FED7FE0EDA
:1000D000DB50AD6EE552E7CFD9FF1200D9CFE6FF76
:1000E000E1CFD9FFE6529EAAFED7B8ACFED7AE50FC
:1000F000DF6EDF5000D0E552E552E7CFD9FF1200A6
:10010000D9CFE6FFE1CFD9FFE652FE0EDB50EA6A17
:10011000000FE96E020EEA22EF6A550EE66ED1DF9D
:10012000E552550E006EFE0EDB50EA6A000FE96ED6
:10013000020EEA220050EF26010EDF6EFE0EDB50AB
:10014000DF5C1DE2DF50EA6A000FE96E020EEA2270
:10015000EF50E66EB6DFE552DF50EA6A000FE96E57
:10016000020EEA22EFCF00F0FE0EDB50EA6A000F2B
:10017000E96E020EEA220050EF26DF2ADFD7FE0EDC
:10018000DB50EA6A000FE96E020EEA22EF50E66EDB
:1001900098DFE552E552E552E7CFD9FF1200D9CFFB
:1001A000E6FFE1CFD9FF040EE126030EDF6E090E54
:1001B000DF5C0DE293DFE66EDF50EA6A000FE96E66
:1001C000020EEA22E552E750EF6EDF2AF0D7010E69
:1001D00003C2DBFF020E04C2DBFF030E05C2DBFF1E
:1001E000010EDB50020810E1000EE66E020EE66E14
:1001F000020EDBCFE6FF030EDBCFE6FFDFEC0CF0F9
:10020000E552E552E552E552010EDB50030815E1D7
:10021000839600000000000000000000200EE66E43
:1002200031EC0FF0E552F6EC0EF00201006F000029
:10023000000000000000000083860201086BDF6AF6
:10024000080EDF5C15E2DF50EA6A000FE96E020E6D
:10025000EA22EF50E66E35DFE552DF50EA6A000F22
:10026000E96E020EEA22EF5002010827DF2AE8D7E2
:1002700008C2E6FF26DFE552F56E040EE15C02E2FD
:10028000E16AE552E16EF550E552E7CFD9FF120081
:10029000D9CFE6FFE1CFD9FFE652DF6AFE0EDB5091
:1002A000DF5C0DE2090EDF24EA6A000FE96E020E40
:1002B000EA22EF50E66E05DFE552DF2AEFD7E5527E
:1002C000E552E7CFD9FF1200D9CFE6FFE1CFD9FF42
:1002D000030EE126DF6E090EDF5C0DE2FFDEE66E47
:1002E000DF50EA6A000FE96E020EEA22E552E7509B
:1002F000EF6EDF2AF0D702010351E66ED950010FED
:10030000E96EDACFEAFFE552E750EE6EED6AD950BA
:10031000010FE96EDACFEAFF060ED890EE36ED3621
:10032000E806FBE1090EE66E020EE66E400EE66E92
:10033000E66A010EDBCFE6FF020EDBCFE6FFFD0E25
:10034000DBCFE6FFFE0EDBCFE6FF42EC0CF0F56EF6
:10035000080EE15EF550400EE66E9ADFE552F56E4E
:10036000030EE15C02E2E16AE552E16EF550E5520E
:10037000E7CFD9FF1200D9CFE6FFE1CFD9FF070EB3
:10038000E126030EDF6E090EDF5C0DE2A7DEE66EEE
:10039000DF50EA6A000FE96E020EEA22E552E750EA
:1003A000EF6EDF2AF0D7050E04C2DBFF060E05C292
:1003B000DBFF050EDBCF4EF0060EDBCF4FF0030E5A
:1003C0004EC0DBFF040E4FC0DBFF02010351E66E9F
:1003D000D950010FE96EDACFEAFFE552E750EE6E31
:1003E000ED6AD950010FE96EDACFEAFF060ED89018
:1003F000EE36ED36E806FBE1090EE66E020EE66E1D
:10040000400EE66EE66A010EDBCFE6FF020EDBCFA2
:10041000E6FF030EDBCFE6FF040EDBCFE6FF42EC88
:100420000CF0F56E080EE15EF550400EE66E30DF22
:10043000E552F56E070EE15C02E2E16AE552E16E1B
:10044000F550E552E7CFD9FF1200D9CFE6FFE1CF53
:10045000D9FF030EE126DF6E4A0EDF5C0DE23EDEC1
:10046000E66EDF50EA6A000FE96E020EEA22E552FC
:10047000E750EF6EDF2AF0D70201035122E1FD0EB3
:10048000DBCFE6FFFE0EDBCFE6FFE1EC0DF0E55241
:10049000E5520201496FDF6A090EDF5C12E2090EC4
:1004A000DF24EA6A000FE96E020EEA22EF50E66EE0
:1004B000F70EDF24E66EC2EC0EF0E552E552DF2ABD
:1004C000EBD702010351E66ED950010FE96EDACF86
:1004D000EAFFE552E750EE6EED6AD950010FE96E82
:1004E000DACFEAFF060ED890EE36ED36E806FBE1ED
:1004F000090EE66E020EE66E400EE66EE66A010E2C
:10050000DBCFE6FF020EDBCFE6FFFD0EDBCFE6FF23
:10051000FE0EDBCFE6FF2CEC0DF0F56E080EE15E73
:10052000F550080EE66EECDDE552F56E030EE15C6B
:1005300002E2E16AE552E16EF550E552E7CFD9FFFC
:100540001200D9CFE6FFE1CFD9FF030EE126DF6E1F
:100550004A0EDF5C0DE2C2DDE66EDF50EA6A000F94
:10056000E96E020EEA22E552E750EF6EDF2AF0D77D
:10057000020103510CE1FD0EDBCFE6FFFE0EDBCFE7
:10058000E6FFE1EC0DF0E552E5520201496F03513F
:10059000E66ED950010FE96EDACFEAFFE552E75077
:1005A000EE6EED6AD950010FE96EDACFEAFF060E62
:1005B000D890EE36ED36E806FBE1D950FD0FE96E36
:1005C000FF0EDA20EA6E030EEE1801E1ED5026E18F
:1005D000050EE66EE66A30DDE552E552090EE66E7E
:1005E000020EE66E400EE66EE66A010EDBCFE6FF17
:1005F000020EDBCFE6FFFD0EDBCFE6FFFE0EDBCF0C
:10060000E6FF2CEC0DF0F56E080EE15EF550050EE0
:10061000E66EE66A11DDE552E55219D0090EE66E86
:10062000020EE66E400EE66EE66A010EDBCFE6FFD6
:10063000020EDBCFE6FFFD0EDBCFE6FFFE0EDBCFCB
:10064000E6FF2CEC0DF0F56E080EE15EF550080E9D
:10065000E66E56DDE552F56E030EE15C02E2E16AFC
:10066000E552E16EF550E552E7CFD9FF1200D9CF40
:10067000E6FFE1CFD9FF020EE126030EDF6E090E81
:10068000DF5C0DE22BDDE66EDF50EA6A000FE96EFB
:10069000020EEA22E552E750EF6EDF2AF0D70101A1
:1006A000F2417F0BE76E010EE7CFDBFF94EC0FF01A
:1006B0000101EC51060A4EE0040A38E0030A22E088
:1006C000010A10E00CEC12F000C209F201C20AF2B9
:1006D00002C20BF203C20CF263D8F6C10DF2F7C1ED
:1006E0000EF24CD00CEC12F000C209F201C20AF278
:1006F00002C20BF203C20CF253D8F6C10DF2F7C1DD
:100700000EF23CD033EC12F000C209F201C20AF240
:1007100002C20BF203C20CF204C20DF205C20EF2C9
:100720003FD8F6C10FF2F7C110F228D06FEC12F0EB
:1007300000C209F201C20AF202C20BF203C20CF2B9
:1007400004C20DF205C20EF22BD8F6C10FF2F7C1AA
:1007500010F214D0ABEC12F000C209F201C20AF29E
:1007600002C20BF203C20CF204C20DF205C20EF279
:1007700017D8F6C10FF2F7C110F200D0ECC148F261
:10078000400EE66E85DDE552F56E020EE15C02E29A
:10079000E16AE552E16EF550E552E7CFD9FF12006C
:1007A0003A0EC16EC26AA10EC06EC280040EE66E21
:1007B000E66A42DCE552E552D3A806D0040EE66EA6
:1007C000E66A3ADCE552E552C28200000000000011
:1007D000C2B2FED7C3CFF6F1C4CFF7F112003A0E82
:1007E000C16E040EC26EA10EC06EC280040EE66E13
:1007F000E66A22DCE552E552D3A806D0040EE66E86
:10080000E66A1ADCE552E552C282000000000000F0
:10081000C2B2FED7C3CFF6F1C4CFF7F11200D9CFE1
:10082000E6FFE1CFD9FF130EE1260A0EE66EE66A77
:100830001CEC00F0E552E552100EE66EAFEC0EF047
:10084000E552DF6EDF6ADF50006E016AD89001501A
:1008500004E6F00E005C000E015817E2100EDF24D3
:10086000E76E040EE7CFDBFFDBCFE6FFAFEC0EF069
:10087000E552E66EDF50EA6A040FE96E010EEA22E5
:10088000E552E750EF6EDF2ADED7110EDB6A040E69
:10089000F36E120EF3CFDBFF0101010EED6FED07DA
:1008A000ED51000807E2110EDB6A080EF36E120E1E
:1008B000F3CFDBFFEC6BEC51060A1CE0040A15E0F9
:1008C000030A0EE0010A06E0020EF36E030EF3CFF8
:1008D000DBFF15D0020EF36E030EF3CFDBFF0FD05C
:1008E000030EF36EF3CFDBFF0AD0030EF36EF3CFEC
:1008F000DBFF05D0030EF36EF3CFDBFF00D0EA5130
:1009000001E09FD3E66AAFEC0EF0E552E76E090E08
:10091000E7CFDBFF010EE66EAFEC0EF0E552E76EBF
:100920000A0EE7CFDBFF050EDB6A010EDF6E080E55
:10093000DF5C3BE2DF50020D040EF3CFDBFFDBCFC9
:10094000E6FFAFEC0EF0E552E76E070EE7CFDBFFF8
:10095000040EDB2ADBCFE6FFAFEC0EF0E552E76ECC
:10096000080EE7CFDBFF070EDBCF00F0080EDBCF72
:1009700001F0090EDBCF02F00A0EDBCF03F00050CE
:10098000025C015003580FE2070EDBCF4EF0080E59
:10099000DBCF4FF0090E4EC0DBFF0A0E4FC0DBFF6E
:1009A000050EDFCFDBFFDF2AC2D70101E8510708C0
:1009B0000CE2050EDBCFE8F1E8C1E6FFF40EE66ECF
:1009C000C2EC0EF0E552E552B2D0E851E824DF6EF9
:1009D000DFCFE6FFAFEC0EF0E552E76E070EE7CF94
:1009E000DBFFDF2ADFCFE6FFAFEC0EF0E552E76E6C
:1009F000080EE7CFDBFF090EDBCF00F00A0EDBCFDE
:100A000001F0070EDBCF02F0080EDBCF03F0005041
:100A1000025C0150035801E38AD0070EDBCFF4F1EA
:100A2000080EDBCFF5F1110EDBCF00F0120EDBCF9D
:100A300001F001010050F45D0150F55901E377D058
:100A4000F4C100F0F5C101F0030ED890013200327C
:100A5000E804FBE10E0E00C0DBFF090EE66E020E9D
:100A6000E66E010EE66EE66A0E0EDBCFE6FFE66A84
:100A7000000EE66EE66A42EC0CF0F56E080EE15EE2
:100A8000F55009C2DFFF070E0101F415070B04E062
:100A9000DF42DF9EE806FCE1000EDF92DF94DF9686
:100AA000DF98DF9ADF9CDF9EDF503CE1F60EE66EBA
:100AB000010EE66E020EE66EE66A000EE66EE66A6D
:100AC000F4C1E6FFF5C1E6FF42EC0CF0F56E080E4E
:100AD000E15EF550FF0E0101F75D24E1050EDBCF6D
:100AE000E8F10101E851020D040EF3CFDBFFF4C180
:100AF000E6FFDBCFE6FFC2EC0EF0E552E552040E56
:100B0000DB2AF5C1E6FFDBCFE6FFC2EC0EF0E552D3
:100B1000E552E8C1E6FFF40EE66EC2EC0EF0E552D7
:100B2000E55205D00101F42B000EF5237CD701011D
:100B3000E405070DF350DF6EDF50EA6A040FE96E3B
:100B4000010EEA22EFCFF4F1DF2ADF50EA6A040F48
:100B5000E96E010EEA22EFCFF5F1E851E824DF6EED
:100B6000DFCFE6FFAFEC0EF0E552E76E070EE7CF02
:100B7000DBFFDF2ADFCFE6FFAFEC0EF0E552E76EDA
:100B8000080EE7CFDBFF070EDBCF00F0080EDBCF50
:100B900001F00101F451005CF551015810E2200E02
:100BA000F36E0B0EF3CFDBFFA10EF36E0C0EF3CF43
:100BB000DBFF070EF36E0D0EF3CFDBFF13D10B0E31
:100BC000DB6A0C0EDB6A0D0EDB6AF4C1F8F1F5C1CD
:100BD000F9F1070EDBCF00F0080EDBCF01F00101C9
:100BE0000050F85D0150F95945E2F8C100F0F9C133
:100BF00001F0030ED89001320032E804FBE10E0E42
:100C000000C0DBFF090EE66E020EE66E010EE66E18
:100C1000E66A0E0EDBCFE6FFE66A000EE66EE66AD7
:100C200042EC0CF0F56E080EE15EF55009C2DFFFF4
:100C3000070E0101F815070B04E0DF42DF9EE8060E
:100C4000FCE1000EDF92DF94DF96DF98DF9ADF9CF5
:100C5000DF9EDF500AE1D9500B0FE96EDACFEAFFD1
:100C6000EE52080EEE26000EEE220101F82B000EC9
:100C7000F923AFD7F86BF96B000EF85D100EF95938
:100C800061E2F60EE66E010EE66E020EE66EE66AB2
:100C9000F8C1E6FFF9C1E6FF070EDBCFE6FF080E5D
:100CA000DBCFE6FF42EC0CF0F56E080EE15EF5508E
:100CB0000101FF0EF65DFF0EF7590AE2D9500B0F46
:100CC000E96EDACFEAFFEE2A000EEE22EE2234D0F1
:100CD000FE0E0101F81902E10F0EF91901E132D0FF
:100CE000F60EE66E010EE66E020EE66EE66A016A2A
:100CF000F825006EF951012200C0E6FF01C0E6FFB1
:100D0000070EDBCFE6FF080EDBCFE6FF42EC0CF070
:100D1000F56E080EE15EF5500101F61D01E1F71DCB
:100D200002E110D009D0D9500B0FE96EDACFEAFFFB
:100D3000EE2A000EEE22EE22020E0101F827000E2E
:100D4000F9239AD7030EDB50016A000F006E010EE3
:100D50000122026A01BE0268D9500B0FE96EDACF98
:100D6000EAFFEE50005CEE500158EE50025834E2BB
:100D7000030EDB50016A000F006E010E0122026AB1
:100D800001BE0268D9500B0FE96EDACFEAFF0050BE
:100D9000EE5E0150EE5A0250EE5A030EDBCF00F029
:100DA000016A026AD9500B0FE96EDACFEAFF00C080
:100DB00052F001C053F002C054F0EECF4DF0EECF30
:100DC0004EF0EFCF4FF0BCEC26F04FC0EDFF4EC021
:100DD000EDFF4DC0EFFF06D00B0EDB6A0C0EDB6A99
:100DE0000D0EDB6A0B0EDBCF00F00C0EDBCF01F03B
:100DF0000D0EDBCF02F000500110021001E1DDD03A
:100E00000B0EDB500101E5270C0EDB50E6230D0E27
:100E1000DB50E723E405070DF350040FDF6E020EED
:100E2000DB6A030EF36E020EDBCFF4FFF350F45CCB
:100E300060E2020EDB50DF24E76E010EE7CFDBFF3E
:100E4000D9500B0F006EDACF01F0020EDB500F010C
:100E50000024E96E000E0120EA6EEF50E66E010EEE
:100E6000DB50EA6A040FE96E010EEA22E552E75010
:100E7000EF6E020EDBCFE6FF100EDF24E552E72413
:100E8000E76E010EE7CFDBFFD9500B0F006EDACF14
:100E900001F0020EDB500024E96E000E0120EA6E24
:100EA000040EEFCFDBFFDBCFE6FF010EDBCFE6FF6B
:100EB000C2EC0EF0E552E552020EDB50F10FE76E88
:100EC000010EE7CFDBFF020EDB50EA6AE50FE96EA9
:100ED000010EEA22040EEFCFDBFFDBCFE6FF010EAF
:100EE000DBCFE6FFC2EC0EF0E552E552020EDB2A44
:100EF00098D70B0EDBCF00F00C0EDBCF01F00D0E00
:100F0000DBCF02F0070E0116026A0F0E00C0DBFFF6
:100F1000100E01C0DBFFD9500F0FE96EDACFEAFFE8
:100F2000000ED880EE54000EED5446E20F0EDBCFDB
:100F300000F0100EDBCF01F00006000E015AD89031
:100F4000003601360F0E00C0DBFF100E01C0DBFFC4
:100F5000F60EE66E010EE66E020EE66EE66A0F0E05
:100F6000DBCFE6FF100EDBCFE6FF040EE66EE66A8F
:100F700042EC0CF0F56E080EE15EF5500101E4055F
:100F8000070DF350DF6E040EF6C1DBFFDBCFE6FF8B
:100F9000120EDF24E66EC2EC0EF0E552E552040EAE
:100FA000F7C1DBFFDBCFE6FF120EDF24010FE66E99
:100FB000C2EC0EF0E552E5523AD00101E405070D0E
:100FC000F350EA6A040FE96E010EEA22EFCFF4F162
:100FD000E405070DF328EA6A040FE96E010EEA2220
:100FE000EFCFF5F1F4C1F8F1F5C1F9F10A0EE66EB3
:100FF000E66A1CEC00F0E552E552F8C1E6FFF9C1E3
:10100000E6FFE1EC0DF0E552E552DF6E0A0EE66E0A
:10101000E66A1CEC00F0E552E5520101E407E4C188
:10102000E6FFF00EE66EC2EC0EF0E552E55201016D
:10103000010EEA6FE66EF60EE66EC2EC0EF0E552B9
:10104000E552F56E130EE15C02E2E16AE552E16EF3
:10105000F550E552E7CFD9FF1200D9CFE6FFE1CF37
:10106000D9FF070EE126030EDE6EDD6ADECF00F04B
:10107000DDCF01F0090E005C000E015813E26EECAA
:1010800000F0E66EDECFE9FFDDCFEAFF000EE926D5
:10109000020EEA22E552E750EF6EDF2A010E01E36D
:1010A000DB2AE4D7050E04C2DBFF060E05C2DBFF18
:1010B00006C2F4F107C2F5F10FEC04F0020EDB6A90
:1010C000040EF36E030EF3CFDBFF0101ED510008B8
:1010D00007E2020EDB6A080EF36E030EF3CFDBFFAE
:1010E000020EDBCF00F0030EDBCF01F00101005058
:1010F000F45D0150F55901E39ED0D950050FE96E1A
:10110000DACFEAFF000ED880EE54000EED5401E372
:1011100092D0F4C100F0F5C101F0030ED890013275
:101120000032E804FBE1040E00C0DBFF090EE66EAE
:10113000020EE66E010EE66EE66A040EDBCFE6FFF7
:10114000E66A000EE66EE66A9DDBF56E080EE15E6D
:10115000F55002010951DE6EDD6A070E0101F4153A
:10116000006E016AD9CFE9FFDACFEAFF00500F0B1A
:1011700006E0EC52D890ED32EF32E806FAE1010ECB
:10118000DE16DD6AD9CFE9FFDACFEAFFEE50ED10C7
:101190004DE1DE6ADD6ADECF00F0DDCF01F0400E0A
:1011A000005C000E015842E2D950050FE96EDACF1B
:1011B000EAFF000ED880EE54000EED5437E2DECF89
:1011C000F8F1DDCFF9F1060E0101D890F837F937C3
:1011D000E806FBE1090EE66E020EE66E400EE66ED4
:1011E000E66AF8C1E6FFF9C1E6FFF4C1E6FFF5C122
:1011F000E6FF48DBF56E080EE15EF550400EE66E48
:1012000048EC01F0E552050EDB06060E01E2DB06B6
:10121000D950050FE96EDACFEAFFEE50ED1001E18B
:1012200005D0DF2A010E01E3DB2AB5D70101F42B3B
:10123000000EF52355D7F56E070EE15C02E2E16A78
:10124000E552E16EF550E552E7CFD9FF1200D9CF54
:10125000E6FFE1CFD9FF0E0EE126060EDB6A040E93
:10126000F36E070EF3CFDBFF0101ED0507E1060E7C
:10127000DB6A080EF36E070EF3CFDBFF0A0E04C223
:10128000DBFF0B0E05C2DBFF0C0E06C2DBFF0D0EF3
:1012900007C2DBFF010EDB6A080EDB6A090EDB6AA0
:1012A000D9500A0FE96EDACFEAFFEE50ED1001E0F7
:1012B000BFD0D9500C0FE96EDACFEAFFFF0EEE185F
:1012C00002E1FF0EED1801E0B3D0000EE66EE66A13
:1012D000E1EC0DF0E552E5520201036F050EF36EED
:1012E000040EF3CFDBFF050EDB6A040EDBCF00F04C
:1012F000050EDBCF01F0060EDBCF02F0070EDBCFD1
:1013000003F00250005C0350015858E2040EDBCF9A
:10131000E6FF050EDBCFE6FFE1EC0DF0E552E5520E
:10132000DF6E010EDBCFF3FFF390F342F3CFDBFF71
:10133000DF5007E0010EDB8E080EDB2A090E01E309
:10134000DB2A070EE76E040EDBCF00F0050EDBCFC5
:1013500001F0E7500016016A070E001801E1015084
:1013600027E1040EDBCF00F0050EDBCF01F0030E0A
:10137000D89001320032E804FBE1030E00C0DBFF2D
:10138000010EDBCF09F2090EE66E020EE66E010ECB
:10139000E66EE66A030EDBCFE6FFE66A000EE66E57
:1013A000E66A5ADBF56E080EE15EF550010EDB6A67
:1013B000040EDB2A050E01E3DB2A97D7080EDBCFEC
:1013C0004EF0090EDBCF4FF00C0E4EC0DBFF0D0EC2
:1013D0004FC0DBFF060EDBCF00F0070EDBCF01F0C6
:1013E000030ED89001320032E804FBE1040E00C085
:1013F000DBFF050E01C0DBFF0C0EDBCF09F20D0E8B
:10140000DBCF0AF2090EE66E020EE66E020EE66E03
:10141000E66A040EDBCFE6FF050EDBCFE6FF000E2B
:10142000E66EE66A19DBF56E080EE15EF55050D007
:10143000E851E824DF6EDFCFE6FFAFEC0EF0E552B7
:10144000E76E0C0EE7CFDBFFDF2ADFCFE6FFAFEC66
:101450000EF0E552E76E0D0EE7CFDBFF010EE76EF3
:101460000C0EDBCF00F00D0EDBCF01F0E7500026B5
:10147000000E0122060E00C0DBFF070E01C0DBFFDD
:10148000050EF36E040EF3CFDBFF050EDB6A040ED0
:10149000DBCF00F0050EDBCF01F0060EDBCF02F054
:1014A000070EDBCF03F00250005C0350015810E23E
:1014B000040EDBCFE6FF050EDBCFE6FF82DBE55255
:1014C000E552DF6E040EDB2A050E01E3DB2ADFD7CF
:1014D0000A0EE66EE66A1CEC00F0E552E552DF6AA1
:1014E000DF50006E016AD890015004E6F60E005CF1
:1014F000000E015809E2E66ADFCFE6FFC2EC0EF00B
:10150000E552E552DF2AECD7010EE66EF60EE66EE6
:10151000C2EC0EF0E552E552F56E0E0EE15C02E211
:10152000E16AE552E16EF550E552E7CFD9FF1200CE
:10153000D9CFE6FFE1CFD9FF020EE126030EDF6E21
:10154000090EDF5C0EE26EEC00F0E66EDF50EA6A38
:10155000000FE96E020EEA22E552E750EF6EDF2A35
:10156000EFD702010351400D010EF3CFDBFFDF6A1D
:10157000400EDF5C13E2010EDB50DF24E66EEFDB92
:10158000E552E66E090EDF24EA6A000FE96E020EEC
:10159000EA22E552E750EF6EDF2AEAD7400EE66E08
:1015A00048EC01F0E552F56E020EE15C02E2E16A00
:1015B000E552E16EF550E552E7CFD9FF1200D9CFE1
:1015C000E6FFE1CFD9FF030EE126DF6E4A0EDF5CB6
:1015D0000EE26EEC00F0E66EDF50EA6A000FE96E94
:1015E000020EEA22E552E750EF6EDF2AEFD7020142
:1015F0000351E66ED950010FE96EDACFEAFFE552EA
:10160000E750EE6EED6AD950010FE96EDACFEAFFCE
:10161000060ED890EE36ED36E806FBE1DF6A400EA6
:10162000DF5C1CE2090EDF24EA6A000FE96E020E9D
:10163000EA22EF50E66EDF50E76E010EDBCF00F0DE
:10164000020EDBCF01F0E7500026000E0122005011
:10165000E66E98DBE552E552DF2AE1D7080EE66E2A
:1016600080EC00F0E552F56E030EE15C02E2E16A07
:10167000E552E16EF550E552E7CFD9FF1200D9CF20
:10168000E6FFE1CFD9FF020EE126DF6A080EDF5C3C
:1016900010E28198FE0EDBAE02D0818601D08196E9
:1016A0008188DBCFF3FFF39EF346F3CFDBFFDF2A26
:1016B000EDD7F56E020EE15C02E2E16AE552E16E01
:1016C000F550E552E7CFD9FF1200D9CFE6FFE1CFC1
:1016D000D9FF030EE126010EDB6ADF6A080EDF5C2C
:1016E0000DE28198010EDBCFF3FFF39EF346F3CFBB
:1016F000DBFF81B2DB2A8188DF2AF0D7010EDB50C5
:10170000F56E030EE15C03E200D0E16AE552E16EA2
:10171000F550E552E7CFD9FF1200D9CFE6FFE1CF70
:10172000D9FFFD0EDBCF00F0FE0EDBCF01F0000E87
:10173000005C040E015804E281940000000003D014
:10174000839E00000000060EE66E99DFE552000061
:101750000000818400000000838EE552E7CFD9FFAE
:101760001200D9CFE6FFE1CFD9FFE652DF6AFD0EC6
:10177000DBCF00F0FE0EDBCF01F0000E005C040EAC
:10178000015804E281940000000003D0839E000011
:101790000000050EE66E73DFE55297DFDF6E000096
:1017A0000000818400000000838EDF5000D0E552ED
:1017B000E552E7CFD9FF1200D9CFE6FFE1CFD9FF3D
:1017C000E652FD0EDBCFE6FFFE0EDBCFE6FFC9DF04
:1017D000E552E552DF6EDFAE28D0FD0EDBCFE6FF2F
:1017E000FE0EDBCFE6FF99DFE552E552FD0EDBCFC3
:1017F00000F0FE0EDBCF01F0000E005C040E01587D
:1018000004E281940000000003D0839E00000000E9
:10181000010EE66E34DFE552E66A31DFE552000084
:101820000000818400000000838EFD0EDBCFE6FF08
:10183000FE0EDBCFE6FF71DFE552E552FD0EDBCF9A
:1018400000F0FE0EDBCF01F0000E005C040E01582C
:1018500004E281940000000003D0839E0000000099
:10186000010EE66E0CDFE552E66A09DFE552000084
:101870000000818400000000838EE552E552E7CF2E
:10188000D9FF1200D9CFE6FFE1CFD9FF030EE12641
:10189000AB98FD0EDBCF00F0FE0EDBCF01F0000EAB
:1018A000005C040E015813E2819400000000FD0E5C
:1018B000DBCF00F0FE0EDBCF01F0026A00C0DFFFDD
:1018C000010E01C0DBFF020E02C0DBFF16D0839EBB
:1018D00000000000FD0EDBCF00F0FE0EDBCF01F0BC
:1018E000000E005E040E015A026A00C0DFFF010E06
:1018F00001C0DBFF020E02C0DBFFD9CFE9FFDACF68
:10190000EAFF0C0EE76ED890EF36010EEB36020EB2
:10191000EB36E706F8E1FB0EDBCF00F0FC0EDBCF89
:1019200001F0026AD9CFE9FFDACFEAFF0050EE26D4
:101930000150EE220250EE22030EE66EA0DEE552CA
:10194000020EDBCFE6FF9BDEE552010EDBCFE6FFAA
:1019500096DEE552DFCFE6FF92DEE552F90EDBCFF1
:1019600000F0DB06FA0EDBCF01F001E2DB060050EF
:10197000011011E0AADEE66EF70EDBCFE9FFF80EEC
:10198000DBCFEAFFE552E750EF6EF70EDB2AF80EE9
:1019900001E3DB2AE3D7000000008184000000009F
:1019A000838EAB98AB88F56E030EE15C02E2E16AD0
:1019B000E552E16EF550E552E7CFD9FF1200D9CFDD
:1019C000E6FFE1CFD9FFE652040EDF6EFD0EDBCF5E
:1019D00000F0FE0EDBCF01F0000E005C040E01589B
:1019E00004E281940000000013D0839E00000000F8
:1019F000FD0EDBCF00F0FE0EDBCF01F0000E005E2F
:101A0000040E015AFD0E00C0DBFFFE0E01C0DBFF1D
:101A10009F0EE66E34DEE552DF50DF06000911E06E
:101A200054DEE66EFB0EDBCFE9FFFC0EDBCFEAFFF8
:101A3000E552E750EF6EFB0EDB2AFC0E01E3DB2ADA
:101A4000EBD700000000818400000000838EE55287
:101A5000E552E7CFD9FF1200D9CFE6FFE1CFD9FF9A
:101A6000040EE126FD0EDBCFE6FFFE0EDBCFE6FF28
:101A700054DEE552E552FD0EDBCF00F0FE0EDBCF6B
:101A800001F0000E005C040E015814E28194000085
:101A90000000FD0EDBCF00F0FE0EDBCF01F0026A8E
:101AA000010E00C0DBFF020E01C0DBFF030E02C00F
:101AB000DBFF17D0839E00000000FD0EDBCF00F09F
:101AC000FE0EDBCF01F0000E005E040E015A026A2A
:101AD000010E00C0DBFF020E01C0DBFF030E02C0DF
:101AE000DBFFD950010FE96EDACFEAFF0C0EE76E8B
:101AF000D890EF36010EEB36020EEB36E706F8E132
:101B0000FB0EDBCF00F0FC0EDBCF01F0026AD950F8
:101B1000010FE96EDACFEAFF0050EE260150EE2207
:101B20000250EE22020EE66EAADDE552030EDBCF76
:101B3000E6FFA5DDE552020EDBCFE6FFA0DDE552B4
:101B4000010EDBCFE6FF9BDDE552F90EDBCF00F0A7
:101B5000DB06FA0EDBCF01F001E2DB0600500110DC
:101B600017E0F70EDBCFE9FFF80EDBCFEAFFEF500F
:101B7000E66E85DDE5520C0EDF6EDF50000802E2F6
:101B8000DF06FBD7F70EDB2AF80E01E3DB2ADDD7F1
:101B900000000000818400000000838E240EDF6EB0
:101BA000DF50000802E2DF06FBD7F56E040EE15CB1
:101BB00002E2E16AE552E16EF550E552E7CFD9FF66
:101BC0001200D9CFE6FFE1CFD9FF050EE126DF6A8B
:101BD0000A0EE66EE66A1CEC00F0E552E552FD0ED8
:101BE000DBCF4EF0FE0EDBCF4FF0030E4EC0DBFF1F
:101BF000040E4FC0DBFFFD0EDBCFE6FFFE0EDBCF9A
:101C0000E6FF8BDDE552E552FD0EDBCF00F0FE0E68
:101C1000DBCF01F0000E005C040E015818E2819445
:101C200000000000030EDBCF00F0040EDBCF01F05C
:101C30000001016A0F0E00160038006AF00B016EF9
:101C4000010E00C0DBFF020E01C0DBFF27D0839E28
:101C500000000000FD0EDBCF00F0FE0EDBCF01F038
:101C6000000E005E040E015A030E00C0DBFF040EDE
:101C700001C0DBFF030EDBCF00F0040EDBCF01F071
:101C80000001016A0F0E00160038006AF00B016EA9
:101C9000010E00C0DBFF020E01C0DBFF200EE66E6E
:101CA000EEDCE552030EDBCF00F0040EDBCF01F0DB
:101CB000040ED89001320032E804FBE10050E66ED9
:101CC000DEDCE552010EDBCF00F0020EDBCF01F0CF
:101CD00001C000F0016A0050E66ED1DCE552010E51
:101CE000DBCFE6FFCCDCE552000000008184000081
:101CF0000000838E0A0EE66EE66A1CEC00F0E552E8
:101D0000E552FD0EDBCFE6FFFE0EDBCFE6FF29DD61
:101D1000E552E552DF6E000EDB92DB94DB96DB983A
:101D2000DB9ADB9CDB9EDF50ECE1FD0EDBCFE6FFB8
:101D3000FE0EDBCFE6FF15DDE552E552DF6E200E2D
:101D4000DF16DF5000D0F56E050EE15C02E2E16ABD
:101D5000E552E16EF550E552E7CFD9FF1200D9CF39
:101D6000E6FFE1CFD9FFE652FE0EDB50A96E010E71
:101D7000A66EA850DF6EDF5000D0E552E552E7CFE7
:101D8000D9FF1200D9CFE6FFE1CFD9FFFD0EDBCF9F
:101D9000E6FFFE0EDBCFE6FF11D8E552E552A6A620
:101DA00009D0FD0EDBCFE6FFFE0EDBCFE6FF06D847
:101DB000E552E552E552E7CFD9FF1200D9CFE6FF51
:101DC000E1CFD9FFFE0EDB50A96EFD0EDB50A86EF1
:101DD000040EA66E550EA76EAA0EA76EA682A6B218
:101DE000FED7A694E552E7CFD9FF1200D9CFE6FF80
:101DF000E1CFD9FF040EE126020EDB6ADF6A080E8E
:101E0000DF5C20E28398030EF36EF3CFDBFFDB5041
:101E1000000803E2030EDB06FAD78388030EF36E95
:101E2000F3CFDBFFDB50000803E2030EDB06FAD73B
:101E3000020EDB50020D020EF3CFDBFF83BCDB8012
:101E4000DF2ADDD7020EDB50F56E040EE15C03E203
:101E500000D0E16AE552E16EF550E552E7CFD9FFD7
:101E60001200D9CFE6FFE1CFD9FF020EE126DF6AEB
:101E7000080EDF5C27E2FE0EDB50DF5206E0DFCF0C
:101E8000F3FFE846FE0BF306FCE1800B02E0838AD9
:101E900001D0839A8398DE52030EDD6E010EDB5073
:101EA000000803E2010EDB06F9D78388DE52030E39
:101EB000DD6E010EDB50000803E2010EDB06F9D7F0
:101EC000DF2AD6D7F56E020EE15C02E2E16AE55246
:101ED000E16EF550E552E7CFD9FF1200839600007E
:101EE0000000000000000000E668BBDFE552E66885
:101EF000B8DFE552E668B5DFE552E668B2DFE552E5
:101F0000E668AFDFE552E668ACDFE55200000000AE
:101F100000000000000083860A0EE66EE66A1CECF4
:101F200000F0E552E5521200839600000000000028
:101F3000000000000000000000000000080EE66E37
:101F400090DFE552E66A8DDFE552010EE66E89DF2D
:101F5000E552100EE66E85DFE5524BC2E6FF81DFEB
:101F6000E552100EE66E7DDFE552070EE66EE66A7C
:101F70001CEC00F0E552E552D3A807D0070EE66E40
:101F8000E66A1CEC00F0E552E552580EE66E69DF99
:101F9000E5522CDF0101026F29DF0101016F26DF0D
:101FA0000101006F000000000000000000000000C0
:101FB00000008386120083960000000000000000ED
:101FC00000000000000000000000100EE66E49DF77
:101FD000E552100EE66E45DFE552010EE66E41DF7A
:101FE000E552080EE66E3DDFE552E66A3ADFE5525D
:101FF000010EE66E36DFE552070EE66EE66A1CEC71
:1020000000F0E552E552D3A807D0070EE66EE66A67
:102010001CEC00F0E552E552580EE66E22DFE55268
:10202000E5DE0101026FE2DE0101016FDFDE010189
:10203000006F000000000000000000000000000031
:1020400083861200080EE66E0CDFE552E66A09DFB1
:10205000E5520A0EE66E05DFE552100EE66E01DF70
:10206000E5524BC2E6FFFDDEE552110EE66EF9DEEB
:10207000E552820EE66EE66A1CEC00F0E552E5528F
:10208000D3A807D0820EE66EE66A1CEC00F0E5529B
:10209000E552580EE66EE5DEE5520101006B016B7C
:1020A000026B036BA3DE0101026FA0DE0101016F71
:1020B0009DDE0101006F010E1F0B08E00101D890A9
:1020C0000037013702370337E806F9E10101036BF6
:1020D000080E1F0B08E00101D890033302330133CF
:1020E0000033E806F9E10101EE5101010027010189
:1020F000EF5101010123000E022303231200080EF9
:10210000E66EAFDEE552E66AACDEE5520A0EE66E3A
:10211000A8DEE552100EE66EA4DEE5524BC2E6FFE5
:10212000A0DEE552110EE66E9CDEE552820EE66EF2
:10213000E66A1CEC00F0E552E552D3A807D0820E07
:10214000E66EE66A1CEC00F0E552E552580EE66ECB
:1021500088DEE5520101006B016B026B036B46DE0A
:102160000101026F43DE0101016F40DE0101006FDA
:10217000010E1F0B08E00101D8900037013702372C
:102180000337E806F9E10101036B080E1F0B08E0B5
:102190000101D8900333023301330033E806F9E13B
:1021A0000101EE51010100270101EF51010101235D
:1021B000000E022303231200080EE66E52DEE552E3
:1021C000E66A4FDEE552070EE66E4BDEE552100E74
:1021D000E66E47DEE552100EE66E43DEE552020E75
:1021E000E66E3FDEE552460EE66EE66A1CEC00F057
:1021F000E552E552D3A807D0460EE66EE66A1CEC1F
:1022000000F0E552E552580EE66E2BDEE552010174
:10221000006B016B026B036BE9DD0101026FE6DD10
:102220000101016FE3DD0101006F1200100EE66E87
:1022300018DEE552100EE66E14DEE552E66A11DE97
:10224000E552080EE66E0DDEE552E66A0ADEE5525C
:10225000070EE66E06DEE552460EE66EE66A1CECFA
:1022600000F0E552E552D3A807D0460EE66EE66AC6
:102270001CEC00F0E552E552580EE66EF2DDE55238
:102280000101006B016B026B036BB0DD0101026F9A
:10229000ADDD0101016FAADD0101006F1200100E1A
:1022A000E66EDFDDE5524BC2E6FFDBDDE552100EE8
:1022B000E66ED7DDE552080EE66ED3DDE552E66A3E
:1022C000D0DDE5520E0EE66ECCDDE5524F0EE66E29
:1022D000010EE66E1CEC00F0E552E552D3A808D0E2
:1022E0004F0EE66E010EE66E1CEC00F0E552E55274
:1022F000580EE66EB6DDE5520101006B016B026B14
:10230000036B74DD0101026F71DD0101016F6EDD90
:102310000101006F010E1F0B08E00101D89000378A
:10232000013702370337E806F9E10101036B040EB8
:102330001F0B08E00101D89003330233013300334F
:10234000E806F9E10101EE51010100270101EF5119
:1023500001010123000E02230323040E1F0B08E0DA
:102360000101D8900037013702370337E806F9E159
:102370000101036B040E1F0B08E00101D890033329
:10238000023301330033E806F9E11200100EE66E65
:1023900068DDE552100EE66E64DDE552010EE66E74
:1023A00060DDE552080EE66E5CDDE552E66A59DD59
:1023B000E5520A0EE66E55DDE552820EE66EE66ADD
:1023C0001CEC00F0E552E552D3A807D0820EE66E71
:1023D000E66A1CEC00F0E552E552580EE66E41DD6F
:1023E000E5520101006B016B026B036BFFDC010125
:1023F000026FFCDC0101016FF9DC0101006F036B6E
:10240000050E1F0B08E00101D8900333023301339E
:102410000033E806F9E11200839600000000000096
:1024200000000000C9DE01C102F202C103F2050E84
:10243000E66EE66A1CEC00F0E552E552D3A807D040
:10244000050EE66EE66A1CEC00F0E552E552FADD98
:1024500000C100F201C101F2000000000000000014
:102460000000838612008396000000000000000038
:102470000000DCDE01C104F202C105F2050EE66EC9
:10248000E66A1CEC00F0E552E552D3A807D0050E31
:10249000E66EE66A1CEC00F0E552E55230DE01C162
:1024A00002F202C103F2050EE66EE66A1CEC00F0D1
:1024B000E552E552D3A807D0050EE66EE66A1CEC9D
:1024C00000F0E552E552BEDD00C100F201C101F2AB
:1024D00000000000000000000000838612008396C8
:1024E00000000000000000000000A0DE01C104F2B6
:1024F00002C105F2050EE66EE66A1CEC00F0E5523C
:10250000E552D3A807D0050EE66EE66A1CEC00F093
:10251000E552E55251DE01C102F202C103F2050E9D
:10252000E66EE66A1CEC00F0E552E552D3A807D04F
:10253000050EE66EE66A1CEC00F0E552E55282DD1F
:1025400000C100F201C101F2000000000000000023
:102550000000838612008396000000000000000047
:10256000000014DF00C103F201C104F202C105F250
:10257000050EE66EE66A1CEC00F0E552E552D3A8C3
:1025800007D0050EE66EE66A1CEC00F0E552E55257
:1025900086DE00C100F201C101F202C102F20000B8
:1025A000000000000000000083861200D9CFE6FF83
:1025B000E1CFD9FF0D0EE126060EDB6A070EDB6ABE
:1025C000640EE66EE66A1CEC00F0E552E552040E7D
:1025D000DB6AF36E050EF3CFDBFF0B0EF6C1DBFFFC
:1025E0000C0EF7C1DBFF0101ED51000807E2040EFC
:1025F000DB6A080EF36E050EF3CFDBFF030EDB6A1A
:102600006DDCD0EC03F090DC0101EC51060A20E017
:10261000040A17E0030A0EE0010A06E0020EF36E58
:10262000F3CFDBFFF9DE1BD0020EF36EF3CFDBFF3F
:10263000F3DE15D0030EF36E020EF3CFDBFF13DFD4
:102640000ED0030EF36E020EF3CFDBFF48DF07D090
:10265000030EF36E020EF3CFDBFF7DDF00D0040E1E
:10266000E66EE66AB1EC0BF0E552E552DF6E0C0E59
:10267000DF140EE0040EE66EE66ADCEC0BF0E552C9
:10268000E552020EE66EE66A1CEC00F0E552E552F9
:10269000040EE66EE66AB1EC0BF0E552E552DF6E31
:1026A0000C0EDF140EE0040EE66EE66ADCEC0BF0B6
:1026B000E552E552020EE66EE66A1CEC00F0E552C9
:1026C000E552F60EE66E010EE66E020EE66EE66A64
:1026D000FAC1E6FFFBC1E6FF040EE66EE66A2CECEB
:1026E0000DF0F56E080EE15EF550120EE66EE66A2C
:1026F0001CEC00F0E552E552D950090FE66E000ED1
:10270000DA20E66E020EE66EE66AFAC1E6FFFBC16B
:10271000E6FF040EE66EE66A42EC0CF0F56E080E7B
:10272000E15EF550F6C100F0F7C101F0090EDB5093
:10273000001803E10A0EDB5001181BE0F60EE66EEE
:10274000010EE66E020EE66EE66AFAC1E6FFFBC116
:10275000E6FF040EE66EE66A2CEC0DF0F56E080E50
:10276000E15EF550120EE66EE66A1CEC00F0E552F2
:10277000E552020E0101FA27000EFB23FF0EFA15A7
:10278000006E0F0EFB15016E060E00C0DBFF070E7C
:1027900001C0DBFFD950060FE96EDACFEAFFEE5039
:1027A000ED1021E1070E0101E403F350120FDF6E7B
:1027B000F6C1E6FFDFCFE6FFC2EC0EF0E552E552D0
:1027C000DF2AF7C1E6FFDFCFE6FFC2EC0EF0E552ED
:1027D000E552040EE66EE66AE1EC0DF0E552E552D4
:1027E0000101FA6BFB6B010EDB6A020EDB50F36E2C
:1027F000010EDBCFF4FFF350F45C01E343D1FF0E95
:102800000101F815006E0F0EF915016E060E00C0DD
:10281000DBFF070E01C0DBFFD950060FE96EDACFF0
:10282000EAFFEE50ED106DE10101F42B000EF523EF
:10283000F4C100F0F5C101F0040EDB50001803E113
:10284000050EDB50011801E129D9F4C100F0F5C1F2
:1028500001F0030ED89001320032E804FBE1080ECB
:1028600000C0DBFF090EE66E020EE66E010EE66E9C
:10287000E66A080EDBCFE6FFE66A000EE66EE66A61
:1028800042EC0CF0F56E080EE15EF55009C2DFFF78
:10289000070E0101F415070B04E0DF42DF9EE80696
:1028A000FCE1000EDF92DF94DF96DF98DF9ADF9C79
:1028B000DF9EDF50B9E10101F86BF96B0101E851CE
:1028C000060802E2E86B01D0E82BE851E824DF6E4D
:1028D000F4C1E6FFDFCFE6FFC2EC0EF0E552E552B1
:1028E000DF2AF5C1E6FFDFCFE6FFC2EC0EF0E552CE
:1028F000E552E8C1E6FFF40EE66EC2EC0EF0E552DA
:10290000E552030EDB5041E10101000EF45D040EBF
:10291000F5593BE3F4C1E6FFF5C1E6FFB1EC0BF07E
:10292000E552E552DF6E0C0EDF1408E0F4C1E6FF5D
:10293000F5C1E6FFDCEC0BF0E552E552020EE66E67
:10294000E66A1CEC00F0E552E552F4C1E6FFF5C181
:10295000E6FFB1EC0BF0E552E552DF6E0C0EDF1432
:1029600008E0F4C1E6FFF5C1E6FFDCEC0BF0E55250
:10297000E552010EF36E030EF3CFDBFF020EE66E9F
:10298000E66A1CEC00F0E552E552010EDBCFE6FFF3
:10299000DB50E552E724EA6A000FE96E020EEA22F4
:1029A000EFCFF6F1010EDBCFE6FFDB28E552E7249F
:1029B000EA6A000FE96E020EEA22EFCFF7F1F60E97
:1029C000E66E010EE66E020EE66EE66AF8C1E6FFFE
:1029D000F9C1E6FFF4C1E6FFF5C1E6FF2CEC0DF00E
:1029E000F56E080EE15EF550120EE66EE66A1CEC1E
:1029F00000F0E552E552D950090FE66E000EDA20DC
:102A0000E66E020EE66EE66AF8C1E6FFF9C1E6FF81
:102A1000F4C1E6FFF5C1E6FF42EC0CF0F56E080EDE
:102A2000E15EF550F6C100F0F7C101F0090EDB5090
:102A3000001803E10A0EDB5001181CE0F60EE66EEA
:102A4000010EE66E020EE66EE66AF8C1E6FFF9C117
:102A5000E6FFF4C1E6FFF5C1E6FF2CEC0DF0F56EE4
:102A6000080EE15EF550120EE66EE66A1CEC00F010
:102A7000E552E552020E0101F827000EF923010E7E
:102A8000DB2AB3D6F56E0D0EE15C02E2E16AE55297
:102A9000E16EF550E552E7CFD9FF1200F26A700EF1
:102AA000CD6E03001200430ED56E1200B16A0B0EFC
:102AB000B36EDC0EB26E380EB16EA1921200B16A26
:102AC0000B0EB36EDC0EB26E380EB16EA192A08208
:102AD000B1801200B16AA192A09212003A0EC16EAA
:102AE000C26A210EC06EC280040EE66EE66A1CEC5D
:102AF00000F0E552E552D3A807D0040EE66EE66A70
:102B00001CEC00F0E552E552C2820000000000001B
:102B1000C2B2FED7C3CFF6F1C4CFF7F11200080E50
:102B2000E66E31EC0FF0E552E66A31EC0FF0E5525B
:102B30000A0EE66E31EC0FF0E552100EE66E31EC47
:102B40000FF0E5524BC2E6FF31EC0FF0E552100EEC
:102B5000E66E31EC0FF0E5521200580EE66E31ECE5
:102B60000FF0E5520101006B016B026B036BF6EC99
:102B70000EF00101026FF6EC0EF00101016FF6ECB0
:102B80000EF00101006F010E1F0B08E00101D8904B
:102B90000037013702370337E806F9E10101036B1B
:102BA000080E1F0B08E00101D890033302330133F4
:102BB0000033E806F9E10101EE51010100270101AE
:102BC000EF5101010123000E0223032300C14DF246
:102BD00001C14CF21200080EE66E31EC0FF0E55226
:102BE000E66A31EC0FF0E552070EE66E31EC0FF0BD
:102BF000E552100EE66E31EC0FF0E552100EE66E67
:102C000031EC0FF0E552010EE66E31EC0FF0E552BB
:102C10001200580EE66E31EC0FF0E5520101006B28
:102C2000016B026B036BF6EC0EF00101026FF6EC28
:102C30000EF00101016FF6EC0EF00101006F01C111
:102C40004DF202C14CF212003A0EC16EC26AA10EE0
:102C5000C06EC280040EE66EE66A1CEC00F0E5521F
:102C6000E552D3A807D0040EE66EE66A1CEC00F02D
:102C7000E552E552C282000000000000C2B2FED759
:102C8000C3CFF6F1C4CFF7F1F6C14DF2F7C14CF264
:102C900012003A0EC16EC26A210EC06EC2800A0EC8
:102CA000E66E4FEC00F0E552C2821200C2B2FED7CF
:0E2CB000C3CFF6F1C4CFF7F1F7C14DF2120019
:022CBE00DACF6B
:102CC000E4FFE2CFDAFFE652D9CFE6FFE1CFD9FF4A
:102CD000050EE126F29EA050020B10E0A150020B5F
:102CE0000DE00B0EB36EDC0EB26EA19202014E2B04
:102CF000040E4E5D01E34E6B010E4F6FF2B2F29285
:102D00009E50010B5C6E9D50010B5C1410E0F26A4A
:102D10000101B70EFD6FFD51000802E2FD07FBD770
:102D20009E90CD900201010E4A6FC00EF26E9D5032
:102D3000200B08E09E50200B05E0AECF51F20201BF
:102D4000010E506FABA202D0AB98AB88F28EF56E3D
:102D5000050EE15C02E2E16AE552E16EF550E552F2
:102D6000E7CFD9FFE552E5CFDAFF1100D9CFE6FF73
:102D7000E1CFD9FFE652000EE66EE66ADCEC0BF01E
:102D8000E552E552000EE66EE66AB1EC0BF0E55254
:102D9000E552DF6E0C0EDF140EE0000EE66EE66A02
:102DA000DCEC0BF0E552E5520A0EE66EE66A1CEC2E
:102DB00000F0E552E5520101ED0523E1010EE66E5A
:102DC000040EE66EDCEC0BF0E552E552010EE66E09
:102DD000040EE66EB1EC0BF0E552E552DF6E0C0E20
:102DE000DF140FE0010EE66E040EE66EDCEC0BF075
:102DF000E552E5520A0EE66EE66A1CEC00F0E5527A
:102E0000E552E552E552E7CFD9FF1200F28CF18C82
:102E1000F292F2889E9A9D8AA0821200948E948CDF
:102E2000949CB06A670EAF6E080EB86E240EAC6E3E
:102E3000100EAB6EAB8E1200D9CFE6FFE1CFD9FFFB
:102E4000E6521E0EE66EE66A1CEC00F0E552E55214
:102E5000720ED36ED3A4FED70A0EE66EE66A1CECA1
:102E600000F0E552E5522AD8F29ED8DF7FDF56EC1B
:102E700015F01E0EE66EE66A1CEC00F0E552E55217
:102E80000FEC04F06EEC0FF0C1DF11D0D00EE66E47
:102E9000070EE66E1CEC00F0E552E5528186640EEA
:102EA000E66EE66A4BDAE552E5528196EED74AD9EC
:102EB000FFD7E552E552E7CFD9FF1200F26A896ADF
:102EC00092683A0EC16E070EB46E8A6AE30E936E74
:102ED000040E816E8B6ABF0E946E826A8C6A470EF6
:102EE000956E880E836E8D6AFB0E966E6D96C69AF1
:102EF000C2901200F70EE66EAFEC0EF0E552010143
:102F0000EB6F080EEB6FEB51800A28E0C00A22E05D
:102F1000600A1CE0300A16E0180A10E00C0A0AE009
:102F2000060A04E00201040E4B6F1CD00201010EE0
:102F30004B6F18D00201020E4B6F14D00201030E2A
:102F40004B6F10D00201040E4B6F0CD00201050E26
:102F50004B6F08D00201060E4B6F04D00201070E22
:102F60004B6F00D0F80EE66EAFEC0EF0E5520101AB
:102F7000EC6FFE0EE66EAFEC0EF0E5520101F26F63
:102F8000FA0EE66EAFEC0EF0E5520101EE6FFB0EAD
:102F9000E66EAFEC0EF0E5520101EF6FEC6B040E44
:102FA000F26F880EEE6F130EEF6F1200D9CFE6FFAF
:102FB000E1CFD9FFE652948E948C949CB06A100EA7
:102FC000AF6E080EB86E240EAC6E100EAB6E720EA5
:102FD000D36E3C0EE66EE66A1CEC00F0E552E5525C
:102FE000100EE66EAFEC0EF0E552DF6EAB8EC00E4B
:102FF000F26E0101010EFC6F9D8AFC5101E0FDD7CC
:103000006EEC00F00201006FAA0E005D01E094D0AA
:103010006EEC00F00201016F6EEC00F00201026F35
:103020000251900A01E186D0580A01E180D0450A98
:1030300065E0010A48E0060A43E0030A3DE0010AB0
:1030400033E00F0A29E0010A1FE0030A15E0010A34
:103050000BE0070A01E070D0010EE66EE66A64EC50
:1030600001F0E552E55268D0010EE66EE66A25EC05
:1030700002F0E552E55260D0020EE66EE66A64ECBC
:1030800001F0E552E55258D0020EE66EE66AA1EC78
:1030900002F0E552E55250D0030EE66EE66A64ECAB
:1030A00001F0E552E55248D0030EE66EE66AA1EC67
:1030B00002F0E552E55240D01DDF37EC03F03CD082
:1030C0002DEC08F039D0030EDF6E090EDF5C0EE246
:1030D0006EEC00F0E66EDF50EA6A000FE96E020E59
:1030E000EA22E552E750EF6EDF2AEFD727EC09F02E
:1030F000080EE66E80EC00F0E5521ED0030EDF6E87
:10310000090EDF5C0EE26EEC00F0E66EDF50EA6A5C
:10311000000FE96E020EEA22E552E750EF6EDF2A59
:10312000EFD7080EE66E80EC00F0E55205D098EC83
:103130000AF002D041D900D05CD7E552E552E7CF82
:10314000D9FF1200D9CFE6FFE1CFD9FF1F0EE1264C
:103150008186640EE66EE66AF1D8E552E552819604
:10316000A2D9C8DE94EC0FF06EEC0FF090D89BD98A
:10317000A2D8AECF51F2AECF51F2AECF51F2F28E15
:1031800086D899D80201505120E0F29E506B5151DF
:103190004F0A0CE0800A08E0100A01E009D0100E86
:1031A000E66E64D8E55204D01FD802D03ED800D0D5
:1031B000AECF51F2AECF51F2AECF51F2AECF51F20F
:1031C000AB98AB88F28E63D876D8DCD74EEC15F08E
:1031D000F56E1F0EE15C02E2E16AE552E16EF55028
:1031E000E552E7CFD9FF1200020EE66EE66AA6D8D6
:1031F000E552E552B0C0ADFF020EE66EE66A9ED81B
:10320000E552E552B1C0ADFF020EE66EE66A96D811
:10321000E552E552B2C0ADFF020EE66EE66A8ED808
:10322000E552E552B3C0ADFF1200020EE66EE66A4B
:1032300085D8E552E552C2C0ADFF020EE66EE66AE1
:103240007DD8E552E552C3C0ADFF020EE66EE66AD8
:1032500075D8E552E552C4C0ADFF020EE66EE66ACF
:103260006DD8E552E552C5C0ADFF1200D9CFE6FFDB
:10327000E1CFD9FF020EE66EE66A60D8E552E5526C
:10328000FE0EDB50AD6EE552E7CFD9FF12000CEC1D
:1032900012F000C2C2F001C2C3F002C2C4F003C205
:1032A000C5F00001C76BC66B6EEC15F00101F72984
:1032B0000001C96F1200D9CFE6FFE1CFD9FF050E9B
:1032C000E126D950020FE66E000EDA20E66ED9CF65
:1032D000E6FFDACFE6FFC4C0E6FFC5C0E6FFC2C026
:1032E000E6FFC3C0E6FF92D9F56E080EE15EF55029
:1032F000DECFB0F0DDCFB1F0020EDBCFB2F0030EC7
:10330000DBCFB3F0D950040FE66E000EDA20E66E84
:10331000C9C0E6FF30EC24F0E552E552E552040E58
:10332000DBCFB7F0F56E050EE15C02E2E16AE55233
:10333000E16EF550E552E7CFD9FF1200D9CFE6FF95
:10334000E1CFD9FF040EE126FD0EDBCFDEFFDBCFA0
:10335000DDFFD9CFE9FFDACFEAFFEE50ED1020E034
:10336000830EF36E020EF3CFDBFF030EDB6AD95040
:10337000020FE96EDACFEAFFEE50ED1006E0020E22
:10338000DB06030E01E2DB06F2D7000000000000BE
:10339000000000000000DF06010E01E2DB06D9D7C5
:1033A000F56E040EE15C02E2E16AE552E16EF55071
:1033B000E552E7CFD9FF1200D9CFE6FFE1CFD9FF21
:1033C000050EE126030EDF6E090EDF5C0EE26EECE9
:1033D00000F0E66EDF50EA6A000FE96E020EEA22A4
:1033E000E552E750EF6EDF2AEFD7030E03C2DBFF93
:1033F000040E04C2DBFF030EDB50040A2AE0070AB6
:1034000011E0010A0EE0030A0BE0010A01E039D0E5
:103410008350010B010AE8B08380E8A0839032D08A
:1034200031D030D00CEC12F001C2E6FF61EC00F0BC
:10343000E55200C2E6FF61EC00F0E55203C2E6FF90
:1034400061EC00F0E55202C2E6FF61EC00F0E552EB
:1034500019D0D0EC03F0F7C1E6FF61EC00F0E552C3
:10346000F6C1E6FF61EC00F0E552EFEC03F0F7C1C6
:10347000E6FF61EC00F0E552F6C1E6FF61EC00F01A
:10348000E55200D0080EE66E80EC00F0E552F56ED5
:10349000050EE15C02E2E16AE552E16EF550E552AB
:1034A000E7CFD9FF1200D9CFE6FFE1CFD9FF020E57
:1034B000E1260001BF0E606F900E616FAB0E626F70
:1034C000430E636FD70E646FFE0E656FF30E666F6B
:1034D000BC0E676F560E686F3A0E696F610E6A6FA9
:1034E000350E6B6FF50E6C6F950E6D6F0C0E6E6F6B
:1034F000AD0E6F6F1A0E706FCA0E716F5D0E726F28
:10350000BD0E736F9F0E746F8A0E756F9B0E766F74
:10351000360E776FA20E786F170E796F0E0E7A6FD8
:10352000AF0E7B6F720E7C6F440E7D6FAF0E7E6FA1
:10353000260E7F6F010E806F600E816F0A0E826F04
:10354000360E836F470E846F770E856F3E0E866F43
:10355000AF0E876F9D0E886FF80E896FAE0E8A6F63
:10356000270E8B6F7F0E8C6FB40E8D6F560E8E6F85
:103570009F0E8F6F390E906F840E916FD90E926FE0
:10358000AD0E936FD60E946F020E956F160E966F5A
:10359000270E976F1F0E986F180E996F8A0E9A6FED
:1035A0009F0E9B6F7A0E9C6FC70E9D6F290E9E6FAC
:1035B000170E9F6F710EA06F8E0EA16FD90EA26FA6
:1035C000C30EA36FA30EA46FD70EA56FC50EA66F73
:1035D0003C0EA76FBA0EA86F4C0EA96F030EAA6F10
:1035E000B50EAB6F5E0EAC6F7F0EAD6FD50EAE6FCE
:1035F0002C0EAF6FF56E020EE15C02E2E16AE5525D
:10360000E16EF550E552E7CFD9FF1200D9CFE6FFC2
:10361000E1CFD9FF250EE126FB0EDBCF4EF0FC0EED
:10362000DBCF4FF041EC24F04DC00CF04EC00DF05C
:103630004FC00EF050C00FF00CC052F00DC053F050
:103640000EC054F00FC055F0A4C04DF0A5C04EF010
:10365000A6C04FF0A7C050F0EDEC24F04DC008F02C
:103660004EC009F04FC00AF050C00BF008C052F035
:1036700009C053F00AC054F00BC055F0A0C04DF083
:10368000A1C04EF0A2C04FF0A3C050F057EC24F000
:103690004DC004F04EC005F04FC006F050C007F01A
:1036A000FB0EDBCF4EF0FC0EDBCF4FF041EC24F0F5
:1036B0004DC018F04EC019F04FC01AF050C01BF0AA
:1036C00018C052F019C053F01AC054F01BC055F086
:1036D000A8C04DF0A9C04EF0AAC04FF0ABC050F04A
:1036E000EDEC24F04DC014F04EC015F04FC016F0B4
:1036F00050C017F0FB0EDBCF4EF0FC0EDBCF4FF0CF
:1037000041EC24F04DC01CF04EC01DF04FC01EF027
:1037100050C01FF01CC052F01DC053F01EC054F02A
:103720001FC055F014C04DF015C04EF016C04FF03C
:1037300017C050F0EDEC24F04DC010F04EC011F069
:103740004FC012F050C013F010C052F011C053F02F
:1037500012C054F013C055F004C04DF005C04EF037
:1037600006C04FF007C050F057EC24F04DC000F0F9
:103770004EC001F04FC002F050C003F0FB0EDBCF93
:103780004EF0FC0EDBCF4FF041EC24F04DC02CF09E
:103790004EC02DF04FC02EF050C02FF02CC052F074
:1037A0002DC053F02EC054F02FC055F0ACC04DF0DA
:1037B000ADC04EF0AEC04FF0AFC050F0EDEC24F015
:1037C0004DC028F04EC029F04FC02AF050C02BF059
:1037D000FB0EDBCF4EF0FC0EDBCF4FF041EC24F0C4
:1037E0004DC030F04EC031F04FC032F050C033F019
:1037F00030C052F031C053F032C054F033C055F0F5
:1038000028C04DF029C04EF02AC04FF02BC050F018
:10381000EDEC24F04DC024F04EC025F04FC026F052
:1038200050C027F0FB0EDBCF4EF0FC0EDBCF4FF08D
:1038300041EC24F04DC034F04EC035F04FC036F0AE
:1038400050C037F034C052F035C053F036C054F099
:1038500037C055F024C04DF025C04EF026C04FF0C3
:1038600027C050F0EDEC24F04DC020F04EC021F008
:103870004FC022F050C023F020C052F021C053F0BE
:1038800022C054F023C055F000C04DF001C04EF0EE
:1038900002C04FF003C050F057EC24F0090E4DC0A9
:1038A000DBFF0A0E4EC0DBFF0B0E4FC0DBFF0C0E22
:1038B00050C0DBFFFB0EDBCF4EF0FC0EDBCF4FF03A
:1038C00041EC24F04DC00CF04EC00DF04FC00EF096
:1038D00050C00FF00CC052F00DC053F00EC054F0A9
:1038E0000FC055F064C04DF065C04EF066C04FF09B
:1038F00067C050F0EDEC24F04DC008F04EC009F068
:103900004FC00AF050C00BF008C052F009C053F08D
:103910000AC054F00BC055F060C04DF061C04EF0CD
:1039200062C04FF063C050F057EC24F04DC004F07B
:103930004EC005F04FC006F050C007F0FB0EDBCFC5
:103940004EF0FC0EDBCF4FF041EC24F04DC018F0F0
:103950004EC019F04FC01AF050C01BF018C052F002
:1039600019C053F01AC054F01BC055F068C04DF098
:1039700069C04EF06AC04FF06BC050F0EDEC24F01F
:103980004DC014F04EC015F04FC016F050C017F0E7
:10399000FB0EDBCF4EF0FC0EDBCF4FF041EC24F002
:1039A0004DC01CF04EC01DF04FC01EF050C01FF0A7
:1039B0001CC052F01DC053F01EC054F01FC055F083
:1039C00014C04DF015C04EF016C04FF017C050F0A7
:1039D000EDEC24F04DC010F04EC011F04FC012F0CD
:1039E00050C013F010C052F011C053F012C054F088
:1039F00013C055F004C04DF005C04EF006C04FF0A6
:103A000007C050F057EC24F04DC000F04EC001F05C
:103A10004FC002F050C003F0FB0EDBCF4EF0FC0EA7
:103A2000DBCF4FF041EC24F04DC02CF04EC02DF018
:103A30004FC02EF050C02FF02CC052F02DC053F0CC
:103A40002EC054F02FC055F06CC04DF06DC04EF03C
:103A50006EC04FF06FC050F0EDEC24F04DC028F078
:103A60004EC029F04FC02AF050C02BF0FB0EDBCF28
:103A70004EF0FC0EDBCF4FF041EC24F04DC030F0A7
:103A80004EC031F04FC032F050C033F030C052F071
:103A900031C053F032C054F033C055F028C04DF05F
:103AA00029C04EF02AC04FF02BC050F0EDEC24F0AE
:103AB0004DC024F04EC025F04FC026F050C027F076
:103AC000FB0EDBCF4EF0FC0EDBCF4FF041EC24F0D1
:103AD0004DC034F04EC035F04FC036F050C037F016
:103AE00034C052F035C053F036C054F037C055F0F2
:103AF00024C04DF025C04EF026C04FF027C050F036
:103B0000EDEC24F04DC020F04EC021F04FC022F06B
:103B100050C023F020C052F021C053F022C054F016
:103B200023C055F000C04DF001C04EF002C04FF070
:103B300003C050F057EC24F0150E4DC0DBFF160EFD
:103B40004EC0DBFF170E4FC0DBFF180E50C0DBFF6F
:103B5000FB0EDBCF4EF0FC0EDBCF4FF041EC24F040
:103B60004DC00CF04EC00DF04FC00EF050C00FF025
:103B70000CC052F00DC053F00EC054F00FC055F001
:103B800074C04DF075C04EF076C04FF077C050F065
:103B9000EDEC24F04DC008F04EC009F04FC00AF023
:103BA00050C00BF008C052F009C053F00AC054F0E6
:103BB0000BC055F070C04DF071C04EF072C04FF0A8
:103BC00073C050F057EC24F04DC004F04EC005F027
:103BD0004FC006F050C007F0FB0EDBCF4EF0FC0EDE
:103BE000DBCF4FF041EC24F04DC018F04EC019F07F
:103BF0004FC01AF050C01BF018C052F019C053F05B
:103C00001AC054F01BC055F078C04DF079C04EF08A
:103C10007AC04FF07BC050F0EDEC24F04DC014F0B2
:103C20004EC015F04FC016F050C017F0FB0EDBCFA2
:103C30004EF0FC0EDBCF4FF041EC24F04DC01CF0F9
:103C40004EC01DF04FC01EF050C01FF01CC052F0FF
:103C50001DC053F01EC054F01FC055F014C04DF0ED
:103C600015C04EF016C04FF017C050F0EDEC24F028
:103C70004DC010F04EC011F04FC012F050C013F004
:103C800010C052F011C053F012C054F013C055F0E0
:103C900004C04DF005C04EF006C04FF007C050F014
:103CA00057EC24F04DC000F04EC001F04FC002F0C0
:103CB00050C003F0FB0EDBCF4EF0FC0EDBCF4FF01D
:103CC00041EC24F04DC02CF04EC02DF04FC02EF032
:103CD00050C02FF02CC052F02DC053F02EC054F025
:103CE0002FC055F07CC04DF07DC04EF07EC04FF02F
:103CF0007FC050F0EDEC24F04DC028F04EC029F00C
:103D00004FC02AF050C02BF0FB0EDBCF4EF0FC0E64
:103D1000DBCF4FF041EC24F04DC030F04EC031F01D
:103D20004FC032F050C033F030C052F031C053F0C9
:103D300032C054F033C055F028C04DF029C04EF0C9
:103D40002AC04FF02BC050F0EDEC24F04DC024F011
:103D50004EC025F04FC026F050C027F0FB0EDBCF41
:103D60004EF0FC0EDBCF4FF041EC24F04DC034F0B0
:103D70004EC035F04FC036F050C037F034C052F06E
:103D800035C053F036C054F037C055F024C04DF064
:103D900025C04EF026C04FF027C050F0EDEC24F0C7
:103DA0004DC020F04EC021F04FC022F050C023F093
:103DB00020C052F021C053F022C054F023C055F06F
:103DC00000C04DF001C04EF002C04FF003C050F0F3
:103DD00057EC24F0190E4DC0DBFF1A0E4EC0DBFF6E
:103DE0001B0E4FC0DBFF1C0E50C0DBFFFB0EDBCFFA
:103DF0004EF0FC0EDBCF4FF041EC24F04DC00CF048
:103E00004EC00DF04FC00EF050C00FF00CC052F07D
:103E10000DC053F00EC054F00FC055F084C04DF0EB
:103E200085C04EF086C04FF087C050F0EDEC24F016
:103E30004DC008F04EC009F04FC00AF050C00BF062
:103E400008C052F009C053F00AC054F00BC055F03E
:103E500080C04DF081C04EF082C04FF083C050F062
:103E600057EC24F04DC004F04EC005F04FC006F0F2
:103E700050C007F0FB0EDBCF4EF0FC0EDBCF4FF057
:103E800041EC24F04DC018F04EC019F04FC01AF0AC
:103E900050C01BF018C052F019C053F01AC054F0B3
:103EA0001BC055F088C04DF089C04EF08AC04FF05D
:103EB0008BC050F0EDEC24F04DC014F04EC015F066
:103EC0004FC016F050C017F0FB0EDBCF4EF0FC0ECB
:103ED000DBCF4FF041EC24F04DC01CF04EC01DF084
:103EE0004FC01EF050C01FF01CC052F01DC053F058
:103EF0001EC054F01FC055F014C04DF015C04EF058
:103F000016C04FF017C050F0EDEC24F04DC010F08B
:103F10004EC011F04FC012F050C013F010C052F05C
:103F200011C053F012C054F013C055F004C04DF04E
:103F300005C04EF006C04FF007C050F057EC24F01B
:103F40004DC000F04EC001F04FC002F050C003F071
:103F5000FB0EDBCF4EF0FC0EDBCF4FF041EC24F03C
:103F60004DC02CF04EC02DF04FC02EF050C02FF0A1
:103F70002CC052F02DC053F02EC054F02FC055F07D
:103F80008CC04DF08DC04EF08EC04FF08FC050F001
:103F9000EDEC24F04DC028F04EC029F04FC02AF0BF
:103FA00050C02BF0FB0EDBCF4EF0FC0EDBCF4FF002
:103FB00041EC24F04DC030F04EC031F04FC032F033
:103FC00050C033F030C052F031C053F032C054F022
:103FD00033C055F028C04DF029C04EF02AC04FF034
:103FE0002BC050F0EDEC24F04DC024F04EC025F075
:103FF0004FC026F050C027F0FB0EDBCF4EF0FC0E7A
:10400000DBCF4FF041EC24F04DC034F04EC035F022
:104010004FC036F050C037F034C052F035C053F0C6
:1040200036C054F037C055F024C04DF025C04EF0D6
:1040300026C04FF027C050F0EDEC24F04DC020F02A
:104040004EC021F04FC022F050C023F020C052F0EB
:1040500021C053F022C054F023C055F000C04DF0F1
:1040600001C04EF002C04FF003C050F057EC24F0F6
:104070001D0E4DC0DBFF1E0E4EC0DBFF1F0E4FC0DE
:10408000DBFF200E50C0DBFFFB0EDBCF4EF0FC0E43
:10409000DBCF4FF041EC24F04DC00CF04EC00DF0E2
:1040A0004FC00EF050C00FF00CC052F00DC053F0D6
:1040B0000EC054F00FC055F094C04DF095C04EF0B6
:1040C00096C04FF097C050F0EDEC24F04DC008F0D2
:1040D0004EC009F04FC00AF050C00BF008C052F0BB
:1040E00009C053F00AC054F00BC055F090C04DF019
:1040F00091C04EF092C04FF093C050F057EC24F0B6
:104100004DC004F04EC005F04FC006F050C007F09F
:10411000FB0EDBCF4EF0FC0EDBCF4FF041EC24F07A
:104120004DC018F04EC019F04FC01AF050C01BF02F
:1041300018C052F019C053F01AC054F01BC055F00B
:1041400098C04DF099C04EF09AC04FF09BC050F00F
:10415000EDEC24F04DC014F04EC015F04FC016F039
:1041600050C017F0FB0EDBCF4EF0FC0EDBCF4FF054
:1041700041EC24F04DC01CF04EC01DF04FC01EF0AD
:1041800050C01FF01CC052F01DC053F01EC054F0B0
:104190001FC055F014C04DF015C04EF016C04FF0C2
:1041A00017C050F0EDEC24F04DC010F04EC011F0EF
:1041B0004FC012F050C013F010C052F011C053F0B5
:1041C00012C054F013C055F004C04DF005C04EF0BD
:1041D00006C04FF007C050F057EC24F04DC000F07F
:1041E0004EC001F04FC002F050C003F0FB0EDBCF19
:1041F0004EF0FC0EDBCF4FF041EC24F04DC02CF024
:104200004EC02DF04FC02EF050C02FF02CC052F0F9
:104210002DC053F02EC054F02FC055F09CC04DF06F
:104220009DC04EF09EC04FF09FC050F0EDEC24F0CA
:104230004DC028F04EC029F04FC02AF050C02BF0DE
:10424000FB0EDBCF4EF0FC0EDBCF4FF041EC24F049
:104250004DC030F04EC031F04FC032F050C033F09E
:1042600030C052F031C053F032C054F033C055F07A
:1042700028C04DF029C04EF02AC04FF02BC050F09E
:10428000EDEC24F04DC024F04EC025F04FC026F0D8
:1042900050C027F0FB0EDBCF4EF0FC0EDBCF4FF013
:1042A00041EC24F04DC034F04EC035F04FC036F034
:1042B00050C037F034C052F035C053F036C054F01F
:1042C00037C055F024C04DF025C04EF026C04FF049
:1042D00027C050F0EDEC24F04DC020F04EC021F08E
:1042E0004FC022F050C023F020C052F021C053F044
:1042F00022C054F023C055F000C04DF001C04EF074
:1043000002C04FF003C050F057EC24F0210E4DC016
:10431000DBFF220E4EC0DBFF230E4FC0DBFF240E5F
:1043200050C0DBFF150EDBCF08F0160EDBCF09F017
:10433000170EDBCF0AF0180EDBCF0BF0190EDBCF18
:1043400010F01A0EDBCF11F01B0EDBCF12F01C0E9B
:10435000DBCF13F0FD0EDBCF4EF0FE0EDBCF4FF0C8
:1043600041EC24F04DC014F04EC015F04FC016F0D3
:1043700050C017F014C052F015C053F016C054F0DE
:1043800017C055F010C04DF011C04EF012C04FF0E4
:1043900013C050F0EDEC24F04DC00CF04EC00DF009
:1043A0004FC00EF050C00FF00CC052F00DC053F0D3
:1043B0000EC054F00FC055F008C04DF009C04EF0CB
:1043C0000AC04FF00BC050F057EC24F04DC004F081
:1043D0004EC005F04FC006F050C007F01D0EDBCFF9
:1043E00020F01E0EDBCF21F01F0EDBCF22F0200EBF
:1043F000DBCF23F0FD0EDBCF4EF0FE0EDBCF4FF018
:1044000041EC24F04DC024F04EC025F04FC026F002
:1044100050C027F024C052F025C053F026C054F0FD
:1044200027C055F020C04DF021C04EF022C04FF003
:1044300023C050F0EDEC24F04DC01CF04EC01DF038
:104440004FC01EF050C01FF0FD0EDBCF4EF0FE0E31
:10445000DBCF4FF041EC24F04DC028F04EC029F0E6
:104460004FC02AF050C02BF028C052F029C053F0A2
:104470002AC054F02BC055F01CC04DF01DC04EF0AA
:104480001EC04FF01FC050F0EDEC24F04DC018F0EE
:104490004EC019F04FC01AF050C01BF018C052F0B7
:1044A00019C053F01AC054F01BC055F004C04DF0B1
:1044B00005C04EF006C04FF007C050F057EC24F096
:1044C0004DC000F04EC001F04FC002F050C003F0EC
:1044D000210EDBCF38F0220EDBCF39F0230EDBCFFD
:1044E0003AF0240EDBCF3BF0FD0EDBCF4EF0FE0E9C
:1044F000DBCF4FF041EC24F04DC03CF04EC03DF01E
:104500004FC03EF050C03FF03CC052F03DC053F0B1
:104510003EC054F03FC055F038C04DF039C04EF0A9
:104520003AC04FF03BC050F0EDEC24F04DC034F0F9
:104530004EC035F04FC036F050C037F0FD0EDBCF27
:104540004EF0FE0EDBCF4FF041EC24F04DC040F0BA
:104550004EC041F04FC042F050C043F040C052F056
:1045600041C053F042C054F043C055F034C04DF048
:1045700035C04EF036C04FF037C050F0EDEC24F0AF
:104580004DC030F04EC031F04FC032F050C033F06B
:10459000FD0EDBCF4EF0FE0EDBCF4FF041EC24F0F2
:1045A0004DC044F04EC045F04FC046F050C047F0FB
:1045B00044C052F045C053F046C054F047C055F0D7
:1045C00030C04DF031C04EF032C04FF033C050F02B
:1045D000EDEC24F04DC02CF04EC02DF04FC02EF06D
:1045E00050C02FF02CC052F02DC053F02EC054F00C
:1045F0002FC055F000C04DF001C04EF002C04FF08A
:1046000003C050F057EC24F0050E4DC0DBFF060E42
:104610004EC0DBFF070E4FC0DBFF080E50C0DBFFB4
:10462000006A016AA00E026E400E036ED950050F9B
:10463000E96EDACFEAFFEECF4DF0EECF4EF0EECFDF
:104640004FF0EFCF50F000C052F001C053F002C065
:1046500054F003C055F057EC24F050C0EDFF4FC0AC
:10466000EDFF4EC0EDFF4DC0EFFF006A016A7A0E0C
:10467000026E440E036ED950050FE96EDACFEAFFE1
:10468000EECF4DF0EECF4EF0EECF4FF0EFCF50F03B
:1046900000C052F001C053F002C054F003C055F006
:1046A000EDEC24F050C0EDFF4FC0EDFF4EC0EDFF2C
:1046B0004DC0EFFF050EDBCF00F0060EDBCF01F0A3
:1046C000070EDBCF02F0080EDBCF03F0526A536A0D
:1046D000546A556A00C04DF001C04EF002C04FF060
:1046E00003C050F089EC25F0010A08E1050EDB6AF1
:1046F000060EDB6A070EDB6A080EDB6A050EDBCFEF
:104700004DF0060EDBCF4EF0070EDBCF4FF0080E5C
:10471000DBCF50F05AEC25F04EC000F04FC001F056
:10472000F90EDBCFE9FFFA0EDBCFEAFF00C0EEFFA8
:1047300001C0EDFF006A016A480E026E420E036E70
:10474000D950090FE96EDACFEAFFEECF4DF0EECF88
:104750004EF0EECF4FF0EFCF50F000C052F001C05E
:1047600053F002C054F003C055F057EC24F050C091
:10477000EDFF4FC0EDFF4EC0EDFF4DC0EFFF006AF3
:10478000016AC80E026E420E036ED950090FE96E1F
:10479000DACFEAFFEECF4DF0EECF4EF0EECF4FF096
:1047A000EFCF50F000C052F001C053F002C054F0FF
:1047B00003C055F0EDEC24F050C0EDFF4FC0EDFF0D
:1047C0004EC0EDFF4DC0EFFF090EDBCF00F00A0E2B
:1047D000DBCF01F00B0EDBCF02F00C0EDBCF03F0D2
:1047E000526A536A546A556A00C04DF001C04EF0D7
:1047F00002C04FF003C050F089EC25F0010A08E137
:10480000090EDB6A0A0EDB6A0B0EDB6A0C0EDB6A32
:10481000090EDBCF4DF00A0EDBCF4EF00B0EDBCFD7
:104820004FF00C0EDBCF50F05AEC25F04EC000F0EC
:104830004FC001F0F70EDBCFE9FFF80EDBCFEAFF48
:1048400000C0EEFF01C0EDFFF56E250EE15C02E257
:10485000E16AE552E16EF550E552E7CFD9FF12006B
:10486000D9CFE6FFE1CFD9FFFC0EDBCFE9FFFD0E8C
:10487000DBCFEAFFFE0EDBCFEFFFE552E7CFD9FF3C
:02488000120024
:0E488200579E08D0579E4FAE05D04E6C4F1E6D
:10489000E86A4F22578E4FC049F04EC048F05B6A1D
:1048A0005A6A8E0E4A6E4B6A03EF26F0557E576A9F
:1048B0003FEC26F057EC26F057B6E7EF25F057A26D
:1048C0000AD057AA03D057BEE7EF25F057A4F3EF5D
:1048D00025F0F0EF25F057AA05D057ACF3EF25F0FF
:1048E000F0EF25F057A00AD057A808D057BE04D043
:1048F00057A402D0FCEF25F000EF26F05A6A4B6A6D
:104900005550505C596E10E34DC05BF04EC048F0FE
:104910004FC049F050C058F052C04DF053C04EF057
:1049200054C04FF0573A09D052C05BF053C048F022
:1049300054C049F055C058F0596C579E57BC578E1B
:1049400058C04AF057B02FEF26F01A0E59602FEFDB
:1049500026F04A6A506A57A408D04D6C4E1E4F1E6E
:10496000501EE86A4E224F22502257AC08D05B6C92
:10497000481E491E4A1EE86A482249224A224C6AB9
:10498000595207E050344F324E324D324C32592E8C
:10499000F9D74D505B264E5048224F504922505077
:1049A0004A224CC05AF0579E4AAE0BD05A6C5B1E3E
:1049B000481E491E4A1EE86A5B22482249224A22B2
:1049C000578E4AA006D0D880493248325B325A32DC
:1049D000582A58C04AF003EF26F0576A3FEC26F0F9
:1049E00057EC26F057B6E7EF25F057A205D057B899
:1049F000E7EF25F0EEEF25F057AA05D057B0E7EF27
:104A000025F0EEEF25F057B002D057A802D0FAEF0C
:104A100025F04B6A555050244A6EE86A4B227E0EB0
:104A20004A5EE86A4B5A5A6A5B6A486A496A545055
:104A30004F02F4CF49F0F3CF48F053504F02F350F8
:104A40005B26F4504822000E492254504E02F35087
:104A50005B26F4504822000E492252504F02F35078
:104A60005A26F4505B22000E4822492253504E022F
:104A7000F3505A26F4505B22000E4822492254502B
:104A80004D02F3505A26F4505B22000E4822492270
:104A900052504E02F4505A26000E5B224822492200
:104AA00053504D02F4505A26000E5B2248224922F0
:104AB00003EF26F0576A3FEC26F057B664EF25F077
:104AC00057A20ED057B405D07F0E4F6EFF0E4E6E1C
:104AD0001FD0800E4F6E4E6A1BD04F6A4E6A18D0A0
:104AE00057B0FBD78F0E5060EDD77E0E5064F5D7D0
:104AF0008E0E505C05E0D8904F324E32502AF8D7D7
:104B000057A406D04E6C4F1EE86A4F224FAEE5D731
:104B1000120092EC25F057B6000C57B0000C57A4C9
:104B2000000C010C576A3FEC26F057EC26F057B604
:104B3000120057AE08D057A004D057A802D0578013
:104B40001200579012005550505C0BE154504F5CCE
:104B500008E153504E5C05E152504D5C02E1578034
:104B60001200D8A002D0578E10D0505055C050F02F
:104B7000556E4F5054C04FF0546E4E5053C04EF0CF
:104B8000536E4D5052C04DF0526E5550505C10E077
:104B9000FF0F09E0579057B403D057AE5784120067
:104BA00057AE57941200552AD8905432533252328D
:104BB00052504D5E53504E5A54504F5A4FBEEAD742
:104BC000D8904D364E364F36502EF8D7C8D77F0E78
:104BD000506EFF0E4F6E4E6E4D6E12007F0E57BE22
:104BE000FF0E506E02D07F0E506E800E4F6E4E6ADA
:104BF0004D6AF3D757AE04D0800E506E4F6AF7D788
:104C0000506A4F6AF4D7495048105B105A10F8E0C8
:104C10004BBEF0D749BE0CD04A504B10EBE0D890B9
:104C20005A365B36483649364A06D8A04B06F2D784
:104C30004B50D4E14A28D2E05AAE11D07F0E5A141C
:104C400002E15BA00CD05B2AE86A4822492207E314
:104C5000D880493248325B324A2A4A28BFE04A505B
:104C6000C9E05BC04DF048C04EF049344F6E4A3049
:104C7000506E4F32509E57BE508EEDEF25F04F369E
:104C8000503602E35784577E06E15780506A4F6AD8
:104C90004E6A4D6A1200502803E0D8804F3212004D
:104CA000D8904F3202E157821200578612005436D4
:104CB000553602E3578C577E06E15788556A546A89
:104CC000536A526A1200552803E0D8805432120009
:0A4CD000D8905432EAE1578A12002E
:064CDA002A0EF66E000E2A
:104CE000F76E000EF86E00010900F550BD6F090067
:104CF000F550BE6F03E1BD6701D03DD00900F5500E
:104D0000B86F0900F550B96F0900F550BA6F090086
:104D10000900F550E96E0900F550EA6E0900090036
:104D20000900F550BB6F0900F550BC6F0900090080
:104D3000F6CFBFF0F7CFC0F0F8CFC1F0B8C0F6FFA4
:104D4000B9C0F7FFBAC0F8FF0001BB5302E1BC5382
:104D500007E00900F550EE6EBB07F8E2BC07F9D793
:104D6000BFC0F6FFC0C0F7FFC1C0F8FF0001BD071C
:084D7000000EBE5BBFD712006C
:084D78004B6A4A6A496A180EF1
:104D8000E76ED8904D364E364F3649364A364B365A
:104D90005250495C53504A5854504B5807E35250B4
:104DA000495E53504A5A54504B5A4D2AE72EEAD77F
:024DB0001200EF
:0E4DB20013EE00F023EE00F0F86A579C6DEC53
:0A4DC00026F01CEC17F0FDD71200DE
:064DCA00000000000000E3
:104DD00000000000000000000000000000000000D3
:104DE00000000000000000000000000000000000C3
:104DF00000000000000000000000000000000000B3
:104E000000000000000000000000000000000000A2
:0C4E100000000000000000000000000096
:00000001FF
