:080000000C9450000C947300F5
:040040000C944103D8
:040048000C942003F1
:04005C000C94CA2016
:080074000C9466030C949C023D
:14008C00000080430000CA420AD723404260853F0000FA40AD
:1400A000CFEFD0E1CDBFDEBFC050D1400AEA08830024E0E030
:1400B400F1E013E0E434F10711F00192FBCF0083E0EAF0E0E9
:1400C800A0E0B1E010E000E00BBFE03AF10721F0C895319632
:1400DC000D92F9CF0E940C0BFFCF2A923A928A939A93AA9313
:1400F000EA93FA932FB62A92222425BCF89489B78E7F89BF09
:1401040033243092B0022092AF0209C08091AF029091B0025B
:1401180001969093B0028093AF028091AF029091B00284305A
:14012C00E0E09E0778F388B7816088BF809901C0C0C12224E7
:1401400024BC83E085BD29C024B433243092AC022092AB023F
:1401540080E590E08215930508F4AFC180991BC02224332496
:140168003092B0022092AF0209C08091AF029091B0020196B7
:14017C009093B0028093AF028091AF029091B0028430E0E0CD
:140190009E0778F3809901C031C0D6CF24B433243092AC023C
:1401A4002092AB0280E590E08215930508F485C188B7817072
:1401B800813001F5222433243092B0022092AF0209C080913E
:1401CC00AF029091B00201969093B0028093AF028091AF02A9
:1401E0009091B0028430E0E09E0778F388B7816088BF80B31A
:1401F4008170813009F401C0CFCF24B433243092AC022092A8
:14020800AB02222424BC2090AB023090AC02C1018C33E0E003
:14021C009E0728F080E590E08215930508F449C189E080938B
:14023000B202A6C024B433243092AC022092AB0280E590E0CD
:140244008215930508F439C180991BC0222433243092B0027C
:140258002092AF0209C08091AF029091B00201969093B00265
:14026C008093AF028091AF029091B0028430E0E09E0778F3A1
:14028000809901C031C0D6CF24B433243092AC022092AB02FC
:1402940080E590E08215930508F40FC188B78170813001F5AF
:1402A800222433243092B0022092AF0209C08091AF02909122
:1402BC00B00201969093B0028093AF028091AF029091B002B7
:1402D0008430E0E09E0778F388B7816088BF80B3817081305A
:1402E40009F401C0CFCF24B433243092AC022092AB02222466
:1402F80024BC8091AB029091AC028431E0E09E0720F483E0F4
:14030C008093B102D6C08091AB029091AC028832E0E09E07D5
:1403200050F481ED92E0E091B202FF27E80FF91F81E08083E7
:1403340020C08091AB029091AC028C33E0E09E0750F481ED72
:1403480092E0E091B202FF27E80FF91F222420820EC080E5BA
:14035C0090E02090AB023090AC028215930508F05FCF83E09A
:140370008093B102A4C08091B20281508093B20280E02090E2
:14038400B202821508F47DCF222433243092CE022092CD0222
:140398002090D302222049F08091CD029091CE02816090937C
:1403AC00CE028093CD022090D402222049F08091CD02909189
:1403C000CE0282609093CE028093CD022090D502222049F0A0
:1403D4008091CD029091CE0284609093CE028093CD022090DB
:1403E800D602222049F08091CD029091CE0288609093CE0202
:1403FC008093CD022090D702222049F08091CD029091CE0236
:1404100080619093CE028093CD022090D802222049F080910C
:14042400CD029091CE0280629093CE028093CD022090D902C2
:14043800222049F08091CD029091CE0280649093CE0280937A
:14044C00CD022090DA02222049F08091CD029091CE0280680D
:140460009093CE028093CD0281E08093D10282E08093B20243
:1404740012C081ED92E0E091B202FF27E80FF91F2080309008
:14048800D10232243092D1028091B2028F5F8093B202809117
:14049C00B2028A3050F32090D2023090D102321421F481E0C8
:1404B0008093B1020AC082E08093B10206C088B7816088BF53
:1404C40089B7816089BF222425BC789429902FBEF991E991DE
:1404D800A9919991899139902990189522242BBA87E08ABB8C
:1404EC0028BA80E887BB25BA24BA22BA88E381BB23B822B87B
:140500002092620087E080936100209265002092640008952E
:14051400222420929A0082E080939B0086E080939D0080E1BA
:14052800809399002092980080E980939A0008952A928A933D
:14053C009A93EA93FA932FB62A9280913503843080F481E3FE
:1405500093E0E0913503FF27E80FF91F20909C002082809147
:1405640035038F5F8093350305C080919A008F7780939A00EF
:1405780029902FBEF991E99199918991299018950E9429262A
:14058C00A02E2A972224209235038B9A40B366271BC00A2DE5
:1405A000162F0E947126802F817051F4CE010196E62FFF2743
:1405B400E80FF91F842F8860808309C0CE010196E62FFF271C
:1405C800E80FF91F842F877F80836395683018F381E088834D
:1405DC002224298682B3877F82BB000000000000000000009E
:1405F000662709C0CE01E62FFF27E80FF91F208022BA00000C
:1406040063956A30A8F382B3877F82BB40919C0080919A0025
:14061800806880939A002A960C94302622242AB882E08BB9B5
:14062C0086E08093950080E189B92092900088E98AB9089576
:140640002A928A939A93EA93FA932FB62A928091E3028A3441
:1406540070F484EE92E0E091E302FF27E80FF91F2CB0208241
:140668008091E3028F5F8093E30229902FBEF991E9919991CE
:14067C008991299018952A928A939A932FB62A9280912E0301
:1406900090912F03019790932F0380932E038030890761F43D
:1406A400222422BE81E08093CB0287B78E7F87BF8AB18F7709
:1406B8008AB902C086E082BF29902FBE999189912990189532
:1406CC001A922A928A939A931FB61A92222420927D002092C0
:1406E0008A0089B382708695813049F480913E0390913F0390
:1406F400886090933F0380933E0380B1847086958695813045
:1407080049F480913C0390913D03886090933D0380933C0352
:14071C00D09AD89A80916100826080936100809162008260D0
:1407300080936200BF9A88B38F7788BBD29A8BB38B7F8BBB69
:14074400D19A8BB38D7F8BBB809161008160809361008091CE
:1407580062008E7F80936200809161008460809361008091CE
:14076C0062008B7F8093620019901FBE99918991299019906C
:1407800018950E9437265901C02E442709C084EE92E0E42F46
:14079400FF27E80FF91F8FEF808343954A34A8F322242092B2
:1407A800E302442710C05D9BFECF662701C06395683CE8F393
:1407BC0081E291E0E42FFF27E80FF91F20802CB843954C1550
:1407D00070F3AA2011F4BB2011F122242092CB02B0922F03CD
:1407E400A0922E0386E082BF83B7866083BF86B7816086BF32
:1407F80087B7816087BF4CB1579A03C000271127B9D320903C
:14080C00CB022220C9F387B78E7F87BF8AB18F778AB90C9458
:1408200040260E941E266901E02EAA84442709C084EE92E0BA
:14083400E42FFF27E80FF91F8FEF808343954A34A8F32224B0
:140848002092E302442710C05D9BFECF662701C06395683C1B
:14085C00E8F381E291E0E42FFF27E80FF91F20802CB8439535
:140870004E1570F3CC2011F4DD2039F122242092CB02D0926F
:140884002F03C0922E0386E082BF83B7866083BF86B7816084
:1408980086BF87B7816087BF4CB1579A08C00027112768D352
:1408AC002090E3022A1408F004C02090CB022220A1F387B718
:1408C0008E7F87BF8AB18F778AB90C9413264A936A93013069
:1408D40009F040C189B384708695869509F09FC0D19A8BB3AF
:1408E8008D7F8BBBD09A8BB38E7F8BBB222433243092B0029E
:1408FC002092AF0209C08091AF029091B00201969093B002BB
:140910008093AF028091AF029091B0028A32E0E09E0778F3EE
:14092400662737C0D19AD99A222433243092B0022092AF02E9
:1409380009C08091AF029091B00201969093B0028093AF021D
:14094C008091AF029091B0028A32E0E09E0778F3D19A8BB3CD
:140960008D7F8BBB222433243092B0022092AF0209C08091E3
:14097400AF029091B00201969093B0028093AF028091AF02F9
:140988009091B0028A32E0E09E0778F363956E3138F24427D0
:14099C003EC0D19A8BB38D7F8BBB66270CC0000000000000F5
:1409B000000000000000000000000000000000006395242EE9
:1409C400332488EC90E02C0142185308262E332424143504E6
:1409D80044F320903E0330903F0325FC03C0D19AD99A04C05B
:1409EC00D19A8BB38D7F8BBB66270CC00000000000000000A3
:140A000000000000000000000000000000006395842F8E5C4D
:140A1400681780F34395483C08F4BFCF3BC2D19AD99AD09AB1
:140A28008BB38E7F8BBB222433243092B0022092AF0209C0EC
:140A3C008091AF029091B00201969093B0028093AF028091D0
:140A5000AF029091B0028A32E0E09E0778F3662737C0D19A93
:140A64008BB38D7F8BBB222433243092B0022092AF0209C0B1
:140A78008091AF029091B00201969093B0028093AF02809194
:140A8C00AF029091B0028A32E0E09E0778F3D19AD99A222422
:140AA00033243092B0022092AF0209C08091AF029091B002B6
:140AB40001969093B0028093AF028091AF029091B0028A32AD
:140AC800E0E09E0778F363956E3138F244273CC0D19AD99A44
:140ADC0066270CC000000000000000000000000000000000AD
:140AF0000000000000006395242E332488EC90E02C014218E6
:140B04005308262E33242414350444F320903E0330903F033C
:140B180025FC05C0D19A8BB38D7F8BBB02C0D19AD99A6627BB
:140B2C000CC0000000000000000000000000000000000000E9
:140B4000000000006395842F8E5C681780F34395483C08F4C2
:140B5400C1CFA0C1023009F09DC10099CEC080916100846096
:140B680080936100809162008B7F80936200809161008260BF
:140B7C0080936100809162008D7F809362002224332430929E
:140B9000B0022092AF0209C08091AF029091B0020196909324
:140BA400B0028093AF028091AF029091B0028A32E0E09E0711
:140BB80078F3662745C08091610084608093610080916200EF
:140BCC00846080936200222433243092B0022092AF0209C07F
:140BE0008091AF029091B00201969093B0028093AF0280912B
:140BF400AF029091B0028A32E0E09E0778F380916100846087
:140C080080936100809162008B7F8093620022243324309213
:140C1C00B0022092AF0209C08091AF029091B0020196909397
:140C3000B0028093AF028091AF029091B0028A32E0E09E0784
:140C440078F363956E3108F4B8CF442752C080916100846044
:140C580080936100809162008B7F8093620066270CC00000C9
:140C6C00000000000000000000000000000000000000000074
:140C80006395242E332488EC90E02C0142185308262E33244E
:140C94002414350444F320903C0330903D0325FC0BC08091B8
:140CA8006100846080936100809162008460809362000AC0E9
:140CBC0080916100846080936100809162008B7F8093620068
:140CD00066270CC000000000000000000000000000000000B7
:140CE4000000000000006395842F8E5C681780F34395483C19
:140CF80008F4ABCFCDC08091610084608093610080916200A8
:140D0C0084608093620080916100826080936100809162003F
:140D20008D7F80936200222433243092B0022092AF0209C001
:140D34008091AF029091B00201969093B0028093AF028091D5
:140D4800AF029091B0028A32E0E09E0778F3662745C08091E4
:140D5C006100846080936100809162008B7F80936200222492
:140D700033243092B0022092AF0209C08091AF029091B002E3
:140D840001969093B0028093AF028091AF029091B0028A32DA
:140D9800E0E09E0778F380916100846080936100809162003A
:140DAC00846080936200222433243092B0022092AF0209C09D
:140DC0008091AF029091B00201969093B0028093AF02809149
:140DD400AF029091B0028A32E0E09E0778F363956E3108F468
:140DE800B8CF442752C08091610084608093610080916200B6
:140DFC0084608093620066270CC00000000000000000000031
:140E10000000000000000000000000006395242E332488ECB9
:140E240090E02C0142185308262E33242414350444F3209065
:140E38003C0330903D0325FC0BC080916100846080936100B1
:140E4C00809162008B7F809362000AC080916100846080936D
:140E600061008091620084608093620066270CC000000000F8
:140E7400000000000000000000000000000000000000639572
:140E8800842F8E5C681780F34395483C08F4ABCF6991499121
:140E9C0008950E943726A02E24978A2D805487B983EC86B9A4
:140EB000CC24DD2403C0C60101966C01C6018436E0E09E07C9
:140EC400C0F386B180748034E1F3C4B0DD24C5B0DD2480E069
:140ED800888389838A838B83AA242CC083EC86B9CC24DD247B
:140EEC0003C0C60101966C01C6018436E0E09E07C0F386B194
:140F000080748034E1F3C4B0DD2425B03324322C2224C22832
:140F1400D328C60193706C011C0144245524688079808A80AE
:140F28009B80620C731C841C951C688279828A829B82A39407
:140F3C008A2D803288F287E090E0088119812A813B818A9340
:140F50000E946526088319832A833B834FEF50E060E070E0D0
:140F6400288039804A805B802422352246225722022D24960C
:140F78000C9440260E9437265801249722242EBC84EC90E23A
:140F8C008A159B0508F45C0185010E94A926088319832A83EE
:140FA0003B830CE910E00E94EF25CE019A938A930E944628BB
:140FB400088319832A833B83088119812A813B810E947726CE
:140FC80068011601442455244FEF5FEF60E070E042195309E1
:140FDC00640975095DBD4CBD86B7846086BF85E08EBDDFC13D
:140FF00089B38270869531F489B3847086958695813061F017
:1410040089B382708695813009F0BFC089B384708695869500
:1410180009F0B9C007E03FDFC02E2090390333244C2C55242B
:14102C0024143504DCF5D09AD89A80916100826080936100CA
:1410400080916200826080936200BF9A88B38F7788BBD29A89
:141054008BB38B7F8BBBD19A8BB38D7F8BBB809161008160AC
:1410680080936100809162008E7F80936200809161008460B5
:14107C0080936100809162008B7F8093620080913E03909187
:141090003F03806190933F0380933E038E7F90933F038093EB
:1410A4003E033EC020903603C214D0F5D09AD89A8091610027
:1410B80082608093610080916200826080936200BF9A88B370
:1410CC008F7788BBD29A8BB38B7F8BBBD19A8BB38D7F8BBBD2
:1410E00080916100816080936100809162008E7F8093620040
:1410F40080916100846080936100809162008B7F809362002C
:1411080080913E0390913F03846090933F0380933E038E7F74
:14111C0090933F0380933E0380913E0390913F03816090934D
:141130003F0380933E030C2D11270E94AB26088319832A835D
:141144003B8308E910E00E94EF25CE019A938A930E94462819
:14115800088319832A833B83088119812A813B810E94772628
:14116C00C8019070982F88278070E0913E03F0913F03F0706B
:14118000E82BF92BF0933F03E0933E0309C080913E0390916F
:141194003F038E7F90933F0380933E0389B39927847090704F
:1411A800959587959595879581709070880F991F8270907075
:1411BC00E0913E03F0913F03ED7FE82BF92BF0933F03E093CF
:1411D0003E0380B184708695869521F480B18170813049F04E
:1411E40080B1847086958695813009F0BBC00099B9C006E07F
:1411F80052DEC02E2090380333244C2C552424143504DCF550
:14120C00D09AD89A80916100826080936100809162008260D5
:1412200080936200BF9A88B38F7788BBD29A8BB38B7F8BBB6E
:14123400D19A8BB38D7F8BBB809161008160809361008091D3
:1412480062008E7F80936200809161008460809361008091D3
:14125C0062008B7F8093620080913C0390913D0380619093E8
:141270003D0380933C038E7F90933D0380933C033EC0209068
:141284003603C214D0F5D09AD89A80916100826080936100DE
:1412980080916200826080936200BF9A88B38F7788BBD29A2F
:1412AC008BB38B7F8BBBD19A8BB38D7F8BBB80916100816052
:1412C00080936100809162008E7F809362008091610084605B
:1412D40080936100809162008B7F8093620080913C0390912F
:1412E8003D03846090933D0380933C038E7F90933D03809396
:1412FC003C0380913C0390913D03816090933D0380933C0358
:141310000C2D11270E94AB26088319832A833B8308E910E072
:141324000E94EF25CE019A938A930E944628088319832A8302
:141338003B83088119812A813B810E947726C8019070982F8A
:14134C0088278070E0913C03F0913D03F070E82BF92BF09363
:141360003D03E0933C0309C080913C0390913D038E7F9093DD
:141374003D0380933C0380B199278170907081709070880F69
:14138800991F82709070E0913C03F0913D03ED7FE82BF92B93
:14139C00F0933D03E0933C03AA2019F4BB2009F403C026B67A
:1413B00022FE1ECE22242EBC24960C94402692D831D9D09A4F
:1413C400D89A80916100826080936100809162008260809373
:1413D8006200BF9A88B38F7788BBD29A8BB38B7F8BBBD19A5D
:1413EC008BB38D7F8BBB809161008160809361008091620023
:141400008E7F80936200809161008460809361008091620019
:141414008B7F80936200D09A8BB38E7F8BBB809161008260F6
:1414280080936100809162008D7F8093620080913E039091D5
:14143C003F038E7F90933F0380933E0389B3992784709070A4
:14145000959587959595879581709070880F991F82709070CA
:14146400E0913E03F0913F03ED7FE82BF92BF0933F03E09324
:141478003E03CF018B7F90933F0380933E03877F90933F0321
:14148C0080933E038F7E90933F0380933E038F7D90933F03C1
:1414A00080933E038F7390933F0380933E03907090933F03C4
:1414B40080933E0380913C0390913D038E7F90933D0380939C
:1414C8003C0380B199278170907081709070880F991F8270BD
:1414DC009070E0913C03F0913D03ED7FE82BF92BF0933D0325
:1414F000E0933C03CF018B7F90933D0380933C03877F90937E
:141504003D0380933C038F7E90933D0380933C038F7D909350
:141518003D0380933C038F7390933D0380933C039070909353
:14152C003D0380933C0322242092B10233243092B4022092ED
:14154000B30230921F0120921E0130921D0120921C01449AA2
:1415540088B1877F88B9469A88B1836088B9439A449A8091FA
:141568006A00836080936A0088B7816088BF89B7816089BFD5
:14157C007894949A02E310E0FBDC82B38F7E82BB0895809148
:141590003B03813018F481E080933B0386E020903B038215AF
:1415A40010F480933B0380913A03813018F486E080933A031D
:1415B80086E020903A03821510F480933A0310913B030DE114
:1415CC000103802D8D51805A8093390310913A030103802DC4
:1415E0008D51805A8093380380913703813018F481E0809375
:1415F400370386E020903703821510F4809337031091370396
:1416080005E00103802D85508B5F809336030895299780E070
:14161C0089838A838B838C831BC0CC24DD2403C0C601019697
:141630006C01C601883EE3E09E07C0F341E050E060E070E0B0
:1416440029803A804B805C80240E351E461E571E29823A82C3
:141658004B825C8248EE53E060E070E029803A804B805C80D0
:14166C002416350646065706C0F2A3DE02E310E07FDC0027C2
:1416800011270E944F2500933B0301E010E00E944F250093BD
:141694003A0302E010E00E944F25A02EA092360374DF04E0AD
:1416A800FADBA02E8A2D0E3110F00C94C62022242AB883B1B3
:1416BC008D7F83B9119A83B18D7F83B9FFCF0027112756DC4C
:1416D0008091B102823059F422242092B10288B7816088BF31
:1416E40089B7816089BF0C94C6208091B102813011F00C94ED
:1416F800C6202090B3023090B402222019F4332009F4BEC4FC
:14170C008BE691E0E0911C01F0911D01E80FF91F2090CD022C
:141720003090CE02208280911C0190911D01019690931D013E
:1417340080931C0120901E0130901F018215930511F00C94F2
:14174800BD208091B3029091B4028130E0E09E0709F0E7C05D
:14175C0088EE8093210180E48093220188E880932301222447
:141770002092240181E28093250182E28093260183E28093DC
:14178400270184E28093280182E38093290133243092AE021C
:141798002092AD021AC0A090AD02B090AE028BE691E0F5015B
:1417AC00E80FF91F208081E291E0F5013996E80FF91F208230
:1417C0008091AD029091AE0201969093AE028093AD02809147
:1417D400AD029091AE028034E0E09E07F0F224E130E00AE483
:1417E8000E94C1038091E3028930B1F48091E402853591F4FD
:1417FC008091E502803471F48091E602883851F48091CF02E8
:141810009091D00280709093D0028093CF0206C08AEA90E05E
:141824009093D0028093CF0288EE8093210180E48093220192
:1418380088E88093230181E08093240181E28093250182E25C
:14184C008093260183E28093270184E28093280182E3809394
:141860002901222433243092AE022092AD021CC0A090AD021F
:14187400B090AE028BE691E0F501E05CFF4FE80FF91F20805F
:1418880081E291E0F5013996E80FF91F20828091AD02909121
:14189C00AE0201969093AE028093AD028091AD029091AE02CB
:1418B0008034E0E09E07E0F224E130E00AE40E94C1038091BF
:1418C400E3028930B1F48091E402853591F48091E5028034EB
:1418D80071F48091E602883851F48091CF029091D0029070C4
:1418EC009093D0028093CF0209C08091CF029091D002956577
:141900009093D0028093CF02222433243092B4022092B3027E
:1419140030921F0120921E018AE08093CC020E9444210C941A
:14192800BD208091B3029091B4028230E0E09E0709F0E8C079
:14193C0088EE8093210180E48093220188E88093230182E049
:141950008093240181E28093250182E28093260183E2809399
:14196400270184E28093280182E380932901222433243092A4
:14197800AE022092AD021AC0A090AD02B090AE028BE691E0BF
:14198C00F501E80FF91F208081E291E0F5013996E80FF91FFA
:1419A00020828091AD029091AE0201969093AE028093AD02D4
:1419B4008091AD029091AE028034E0E09E07F0F224E130E07E
:1419C8000AE40E94C1038091E3028930B1F48091E4028535B2
:1419DC0091F48091E502803471F48091E602883851F4809152
:1419F000CF029091D00280709093D0028093CF0206C08AEA1C
:141A040090E09093D0028093CF0288EE8093210180E4809363
:141A1800220188E88093230183E08093240181E280932501B9
:141A2C0082E28093260183E28093270184E28093280182E361
:141A400080932901222433243092AE022092AD021CC0A090D9
:141A5400AD02B090AE028BE691E0F501E05CFF4FE80FF91F6E
:141A6800208081E291E0F5013996E80FF91F20828091AD02C0
:141A7C009091AE0201969093AE028093AD028091AD02909178
:141A9000AE028034E0E09E07E0F224E130E00AE40E94C1033E
:141AA4008091E3028930B1F48091E402853591F48091E502AC
:141AB800803471F48091E602883851F48091CF029091D0022E
:141ACC0090709093D0028093CF0209C08091CF029091D0028F
:141AE00095659093D0028093CF02222433243092B402209258
:141AF400B30230921F0120921E018BE08093CC020E94442123
:141B08000C94BD208091B3029091B4028330E0E09E0709F09E
:141B1C00A5C0222433243092B4022092B30230921F01209240
:141B30001E0189E08093CC02A0906C01BB24BA2CAA24209058
:141B44006B013324A228B328E0906E01FF24FE2CEE24209037
:141B58006D013324E228F32822243092AE022092AD0274C042
:141B6C0088EE8093210180E4809322018AE98093230188E00E
:141B8000809324012090AD023090AE0220922501232C3324CC
:141B940020922601A09227011501232C33242092280126E06D
:141BA80030E009E00E94C10322243324309219012092180186
:141BBC0039C084EE92E0E0911801F0911901EE0FFF1F319631
:141BD000E80FF91F208033243092D0022092CF02322C222440
:141BE4003092D0022092CF02E0911801F0911901EE0FFF1F96
:141BF800E80FF91F208033244090CF025090D002422853289B
:141C0C005092D0024092CF020E9444210AE010E0AFD98091F3
:141C2000180190911901019690931901809318018091180132
:141C3400909119018032E0E09E0708F4BECF8091AD029091E0
:141C4800AE0201969093AE028093AD022090AD023090AE02DD
:141C5C002E143F0408F484CF0C94BD208091B3029091B40286
:141C70008430E0E09E0711F00C94BD20222433243092D00298
:141C84002092CF0288EE8093210180E48093220184E8809305
:141C980023012092240181E28093250182E28093260183E29E
:141CAC008093270184E28093280182E3809329013092AE0233
:141CC0002092AD021AC0A090AD02B090AE028BE691E0F5012E
:141CD400E80FF91F208081E291E0F5013996E80FF91F208203
:141CE8008091AD029091AE0201969093AE028093AD0280911A
:141CFC00AD029091AE028034E0E09E07F0F224E130E00AE456
:141D10000E94C1038091E302893061F48091E402853541F46F
:141D24008091E502803421F48091E602843849F08091CF021A
:141D38009091D00281609093D0028093CF0288EE809321013F
:141D4C0080E48093220184E88093230181E08093240181E24A
:141D60008093250182E28093260183E28093270184E280937F
:141D7400280182E380932901222433243092AE022092AD0220
:141D88001CC0A090AD02B090AE028BE691E0F501E05CFF4F3A
:141D9C00E80FF91F208081E291E0F5013996E80FF91F20823A
:141DB0008091AD029091AE0201969093AE028093AD02809151
:141DC400AD029091AE028034E0E09E07E0F224E130E00AE49D
:141DD8000E94C1038091E302893061F48091E402853541F4A7
:141DEC008091E502803421F48091E602843849F08091CF0252
:141E00009091D00282609093D0028093CF0288EE8093210175
:141E140080E48093220184E88093230182E08093240181E280
:141E28008093250182E28093260183E28093270184E28093B6
:141E3C00280182E380932901222433243092AE022092AD0257
:141E50001CC0A090AD02B090AE028BE691E0F501E058FF4F75
:141E6400E80FF91F208081E291E0F5013996E80FF91F208271
:141E78008091AD029091AE0201969093AE028093AD02809188
:141E8C00AD029091AE028034E0E09E07E0F224E130E00AE4D4
:141EA0000E94C1038091E302893061F48091E402853541F4DE
:141EB4008091E502803421F48091E602843849F08091CF0289
:141EC8009091D00284609093D0028093CF0288EE80932101AB
:141EDC0080E48093220184E88093230183E08093240181E2B7
:141EF0008093250182E28093260183E28093270184E28093EE
:141F0400280182E380932901222433243092AE022092AD028E
:141F18001CC0A090AD02B090AE028BE691E0F501E054FF4FB0
:141F2C00E80FF91F208081E291E0F5013996E80FF91F2082A8
:141F40008091AD029091AE0201969093AE028093AD028091BF
:141F5400AD029091AE028034E0E09E07E0F224E130E00AE40B
:141F68000E94C1038091E302893061F48091E402853541F415
:141F7C008091E502803421F48091E602843849F08091CF02C0
:141F90009091D00288609093D0028093CF0288EE80932101DE
:141FA40080E48093220184E88093230184E08093240181E2ED
:141FB8008093250182E28093260183E28093270184E2809325
:141FCC00280182E380932901222433243092AE022092AD02C6
:141FE0001CC0A090AD02B090AE028BE691E0F501E050FF4FEC
:141FF400E80FF91F208081E291E0F5013996E80FF91F2082E0
:142008008091AD029091AE0201969093AE028093AD028091F6
:14201C00AD029091AE028034E0E09E07E0F224E130E00AE442
:142030000E94C1038091E302893061F48091E402853541F44C
:142044008091E502803421F48091E602843849F08091CF02F7
:142058009091D00280619093D0028093CF0222243324309268
:14206C00B4022092B30230921F0120921E018CE08093CC0243
:142080000E9444210C94BD202090CD023090CE023594279435
:142094003594279435942794359427942092CC028091CD024C
:1420A8009091CE02807F90705C018036E0E09E0709F4E2C21B
:1420BC0080E690E08A159B050CF433C0C5018033E0E09E072A
:1420D00009F4EDC080E390E08A159B05A4F0C5018031E0E075
:1420E4009E0709F45FC08031E0E09E0714F40C94BD20C501C6
:1420F8008032E0E09E0709F493C00C94BD20C5018034E0E0B6
:14210C009E0709F419C18034E0E09E0714F40C94BD20C501DF
:142120008035E0E09E0709F464C10C94BD20C5018039E0E0B3
:142134009E0709F4F1C680E990E08A159B05A4F0C501803715
:14214800E0E09E0709F49CC38037E0E09E0714F40C94BD2021
:14215C00C5018038E0E09E0709F4C9C40C94BD20C501803B04
:14217000E0E09E0711F40C94C61B80EB90E08A159B054CF01A
:14218400C501803AE0E09E0711F40C94FE1A0C94BD20C50162
:14219800803CE0E09E0711F40C948E1C0C94BD2088EE8093BD
:1421AC00210180E4809322018DE8809323018FE1809324010F
:1421C00025E030E009E00E94C1038091E302893099F480915A
:1421D400E402853579F48091E502803459F48091E6028D3833
:1421E80039F4222433243092D0022092CF0206C08FEF90E04E
:1421FC009093D0028093CF022090CF023090D002322C22243F
:142210003092D0022092CF023092D0022092CF020E94442185
:142224000C94BD2088EE8093210180E4809322018DE880935C
:1422380023018FE18093240125E030E009E00E94C103809151
:14224C00E3028930A1F48091E402853581F48091E502803479
:1422600061F48091E6028D3841F42090E70233243092D0029E
:142274002092CF0206C08FEF90E09093D0028093CF02209096
:14228800CF023090D002322C22243092D0022092CF02C10162
:14229C0080619093D0028093CF020E9444210C94BD200EE101
:1422B00010E00E94BE0705E00E944F0711270E94AB260D83AB
:1422C4001E832F8338870D811E812F8138850E947726109378
:1422D800D0020093CF020EE110E00E94BE072090CF02309035
:1422EC00D002322C22243092D0022092CF0204E00E944F0775
:1423000011270E94AB260D831E832F8338870D811E812F819F
:1423140038850E947726A02E2A2C33244090CF025090D002EB
:14232800422853285092D0024092CF020EE110E00E94BE071F
:14233C000E9444210C94BD2088EE8093210180E480932201C4
:1423500089E88093230189E08093240122E330E009E00E9490
:14236400C1032090E50233243092D0022092CF022090CF021B
:142378003090D002322C22243092D0022092CF022090E4026E
:14238C0033244090CF025090D002422853285092D002409228
:1423A000CF020E9444210EE110E00E94BE072090E70233241B
:1423B4003092D0022092CF022090CF023090D002322C222447
:1423C8003092D0022092CF022090E60233244090CF0250907A
:1423DC00D002422853285092D0024092CF020E9444210C9438
:1423F000BD2088EE8093210180E48093220189E8809323010F
:1424040089E08093240122E330E009E00E94C1032090E90224
:1424180033244424552430921501209214015092170140920D
:14242C00160188E090E02091160130911701009114011091C5
:1424400015018A930E945226109315010093140130931701FF
:14245400209316012090E802332444245524380149016228CB
:142468007328842895287092150160921401909217018092F1
:14247C0016014FEF5FEF60E070E013012401242235224622DB
:142490005722309215012092140150921701409216018101BB
:1424A40092010E94B42610934103009340033093430320939C
:1424B800420320904203309043033092D0022092CF020E9417
:1424CC0044212090CF023090D00220920001232C332427FC08
:1424E0003094209201010EE110E00E94BE0720904003309077
:1424F40041033092D0022092CF020E9444212090CF02309031
:14250800D00220920201232C332427FC3094209203010EE106
:14251C0010E00E94BE072090EB0233244424552430921501A7
:1425300020921401509217014092160188E090E0209116014D
:142544003091170100911401109115018A930E945226109373
:1425580015010093140130931701209316012090EA02332419
:14256C00442455243801490162287328842895287092150151
:142580006092140190921701809216014FEF5FEF60E070E0C1
:142594001301240124223522462257223092150120921401DD
:1425A8005092170140921601810192010E94B42610934103C4
:1425BC00009340033093430320934203209042033090430339
:1425D0003092D0022092CF020E9444212090CF023090D002C6
:1425E40020920401232C332427FC3094209205010EE110E008
:1425F8000E94BE0720904003309041033092D0022092CF025A
:14260C000E9444212090CF023090D00220920601232C332441
:1426200027FC3094209207010EE110E00E94BE0728E030E0A7
:1426340000E011E00E9456252090130133243092D002209243
:14264800CF022090CF023090D002322C22243092D0022092B0
:14265C00CF022090120133244090CF025090D0024228532847
:142670005092D0024092CF020E9444210C94BD20E090CD023C
:14268400F090CE02C7018136E0E09E0731F08236E0E09E07D0
:1426980011F00C94BD2080B184708695869521F480B181701E
:1426AC00813041F080B1847086958695813081F400990EC050
:1426C00080913E0390913F03806C90933F0380933E0304E6C2
:1426D40010E00E94BE07CAC089B38270869581F589B3847022
:1426E80086958695813051F58091CD029091CE028136E0E069
:1426FC009E0759F480913E0390913F038F73806490933F03D8
:1427100080933E0312C08091CD029091CE028236E0E09E07A1
:1427240051F480913E0390913F038F73806890933F03809345
:142738003E0304E610E00E94BE0796C089B3827086958130BB
:14274C0079F589B384708695869551F58091CD029091CE028E
:142760008136E0E09E0759F480913E0390913F038F7380685D
:1427740090933F0380933E0312C08091CD029091CE0282363D
:14278800E0E09E0751F480913E0390913F038F7380649093D5
:14279C003F0380933E0304E610E00E94BE0762C080913E03DE
:1427B00090913F038B7F90933F0380933E03877F90933F0384
:1427C40080933E038F7E90933F0380933E038F7D90933F0376
:1427D80080933E038F7390933F0380933E038091CD029091DD
:1427EC00CE028136E0E09E0719F4D29ADA9A0EC08091CD0252
:142800009091CE028236E0E09E0711F00C94C820D29A8BB383
:142814008B7F8BBBD09AD89A809161008260809361008091AB
:142828006200826080936200BF9AC79A04EF11E00E94BE07DE
:14283C0022242EBC8DEB90EF9DBD8CBD86B7846086BF85E0F3
:142850008EBD86B7846086BF01E00E94670426B622FEFDCF0D
:1428640022242EBC04EF11E00E94BE0720903E0330903F03F2
:142878003092D0022092CF020E9444210C94BD20E090CD0272
:14288C00F090CE02C7018137E0E09E072CF08CE790E08E1561
:1428A0009F0514F40C94BD2022E030E00091CD021091CE0218
:1428B4000E94B525A02E89B38270869531F489B3847086950D
:1428C8008695813051F089B382708695813099F489B3847038
:1428DC008695869571F480913C0390913D03806C90933D034D
:1428F00080933C0304E610E00E94BE07AEC080B18470869593
:14290400869501F580B181708130E1F4AA2059F480913C039F
:1429180090913D038F73806490933D0380933C030AC08091D4
:14292C003C0390913D038F73806890933D0380933C0304E66E
:1429400010E00E94BE0789C080B18470869586958130F1F4F2
:1429540000991CC0AA2059F480913C0390913D038F73806848
:1429680090933D0380933C030AC080913C0390913D038F7329
:14297C00806490933D0380933C0304E610E00E94BE0765C048
:1429900080913C0390913D038B7F90933D0380933C03877FBD
:1429A40090933D0380933C038F7E90933D0380933C038F7D9C
:1429B80090933D0380933C038F7390933D0380933C038A2DE8
:1429CC00813059F480916100816080936100809162008E7FB2
:1429E000809362000EC0AA2011F00C94C820809161008160FA
:1429F4008093610080916200816080936200D09AD89A8091A5
:142A0800610082608093610080916200826080936200BF9AE0
:142A1C00C79A04EF11E00E94BE0722242EBC8DEB90EF9DBD79
:142A30008CBD86B7846086BF85E08EBD86B7846086BF02E0EB
:142A44000E94670426B622FEFDCF22242EBC04EF11E00E94F3
:142A5800BE0720903C0330903D033092D0022092CF020E94FD
:142A6C00442182E790E02090CD023090CE028215930514F0D6
:142A80000C94BD2084E080937C0080937D00222420928A00C0
:142A940022E030E00091CD021091CE02025710400F5F1F4FC6
:142AA8000E94B925680104E81EE196010E9403266801160164
:142ABC004424552440E050E061E070E04219530964097509A2
:142AD000CA0101966C011C01232C332420928900C09288004B
:142AE400222420928B0085E080938A0084E080937C000C94C6
:142AF800BD208091CD029091CE028038E0E09E0701F50EE11A
:142B0C0010E00E94BE07D09AD89A80916100826080936100BA
:142B200080916200826080936200BF9AC79A0EE110E00E949C
:142B3400BE07222433243092D0022092CF020E9444210C946D
:142B4800BD208091CD029091CE028138E0E09E07F1F40EE1D9
:142B5C0010E00E94BE0720903E0330903F033092D0022092D5
:142B7000CF020E9444210EE110E00E94BE0720903C03309084
:142B84003D033092D0022092CF020E9444210C94BD20809151
:142B9800CD029091CE028238E0E09E0709F071C089B38270F2
:142BAC00869531F489B3847086958695813051F089B382704F
:142BC0008695813071F489B384708695869549F480913E03DB
:142BD40090913F03886090933F0380933E0380B184708695A9
:142BE800869521F480B18170813041F080B18470869586954A
:142BFC00813059F4009909C080913C0390913D0388609093A9
:142C10003D0380933C03D09AD89A809161008260809361007A
:142C240080916200826080936200BF9A88B38F7788BBD29A89
:142C38008BB38B7F8BBBD19A8BB38D7F8BBB809161008160AC
:142C4C0080936100809162008E7F80936200809161008460B5
:142C600080936100809162008B7F8093620008EC10E00E9474
:142C7400BE07222433243092D0022092CF020E9444210C942C
:142C8800BD208091CD029091CE028338E0E09E0709F05DC054
:142C9C00002711270E944F25C02EC0923B0301E010E00E94BE
:142CB0004F25C02EC0923A0302E010E00E944F25C02EC092F7
:142CC40037030E94C70A0EE110E00E94BE07209037033324C8
:142CD8003092D0022092CF022090CF023090D002220C331C41
:142CEC00220C331C220C331C220C331C3092D0022092CF0246
:142D000020903A0333244090CF025090D00242285328509261
:142D1400D0024092CF021201220C331C220C331C220C331CAC
:142D2800220C331C3092D0022092CF0220903B0333244090EE
:142D3C00CF025090D002422853285092D0024092CF020E9422
:142D500044210C94BD2083E890E02090CD023090CE0282150C
:142D6400930514F00C94BD20C1018438E0E09E0749F481E0C1
:142D780080933B03282F002711270E944725BAC08091CD02D8
:142D8C009091CE028538E0E09E0749F482E080933B03282FD9
:142DA000002711270E944725A9C08091CD029091CE028638BA
:142DB400E0E09E0749F483E080933B03282F002711270E945D
:142DC800472598C08091CD029091CE028738E0E09E0749F401
:142DDC0084E080933B03282F002711270E94472587C0809112
:142DF000CD029091CE028838E0E09E0749F485E080933B03F7
:142E0400282F002711270E94472576C08091CD029091CE02EF
:142E18008938E0E09E0749F486E080933B03282F00271127D6
:142E2C000E94472565C08091CD029091CE028A38E0E09E0767
:142E400049F481E080933A03282F01E010E00E94472554C046
:142E54008091CD029091CE028B38E0E09E0749F482E08093BF
:142E68003A03282F01E010E00E94472543C08091CD029091DF
:142E7C00CE028C38E0E09E0749F483E080933A03282F01E021
:142E900010E00E94472532C08091CD029091CE028D38E0E0E8
:142EA4009E0749F484E080933A03282F01E010E00E9447254E
:142EB80021C08091CD029091CE028E38E0E09E0749F485E087
:142ECC0080933A03282F01E010E00E94472510C08091CD02BC
:142EE0009091CE028F38E0E09E0741F486E080933A03282F7F
:142EF40001E010E00E9447250E94C70A0EE110E00E94BE0732
:142F0800222433243092D0022092CF020E9444210C94BD207D
:142F1C008091CD029091CE028039E0E09E0709F016C188EE6C
:142F30008093210180E48093220188EC80932301222420921B
:142F4400240124E030E009E00E94C103AA242FC004E110E05F
:142F58000E94BE0785EE92E0EA2DFF27EE0FFF1FE80FF91FB2
:142F6C00208033243092D0022092CF02322C22243092D0020B
:142F80002092CF0284EE92E0EA2DFF27EE0FFF1FE80FF91F6F
:142F9400208033244090CF025090D002422853285092D00246
:142FA8004092CF020E944421A3948A2D803270F288EE8093E0
:142FBC00210180E48093220188EC8093230181E08093240101
:142FD00024E030E009E00E94C103AA242FC085EE92E0EA2DD1
:142FE400FF27EE0FFF1FE80FF91F208033243092D00220924C
:142FF800CF02322C22243092D0022092CF0284EE92E0EA2D3E
:14300C00FF27EE0FFF1FE80FF91F208033244090CF025090E8
:14302000D002422853285092D0024092CF020E94442104E1A2
:1430340010E00E94BE07A3948A2D803270F288EE8093210184
:1430480080E48093220188EC8093230182E08093240124E091
:14305C0030E009E00E94C103AA242FC085EE92E0EA2DFF2722
:14307000EE0FFF1FE80FF91F208033243092D0022092CF0214
:14308400322C22243092D0022092CF0284EE92E0EA2DFF275C
:14309800EE0FFF1FE80FF91F208033244090CF025090D002B0
:1430AC00422853285092D0024092CF020E94442104E110E0F8
:1430C0000E94BE07A3948A2D803270F288EE8093210180E484
:1430D4008093220188EC8093230183E08093240124E030E058
:1430E80009E00E94C103AA242FC085EE92E0EA2DFF27EE0FA9
:1430FC00FF1FE80FF91F208033243092D0022092CF02322C27
:1431100022243092D0022092CF0284EE92E0EA2DFF27EE0F30
:14312400FF1FE80FF91F208033244090CF025090D0024228B6
:1431380053285092D0024092CF020E94442104E110E00E9433
:14314C00BE07A3948A2D803270F20C94BD208091CD0290912A
:14316000CE028139E0E09E0721F583E090E09093B402809397
:14317400B30284E090931F0180931E012224332430921D013C
:1431880020921C012092CB0288EC90932F0380932E0386E072
:14319C0082BF83B7866083BF86B7816086BF87B7816087BFB4
:1431B000E4C78091CD029091CE028239E0E09E07E9F588EE1B
:1431C4008093210180E4809322018CE88093230188E0809302
:1431D8002401222420922501209226018FEF809327018093FB
:1431EC00280189E0888328E833E109E00E9411048091E30278
:14320000893099F48091E402853579F48091E502803459F45D
:143214008091E6028C3839F4222433243092D0022092CF0208
:1432280006C08FEF9FEF9093D0028093CF020E9444219FC77A
:14323C008091CD029091CE028339E0E09E0709F022C188EE3A
:143250008093210180E48093220187E88093230122242092FD
:14326400240124E030E009E00E94C1038091E302803499F596
:14327800AA242EC004E110E00E94BE0785EE92E0EA2DFF2728
:14328C00EE0FFF1FE80FF91F208033243092D0022092CF02F6
:1432A000322C22243092D0022092CF0284EE92E0EA2DFF273E
:1432B400EE0FFF1FE80FF91F208033244090CF025090D00292
:1432C800422853285092D0024092CF02D9D7A3948A2D803266
:1432DC0078F288EE8093210180E48093220187E88093230189
:1432F00081E08093240124E030E009E00E94C1038091E302D8
:14330400803499F5AA242EC085EE92E0EA2DFF27EE0FFF1F7A
:14331800E80FF91F208033243092D0022092CF02322C2224E0
:14332C003092D0022092CF0284EE92E0EA2DFF27EE0FFF1F3A
:14334000E80FF91F208033244090CF025090D002422853283B
:143354005092D0024092CF0295D704E110E00E94BE07A3942F
:143368008A2D803278F288EE8093210180E48093220187E8CA
:14337C008093230182E08093240124E030E009E00E94C10309
:143390008091E302803499F5AA242EC004E110E00E94BE07F9
:1433A40085EE92E0EA2DFF27EE0FFF1FE80FF91F20803324D2
:1433B8003092D0022092CF02322C22243092D0022092CF022F
:1433CC0084EE92E0EA2DFF27EE0FFF1FE80FF91F20803324AB
:1433E0004090CF025090D002422853285092D0024092CF024A
:1433F40049D7A3948A2D803278F288EE8093210180E4809379
:14340800220187E88093230183E08093240124E030E009E04F
:14341C000E94C1038091E302803409F0A8C6AA242EC085EEF6
:1434300092E0EA2DFF27EE0FFF1FE80FF91F208033243092F6
:14344400D0022092CF02322C22243092D0022092CF0284EEF2
:1434580092E0EA2DFF27EE0FFF1FE80FF91F208033244090C0
:14346C00CF025090D002422853285092D0024092CF0204D7B2
:1434800004E110E00E94BE07A3948A2D803278F274C68091A7
:14349400CD029091CE028A39E0E09E07B1F481E080933703E9
:1434A800282F02E010E00E9447250E94C70A0EE110E00E94E5
:1434BC00BE07222433243092D0022092CF02DED656C68091A2
:1434D000CD029091CE028B39E0E09E07B1F482E080933703AB
:1434E400282F02E010E00E9447250E94C70A0EE110E00E94A9
:1434F800BE07222433243092D0022092CF02C0D638C68091A2
:14350C00CD029091CE028C39E0E09E07B1F483E0809337036C
:14352000282F02E010E00E9447250E94C70A0EE110E00E946C
:14353400BE07222433243092D0022092CF02A2D61AC68091A1
:14354800CD029091CE028D39E0E09E07B1F484E0809337032E
:14355C00282F02E010E00E9447250E94C70A0EE110E00E9430
:14357000BE07222433243092D0022092CF0284D6FCC58091A2
:14358400CD029091CE028E39E0E09E07B1F485E080933703F0
:14359800282F02E010E00E9447250E94C70A0EE110E00E94F4
:1435AC00BE07222433243092D0022092CF0266D6DEC58091A2
:1435C000CD029091CE028F39E0E09E0709F0D5C586E08093FE
:1435D4003703282F02E010E00E9447250E94C70A0EE110E020
:1435E8000E94BE07222433243092D0022092CF0247D6BFC513
:1435FC008091CD029091CE02803AE0E09E0729F581E090E0DC
:143610009093B4028093B30280E890931F0180931E012224E2
:14362400332430921D0120921C012092CB0288EE93E0909301
:143638002F0380932E0386E082BF83B7866083BF86B78160E1
:14364C0086BF87B7816087BF92C58091CD029091CE02813ADD
:14366000E0E09E0709F089C588EE8093210180E48093220165
:1436740087E88093230122242092240125E030E009E00E94DF
:14368800C1038091E302803499F5AA242EC004E110E00E94FF
:14369C00BE0785EE92E0EA2DFF27EE0FFF1FE80FF91F208069
:1436B00033243092D0022092CF02322C22243092D0022092AE
:1436C400CF0284EE92E0EA2DFF27EE0FFF1FE80FF91F208036
:1436D80033244090CF025090D002422853285092D0024092C9
:1436EC00CF02CCD5A3948A2D803278F288EE8093210180E43F
:143700008093220187E88093230181E08093240125E030E02B
:1437140009E00E94C1038091E302803409F02BC5AA242EC003
:1437280085EE92E0EA2DFF27EE0FFF1FE80FF91F208033244A
:14373C003092D0022092CF02322C22243092D0022092CF02A7
:1437500084EE92E0EA2DFF27EE0FFF1FE80FF91F2080332423
:143764004090CF025090D002422853285092D0024092CF02C2
:1437780087D504E110E00E94BE07A3948A2D803278F2F7C4E0
:14378C008091CD029091CE02803BE0E09E0729F582E090E048
:1437A0009093B4028093B30280E890931F0180931E01222451
:1437B400332430921D0120921C012092CB0288EE93E0909370
:1437C8002F0380932E0386E082BF83B7866083BF86B7816050
:1437DC0086BF87B7816087BFCAC48091CD029091CE02813B14
:1437F000E0E09E0709F0C1C488EE8093210180E4809322019D
:1438040087E88093230182E08093240125E030E009E00E94D0
:14381800C1038091E302803499F5AA242EC004E110E00E946D
:14382C00BE0785EE92E0EA2DFF27EE0FFF1FE80FF91F2080D7
:1438400033243092D0022092CF02322C22243092D00220921C
:14385400CF0284EE92E0EA2DFF27EE0FFF1FE80FF91F2080A4
:1438680033244090CF025090D002422853285092D002409237
:14387C00CF0204D5A3948A2D803278F288EE8093210180E475
:143890008093220187E88093230183E08093240125E030E098
:1438A40009E00E94C1038091E302803409F063C4AA242EC03B
:1438B80085EE92E0EA2DFF27EE0FFF1FE80FF91F20803324B9
:1438CC003092D0022092CF02322C22243092D0022092CF0216
:1438E00084EE92E0EA2DFF27EE0FFF1FE80FF91F2080332492
:1438F4004090CF025090D002422853285092D0024092CF0231
:14390800BFD404E110E00E94BE07A3948A2D803278F22FC4DF
:14391C008091CD029091CE02803CE0E09E0709F086C288EEEE
:143930008093210180E48093220189E88093230189E0809390
:14394400240122E330E009E00E94C1038091E302803409F043
:1439580010C42090E50233243092D0022092CF022090CF0201
:14396C003090D002322C22243092D0022092CF022090E40264
:1439800033244090CF025090D002422853285092D00240921E
:14399400CF0278D42090CF023090D00220920001232C332496
:1439A80027FC3094209201010EE110E00E94BE072090E70291
:1439BC0033243092D0022092CF022090CF023090D002322C18
:1439D00022243092D0022092CF022090E60233244090CF02F6
:1439E4005090D002422853285092D0024092CF0249D4209014
:1439F800CF023090D00220920201232C332427FC3094209264
:143A0C0003010EE110E00E94BE072090E90233244424552489
:143A20003092150120921401509217014092160188E090E038
:143A3400209116013091170100911401109115018A930E94C1
:143A480052261093150100931401309317012093160120903C
:143A5C00E80233244424552438014901622873288428952823
:143A7000709215016092140190921701809216014FEF5FEF34
:143A840060E070E0130124012422352246225722309215010F
:143A9800209214015092170140921601810192010E94B426DF
:143AAC00109341030093400330934303209342032090420353
:143AC000309043033092D0022092CF02DDD32090CF023090E4
:143AD400D00220920401232C332427FC3094209205010EE121
:143AE80010E00E94BE0720904003309041033092D002209236
:143AFC00CF02C4D32090CF023090D00220920601232C3324DC
:143B100027FC3094209207010EE110E00E94BE072090EB021D
:143B24003324442455243092150120921401509217014092EA
:143B3800160188E090E02091160130911701009114011091A2
:143B4C0015018A930E945226109315010093140130931701DC
:143B6000209316012090EA02332444245524380149016228A6
:143B74007328842895287092150160921401909217018092CE
:143B880016014FEF5FEF60E070E013012401242235224622B8
:143B9C00572230921501209214015092170140921601810198
:143BB00092010E94B426109341030093400330934303209379
:143BC400420320904203309043033092D0022092CF0258D36B
:143BD8002090CF023090D00220920801232C332427FC30947E
:143BEC00209209010EE110E00E94BE072090400330904103CC
:143C00003092D0022092CF023FD32090CF023090D0022092C2
:143C14000A01232C332427FC309420920B010EE110E00E94C5
:143C2800BE0720903E0330903F033092D0022092CF0226D3C0
:143C3C002090CF023090D00220920C01232C332427FC309415
:143C500020920D010EE110E00E94BE0720903C0330903D036B
:143C64003092D0022092CF020DD32090CF023090D002209290
:143C78000E01232C332427FC309420920F010EE110E00E9459
:143C8C00BE0704E00E944F0711270E94AB260D831E832F83F5
:143CA000388704E910E00E94EF25CE0105969A938A930E9468
:143CB40046280D831E832F83388700E910E00E94EF25CE018E
:143CC80005969A938A930E9446280D831E832F8338872D80A4
:143CDC003E804F8058840CE810E00E94EF253A932A931A939A
:143CF0000A93810192010E94D6260D831E832F8338870D8140
:143D04001E812F8138850E9477261093D0020093CF020EE198
:143D180010E00E94BE072090CF023090D002322C22243092C7
:143D2C00D0022092CF0205E00E944F07C02E11270E94AB26B8
:143D40000D831E832F83388704E910E00E94EF25CE010596D0
:143D54009A938A930E9446280D831E832F83388700E910E086
:143D68000E94EF25CE0105969A938A930E9446280D831E839C
:143D7C002F8338872D803E804F8058840CE810E00E94EF2512
:143D90003A932A931A930A93810192010E94D6260D831E8367
:143DA4002F8338870D811E812F8138850E947726A02E2A2C9D
:143DB80033244090CF025090D002422853285092D0024092E2
:143DCC00CF025CD22090CF023090D00220921001232C332468
:143DE00027FC3094209211010EE110E00E94BE0722E130E0CB
:143DF40000E011E059D62090130133243092D0022092CF0289
:143E08002090CF023090D002322C22243092D0022092CF02D8
:143E1C002090120133244090CF025090D0024228532850925E
:143E3000D0024092CF0228D2A0C18091CD029091CE02853C1C
:143E4400E0E09E0709F06AC188EE8093210180E4809322019C
:143E580083E88093230122242092240125E030E009E00E94F7
:143E6C00C1038091E302803499F5AA242EC004E110E00E9413
:143E8000BE0785EE92E0EA2DFF27EE0FFF1FE80FF91F20807D
:143E940033243092D0022092CF02322C22243092D0022092C2
:143EA800CF0284EE92E0EA2DFF27EE0FFF1FE80FF91F20804A
:143EBC0033244090CF025090D002422853285092D0024092DD
:143ED000CF02DAD1A3948A2D803278F288EE8093210180E449
:143EE4008093220183E88093230181E08093240125E030E044
:143EF80009E00E94C1038091E302803499F5AA242EC085EE00
:143F0C0092E0EA2DFF27EE0FFF1FE80FF91F2080332430920F
:143F2000D0022092CF02322C22243092D0022092CF0284EE0B
:143F340092E0EA2DFF27EE0FFF1FE80FF91F208033244090D9
:143F4800CF025090D002422853285092D0024092CF0296D13F
:143F5C0004E110E00E94BE07A3948A2D803278F288EE809382
:143F7000210180E48093220183E88093230182E08093240145
:143F840025E030E009E00E94C1038091E302803499F5AA24BF
:143F98002EC085EE92E0EA2DFF27EE0FFF1FE80FF91F20803B
:143FAC0033243092D0022092CF02322C22243092D0022092A9
:143FC000CF0284EE92E0EA2DFF27EE0FFF1FE80FF91F208031
:143FD40033244090CF025090D002422853285092D0024092C4
:143FE800CF024ED104E110E00E94BE07A3948A2D803278F28F
:143FFC0088EE8093210180E48093220183E88093230183E067
:144010008093240125E030E009E00E94C1038091E302803456
:1440240099F5AA242EC085EE92E0EA2DFF27EE0FFF1FE80F0A
:14403800F91F208033243092D0022092CF02322C22243092E8
:14404C00D0022092CF0284EE92E0EA2DFF27EE0FFF1FE80FD8
:14406000F91F208033244090CF025090D00242285328509223
:14407400D0024092CF0206D104E110E00E94BE07A3948A2DC2
:14408800803278F288EE8093210180E48093220183E8809345
:14409C00230184E08093240125E030E009E00E94C1038091DB
:1440B000E302803409F061C0AA242EC085EE92E0EA2DFF276B
:1440C400EE0FFF1FE80FF91F208033243092D0022092CF02B0
:1440D800322C22243092D0022092CF0284EE92E0EA2DFF27F8
:1440EC00EE0FFF1FE80FF91F208033244090CF025090D0024C
:14410000422853285092D0024092CF02BDD004E110E00E946B
:14411400BE07A3948A2D803278F22DC08091CD029091CE020A
:144128008A3CE0E09E0729F584E090E09093B4028093B302C5
:14413C0080E491E090931F0180931E012224332430921D01A8
:1441500020921C012092CB0280ED97E090932F0380932E0390
:1441640086E082BF83B7866083BF86B7816086BF87B78160BC
:1441780087BF22242092B10288B7816088BF89B7816089BF72
:14418C000C94650B299608951A922A928A939A931FB61A9280
:1441A00089B38270869531F489B3847086958695813051F045
:1441B40089B382708695813099F489B384708695869571F4A5
:1441C80080913E0390913F03806290933F0380933E038E7F86
:1441DC0090933F0380933E0380B184708695869521F480B175
:1441F0008170813041F080B1847086958695813081F40099CE
:144204000EC080913C0390913D03806290933D0380933C0390
:144218008E7F90933D0380933C03D09AD89A809161008260A0
:14422C008093610080916200826080936200BF9A88B38F77A6
:1442400088BBD29A8BB38B7F8BBBD19A8BB38D7F8BBB809121
:144254006100816080936100809162008E7F8093620080919A
:144268006100846080936100809162008B7F809362001990EE
:14427C001FBE999189912990199018954A938FB78F778FBF87
:14429000949A8091CC0288708695869586958093CA028091D4
:1442A400CC028470869586958093C9028091CC028270869544
:1442B8008093C8028091CC0281708093C7022FE030E00091B9
:1442CC00CF021091D002007010780E945E260093C6022EE013
:1442E00030E00091CF021091D002007010740E94AE250093E9
:1442F400C5022DE030E00091CF021091D002007010720E9469
:14430800AE250093C4022CE030E00091CF021091D002007014
:14431C0010710E94AE250093C3022BE030E00091CF02109121
:14433000D002007018700E94AE250093C2022AE030E0009138
:14434400CF021091D002007014700E94AE250093C10229E059
:1443580030E00091CF021091D002007012700E94AE25009372
:14436C00C0028091CF029091D002807091701C01232C3324F2
:1443800027FC30942092BF0227E030E00091CF021091D002E3
:14439400007810700E94AE250093BE0226E030E00091CF02DD
:1443A8001091D002007410700E94AE250093BD0225E030E0BE
:1443BC000091CF021091D002007210700E94AE250093BC0260
:1443D0008091CF029091D002807190701C01359427943594A9
:1443E400279435942794359427942092BB028091CF02909190
:1443F800D002887090701C013594279435942794359427943E
:14440C002092BA028091CF029091D002847090701C0135947F
:144420002794359427942092B9028091CF029091D002827015
:1444340090701C01359427942092B8028091CF029091D00292
:14444800817090708093B70281E08093B60242E00DC085EB18
:14445C0092E0E42FFF27E80FF91F20803090B6023224309262
:14447000B6024395463188F3222433243092B0022092AF0242
:1444840009C08091AF029091B00201969093B0028093AF0296
:144498008091AF029091B0028032E0E09E0778F382B38F7EB7
:1444AC0082BB222433243092B0022092AF0209C08091AF02C0
:1444C0009091B00201969093B0028093AF028091AF02909102
:1444D400B0028031E0E09E0778F3959A222433243092B00261
:1444E8002092AF0209C08091AF029091B00201969093B00293
:1444FC008093AF028091AF029091B0028032E0E09E0778F3D1
:1445100082B38F7D82BB222433243092B0022092AF0209C0DC
:144524008091AF029091B00201969093B0028093AF028091AD
:14453800AF029091B0028031E0E09E0778F3949A222433249F
:14454C003092B0022092AF0209C08091AF029091B00201968F
:144560009093B0028093AF028091AF029091B0028032E0E0A7
:144574009E0778F3222433243092B0022092AF0209C08091D5
:14458800AF029091B00201969093B0028093AF028091AF02A9
:14459C009091B0028032E0E09E0778F3222433243092B002A5
:1445B0002092AF0209C08091AF029091B00201969093B002CA
:1445C4008093AF028091AF029091B0028032E0E09E0778F308
:1445D800222433243092B0022092AF0209C08091AF029091AF
:1445EC00B00201969093B0028093AF028091AF029091B00244
:144600008032E0E09E0778F3222433243092B0022092AF02B0
:1446140009C08091AF029091B00201969093B0028093AF0204
:144628008091AF029091B0028032E0E09E0778F382B38F7E25
:14463C0082BB222433243092B0022092AF0209C08091AF022E
:144650009091B00201969093B0028093AF028091AF02909170
:14466400B0028031E0E09E0778F345E10CC185EB92E0E42F27
:14467800FF27E80FF91F2080222009F469C0959A2224332425
:14468C003092B0022092AF0209C08091AF029091B00201964E
:1446A0009093B0028093AF028091AF029091B0028032E0E066
:1446B4009E0778F382B38F7D82BB222433243092B0022092A1
:1446C800AF0209C08091AF029091B00201969093B002809350
:1446DC00AF028091AF029091B0028031E0E09E0778F3949AD5
:1446F000222433243092B0022092AF0209C08091AF02909196
:14470400B00201969093B0028093AF028091AF029091B0022A
:144718008032E0E09E0778F382B38F7E82BB2224332430922D
:14472C00B0022092AF0209C08091AF029091B002019690934C
:14474000B0028093AF028091AF029091B0028031E0E09E0744
:1447540078F398C0959A222433243092B0022092AF0209C022
:144768008091AF029091B00201969093B0028093AF02809167
:14477C00AF029091B0028032E0E09E0778F382B38F7D82BBA5
:14479000222433243092B0022092AF0209C08091AF029091F5
:1447A400B00201969093B0028093AF028091AF029091B0028A
:1447B8008031E0E09E0778F3949A222433243092B00220927B
:1447CC00AF0209C08091AF029091B00201969093B00280934B
:1447E000AF028091AF029091B0028032E0E09E0778F32224B7
:1447F40033243092B0022092AF0209C08091AF029091B00225
:1448080001969093B0028093AF028091AF029091B002803225
:14481C00E0E09E0778F3222433243092B0022092AF0209C07B
:144830008091AF029091B00201969093B0028093AF0280919E
:14484400AF029091B0028032E0E09E0778F382B38F7E82BBDB
:14485800222433243092B0022092AF0209C08091AF0290912C
:14486C00B00201969093B0028093AF028091AF029091B002C1
:144880008031E0E09E0778F34A9580E0841708F4F0CE959AE0
:14489400222433243092B0022092AF0209C08091AF029091F0
:1448A800B00201969093B0028093AF028091AF029091B00285
:1448BC008032E0E09E0778F382B38F7D82BB22243324309289
:1448D000B0022092AF0209C08091AF029091B00201969093A7
:1448E400B0028093AF028091AF029091B0028031E0E09E079F
:1448F80078F3949A222433243092B0022092AF0209C08091C5
:14490C00AF029091B00201969093B0028093AF028091AF0221
:144920009091B0028032E0E09E0778F3222433243092B0021D
:144934002092AF0209C08091AF029091B00201969093B00242
:144948008093AF028091AF029091B0028032E0E09E0778F380
:14495C00222433243092B0022092AF0209C08091AF02909127
:14497000B00201969093B0028093AF028091AF029091B002BC
:144984008032E0E09E0778F3222433243092B0022092AF0229
:1449980009C08091AF029091B00201969093B0028093AF027D
:1449AC008091AF029091B0028032E0E09E0778F32224332443
:1449C0003092B0022092AF0209C08091AF029091B002019617
:1449D4009093B0028093AF028091AF029091B0028032E0E02F
:1449E8009E0778F3222433243092B0022092AF0209C080915D
:1449FC00AF029091B00201969093B0028093AF028091AF0231
:144A10009091B0028032E0E09E0778F3222433243092B0022C
:144A24002092AF0209C08091AF029091B00201969093B00251
:144A38008093AF028091AF029091B0028032E0E09E0778F38F
:144A4C0082B38F7E82BB222433243092B0022092AF0209C09A
:144A60008091AF029091B00201969093B0028093AF0280916C
:144A7400AF029091B0028031E0E09E0778F388B7886088BFBB
:144A8800789449910895E199FECF1FBB0EBB2DBBE29AE19ACE
:144A9C000895E199FECF1FBB0EBBE09A0DB308950E94A92538
:144AB0000E941E2621978FEF809313018093120161E080EADE
:144AC400A82E4427552738C0FA010B841C84E00DF11D208064
:144AD80030901201322430921201CC24DD242090130128826D
:144AEC00E09012012694209213012E2C2694209212018881D1
:144B00008170813021F4822D8068809312018E2D81708130D0
:144B140051F4209013012A24209213012090120126262092AF
:144B28001201C60101966C018830E0E09E07BCF24F5F5F4F74
:144B3C00C90102974817590708F4C2CF21960E94132624966A
:144B500008953A932A931A930A930895222321F015950795A7
:144B64002A95FACF08956894DA92D12E04C0E894DA92D12E06
:144B7800D32617FF04C0109500950F5F1F4F37FF04C0309581
:144B8C0020952F5F3F4F0E94D625D7FE04C0109500950F5F66
:144BA0001F4FD9900895689401C0E894EA92FA928A93EE241D
:144BB400FF2480E1000F111FEE1CFF1CE216F30618F0E21A10
:144BC800F30A03958A95A1F716F40E2D1F2D8991F990E990E0
:144BDC000895EA93FA930A92E02FF12FD895002D3196D89585
:144BF000102D3196D895202D3196D895302D0990F991E991C5
:144C040008950A921A928A939A93029FC001129F900D039F1B
:144C1800900D8C0199918991199009900895A990B990C99060
:144C2C00D990E990F990499159916991799108957A936A939A
:144C40005A934A93FA92EA92DA92CA92BA92AA9208957A9394
:144C54006A935A934A93BA92AA920895A990B990499159911A
:144C68006991799108957A936A935A934A93DA92CA92BA92AF
:144C7C00AA920895A990B990C990D99049915991699179913F
:144C9000089500951095209530950F5F1F4F2F4F3F4F08953A
:144CA4000F920990002031F0000F111F221F331F0A94F8CF4A
:144CB8000F900895222321F0169507952A95FACF08950F9249
:144CCC000990002031F036952795179507950A94F8CF0F9027
:144CE0000895112319F006951A95FBCF08954A925A926A9271
:144CF4008A930E94772711F15520E2F08FE14816C0F487E11C
:144D08004816D1F058F4419489EE481A05C035952795179587
:144D1C0007954A94D1F70EC087E1481A000F111F221F331FD7
:144D30004A94D1F705C03FE7232F132F032F04C0662011F0CD
:144D44000E94492689916990599049900895689401C0E8949F
:144D58002227332746F017FD209517FD309503C0689401C04C
:144D6C00E8944A925A926A928A9387E1482E5524662436F0CF
:144D8000332322F40E94492680E8682E0E9490278991699038
:144D9400599049900895FA93EA93EA81FB8127D0E991F991C0
:144DA80022960895FA93EA93EC2FFD2F32961DD0E991F99198
:144DBC0024960895FA93EA93EA81FB8114D0E991F9913983F7
:144DD00028831A930A930895FA93EA93EC2FFD2F329607D04D
:144DE400E991F9913B832A831983088308950A921A922A9284
:144DF8003A920E94D5273A932A931A930A93008111812281B3
:144E0C0033810E94772709F457C0E62CD52CC42CB32EA22ED6
:144E2000912E802E09911991299139910E947727A1F16E24E5
:144E34004C185D0880E8481653060CF033C081E848168FEF4E
:144E480058060CF436C080E23324232E122E012E302F2227E1
:144E5C001127002726941794079437952795000F111F221FDB
:144E7000331F001C111C221C331C28F0081819082A083B0838
:144E840004C0080C191C2A1C3B1C0AF001608A9551F70E940C
:144E980090270E94E427399029901990099008950FEF102F04
:144EAC002FE73FE7662099F30E944926F0CF0027102F202F1F
:144EC000302FEBCF0991199129913991EDCF0FD029F06620C3
:144ED40011F00E94492698940895002329F4112319F4222329
:144EE80009F433230895F7DF99F08A93632E80E86822220F96
:144EFC00331F432E8FE7481A55248827580A269530E8232B5C
:144F100033278991989408954424552466240895DEDF09F48E
:144F24000895AA93BA93D2019A938A938EE790E0332349F0C1
:144F38003695279517950795A817B907CCF41196F5CF8095D7
:144F4C00909501962223BAF0000F111F221FA817B90714F0A3
:144F60001197F6CF0027112722273327899199912D01B99112
:144F7400A991089533270FEF102F2FE7322F899199912D01D2
:144F880002C0AA93BA93A7DF49F0D201A158BF4F2D01342DA1
:144F9C00220F369527953629B991A99108954A925A926A9205
:144FB0007A928A929A92AA92BA92CA92DA92EA92FA928A9324
:144FC4009A93089599918991F990E990D990C990B990A99085
:144FD80099908990799069905990499008950E94D527AA9347
:144FEC00BA930E947727E1F1E62CD52CC42CB32EA22E912EDF
:14500000802E00811181228133810E94772771F16E244C0CF8
:145014005D1C80E84816530664F581E848168FEF58066CF197
:14502800A29EB12DA02D919E912D802DA09E800D911DA31FB4
:14503C00B31F829E800D911DA31FB31F929E900DA11DB31F42
:14505000A19E900DA11DB31F2B2F1A2F092F880F001F111F1F
:14506400221F331F0E949027B991A9910E94E42708950FEF80
:14507800102F2FE78FE7482EF5CF0027102F202F302FF0CF4C
:14508C00FA93EA93EA81FB810E94F327E991F991229608950A
:00000001FF
