:100000000C9446000C9465000C9465000C946500FB
:100010000C9465000C9467000C94BB000C941D3587
:100020000C9465000C9465000C9465000C946500BC
:100030000C9465000C9465000C947C000C94650095
:100040000C9465000C9465000C9465000C9465009C
:100050000C9465000C9465000C9465000C9465008C
:100060000C9465000C9465000C9465000C9465007C
:100070000C9465000C94A2000C94C73B0C94650092
:100080000C9465000C9465000C94650011241FBE4F
:10009000CFEFD0E1DEBFCDBF18E0A0E0B1E0E2EBF2
:1000A000F5EB00E00BBF02C007900D92AE35B10733
:1000B000D9F71FE0AEE5B8E001C01D92AD3FB10732
:1000C000E1F70E9462320C94D85A0C9400001F92FF
:1000D0000F920FB60F9211248F93CF93DF93CDB76A
:1000E000DEB781E080935E08DF91CF918F910F9012
:1000F0000FBE0F901F9018951F920F920FB60F9280
:1001000011248F93EF93FF93CF93DF93CDB7DEB797
:10011000EDE4F0E082EC8083ECE4F0E087EF8083B4
:1001200081E080936708809168088F5F80936808FA
:10013000DF91CF91FF91EF918F910F900FBE0F90B4
:100140001F9018951F920F920FB60F9211248F9344
:10015000CF93DF93CDB7DEB71092E10D1092E00D93
:1001600081E080936508DF91CF918F910F900FBE52
:100170000F901F9018951F920F920FB60F92112497
:100180002F933F938F939F93AF93BF93EF93FF93DF
:10019000CF93DF93CDB7DEB76B97DEBFCDBFF894BB
:1001A0001092690805C0809169088F5F8093690883
:1001B000809169088730B8F3000000001092690848
:1001C00005C0809169088F5F8093690880916908F4
:1001D0008730B8F300000000E1E2F0E08081992769
:1001E00080729070009761F4A8E5B0E0E8E5F0E077
:1001F000808180628C93E5E4F0E0108278941DC2E7
:10020000E4E4F0E01082E5E4F0E083E0808388EC51
:100210008E837FC00000000000000000000000008E
:1002200000000000000000000000000000000000CE
:1002300000000000000000000000000000000000BE
:1002400000000000000000000000000000000000AE
:10025000000000000000000000000000000000009E
:10026000000000000000000000000000000000008E
:10027000000000000000000000000000000000007E
:10028000000000000000000000000000000000006E
:1002900000000000E8E5F0E080819927807290700E
:1002A0000097A1F11092690805C0809169088F5FDD
:1002B00080936908809169088730B8F300000000D6
:1002C0001092690805C0809169088F5F8093690862
:1002D000809169088730B8F300000000E1E2F0E0A7
:1002E0008081992780729070009741F4A8E5B0E072
:1002F000E8E5F0E0808180628C9308C0A8E5B0E07A
:10030000E8E5F0E0808180628C9307C08E818150A7
:100310008E838E81882309F07DCFE4E4F0E0808134
:100320008B83E4E4F0E010828B81893748F08B8185
:10033000803A30F481E08093BF081A821E82ECC0BC
:100340001092BF08E5E4F0E01082789476C18CE862
:100350008D837FC00000000000000000000000004E
:10036000000000000000000000000000000000008D
:10037000000000000000000000000000000000007D
:10038000000000000000000000000000000000006D
:10039000000000000000000000000000000000005D
:1003A000000000000000000000000000000000004D
:1003B000000000000000000000000000000000003D
:1003C000000000000000000000000000000000002D
:1003D00000000000E8E5F0E08081992780729070CD
:1003E0000097A1F11092690805C0809169088F5F9C
:1003F00080936908809169088730B8F30000000095
:100400001092690805C0809169088F5F8093690820
:10041000809169088730B8F300000000E1E2F0E065
:100420008081992780729070009741F4A8E5B0E030
:10043000E8E5F0E0808180628C9308C0A8E5B0E038
:10044000E8E5F0E0808180628C9307C08D81815067
:100450008D838D81882309F07DCFE4E4F0E08081F5
:100460008B83E4E4F0E010828B81893270F08B8121
:10047000803558F48A81282F3327CE010796FC0156
:10048000E20FF31F81E0808341C08B81813568F0EA
:100490008B81883750F48A81282F3327CE01079625
:1004A000FC01E20FF31F108231C0A8E3B0E0E8E3E3
:1004B000F0E0808180628C931092690805C0809181
:1004C00069088F5F80936908809169088730B8F365
:1004D000000000001092690805C0809169088F5FD4
:1004E00080936908809169088730B8F300000000A4
:1004F000A8E3B0E0E8E3F0E080818F7D8C93109278
:10050000BF08E5E4F0E01082789497C08A818F5F9D
:100510008A838E818F5F8E838E81853108F417CF19
:1005200081E089831E8212C08E81282F3327CE015D
:100530000796FC01E20FF31F8081882321F0898157
:1005400091E0892789838E818F5F8E838E818431AC
:1005500058F39B8D8981981739F082E08093BC080D
:1005600081E08093B90805C01092BC0881E08093B7
:10057000B9081C821E8214C08C81880F8C838E81E6
:10058000282F3327CE010796FC01E20FF31F80814D
:10059000882319F08C8181608C838E818F5F8E839C
:1005A0008E81843048F38C818093BA081C8284E069
:1005B0008E8314C08C81880F8C838E81282F3327E3
:1005C000CE010796FC01E20FF31F8081882319F00A
:1005D0008C8181608C838E818F5F8E838E818C3045
:1005E00048F38C818093BE081C828CE08E8314C0FB
:1005F0008C81880F8C838E81282F3327CE0107961C
:10060000FC01E20FF31F8081882319F08C81816047
:100610008C838E818F5F8E838E81843148F38C81B1
:100620008093BD08A8E5B0E0E8E5F0E08081806255
:100630008C93E5E4F0E0108278946B96F894DEBF3A
:10064000CDBFDF91CF91FF91EF91BF91AF919F917E
:100650008F913F912F910F900FBE0F901F90189583
:10066000CF93DF93CDB7DEB726970FB6F894DEBFF2
:100670000FBECDBF9E838D831C821B8213C01A8246
:10068000198205C089819A8101969A83898389811B
:100690009A8123E088349207A8F38B819C8101968C
:1006A0009C838B832B813C818D819E812817390708
:1006B00030F326960FB6F894DEBF0FBECDBFDF91A4
:1006C000CF910895CF93DF93CDB7DEB726970FB6BE
:1006D000F894DEBF0FBECDBF9E838D831C821B822C
:1006E00011C01A82198205C089819A8101969A8364
:1006F000898389819A810097B9F38B819C810196C6
:100700009C838B832B813C818D819E8128173907A7
:1007100040F326960FB6F894DEBF0FBECDBFDF9133
:10072000CF910895CF93DF93CDB7DEB722970FB661
:10073000F894DEBF0FBECDBF9A83898389819A81E9
:1007400001979A83898389819A812FEF8F3F92073E
:10075000A9F722960FB6F894DEBF0FBECDBFDF918A
:10076000CF910895CF93DF93CDB7DEB72C970FB617
:10077000F894DEBF0FBECDBFA9E5B0E0E9E5F0E03B
:1007800080818F7D8C93A2E6B0E0E2E6F0E090817C
:100790008FE789238C930000000000000000000018
:1007A0000000000000000000000000000000000049
:1007B0000000000000000000000000000000000039
:1007C0000000000000000000000000000000000029
:1007D0000000000000000000000000000000000019
:1007E0000000000000000000000000000000000009
:1007F00000000000000000000000000000000000F9
:1008000000000000000000000000000000000000E8
:1008100000000000000000000000000000000000D8
:1008200000000000000000000000000000000000C8
:1008300000000000000000000000000000000000B8
:1008400000000000000000000000000000000000A8
:100850000000000000000000000000000000000098
:100860000000000000000000000000000000000088
:100870000000000000000000000000000000000078
:100880000000000000000000000000000000000068
:10089000000000000000A2E6B0E0E2E6F0E08081A7
:1008A00080648C9381E090E00E94300380915F0926
:1008B0008A8381E089831B8221C08A8188237CF41A
:1008C0008B81282F3327CE010496FC01E20FF31F02
:1008D00081E08083998181E08927898309C08B81A8
:1008E000282F3327CE010496FC01E20FF31F10825C
:1008F0008A81880F8A838B818F5F8B838B8188307D
:10090000E0F289818C87A2E6B0E0E2E6F0E0808147
:100910008F7B8C93000000000000000000000000AE
:1009200000000000000000000000000000000000C7
:1009300000000000000000000000000000000000B7
:1009400000000000000000000000000000000000A7
:100950000000000000000000000000000000000097
:100960000000000000000000000000000000000087
:100970000000000000000000000000000000000077
:100980000000000000000000000000000000000067
:100990000000000000000000000000000000000057
:1009A0000000000000000000000000000000000047
:1009B0000000000000000000000000000000000037
:1009C0000000000000000000000000000000000027
:1009D0000000000000000000000000000000000017
:1009E0000000000000000000000000000000000007
:1009F00000000000000000000000000000000000F7
:100A000000000000000000000000000000000000E6
:100A100000000000A2E6B0E0E2E6F0E0808180683D
:100A20008C931092690805C0809169088F5F80934C
:100A30006908809169088B37B8F300000000000056
:100A400000000000000000000000000000000000A6
:100A50000000000000000000000000000000000096
:100A60000000000000000000000000000000000086
:100A70000000000000000000000000000000000076
:100A80000000000000000000000000001092690853
:100A900005C0809169088F5F80936908809169081B
:100AA0008730B8F3000000001092690805C08091FB
:100AB00069088F5F80936908809169088730B8F36F
:100AC00000000000A2E6B0E0E2E6F0E090818FE7EF
:100AD00089238C930000000000000000000000004B
:100AE0000000000000000000000000000000000006
:100AF00000000000000000000000000000000000F6
:100B000000000000000000000000000000000000E5
:100B100000000000000000000000000000000000D5
:100B200000000000000000000000000000000000C5
:100B300000000000000000000000000000000000B5
:100B400000000000000000000000000000000000A5
:100B50000000000000000000000000000000000095
:100B60000000000000000000000000000000000085
:100B70000000000000000000000000000000000075
:100B80000000000000000000000000000000000065
:100B90000000000000000000000000000000000055
:100BA0000000000000000000000000000000000045
:100BB0000000000000000000000000000000000035
:100BC0000000000000000000000000000000000025
:100BD00000000000A2E6B0E0E2E6F0E08081806480
:100BE0008C931092690805C0809169088F5F80938B
:100BF0006908809169088B37B8F300000000000095
:100C000000000000000000000000000000000000E4
:100C100000000000000000000000000000000000D4
:100C200000000000000000000000000000000000C4
:100C300000000000000000000000000000000000B4
:100C40000000000000000000000000001092690891
:100C500005C0809169088F5F809369088091690859
:100C60008730B8F3000000001092690805C0809139
:100C700069088F5F80936908809169088730B8F3AD
:100C8000000000001092690805C0809169088F5F1C
:100C900080936908809169088C34B8F300000000E3
:100CA0000000000000000000000000000000000044
:100CB0000000000000000000000000000000000034
:100CC0000000000000000000000000000000000024
:100CD0000000000000000000000000001092690801
:100CE00005C0809169088F5F8093690880916908C9
:100CF0008C34B8F300000000000000000000000089
:100D000000000000000000000000000000000000E3
:100D100000000000000000000000000000000000D3
:100D200000000000000000000000000000000000C3
:100D300000000000A2E6B0E0E2E6F0E080818F7BF8
:100D40008C93000000000000000000000000000084
:100D50000000000000000000000000000000000093
:100D60000000000000000000000000000000000083
:100D70000000000000000000000000000000000073
:100D80000000000000000000000000000000000063
:100D90000000000000000000000000000000000053
:100DA0000000000000000000000000000000000043
:100DB0000000000000000000000000000000000033
:100DC0000000000000000000000000000000000023
:100DD0000000000000000000000000000000000013
:100DE0000000000000000000000000000000000003
:100DF00000000000000000000000000000000000F3
:100E000000000000000000000000000000000000E2
:100E100000000000000000000000000000000000D2
:100E200000000000000000000000000000000000C2
:100E300000000000000000000000000000000000B2
:100E40000000A2E6B0E0E2E6F0E0808180688C93EA
:100E50001092690805C0809169088F5F80936908C6
:100E6000809169088B37B8F3000000000000000093
:100E70000000000000000000000000000000000072
:100E80000000000000000000000000000000000062
:100E90000000000000000000000000000000000052
:100EA0000000000000000000000000000000000042
:100EB000000000000000000000001092690805C05A
:100EC000809169088F5F80936908809169088730F5
:100ED000B8F3000000001092690805C0809169080D
:100EE0008F5F80936908809169088730B8F30000AC
:100EF0000000A2E6B0E0E2E6F0E090818FE789230F
:100F00008C930000000000000000000000000000C2
:100F100000000000000000000000000000000000D1
:100F200000000000000000000000000000000000C1
:100F300000000000000000000000000000000000B1
:100F400000000000000000000000000000000000A1
:100F50000000000000000000000000000000000091
:100F60000000000000000000000000000000000081
:100F70000000000000000000000000000000000071
:100F80000000000000000000000000000000000061
:100F90000000000000000000000000000000000051
:100FA0000000000000000000000000000000000041
:100FB0000000000000000000000000000000000031
:100FC0000000000000000000000000000000000021
:100FD0000000000000000000000000000000000011
:100FE0000000000000000000000000000000000001
:100FF00000000000000000000000000000000000F1
:101000000000A2E6B0E0E2E6F0E0808180648C932C
:101010001092690805C0809169088F5F8093690804
:10102000809169088B37B8F30000000000000000D1
:1010300000000000000000000000000000000000B0
:1010400000000000000000000000000000000000A0
:101050000000000000000000000000000000000090
:101060000000000000000000000000000000000080
:10107000000000000000000000001092690805C098
:10108000809169088F5F8093690880916908873033
:10109000B8F3000000001092690805C0809169084B
:1010A0008F5F80936908809169088730B8F30000EA
:1010B00000001092690805C0809169088F5F8093D5
:1010C0006908809169088C34B8F3000000000000C2
:1010D0000000000000000000000000000000000010
:1010E0000000000000000000000000000000000000
:1010F00000000000000000000000000000000000F0
:10110000000000000000000000001092690805C007
:10111000809169088F5F80936908809169088C3499
:10112000B8F3000000000000000000000000000014
:1011300000000000000000000000000000000000AF
:10114000000000000000000000000000000000009F
:10115000000000000000000000000000000000008F
:1011600000001B820C94630D8B81282F3327CE0146
:101170000496FC01E20FF31F8081882309F450C21A
:10118000A2E6B0E0E2E6F0E080818F7B8C93000085
:10119000000000000000000000000000000000004F
:1011A000000000000000000000000000000000003F
:1011B000000000000000000000000000000000002F
:1011C000000000000000000000000000000000001F
:1011D000000000000000000000000000000000000F
:1011E00000000000000000000000000000000000FF
:1011F00000000000000000000000000000000000EF
:1012000000000000000000000000000000000000DE
:1012100000000000000000000000000000000000CE
:1012200000000000000000000000000000000000BE
:1012300000000000000000000000000000000000AE
:10124000000000000000000000000000000000009E
:10125000000000000000000000000000000000008E
:10126000000000000000000000000000000000007E
:10127000000000000000000000000000000000006E
:101280000000000000000000000000000000A2E6D6
:10129000B0E0E2E6F0E0808180688C93109269080B
:1012A00005C0809169088F5F809369088091690803
:1012B0008B37B8F3000000000000000000000000C1
:1012C000000000000000000000000000000000001E
:1012D000000000000000000000000000000000000E
:1012E00000000000000000000000000000000000FE
:1012F00000000000000000000000000000000000EE
:101300000000000000001092690805C08091690883
:101310008F5F80936908809169088730B8F3000077
:1013200000001092690805C0809169088F5F809362
:101330006908809169088730B8F300000000A2E6D0
:10134000B0E0E2E6F0E090818FE789238C93000023
:10135000000000000000000000000000000000008D
:10136000000000000000000000000000000000007D
:10137000000000000000000000000000000000006D
:10138000000000000000000000000000000000005D
:10139000000000000000000000000000000000004D
:1013A000000000000000000000000000000000003D
:1013B000000000000000000000000000000000002D
:1013C000000000000000000000000000000000001D
:1013D000000000000000000000000000000000000D
:1013E00000000000000000000000000000000000FD
:1013F00000000000000000000000000000000000ED
:1014000000000000000000000000000000000000DC
:1014100000000000000000000000000000000000CC
:1014200000000000000000000000000000000000BC
:1014300000000000000000000000000000000000AC
:101440000000000000000000000000000000A2E614
:10145000B0E0E2E6F0E0808180648C93109269084D
:1014600005C0809169088F5F809369088091690841
:101470008B37B8F3000000000000000000000000FF
:10148000000000000000000000000000000000005C
:10149000000000000000000000000000000000004C
:1014A000000000000000000000000000000000003C
:1014B000000000000000000000000000000000002C
:1014C0000000000000001092690805C080916908C2
:1014D0008F5F80936908809169088730B8F30000B6
:1014E00000001092690805C0809169088F5F8093A1
:1014F0006908809169088730B8F3000000001092F5
:10150000690805C0809169088F5F809369088091A0
:1015100069088C34B8F300000000000000000000EF
:1015200000000000000000000000000000000000BB
:1015300000000000000000000000000000000000AB
:10154000000000000000000000000000000000009B
:101550000000000000001092690805C08091690831
:101560008F5F80936908809169088C34B8F300001C
:10157000000000000000000000000000000000006B
:10158000000000000000000000000000000000005B
:10159000000000000000000000000000000000004B
:1015A0000000000000000000000000000000109299
:1015B000690805C0809169088F5F809369088091F0
:1015C00069088C34B8F3000000000000000000003F
:1015D000000000000000000000000000000000000B
:1015E00000000000000000000000000000000000FB
:1015F00000000000000000000000000000000000EB
:101600000000000000001092690805C08091690880
:101610008F5F80936908809169088834B8F350C25D
:10162000A2E6B0E0E2E6F0E090818FE789238C93B8
:1016300000000000000000000000000000000000AA
:10164000000000000000000000000000000000009A
:10165000000000000000000000000000000000008A
:10166000000000000000000000000000000000007A
:10167000000000000000000000000000000000006A
:10168000000000000000000000000000000000005A
:10169000000000000000000000000000000000004A
:1016A000000000000000000000000000000000003A
:1016B000000000000000000000000000000000002A
:1016C000000000000000000000000000000000001A
:1016D000000000000000000000000000000000000A
:1016E00000000000000000000000000000000000FA
:1016F00000000000000000000000000000000000EA
:1017000000000000000000000000000000000000D9
:1017100000000000000000000000000000000000C9
:1017200000000000000000000000000000000000B9
:10173000A2E6B0E0E2E6F0E0808180648C93109253
:10174000690805C0809169088F5F8093690880915E
:1017500069088B37B8F300000000000000000000AB
:101760000000000000000000000000000000000079
:101770000000000000000000000000000000000069
:101780000000000000000000000000000000000059
:101790000000000000000000000000000000000049
:1017A00000000000000000001092690805C0809150
:1017B00069088F5F80936908809169088730B8F362
:1017C000000000001092690805C0809169088F5FD1
:1017D00080936908809169088730B8F300000000A1
:1017E000A2E6B0E0E2E6F0E090818FE789238C93F7
:1017F00000000000000000000000000000000000E9
:1018000000000000000000000000000000000000D8
:1018100000000000000000000000000000000000C8
:1018200000000000000000000000000000000000B8
:1018300000000000000000000000000000000000A8
:101840000000000000000000000000000000000098
:101850000000000000000000000000000000000088
:101860000000000000000000000000000000000078
:101870000000000000000000000000000000000068
:101880000000000000000000000000000000000058
:101890000000000000000000000000000000000048
:1018A0000000000000000000000000000000000038
:1018B0000000000000000000000000000000000028
:1018C0000000000000000000000000000000000018
:1018D0000000000000000000000000000000000008
:1018E00000000000000000000000000000000000F8
:1018F000A2E6B0E0E2E6F0E0808180648C93109292
:10190000690805C0809169088F5F8093690880919C
:1019100069088B37B8F300000000000000000000E9
:1019200000000000000000000000000000000000B7
:1019300000000000000000000000000000000000A7
:101940000000000000000000000000000000000097
:101950000000000000000000000000000000000087
:1019600000000000000000001092690805C080918E
:1019700069088F5F80936908809169088730B8F3A0
:10198000000000001092690805C0809169088F5F0F
:1019900080936908809169088730B8F300000000DF
:1019A0001092690805C0809169088F5F809369086B
:1019B000809169088C34B8F300000000000000003A
:1019C0000000000000000000000000000000000017
:1019D0000000000000000000000000000000000007
:1019E00000000000000000000000000000000000F7
:1019F00000000000000000001092690805C08091FE
:101A000069088F5F80936908809169088C34B8F306
:101A100000000000000000000000000000000000C6
:101A200000000000000000000000000000000000B6
:101A300000000000000000000000000000000000A6
:101A40000000000000000000000000000000000096
:101A50001092690805C0809169088F5F80936908BA
:101A6000809169088C34B8F3000000000000000089
:101A70000000000000000000000000000000000066
:101A80000000000000000000000000000000000056
:101A90000000000000000000000000000000000046
:101AA00000000000000000001092690805C080914D
:101AB00069088F5F80936908809169088834B8F35A
:101AC0008B818F5F8B838B81893010F40C94B408E9
:101AD000A2E6B0E0E2E6F0E090818FE789238C9304
:101AE00000000000000000000000000000000000F6
:101AF00000000000000000000000000000000000E6
:101B000000000000000000000000000000000000D5
:101B100000000000000000000000000000000000C5
:101B200000000000000000000000000000000000B5
:101B300000000000000000000000000000000000A5
:101B40000000000000000000000000000000000095
:101B50000000000000000000000000000000000085
:101B60000000000000000000000000000000000075
:101B70000000000000000000000000000000000065
:101B80000000000000000000000000000000000055
:101B90000000000000000000000000000000000045
:101BA0000000000000000000000000000000000035
:101BB0000000000000000000000000000000000025
:101BC0000000000000000000000000000000000015
:101BD0000000000000000000000000000000000005
:101BE000A2E6B0E0E2E6F0E0808180648C9310929F
:101BF000690805C0809169088F5F809369088091AA
:101C000069088C34B8F300000000000000000000F8
:101C100000000000000000000000000000000000C4
:101C200000000000000000000000000000000000B4
:101C300000000000000000000000000000000000A4
:101C40000000000000001092690805C0809169083A
:101C50008F5F80936908809169088C34B8F3000025
:101C60000000000000000000000000000000000074
:101C70000000000000000000000000000000000064
:101C80000000000000000000000000000000000054
:101C900000000000000000000000000000001092A2
:101CA000690805C0809169088F5F809369088091F9
:101CB00069088C34B8F30000000000000000000048
:101CC0000000000000000000000000000000000014
:101CD0000000000000000000000000000000000004
:101CE00000000000000000000000000000000000F4
:101CF0000000000000001092690805C0809169088A
:101D00008F5F80936908809169088834B8F31092D6
:101D1000690805C0809169088F5F80936908809188
:101D200069088C34B8F300000000000000000000D7
:101D300000000000000000000000000000000000A3
:101D40000000000000000000000000000000000093
:101D50000000000000000000000000000000000083
:101D60000000000000001092690805C08091690819
:101D70008F5F80936908809169088C34B8F3000004
:101D80000000000000000000000000000000000053
:101D90000000000000000000000000000000000043
:101DA0000000000000000000000000000000000033
:101DB0000000000000000000000000000000109281
:101DC000690805C0809169088F5F809369088091D8
:101DD00069088C34B8F30000000000000000000027
:101DE00000000000000000000000000000000000F3
:101DF00000000000000000000000000000000000E3
:101E000000000000000000000000000000000000D2
:101E10000000000000001092690805C08091690868
:101E20008F5F80936908809169088834B8F3A2E6CF
:101E3000B0E0E2E6F0E080818F7B8C93A2E6B0E038
:101E4000E2E6F0E090818FE789238C931092690895
:101E500005C0809169088F5F809369088091690847
:101E60008730B8F3000000001092690805C0809127
:101E700069088F5F80936908809169088730B8F39B
:101E8000000000001092690805C0809169088F5F0A
:101E900080936908809169088730B8F300000000DA
:101EA0001092690805C0809169088F5F8093690866
:101EB000809169088730B8F300000000A9E5B0E020
:101EC000E9E5F0E0808180628C932C960FB6F8945F
:101ED000DEBF0FBECDBFDF91CF910895CF93DF93CB
:101EE000CDB7DEB72C970FB6F894DEBF0FBECDBFCF
:101EF000A9E5B0E0E9E5F0E080818F7D8C93F8946E
:101F0000A2E6B0E0E2E6F0E090818FE789238C93CF
:101F100000000000000000000000000000000000C1
:101F200000000000000000000000000000000000B1
:101F300000000000000000000000000000000000A1
:101F40000000000000000000000000000000000091
:101F50000000000000000000000000000000000081
:101F60000000000000000000000000000000000071
:101F70000000000000000000000000000000000061
:101F80000000000000000000000000000000000051
:101F90000000000000000000000000000000000041
:101FA0000000000000000000000000000000000031
:101FB0000000000000000000000000000000000021
:101FC0000000000000000000000000000000000011
:101FD0000000000000000000000000000000000001
:101FE00000000000000000000000000000000000F1
:101FF00000000000000000000000000000000000E1
:1020000000000000000000000000000000000000D0
:10201000A2E6B0E0E2E6F0E0808180648C9381E0AB
:1020200090E00E94300380915F098A8381E0898378
:102030001B8221C08A8188237CF48B81282F33273F
:10204000CE010496FC01E20FF31F81E080839981A9
:1020500081E08927898309C08B81282F3327CE010E
:102060000496FC01E20FF31F10828A81880F8A8395
:102070008B818F5F8B838B818830E0F289818C87A5
:10208000A2E6B0E0E2E6F0E080818F7B8C93000076
:102090000000000000000000000000000000000040
:1020A0000000000000000000000000000000000030
:1020B0000000000000000000000000000000000020
:1020C0000000000000000000000000000000000010
:1020D0000000000000000000000000000000000000
:1020E00000000000000000000000000000000000F0
:1020F00000000000000000000000000000000000E0
:1021000000000000000000000000000000000000CF
:1021100000000000000000000000000000000000BF
:1021200000000000000000000000000000000000AF
:10213000000000000000000000000000000000009F
:10214000000000000000000000000000000000008F
:10215000000000000000000000000000000000007F
:10216000000000000000000000000000000000006F
:10217000000000000000000000000000000000005F
:102180000000000000000000000000000000A2E6C7
:10219000B0E0E2E6F0E0808180688C9310926908FC
:1021A00005C0809169088F5F8093690880916908F4
:1021B0008B37B8F3000000000000000000000000B2
:1021C000000000000000000000000000000000000F
:1021D00000000000000000000000000000000000FF
:1021E00000000000000000000000000000000000EF
:1021F00000000000000000000000000000000000DF
:10220000000000000000A2E6B0E0E2E6F0E090810D
:102210008FE789238C93000000000000000000007D
:1022200000000000000000000000000000000000AE
:10223000000000000000000000000000000000009E
:10224000000000000000000000000000000000008E
:10225000000000000000000000000000000000007E
:10226000000000000000000000000000000000006E
:10227000000000000000000000000000000000005E
:10228000000000000000000000000000000000004E
:10229000000000000000000000000000000000003E
:1022A000000000000000000000000000000000002E
:1022B000000000000000000000000000000000001E
:1022C000000000000000000000000000000000000E
:1022D00000000000000000000000000000000000FE
:1022E00000000000000000000000000000000000EE
:1022F00000000000000000000000000000000000DE
:1023000000000000000000000000000000000000CD
:10231000000000000000A2E6B0E0E2E6F0E080810C
:1023200080648C931092690805C0809169088F5F62
:1023300080936908809169088C34B8F3000000002C
:10234000000000000000000000000000000000008D
:10235000000000000000000000000000000000007D
:10236000000000000000000000000000000000006D
:10237000000000000000000000000000109269084A
:1023800005C0809169088F5F809369088091690812
:102390008C34B8F3000000000000000000000000D2
:1023A000000000000000000000000000000000002D
:1023B000000000000000000000000000000000001D
:1023C000000000000000000000000000000000000D
:1023D000000000001092690805C0809169088F5FB5
:1023E00080936908809169088C34B8F3000000007C
:1023F00000000000000000000000000000000000DD
:1024000000000000000000000000000000000000CC
:1024100000000000000000000000000000000000BC
:102420000000000000000000000000001092690899
:1024300005C0809169088F5F809369088091690861
:102440008730B8F3000000001092690805C0809141
:1024500069088F5F80936908809169088730B8F3B5
:10246000000000001092690805C0809169088F5F24
:1024700080936908809169088C34B8F300000000EB
:10248000000000000000000000000000000000004C
:10249000000000000000000000000000000000003C
:1024A000000000000000000000000000000000002C
:1024B0000000000000000000000000001092690809
:1024C00005C0809169088F5F8093690880916908D1
:1024D0008C34B8F300000000000000000000000091
:1024E00000000000000000000000000000000000EC
:1024F00000000000000000000000000000000000DC
:1025000000000000000000000000000000000000CB
:10251000000000001092690805C0809169088F5F73
:1025200080936908809169088C34B8F3000000003A
:10253000000000000000000000000000000000009B
:10254000000000000000000000000000000000008B
:10255000000000000000000000000000000000007B
:102560000000000000000000000000001092690858
:1025700005C0809169088F5F809369088091690820
:102580008730B8F3000000001092690805C0809100
:1025900069088F5F80936908809169088730B8F374
:1025A000000000001092690805C0809169088F5FE3
:1025B00080936908809169088C34B8F300000000AA
:1025C000000000000000000000000000000000000B
:1025D00000000000000000000000000000000000FB
:1025E00000000000000000000000000000000000EB
:1025F00000000000000000000000000010926908C8
:1026000005C0809169088F5F80936908809169088F
:102610008C34B8F30000000000000000000000004F
:1026200000000000000000000000000000000000AA
:10263000000000000000000000000000000000009A
:10264000000000000000000000000000000000008A
:10265000000000001092690805C0809169088F5F32
:1026600080936908809169088C34B8F300000000F9
:10267000000000000000000000000000000000005A
:10268000000000000000000000000000000000004A
:10269000000000000000000000000000000000003A
:1026A0000000000000000000000000001092690817
:1026B00005C0809169088F5F8093690880916908DF
:1026C0008730B8F3000000001092690805C08091BF
:1026D00069088F5F80936908809169088730B8F333
:1026E000000000001B820C9467188B81282F332771
:1026F000CE010496FC01E20FF31F8081882309F4C8
:1027000022C2A2E6B0E0E2E6F0E080818F7B8C930B
:1027100000000000000000000000000000000000B9
:1027200000000000000000000000000000000000A9
:102730000000000000000000000000000000000099
:102740000000000000000000000000000000000089
:102750000000000000000000000000000000000079
:102760000000000000000000000000000000000069
:102770000000000000000000000000000000000059
:102780000000000000000000000000000000000049
:102790000000000000000000000000000000000039
:1027A0000000000000000000000000000000000029
:1027B0000000000000000000000000000000000019
:1027C0000000000000000000000000000000000009
:1027D00000000000000000000000000000000000F9
:1027E00000000000000000000000000000000000E9
:1027F00000000000000000000000000000000000D9
:1028000000000000000000000000000000000000C8
:10281000A2E6B0E0E2E6F0E0808180688C9310925E
:10282000690805C0809169088F5F8093690880916D
:1028300069088C34B8F300000000000000000000BC
:102840000000000000000000000000000000000088
:102850000000000000000000000000000000000078
:102860000000000000000000000000000000000068
:102870000000000000001092690805C080916908FE
:102880008F5F80936908809169088730B8F30000F2
:1028900000001092690805C0809169088F5F8093DD
:1028A0006908809169088730B8F300000000109231
:1028B000690805C0809169088F5F809369088091DD
:1028C00069088730B8F3000000001092690805C05D
:1028D000809169088F5F80936908809169088730CB
:1028E000B8F300000000A2E6B0E0E2E6F0E090817C
:1028F0008FE789238C930000000000000000000097
:1029000000000000000000000000000000000000C7
:1029100000000000000000000000000000000000B7
:1029200000000000000000000000000000000000A7
:102930000000000000000000000000000000000097
:102940000000000000000000000000000000000087
:102950000000000000000000000000000000000077
:102960000000000000000000000000000000000067
:102970000000000000000000000000000000000057
:102980000000000000000000000000000000000047
:102990000000000000000000000000000000000037
:1029A0000000000000000000000000000000000027
:1029B0000000000000000000000000000000000017
:1029C0000000000000000000000000000000000007
:1029D00000000000000000000000000000000000F7
:1029E00000000000000000000000000000000000E7
:1029F000000000000000A2E6B0E0E2E6F0E0808126
:102A000080648C931092690805C0809169088F5F7B
:102A100080936908809169088C34B8F30000000045
:102A200000000000000000000000000000000000A6
:102A30000000000000000000000000000000000096
:102A40000000000000000000000000000000000086
:102A50000000000000000000000000001092690863
:102A600005C0809169088F5F80936908809169082B
:102A70008C34B8F3000000000000000000000000EB
:102A80000000000000000000000000000000000046
:102A90000000000000000000000000000000000036
:102AA0000000000000000000000000000000000026
:102AB000000000001092690805C0809169088F5FCE
:102AC00080936908809169088C34B8F30000000095
:102AD00000000000000000000000000000000000F6
:102AE00000000000000000000000000000000000E6
:102AF00000000000000000000000000000000000D6
:102B000000000000000000000000000010926908B2
:102B100005C0809169088F5F80936908809169087A
:102B20008730B8F3000000001092690805C080915A
:102B300069088F5F80936908809169088730B8F3CE
:102B400000000000C1C2A2E6B0E0E2E6F0E0808151
:102B50008F7B8C930000000000000000000000004C
:102B60000000000000000000000000000000000065
:102B70000000000000000000000000000000000055
:102B80000000000000000000000000000000000045
:102B90000000000000000000000000000000000035
:102BA0000000000000000000000000000000000025
:102BB0000000000000000000000000000000000015
:102BC0000000000000000000000000000000000005
:102BD00000000000000000000000000000000000F5
:102BE00000000000000000000000000000000000E5
:102BF00000000000000000000000000000000000D5
:102C000000000000000000000000000000000000C4
:102C100000000000000000000000000000000000B4
:102C200000000000000000000000000000000000A4
:102C30000000000000000000000000000000000094
:102C40000000000000000000000000000000000084
:102C500000000000A2E6B0E0E2E6F0E080818068DB
:102C60008C931092690805C0809169088F5F8093EA
:102C70006908809169088C34B8F3000000000000F6
:102C80000000000000000000000000000000000044
:102C90000000000000000000000000000000000034
:102CA0000000000000000000000000000000000024
:102CB000000000000000000000001092690805C03C
:102CC000809169088F5F80936908809169088730D7
:102CD000B8F3000000001092690805C080916908EF
:102CE0008F5F80936908809169088730B8F300008E
:102CF00000001092690805C0809169088F5F809379
:102D00006908809169088730B8F3000000001092CC
:102D1000690805C0809169088F5F80936908809178
:102D200069088730B8F300000000A2E6B0E0E2E6F0
:102D3000F0E090818FE789238C9300000000000071
:102D40000000000000000000000000000000000083
:102D50000000000000000000000000000000000073
:102D60000000000000000000000000000000000063
:102D70000000000000000000000000000000000053
:102D80000000000000000000000000000000000043
:102D90000000000000000000000000000000000033
:102DA0000000000000000000000000000000000023
:102DB0000000000000000000000000000000000013
:102DC0000000000000000000000000000000000003
:102DD00000000000000000000000000000000000F3
:102DE00000000000000000000000000000000000E3
:102DF00000000000000000000000000000000000D3
:102E000000000000000000000000000000000000C2
:102E100000000000000000000000000000000000B2
:102E200000000000000000000000000000000000A2
:102E300000000000000000000000A2E6B0E0E2E6B2
:102E4000F0E0808180648C931092690805C08091C5
:102E500069088F5F80936908809169088C34B8F3A2
:102E60000000000000000000000000000000000062
:102E70000000000000000000000000000000000052
:102E80000000000000000000000000000000000042
:102E90000000000000000000000000000000000032
:102EA0001092690805C0809169088F5F8093690856
:102EB000809169088C34B8F3000000000000000025
:102EC0000000000000000000000000000000000002
:102ED00000000000000000000000000000000000F2
:102EE00000000000000000000000000000000000E2
:102EF00000000000000000001092690805C08091E9
:102F000069088F5F80936908809169088C34B8F3F1
:102F100000000000000000000000000000000000B1
:102F200000000000000000000000000000000000A1
:102F30000000000000000000000000000000000091
:102F40000000000000000000000000000000000081
:102F50001092690805C0809169088F5F80936908A5
:102F6000809169088730B8F300000000109269086A
:102F700005C0809169088F5F809369088091690816
:102F80008730B8F3000000001092690805C08091F6
:102F900069088F5F80936908809169088C34B8F361
:102FA0000000000000000000000000000000000021
:102FB0000000000000000000000000000000000011
:102FC0000000000000000000000000000000000001
:102FD00000000000000000000000000000000000F1
:102FE0001092690805C0809169088F5F8093690815
:102FF000809169088C34B8F30000000000000000E4
:1030000000000000000000000000000000000000C0
:1030100000000000000000000000000000000000B0
:1030200000000000000000000000000000000000A0
:1030300000000000000000001092690805C08091A7
:1030400069088F5F80936908809169088C34B8F3B0
:103050000000000000000000000000000000000070
:103060000000000000000000000000000000000060
:103070000000000000000000000000000000000050
:103080000000000000000000000000000000000040
:103090001092690805C0809169088F5F8093690864
:1030A000809169088730B8F3000000001092690829
:1030B00005C0809169088F5F8093690880916908D5
:1030C0008730B8F3000000008B818F5F8B838B818A
:1030D000893010F40C947513A2E6B0E0E2E6F0E05B
:1030E00080818F7B8C9300000000000000000000B6
:1030F00000000000000000000000000000000000D0
:1031000000000000000000000000000000000000BF
:1031100000000000000000000000000000000000AF
:10312000000000000000000000000000000000009F
:10313000000000000000000000000000000000008F
:10314000000000000000000000000000000000007F
:10315000000000000000000000000000000000006F
:10316000000000000000000000000000000000005F
:10317000000000000000000000000000000000004F
:10318000000000000000000000000000000000003F
:10319000000000000000000000000000000000002F
:1031A000000000000000000000000000000000001F
:1031B000000000000000000000000000000000000F
:1031C00000000000000000000000000000000000FF
:1031D00000000000000000000000000000000000EF
:1031E000000000000000A2E6B0E0E2E6F0E080812E
:1031F00080688C931092690805C0809169088F5F80
:1032000080936908809169088B37B8F3000000004B
:1032100000000000000000000000000000000000AE
:10322000000000000000000000000000000000009E
:10323000000000000000000000000000000000008E
:10324000000000000000000000000000000000007E
:103250000000000000000000000000000000A2E6E6
:10326000B0E0E2E6F0E090818FE789238C930000E4
:10327000000000000000000000000000000000004E
:10328000000000000000000000000000000000003E
:10329000000000000000000000000000000000002E
:1032A000000000000000000000000000000000001E
:1032B000000000000000000000000000000000000E
:1032C00000000000000000000000000000000000FE
:1032D00000000000000000000000000000000000EE
:1032E00000000000000000000000000000000000DE
:1032F00000000000000000000000000000000000CE
:1033000000000000000000000000000000000000BD
:1033100000000000000000000000000000000000AD
:10332000000000000000000000000000000000009D
:10333000000000000000000000000000000000008D
:10334000000000000000000000000000000000007D
:10335000000000000000000000000000000000006D
:103360000000000000000000000000000000A2E6D5
:10337000B0E0E2E6F0E0808180648C9381E090E050
:103380000E943003A2E6B0E0E2E6F0E080818F7BAD
:103390008C93A2E6B0E0E2E6F0E090818FE789232B
:1033A0008C931092690805C0809169088F5F8093A3
:1033B0006908809169088C34B8F3000000000000AF
:1033C00000000000000000000000000000000000FD
:1033D00000000000000000000000000000000000ED
:1033E00000000000000000000000000000000000DD
:1033F000000000000000000000001092690805C0F5
:10340000809169088F5F80936908809169088C3486
:10341000B8F3000000000000000000000000000001
:10342000000000000000000000000000000000009C
:10343000000000000000000000000000000000008C
:10344000000000000000000000000000000000007C
:103450000000A8E5B0E0E8E5F0E0808180628C93B0
:10346000A9E5B0E0E9E5F0E0808180628C93789492
:103470002C960FB6F894DEBF0FBECDBFDF91CF9173
:103480000895CF93DF93CDB7DEB722970FB6F894A8
:10349000DEBF0FBECDBFF894E6E2F0E01082E7E2B7
:1034A000F0E081E68083A6E2B0E0E6E2F0E0808131
:1034B000846E8C9380E180935F090E946E0FF89474
:1034C00087E290E00E9430031A8219821DC0E6E272
:1034D000F0E080819927807190700097C1F3A6E297
:1034E000B0E0E6E2F0E0808180618C9389819A818E
:1034F000E5E2F0E02081FC01E158F64F208389816C
:103500009A8101969A83898389819A8124E0803601
:103510009207E8F2E6E2F0E01082789422960FB685
:10352000F894DEBF0FBECDBFDF91CF910895CF934A
:10353000DF93CDB7DEB721970FB6F894DEBF0FBE8D
:10354000CDBF898389818823D1F0A8E3B0E0E8E387
:10355000F0E0808180688C9307C084E690E00E9450
:10356000300389818150898389818823B1F7A8E359
:10357000B0E0E8E3F0E090818FE789238C93219617
:103580000FB6F894DEBF0FBECDBFDF91CF91089587
:103590000F931F93CF93DF93CDB7DEB721970FB66D
:1035A000F894DEBF0FBECDBF198210C08981082FED
:1035B00011278981992780569F4F0E949E3BF801D1
:1035C000E054F74F808389818F5F898389818823C5
:1035D0006CF7198210C08981082F112789819927DA
:1035E00080509E4F0E949E3BF801E551F24F808330
:1035F00089818F5F8983898188236CF721960FB633
:10360000F894DEBF0FBECDBFDF91CF911F910F9118
:103610000895CF93DF93CDB7DEB722970FB6F89416
:10362000DEBF0FBECDBF80EC98E060E570E00E9489
:103630003D3D9A838983998180911009981749F4B7
:103640009A8180911109981721F481E08093600894
:1036500002C0109260088091C0088F3F39F08091BD
:10366000C1088F3F19F081E08093600822960FB661
:10367000F894DEBF0FBECDBFDF91CF910895CF93F9
:10368000DF93CDB7DEB722970FB6F894DEBF0FBE3B
:10369000CDBF8BEE9DE064E170E00E943D3D9A83DA
:1036A000898399818091FB0D981749F49A818091C3
:1036B000FC0D981721F481E08093610802C01092FC
:1036C00061088091EB0D8F3F39F08091EC0D8F3FB9
:1036D00019F081E08093610822960FB6F894DEBF5E
:1036E0000FBECDBFDF91CF910895CF93DF93CDB7BC
:1036F000DEB724970FB6F894DEBF0FBECDBF81E0D2
:103700008093750F809174088093760F809175086F
:103710008093770F809176088093780F1A821982B0
:1037200035C087E090E090937A0F8093790F1B82E9
:103730001FC08B81482F552729813A81C901880FE5
:10374000991F880F991F880F991FBC01621B730B6B
:103750009B018B819927820F931FFC01E158F64F43
:103760008081FA01E558F04F80838B818F5F8B83D6
:103770008B818730F0F20E949D3C82E390E00E94B2
:10378000300389819A8101969A83898389819A81FC
:10379000803A910530F224960FB6F894DEBF0FBE42
:1037A000CDBFDF91CF910895CF93DF93CDB7DEB733
:1037B00024970FB6F894DEBF0FBECDBF8091BB0F2C
:1037C000813009F058C08091BD0F8E3709F0A0C03C
:1037D0008091BE0F8E3709F09BC081E08093720804
:1037E000109263088091BF0F809375088091C00F7D
:1037F000809376088091C10F809374088091C30FE5
:1038000099279A83898389819A81382F22278091E9
:10381000C20F9927820F931F9A83898389819A8186
:1038200090937808809377081C821B8212C02B81AA
:103830003C818B819C810796FC01E354F04F808191
:10384000F901E758F74F80838B819C8101969C8317
:103850008B8320917708309178088B819C81821727
:10386000930728F31092BB0F1092BC0F1092BD0F5C
:103870001092BE0F4DC08091DF0D882309F448C01F
:1038800081E08093720881E08093630880916F0EDD
:10389000809375088091700E809376088091710EE8
:1038A000809374088091730E99279A838983898104
:1038B0009A81382F22278091720E9927820F931FA9
:1038C0009A83898389819A81909378088093770875
:1038D0001C821B8212C02B813C818B819C810796AC
:1038E000FC01E359F14F8081F901E758F74F8083DC
:1038F0008B819C8101969C838B83209177083091EA
:1039000078088B819C818217930728F31092DF0D32
:1039100024960FB6F894DEBF0FBECDBFDF91CF91D6
:103920000895CF93DF93CDB7DEB781E08093750F15
:10393000809174088093760F809175088093770F3B
:10394000809176088093780F81E090E090937A0FD1
:103950008093790F80E280937B0FDF91CF91089560
:10396000CF93DF93CDB7DEB781E08093750F809161
:10397000BA088093760F82E090E090937A0F80935C
:10398000790F8091BD0880937B0F8091BE08809352
:103990007C0F8091BC0880937D0FDF91CF910895BB
:1039A000CF93DF93CDB7DEB78091740880935F0922
:1039B00080917408803C11F410926408DF91CF91DB
:1039C0000895CF93DF93CDB7DEB721970FB6F89464
:1039D000DEBF0FBECDBF898389819927BC0180E0FE
:1039E00093E00E94763B21960FB6F894DEBF0FBE9F
:1039F000CDBFDF91CF910895CF93DF93CDB7DEB7E1
:103A000021970FB6F894DEBF0FBECDBF80E093E0E4
:103A10000E949E3B89838981992721960FB6F8944D
:103A2000DEBF0FBECDBFDF91CF910895CF93DF935F
:103A3000CDB7DEB7DF91CF910895CF93DF93CDB7A8
:103A4000DEB7C457D1400FB6F894DEBF0FBECDBF6E
:103A500080916309909164099C8F8B8F8091650997
:103A6000909166099A8F898F809100099091010940
:103A7000A0910209B0910309CF58DE4F8883998342
:103A8000AA83BB83C157D140809104099091050955
:103A9000A0910609B0910709C359DE4F8883998325
:103AA000AA83BB83CD56D140898D9A8DAA2797FDD5
:103AB000A095BA2FBC01CD010E948C57C759DE4F8B
:103AC000688379838A839B83C956D140898D9A8D77
:103AD0009923C4F420E030E040E857E4C759DE4FB2
:103AE000688179818A819B81C956D1400E94E554C1
:103AF000DC01CB01C759DE4F88839983AA83BB833E
:103B0000C956D140C759DE4F288139814A815B812E
:103B1000C956D140C359DE4F688179818A819B8122
:103B2000CD56D1400E941255DC01CB019C01AD0164
:103B3000CF58DE4F688179818A819B81C157D140FE
:103B40000E94E554DC01CB01CB59DE4F8883998379
:103B5000AA83BB83C556D140809108099091090979
:103B6000A0910A09B0910B09CF59DE4F8883998340
:103B7000AA83BB83C156D140898D9A8DAA2797FD10
:103B8000A095BA2FBC01CD010E948C57C35ADE4FBD
:103B9000688379838A839B83CD55D140898D9A8DA3
:103BA0009923C4F420E030E040E857E4C35ADE4FE4
:103BB000688179818A819B81CD55D1400E94E554ED
:103BC000DC01CB01C35ADE4F88839983AA83BB8370
:103BD000CD55D140C35ADE4F288139814A815B815E
:103BE000CD55D140CF59DE4F688179818A819B8143
:103BF000C156D1400E941255DC01CB01C75ADE4F9D
:103C000088839983AA83BB83C955D140898D9A8DB6
:103C1000AA2797FDA095BA2FBC01CD010E948C5711
:103C2000CB5ADE4F688379838A839B83C555D14005
:103C3000898D9A8D9923C4F420E030E040E857E460
:103C4000CB5ADE4F688179818A819B81C555D140ED
:103C50000E94E554DC01CB01CB5ADE4F8883998367
:103C6000AA83BB83C555D140CB5ADE4F2881398109
:103C70004A815B81C555D140C75ADE4F6881798141
:103C80008A819B81C955D1400E941255DC01CB012C
:103C90009C01AD01CB59DE4F688179818A819B817E
:103CA000C556D1400E94E554DC01CB01CF5ADE4F0E
:103CB00088839983AA83BB83C155D14080910C0925
:103CC00090910D09A0910E09B0910F09C35BDE4FD1
:103CD00088839983AA83BB83CD54D140898D9A8DE3
:103CE000AA2797FDA095BA2FBC01CD010E948C5741
:103CF000C75BDE4F688379838A839B83C954D14035
:103D0000898D9A8D9923C4F420E030E040E857E48F
:103D1000C75BDE4F688179818A819B81C954D1401C
:103D20000E94E554DC01CB01C75BDE4F8883998399
:103D3000AA83BB83C954D140C75BDE4F2881398138
:103D40004A815B81C954D140C35BDE4F6881798170
:103D50008A819B81CD54D1400E941255DC01CB0158
:103D6000CB5BDE4F88839983AA83BB83C554D14044
:103D7000898D9A8DAA2797FDA095BA2FBC01CD01F8
:103D80000E948C57CF5BDE4F688379838A839B8345
:103D9000C154D140898D9A8D9923C4F420E030E03C
:103DA00040E857E4CF5BDE4F688179818A819B814F
:103DB000C154D1400E94E554DC01CB01CF5BDE4F02
:103DC00088839983AA83BB83C154D140CF5BDE4FE4
:103DD000288139814A815B81C154D140CB5BDE4F60
:103DE000688179818A819B81C554D1400E94125596
:103DF000DC01CB01C35CDE4F88839983AA83BB833C
:103E0000CD53D140898D9A8DAA2797FDA095BA2FC1
:103E1000BC01CD010E948C57C75CDE4F688379835B
:103E20008A839B83C953D140898D9A8D9923C4F489
:103E300020E030E040E857E4C75CDE4F68817981DC
:103E40008A819B81C953D1400E94E554DC01CB019A
:103E5000C75CDE4F88839983AA83BB83C953D14053
:103E6000C75CDE4F288139814A815B81C953D140CB
:103E7000C35CDE4F688179818A819B81CD53D140BB
:103E80000E941255DC01CB019C01AD01CF5ADE4FDF
:103E9000688179818A819B81C155D1400E94E55416
:103EA000DC01CB01898B9A8BAB8BBC8B8091C008DA
:103EB0009091C108A091C208B091C308CB5CDE4FBD
:103EC00088839983AA83BB83C553D1408091C4085A
:103ED0009091C508A091C608B091C708CF5CDE4F8D
:103EE00088839983AA83BB83C153D140898D9A8DDE
:103EF000AA2797FDA095BA2FBC01CD010E948C572F
:103F0000C35DDE4F688379838A839B83CD52D14022
:103F1000898D9A8D9923C4F420E030E040E857E47D
:103F2000C35DDE4F688179818A819B81CD52D1400A
:103F30000E94E554DC01CB01C35DDE4F8883998389
:103F4000AA83BB83CD52D140C35DDE4F2881398126
:103F50004A815B81CD52D140CF5CDE4F688179814F
:103F60008A819B81C153D1400E941255DC01CB0153
:103F70009C01AD01CB5CDE4F688179818A819B8198
:103F8000C553D1400E94E554DC01CB01C75DDE4F33
:103F900088839983AA83BB83C952D1408091C80882
:103FA0009091C908A091CA08B091CB08CB5DDE4FB3
:103FB00088839983AA83BB83C552D140898D9A8D0A
:103FC000AA2797FDA095BA2FBC01CD010E948C575E
:103FD000CF5DDE4F688379838A839B83C152D14052
:103FE000898D9A8D9923C4F420E030E040E857E4AD
:103FF000CF5DDE4F688179818A819B81C152D1403A
:104000000E94E554DC01CB01CF5DDE4F88839983AC
:10401000AA83BB83C152D140CF5DDE4F2881398155
:104020004A815B81C152D140CB5DDE4F688179818D
:104030008A819B81C552D1400E941255DC01CB017F
:10404000C35EDE4F88839983AA83BB83CD51D14061
:10405000898D9A8DAA2797FDA095BA2FBC01CD0115
:104060000E948C57C75EDE4F688379838A839B8367
:10407000C951D140898D9A8D9923C4F420E030E054
:1040800040E857E4C75EDE4F688179818A819B8171
:10409000C951D1400E94E554DC01CB01C75EDE4F1F
:1040A00088839983AA83BB83C951D140C75EDE4F01
:1040B000288139814A815B81C951D140C35EDE4F7D
:1040C000688179818A819B81CD51D1400E941255AE
:1040D000DC01CB019C01AD01C75DDE4F68817981B8
:1040E0008A819B81C952D1400E94E554DC01CB01F9
:1040F000CB5EDE4F88839983AA83BB83C551D140B1
:104100008091CC089091CD08A091CE08B091CF08B5
:10411000CF5EDE4F88839983AA83BB83C151D14090
:10412000898D9A8DAA2797FDA095BA2FBC01CD0144
:104130000E948C57C35FDE4F688379838A839B8399
:10414000CD50D140898D9A8D9923C4F420E030E080
:1041500040E857E4C35FDE4F688179818A819B81A3
:10416000CD50D1400E94E554DC01CB01C35FDE4F4E
:1041700088839983AA83BB83CD50D140C35FDE4F30
:10418000288139814A815B81CD50D140CF5EDE4F9D
:10419000688179818A819B81C151D1400E941255E9
:1041A000DC01CB01C75FDE4F88839983AA83BB8381
:1041B000C950D140898D9A8DAA2797FDA095BA2F15
:1041C000BC01CD010E948C57CB5FDE4F68837983A1
:1041D0008A839B83C550D140898D9A8D9923C4F4DD
:1041E00020E030E040E857E4CB5FDE4F6881798122
:1041F0008A819B81C550D1400E94E554DC01CB01EE
:10420000CB5FDE4F88839983AA83BB83C550D1409F
:10421000CB5FDE4F288139814A815B81C550D14017
:10422000C75FDE4F688179818A819B81C950D14007
:104230000E941255DC01CB01CF5FDE4F888399834A
:10424000AA83BB83C150D140898D9A8DAA2797FD3F
:10425000A095BA2FBC01CD010E948C57C350DF4FEF
:10426000688379838A839B83CD5FD040898D9A8DC3
:104270009923C4F420E030E040E857E4C350DF4F16
:10428000688179818A819B81CD5FD0400E94E5540D
:10429000DC01CB01C350DF4F88839983AA83BB83A2
:1042A000CD5FD040C350DF4F288139814A815B8187
:1042B000CD5FD040CF5FDE4F688179818A819B815D
:1042C000C150D1400E941255DC01CB019C01AD01CF
:1042D000CB5EDE4F688179818A819B81C551D14057
:1042E0000E94E554DC01CB018D879E87AF87B88B98
:1042F0008091D0089091D108A091D208B091D308B4
:10430000C750DF4F88839983AA83BB83C95FD0409E
:104310008091D4089091D508A091D608B091D70883
:10432000CB50DF4F88839983AA83BB83C55FD0407E
:10433000898D9A8DAA2797FDA095BA2FBC01CD0132
:104340000E948C57CF50DF4F688379838A839B8389
:10435000C15FD040898D9A8D9923C4F420E030E06C
:1043600040E857E4CF50DF4F688179818A819B8193
:10437000C15FD0400E94E554DC01CB01CF50DF4F3C
:1043800088839983AA83BB83C15FD040CF50DF4F1E
:10439000288139814A815B81C15FD040CB50DF4F9A
:1043A000688179818A819B81C55FD0400E941255C6
:1043B000DC01CB019C01AD01C750DF4F68817981E1
:1043C0008A819B81C95FD0400E94E554DC01CB010A
:1043D000C351DF4F88839983AA83BB83CD5ED040CE
:1043E0008091D8089091D908A091DA08B091DB08A3
:1043F000C751DF4F88839983AA83BB83C95ED040AE
:10440000898D9A8DAA2797FDA095BA2FBC01CD0161
:104410000E948C57CB51DF4F688379838A839B83BB
:10442000C55ED040898D9A8D9923C4F420E030E098
:1044300040E857E4CB51DF4F688179818A819B81C5
:10444000C55ED0400E94E554DC01CB01CB51DF4F6B
:1044500088839983AA83BB83C55ED040CB51DF4F4D
:10446000288139814A815B81C55ED040C751DF4FC9
:10447000688179818A819B81C95ED0400E941255F2
:10448000DC01CB01CF51DF4F88839983AA83BB83A3
:10449000C15ED040898D9A8DAA2797FDA095BA2F2D
:1044A000BC01CD010E948C57C352DF4F68837983D2
:1044B0008A839B83CD5DD040898D9A8D9923C4F4E6
:1044C00020E030E040E857E4C352DF4F6881798153
:1044D0008A819B81CD5DD0400E94E554DC01CB01F7
:1044E000C352DF4F88839983AA83BB83CD5DD040BD
:1044F000C352DF4F288139814A815B81CD5DD04035
:10450000CF51DF4F688179818A819B81C15ED04024
:104510000E941255DC01CB019C01AD01C351DF4F5C
:10452000688179818A819B81CD5ED0400E94E5546B
:10453000DC01CB01C752DF4F88839983AA83BB83F9
:10454000C95DD0408091DC089091DD08A091DE0823
:10455000B091DF08CB52DF4F88839983AA83BB8356
:10456000C55DD040898D9A8DAA2797FDA095BA2F59
:10457000BC01CD010E948C57CF52DF4F68837983F5
:104580008A839B83C15DD040898D9A8D9923C4F421
:1045900020E030E040E857E4CF52DF4F6881798176
:1045A0008A819B81C15DD0400E94E554DC01CB0132
:1045B000CF52DF4F88839983AA83BB83C15DD040EC
:1045C000CF52DF4F288139814A815B81C15DD04064
:1045D000CB52DF4F688179818A819B81C55DD04054
:1045E0000E941255DC01CB01C353DF4F88839983AE
:1045F000AA83BB83CD5CD040898D9A8DAA2797FD75
:10460000A095BA2FBC01CD010E948C57C753DF4F34
:10461000688379838A839B83C95CD040898D9A8D16
:104620009923C4F420E030E040E857E4C753DF4F5B
:10463000688179818A819B81C95CD0400E94E55460
:10464000DC01CB01C753DF4F88839983AA83BB83E7
:10465000C95CD040C753DF4F288139814A815B81D3
:10466000C95CD040C353DF4F688179818A819B81C7
:10467000CD5CD0400E941255DC01CB01CB53DF4F03
:1046800088839983AA83BB83C55CD040898D9A8D2A
:10469000AA2797FDA095BA2FBC01CD010E948C5787
:1046A000CF53DF4F688379838A839B83C15CD0407B
:1046B000898D9A8D9923C4F420E030E040E857E4D6
:1046C000CF53DF4F688179818A819B81C15CD04063
:1046D0000E94E554DC01CB01CF53DF4F88839983DF
:1046E000AA83BB83C15CD040CF53DF4F288139817F
:1046F0004A815B81C15CD040CB53DF4F68817981B7
:104700008A819B81C55CD0400E941255DC01CB019F
:104710009C01AD01C752DF4F688179818A819B81FD
:10472000C95DD0400E94E554DC01CB0189879A879E
:10473000AB87BC878091E0089091E108A091E208E6
:10474000B091E308C354DF4F88839983AA83BB8366
:10475000CD5BD0408091E4089091E508A091E608F7
:10476000B091E708C754DF4F88839983AA83BB833E
:10477000C95BD040898D9A8DAA2797FDA095BA2F45
:10478000BC01CD010E948C57CB54DF4F68837983E5
:104790008A839B83C55BD040898D9A8D9923C4F40D
:1047A00020E030E040E857E4CB54DF4F6881798166
:1047B0008A819B81C55BD0400E94E554DC01CB011E
:1047C000CB54DF4F88839983AA83BB83C55BD040DA
:1047D000CB54DF4F288139814A815B81C55BD04052
:1047E000C754DF4F688179818A819B81C95BD04042
:1047F0000E941255DC01CB019C01AD01C354DF4F77
:10480000688179818A819B81CD5BD0400E94E5548B
:10481000DC01CB01CF54DF4F88839983AA83BB830C
:10482000C15BD0408091E8089091E908A091EA0826
:10483000B091EB08C355DF4F88839983AA83BB836C
:10484000CD5AD040898D9A8DAA2797FDA095BA2F71
:10485000BC01CD010E948C57C755DF4F6883798317
:104860008A839B83C95AD040898D9A8D9923C4F439
:1048700020E030E040E857E4C755DF4F6881798198
:104880008A819B81C95AD0400E94E554DC01CB014A
:10489000C755DF4F88839983AA83BB83C95AD04009
:1048A000C755DF4F288139814A815B81C95AD04081
:1048B000C355DF4F688179818A819B81CD5AD04071
:1048C0000E941255DC01CB01CB55DF4F88839983C1
:1048D000AA83BB83C55AD040898D9A8DAA2797FD9C
:1048E000A095BA2FBC01CD010E948C57CF55DF4F48
:1048F000688379838A839B83C15AD040898D9A8D3E
:104900009923C4F420E030E040E857E4CF55DF4F6E
:10491000688179818A819B81C15AD0400E94E55487
:10492000DC01CB01CF55DF4F88839983AA83BB83FA
:10493000C15AD040CF55DF4F288139814A815B81F0
:10494000C15AD040CB55DF4F688179818A819B81E4
:10495000C55AD0400E941255DC01CB019C01AD012B
:10496000CF54DF4F688179818A819B81C15BD040C0
:104970000E94E554DC01CB01C356DF4F8883998345
:10498000AA83BB83CD59D0408091EC089091ED086B
:10499000A091EE08B091EF08C756DF4F8883998346
:1049A000AA83BB83C959D040898D9A8DAA2797FDC8
:1049B000A095BA2FBC01CD010E948C57CB56DF4F7A
:1049C000688379838A839B83C559D040898D9A8D6A
:1049D0009923C4F420E030E040E857E4CB56DF4FA1
:1049E000688179818A819B81C559D0400E94E554B4
:1049F000DC01CB01CB56DF4F88839983AA83BB832D
:104A0000C559D040CB56DF4F288139814A815B811F
:104A1000C559D040C756DF4F688179818A819B8113
:104A2000C959D0400E941255DC01CB01CF56DF4F4F
:104A300088839983AA83BB83C159D040898D9A8D7D
:104A4000AA2797FDA095BA2FBC01CD010E948C57D3
:104A5000C357DF4F688379838A839B83CD58D040C7
:104A6000898D9A8D9923C4F420E030E040E857E422
:104A7000C357DF4F688179818A819B81CD58D040AF
:104A80000E94E554DC01CB01C357DF4F8883998333
:104A9000AA83BB83CD58D040C357DF4F28813981CB
:104AA0004A815B81CD58D040CF56DF4F68817981F4
:104AB0008A819B81C159D0400E941255DC01CB01F3
:104AC000C757DF4F88839983AA83BB83C958D040D7
:104AD000898D9A8DAA2797FDA095BA2FBC01CD018B
:104AE0000E948C57CB57DF4F688379838A839B83DF
:104AF000C558D040898D9A8D9923C4F420E030E0C8
:104B000040E857E4CB57DF4F688179818A819B81E8
:104B1000C558D0400E94E554DC01CB01CB57DF4F94
:104B200088839983AA83BB83C558D040CB57DF4F76
:104B3000288139814A815B81C558D040C757DF4FF2
:104B4000688179818A819B81C958D0400E94125521
:104B5000DC01CB019C01AD01C356DF4F6881798137
:104B60008A819B81CD59D0400E94E554DC01CB0164
:104B70008D839E83AF83B8878091F0089091F10870
:104B8000A091F208B091F308CF57DF4F8883998343
:104B9000AA83BB83C158D0408091F4089091F50856
:104BA000A091F608B091F708C358DF4F8883998326
:104BB000AA83BB83CD57D040898D9A8DAA2797FDB4
:104BC000A095BA2FBC01CD010E948C57ED966CAF19
:104BD0007DAF8EAF9FAFED97898D9A8D9923A4F409
:104BE00020E030E040E857E4ED966CAD7DAD8EAD51
:104BF0009FADED970E94E554DC01CB01ED968CAFA3
:104C00009DAFAEAFBFAFED97ED962CAD3DAD4EADC8
:104C10005FADED97C358DF4F688179818A819B81B1
:104C2000CD57D0400E941255DC01CB019C01AD0153
:104C3000CF57DF4F688179818A819B81C158D040ED
:104C40000E94E554DC01CB01E9968CAF9DAFAEAF7D
:104C5000BFAFE9978091F8089091F908A091FA0800
:104C6000B091FB08E5968CAF9DAFAEAFBFAFE597B7
:104C7000898D9A8DAA2797FDA095BA2FBC01CD01E9
:104C80000E948C57E1966CAF7DAF8EAF9FAFE197DE
:104C9000898D9A8D9923A4F420E030E040E857E410
:104CA000E1966CAD7DAD8EAD9FADE1970E94E55470
:104CB000DC01CB01E1968CAF9DAFAEAFBFAFE1970A
:104CC000E1962CAD3DAD4EAD5FADE197E5966CAD97
:104CD0007DAD8EAD9FADE5970E941255DC01CB01F5
:104CE000AD968CAF9DAFAEAFBFAFAD97898D9A8DAE
:104CF000AA2797FDA095BA2FBC01CD010E948C5721
:104D0000A9966CAF7DAF8EAF9FAFA997898D9A8D15
:104D10009923A4F420E030E040E857E4A9966CAD74
:104D20007DAD8EAD9FADA9970E94E554DC01CB010E
:104D3000A9968CAF9DAFAEAFBFAFA997A9962CAD8A
:104D40003DAD4EAD5FADA997AD966CAD7DAD8EAD71
:104D50009FADAD970E941255DC01CB019C01AD01C6
:104D6000E9966CAD7DAD8EAD9FADE9970E94E5549F
:104D7000DC01CB01A5968CAF9DAFAEAFBFAFA597C1
:104D80008091FC089091FD08A091FE08B091FF0869
:104D9000A1968CAF9DAFAEAFBFAFA197898D9A8D15
:104DA000AA2797FDA095BA2FBC01CD010E948C5770
:104DB0006D966CAF7DAF8EAF9FAF6D97898D9A8DDD
:104DC0009923A4F420E030E040E857E46D966CAD00
:104DD0007DAD8EAD9FAD6D970E94E554DC01CB019A
:104DE0006D968CAF9DAFAEAFBFAF6D976D962CAD8E
:104DF0003DAD4EAD5FAD6D97A1966CAD7DAD8EAD09
:104E00009FADA1970E941255DC01CB0169968CAF32
:104E10009DAFAEAFBFAF6997898D9A8DAA2797FDD9
:104E2000A095BA2FBC01CD010E948C5765966CAF3E
:104E30007DAF8EAF9FAF6597898D9A8D9923A4F42E
:104E400020E030E040E857E465966CAD7DAD8EAD76
:104E50009FAD65970E94E554DC01CB0165968CAF50
:104E60009DAFAEAFBFAF659765962CAD3DAD4EAD76
:104E70005FAD659769966CAD7DAD8EAD9FAD699761
:104E80000E941255DC01CB0161968CAF9DAFAEAF95
:104E9000BFAF6197898D9A8DAA2797FDA095BA2FEC
:104EA000BC01CD010E948C572D966CAF7DAF8EAFAB
:104EB0009FAF2D97898D9A8D9923A4F420E030E03F
:104EC00040E857E42D966CAD7DAD8EAD9FAD2D972E
:104ED0000E94E554DC01CB012D968CAF9DAFAEAFA7
:104EE000BFAF2D972D962CAD3DAD4EAD5FAD2D973F
:104EF00061966CAD7DAD8EAD9FAD61970E941255F0
:104F0000DC01CB019C01AD01A5966CAD7DAD8EADF4
:104F10009FADA5970E94E554DC01CB0189839A835C
:104F2000AB83BC838B8D9C8DAA2797FDA095BA2F50
:104F3000BC01CD010E948C5729966CAF7DAF8EAF1E
:104F40009FAF29978B8D9C8D9923A4F420E030E0AE
:104F500040E857E429966CAD7DAD8EAD9FAD2997A5
:104F60000E94E554DC01CB0129968CAF9DAFAEAF1A
:104F7000BFAF299729853A854B855C8529966CAD0D
:104F80007DAD8EAD9FAD29970E941255DC01CB01FE
:104F90002D853E854F855889BC01CD010E94E55481
:104FA000DC01CB0125968CAF9DAFAEAFBFAF25978F
:104FB0008B8D9C8DAA2797FDA095BA2FBC01CD01A2
:104FC0000E948C5721966CAF7DAF8EAF9FAF21971B
:104FD0008B8D9C8D9923A4F420E030E040E857E4C9
:104FE00021966CAD7DAD8EAD9FAD21970E94E554AD
:104FF000DC01CB0121968CAF9DAFAEAFBFAF219747
:105000002D813E814F81588521966CAD7DAD8EAD51
:105010009FAD21970E941255DC01CB0189AF9AAF59
:10502000ABAFBCAF8B8D9C8DAA2797FDA095BA2FF7
:10503000BC01CD010E948C576DAB7EAB8FAB98AF9E
:105040008B8D9C8D992384F420E030E040E857E478
:105050006DA97EA98FA998AD0E94E554DC01CB0112
:105060008DAB9EABAFABB8AF2DA93EA94FA958AD44
:1050700069AD7AAD8BAD9CAD0E941255DC01CB01C0
:105080009C01AD0125966CAD7DAD8EAD9FAD259794
:105090000E94E554DC01CB0189AB9AABABABBCAB56
:1050A0008B8D9C8DAA2797FDA095BA2FBC01CD01B1
:1050B0000E948C576DA77EA78FA798AB8B8D9C8D78
:1050C000992384F420E030E040E857E46DA57EA504
:1050D0008FA598A90E94E554DC01CB018DA79EA75E
:1050E000AFA7B8AB29813A814B815C816DA57EA5C4
:1050F0008FA598A90E941255DC01CB0189A79AA718
:10510000ABA7BCA78B8D9C8DAA2797FDA095BA2F26
:10511000BC01CD010E948C576DA37EA38FA398A7DD
:105120008B8D9C8D992384F420E030E040E857E497
:105130006DA17EA18FA198A50E94E554DC01CB0151
:105140008DA39EA3AFA3B8A72DA13EA14FA158A5A3
:1051500069A57AA58BA59CA50E941255DC01CB01FF
:1051600089A39AA3ABA3BCA38B8D9C8DAA2797FD83
:10517000A095BA2FBC01CD010E948C576D8F7E8FF8
:105180008F8F98A38B8D9C8D992384F420E030E041
:1051900040E857E46D8D7E8D8F8D98A10E94E55477
:1051A000DC01CB018D8F9E8FAF8FB8A32D8D3E8DEF
:1051B0004F8D58A169A17AA18BA19CA10E94125583
:1051C000DC01CB019C01AD0169A97AA98BA99CA93D
:1051D0000E94E554DC01CB018D8B9E8BAF8BB88F89
:1051E00020E030E040E050E06D897E898F89988D25
:1051F0000E94565788230CF008C080E090E0A0E0A1
:10520000B0E08D8B9E8BAF8BB88F20E030E04AE70B
:1052100054E46D897E898F89988D0E941255DC0136
:10522000CB018D8B9E8BAF8BB88F6D897E898F89DB
:10523000988D0E946153DC01CB019093EE0E809318
:10524000ED0E20E030E048E452E469897A898B89E8
:105250009C890E94E554DC01CB01898B9A8BAB8B36
:10526000BC8B20E030E048EC52E469897A898B8974
:105270009C890E941255DC01CB01898B9A8BAB8BE8
:10528000BC8B69897A898B899C890E946153DC0176
:10529000CB019093F00E8093EF0ECC58DE4F0FB6FB
:1052A000F894DEBF0FBECDBFDF91CF910895EF928E
:1052B000FF920F931F93CF93DF93CDB7DEB7629723
:1052C0000FB6F894DEBF0FBECDBF80916809809302
:1052D0007809809167098093770980916A098093A2
:1052E0007609809169098093750980916C09809392
:1052F0007C0980916B0980937B0980916E09809372
:105300007A0980916D09809379098091750990914E
:105310007609A0917709B091780989879A87AB8738
:10532000BC878091790990917A09A0917B09B0910D
:105330007C098D839E83AF83B88720E030E040E016
:1053400050E069857A858B859C850E94EA56882382
:1053500009F431C020E030E44CE956E46D817E81EF
:105360008F8198850E941255DC01CB017C018D0153
:1053700029853A854B855C8569857A858B859C85F1
:105380000E941255DC01CB019C01AD01C801B7019F
:105390000E943056DC01CB0189839A83AB83BC83A6
:1053A00069817A818B819C810E946153DC01CB01F0
:1053B0009A8B898B0AC069857A858B859C850E942A
:1053C0006153DC01CB019A8B898B89899A899093EF
:1053D00074098093730962960FB6F894DEBF0FBE0E
:1053E000CDBFDF91CF911F910F91FF90EF90089566
:1053F000EF92FF920F931F93CF93DF93CDB7DEB75A
:10540000C154D0400FB6F894DEBF0FBECDBF80911F
:10541000730990917409998788878091F70D90910D
:10542000F80DA091F90DB091FA0D22968CAF9DAFB9
:10543000AEAFBFAF229788859985AA2797FDA09523
:10544000BA2FBC01CD010E948C576AAF7BAF8CAFE5
:105450009DAF88859985992384F420E030E040E869
:1054600057E46AAD7BAD8CAD9DAD0E94E554DC0187
:10547000CB018AAF9BAFACAFBDAF2AAD3BAD4CAD5E
:105480005DAD22966CAD7DAD8EAD9FAD22970E9435
:105490001255DC01CB018EAB9FABA8AFB9AF8885AD
:1054A0009985AA2797FDA095BA2FBC01CD010E942E
:1054B0008C576AAB7BAB8CAB9DAB88859985992368
:1054C00084F420E030E040E857E46AA97BA98CA985
:1054D0009DA90E94E554DC01CB018AAB9BABACAB30
:1054E000BDAB2AA93BA94CA95DA96EA97FA988AD2E
:1054F00099AD0E941255DC01CB018EA79FA7A8ABE6
:10550000B9AB88859985AA2797FDA095BA2FBC01CC
:10551000CD010E948C576AA77BA78CA79DA7888581
:105520009985992384F420E030E040E857E46AA5A7
:105530007BA58CA59DA50E94E554DC01CB018AA723
:105540009BA7ACA7BDA72AA53BA54CA55DA56EA5AD
:105550007FA588A999A90E941255DC01CB018EA3D1
:105560009FA3A8A7B9A78091F30D9091F40DA091E6
:10557000F50DB091F60D8AA39BA3ACA3BDA38885BE
:105580009985AA2797FDA095BA2FBC01CD010E944D
:105590008C576E8F7F8F88A399A3888599859923CF
:1055A00084F420E030E040E857E46E8D7F8D88A1E0
:1055B00099A10E94E554DC01CB018E8F9F8FA8A397
:1055C000B9A32E8D3F8D48A159A16AA17BA18CA1C1
:1055D0009DA10E941255DC01CB018A8F9B8FAC8F5D
:1055E000BD8F88859985AA2797FDA095BA2FBC0104
:1055F000CD010E948C576E8B7F8B888F998F888509
:105600009985992384F420E030E040E857E46E89DE
:105610007F89888D998D0E94E554DC01CB018E8BAA
:105620009F8BA88FB98F2E893F89488D598D6A8DA0
:105630007B8D8C8D9D8D0E941255DC01CB019C01D0
:10564000AD016EA17FA188A599A50E94E554DC015A
:10565000CB018A8B9B8BAC8BBD8B8091EF0D909196
:10566000F00DA091F10DB091F20D8E879F87A88B60
:10567000B98B88859985AA2797FDA095BA2FBC017B
:10568000CD010E948C576A877B878C879D87888590
:105690009985992384F420E030E040E857E46A8556
:1056A0007B858C859D850E94E554DC01CB018A8732
:1056B0009B87AC87BD872A853B854C855D856E853C
:1056C0007F85888999890E941255DC01CB019C0154
:1056D000AD016A897B898C899D890E94E554DC0132
:1056E000CB017C018D018091EB0D9091EC0DA0918F
:1056F000ED0DB091EE0D9C01AD01C801B7010E9406
:10570000E554DC01CB018C839D83AE83BF8320E015
:1057100030E040E050E06C817D818E819F810E946D
:10572000565788230CF008C080E090E0A0E0B0E07D
:105730008C839D83AE83BF8320E030E040E251E460
:105740006C817D818E819F810E941255DC01CB018D
:105750008C839D83AE83BF836C817D818E819F818D
:105760000E946153DC01CB019093F20E8093F10E05
:10577000CF5BDF4F0FB6F894DEBF0FBECDBFDF911A
:10578000CF911F910F91FF90EF900895CF93DF93EA
:10579000CDB7DEB721970FB6F894DEBF0FBECDBFF1
:1057A00081EA8093740888E090E00E94024710929A
:1057B000B9080E94D01C0E946E0F198231C00E944D
:1057C0006D3A07C080916508882319F00E94853AD8
:1057D00004C08091B9088823A9F3809165088823C3
:1057E00019F00E94853A1FC089819927880F991F57
:1057F0002091BD08FC01E054F74F2083898199274F
:10580000880F991F01962091BE08FC01E054F74FC4
:1058100020831092B9080E94853A89818F5F89831D
:105820008981803460F28981803469F589E090E073
:105830000E9402478CE291E00E9430030E94091B03
:1058400080E090E00E94024788EC90E00E943003E4
:10585000198212C089819927FC01E054F74F808199
:10586000282F33278981992780569F4FB9010E949D
:10587000763B89818F5F8983898188235CF781E00A
:105880008093620810C08AE090E00E9402478CE298
:1058900091E00E94300380E090E00E9402478CE299
:1058A00091E00E94300381EB8093740888E090E0DF
:1058B0000E9402471092B9080E94D01C0E946E0FED
:1058C000198231C00E946D3A07C080916508882313
:1058D00019F00E94853A04C08091B9088823A9F381
:1058E00080916508882319F00E94853A1FC089813C
:1058F0009927880F991F2091BD08FC01E551F24FAF
:10590000208389819927880F991F01962091BE08CD
:10591000FC01E551F24F20831092B9080E94853AAC
:1059200089818F5F89838981803460F289818034A5
:1059300051F589E090E00E9402478CE291E00E94DC
:1059400030030E943F1B80E090E00E94024788ECF9
:1059500090E00E943003198212C089819927FC01CE
:10596000E551F24F8081282F332789819927805074
:105970009E4FB9010E94763B89818F5F898389811F
:1059800088235CF710C08AE090E00E9402478CE216
:1059900091E00E94300380E090E00E9402478CE298
:1059A00091E00E94300321960FB6F894DEBF0FBE3F
:1059B000CDBFDF91CF910895CF93DF93CDB7DEB701
:1059C00026970FB6F894DEBF0FBECDBF1B8284E6CC
:1059D0008C8363C01092690805C0809169088F5F4D
:1059E00080936908809169088C34B8F30000000046
:1059F00000000000000000000000000000000000A7
:105A00000000000000000000000000000000000096
:105A10000000000000000000000000000000000086
:105A20000000000000000000000000001092690863
:105A300005C0809169088F5F80936908809169082B
:105A40008C34B8F3000000000000000000000000EB
:105A50000000000000000000000000000000000046
:105A60000000000000000000000000000000000036
:105A70000000000000000000000000000000000026
:105A800000000000E9E3F0E080818F3F19F08B8196
:105A90008F5F8B838C8181508C838C81882309F06C
:105AA00099CF8B818E3108F40EC184E690E00E947C
:105AB0003003E9E3F0E080818A838CE291E00E9488
:105AC00030038A818F3709F083C01B8288EC8C8376
:105AD00012C08AE090E00E943003E9E3F0E08081A8
