:020000040000FA
:060000002AEF1DF01200C2
:0600080023EF15F01200C9
:06002A0001006C3A000029
:08003000600000004C0000001C
:08003800D9CFE6FFE1CFD9FFAB
:10004000030EE126FD0EDBCFDEFFDBCFDDFFD9CFD8
:10005000E9FFDACFEAFF000ED880EE54000EED542F
:1000600010E28B0EF36E020EF3CFDBFFDB500008C5
:1000700003E2020EDB06FAD7DF06010E01E2DB0621
:10008000E6D7F56E030EE15C02E2E16AE552E16E4D
:10009000F550E552E7CFD9FF1200D9CFE6FFE1CF07
:1000A000D9FFACA2FED7FE0EDB50AD6EE552E7CF16
:1000B000D9FF1200D9CFE6FFE1CFD9FFE6529EAAC1
:1000C000FED7B8ACFED7AE50DF6EDF5000D0E552A1
:1000D000E552E7CFD9FF1200D9CFE6FFE1CFD9FF34
:1000E000E652FE0EDB50EA6A600FE96E000EEA226D
:1000F000EF6A550EE66ED1DFE552550E106EFE0E1C
:10010000DB50EA6A600FE96E000EEA221050EF261B
:10011000010EDF6EFE0EDB50DF5C1DE2DF50EA6A8F
:10012000600FE96E000EEA22EF50E66EB6DFE55290
:10013000DF50EA6A600FE96E000EEA22EFCF10F09E
:10014000FE0EDB50EA6A600FE96E000EEA221050E4
:10015000EF26DF2ADFD7FE0EDB50EA6A600FE96E7A
:10016000000EEA22EF50E66E98DFE552E552E552C6
:10017000E7CFD9FF1200D9CFE6FFE1CFD9FF040EB8
:10018000E126030EDF6E090EDF5C0DE293DFE66E03
:10019000DF50EA6A600FE96E000EEA22E552E7508E
:1001A000EF6EDF2AF0D7010E63C0DBFF020E64C0E2
:1001B000DBFF030E65C0DBFF010EDB50020810E120
:1001C000600EE66E000EE66E020EDBCFE6FF030E5B
:1001D000DBCFE6FFACEC0CF0E552E552E552E55220
:1001E000010EDB50030815E18390000000000000C1
:1001F00000000000200EE66EFEEC0EF0E552C3ECAF
:100200000EF00001606F0000000000000000000020
:1002100083800001686BDF6A080EDF5C15E2DF5047
:10022000EA6A600FE96E000EEA22EF50E66E35DFF3
:10023000E552DF50EA6A600FE96E000EEA22EF50E5
:1002400000016827DF2AE8D768C0E6FF26DFE5520D
:10025000F56E040EE15C02E2E16AE552E16EF550F2
:10026000E552E7CFD9FF1200D9CFE6FFE1CFD9FFA2
:10027000E652DF6AFE0EDB50DF5C0DE2090EDF2482
:10028000EA6A600FE96E000EEA22EF50E66E05DFC3
:10029000E552DF2AEFD7E552E552E7CFD9FF12004A
:1002A000D9CFE6FFE1CFD9FF030EE126DF6E090EBD
:1002B000DF5C0DE2FFDEE66EDF50EA6A600FE96E9A
:1002C000000EEA22E552E750EF6EDF2AF0D7000178
:1002D0006351E66ED950010FE96EDACFEAFFE552BD
:1002E000E750EE6EED6AD950010FE96EDACFEAFF02
:1002F000060ED890EE36ED36E806FBE1690EE66EA6
:10030000000EE66E400EE66EE66A010EDBCFE6FFFB
:10031000020EDBCFE6FFFD0EDBCFE6FFFE0EDBCFEE
:10032000E6FF12EC0CF0F56E080EE15EF550400EA3
:10033000E66E9ADFE552F56E030EE15C02E2E16AD9
:10034000E552E16EF550E552E7CFD9FF1200D9CF63
:10035000E6FFE1CFD9FF070EE126030EDF6E090E9F
:10036000DF5C0DE2A7DEE66EDF50EA6A600FE96E41
:10037000000EEA22E552E750EF6EDF2AF0D7050EB5
:1003800064C0DBFF060E65C0DBFF050EDBCF06F0A9
:10039000060EDBCF07F0030E06C0DBFF040E07C01E
:1003A000DBFF00016351E66ED950010FE96EDACF31
:1003B000EAFFE552E750EE6EED6AD950010FE96EA3
:1003C000DACFEAFF060ED890EE36ED36E806FBE10E
:1003D000690EE66E000EE66E400EE66EE66A010EEF
:1003E000DBCFE6FF020EDBCFE6FF030EDBCFE6FF3F
:1003F000040EDBCFE6FF12EC0CF0F56E080EE15EAA
:10040000F550400EE66E30DFE552F56E070EE15C0A
:1004100002E2E16AE552E16EF550E552E7CFD9FF1D
:100420001200D9CFE6FFE1CFD9FF030EE126DF6E40
:100430004A0EDF5C0DE23EDEE66EDF50EA6A600FD8
:10044000E96E000EEA22E552E750EF6EDF2AF0D7A0
:100450000001635122E1FD0EDBCFE6FFFE0EDBCF94
:10046000E6FFAEEC0DF0E552E5520001A96FDF6A40
:10047000090EDF5C12E2090EDF24EA6A600FE96E02
:10048000000EEA22EF50E66EF70EDF24E66E8FECE8
:100490000EF0E552E552DF2AEBD700016351E66E1C
:1004A000D950010FE96EDACFEAFFE552E750EE6E60
:1004B000ED6AD950010FE96EDACFEAFF060ED89047
:1004C000EE36ED36E806FBE1690EE66E000EE66EEE
:1004D000400EE66EE66A010EDBCFE6FF020EDBCFD2
:1004E000E6FFFD0EDBCFE6FFFE0EDBCFE6FFF9EC0D
:1004F0000CF0F56E080EE15EF550080EE66EECDDD0
:10050000E552F56E030EE15C02E2E16AE552E16E4E
:10051000F550E552E7CFD9FF1200D9CFE6FFE1CF82
:10052000D9FF030EE126DF6E4A0EDF5C0DE2C2DD6D
:10053000E66EDF50EA6A600FE96E000EEA22E552CD
:10054000E750EF6EDF2AF0D7000163510CE1FD0E9A
:10055000DBCFE6FFFE0EDBCFE6FFAEEC0DF0E552A3
:10056000E5520001A96F6351E66ED950010FE96EA3
:10057000DACFEAFFE552E750EE6EED6AD950010F8F
:10058000E96EDACFEAFF060ED890EE36ED36E806D1
:10059000FBE1D950FD0FE96EFF0EDA20EA6E030E83
:1005A000EE1801E1ED5026E1050EE66EE66A44DD47
:1005B000E552E552690EE66E000EE66E400EE66EFE
:1005C000E66A010EDBCFE6FF020EDBCFE6FFFD0E93
:1005D000DBCFE6FFFE0EDBCFE6FFF9EC0CF0F56EAD
:1005E000080EE15EF550050EE66EE66A25DDE55281
:1005F000E55219D0690EE66E000EE66E400EE66E0C
:10060000E66A010EDBCFE6FF020EDBCFE6FFFD0E52
:10061000DBCFE6FFFE0EDBCFE6FFF9EC0CF0F56E6C
:10062000080EE15EF550080EE66E56DDE552F56EF9
:10063000030EE15C02E2E16AE552E16EF550E5523B
:10064000E7CFD9FF1200D9CFE6FFE1CFD9FF020EE5
:10065000E126030EDF6E090EDF5C0DE22BDDE66E98
:10066000DF50EA6A600FE96E000EEA22E552E750B9
:10067000EF6EDF2AF0D70101F2417F0BE76E010E2A
:10068000E7CFDBFF61EC0FF00101EC51060A4EE011
:10069000040A38E0030A22E0010A10E0DAEC11F063
:1006A00060C069F061C06AF062C06BF063C06CF05A
:1006B00063D8F6C16DF0F7C16EF04CD0DAEC11F0F2
:1006C00060C069F061C06AF062C06BF063C06CF03A
:1006D00053D8F6C16DF0F7C16EF03CD001EC12F0CA
:1006E00060C069F061C06AF062C06BF063C06CF01A
:1006F00064C06DF065C06EF03FD8F6C16FF0F7C111
:1007000070F028D03DEC12F060C069F061C06AF072
:1007100062C06BF063C06CF064C06DF065C06EF0D9
:100720002BD8F6C16FF0F7C170F014D079EC12F04D
:1007300060C069F061C06AF062C06BF063C06CF0C9
:1007400064C06DF065C06EF017D8F6C16FF0F7C1E8
:1007500070F000D0ECC1A8F0400EE66E85DDE552E9
:10076000F56E020EE15C02E2E16AE552E16EF550DF
:10077000E552E7CFD9FF12003A0EC16EC26AA10E50
:10078000C06EC280040EE66EE66A56DCE552E552A3
:10079000D3A806D0040EE66EE66A4EDCE552E552BA
:1007A000C282000000000000C2B2FED7C3CFF6F143
:1007B000C4CFF7F11200D9CFE6FFE1CFD9FF130E76
:1007C000E1260A0EE66EE66A37DCE552E552100EC7
:1007D000E66E7CEC0EF0E552DF6EDF6ADF50106EE5
:1007E000116AD890115004E6F00E105C000E1158FA
:1007F00017E2100EDF24E76E040EE7CFDBFFDBCF3E
:10080000E6FF7CEC0EF0E552E66EDF50EA6A040F7C
:10081000E96E010EEA22E552E750EF6EDF2ADED7DD
:10082000110EDB6A040EF36E120EF3CFDBFF010E26
:100830000101ED5D03E3ED51020802E2010EED6FEF
:10084000ED07ED51000807E2110EDB6A080EF36EAA
:10085000120EF3CFDBFFEC51060A1CE0040A15E090
:10086000030A0EE0010A06E0020EF36E030EF3CF58
:10087000DBFF15D0020EF36E030EF3CFDBFF0FD0BC
:10088000030EF36EF3CFDBFF0AD0030EF36EF3CF4C
:10089000DBFF05D0030EF36EF3CFDBFF00D0EA5190
:1008A00001E09FD3E66A7CEC0EF0E552E76E090E9C
:1008B000E7CFDBFF010EE66E7CEC0EF0E552E76E53
:1008C0000A0EE7CFDBFF050EDB6A010EDF6E080EB6
:1008D000DF5C3BE2DF50020D040EF3CFDBFFDBCF2A
:1008E000E6FF7CEC0EF0E552E76E070EE7CFDBFF8C
:1008F000040EDB2ADBCFE6FF7CEC0EF0E552E76E60
:10090000080EE7CFDBFF070EDBCF10F0080EDBCFC2
:1009100011F0090EDBCF12F00A0EDBCF13F01050EE
:10092000125C115013580FE2070EDBCF06F0080ED1
:10093000DBCF07F0090E06C0DBFF0A0E07C0DBFFA6
:10094000050EDFCFDBFFDF2AC2D70101E851070820
:100950000CE2050EDBCFE8F1E8C1E6FFF40EE66E2F
:100960008FEC0EF0E552E552B2D0E851E824DF6E8C
:10097000DFCFE6FF7CEC0EF0E552E76E070EE7CF27
:10098000DBFFDF2ADFCFE6FF7CEC0EF0E552E76EFF
:10099000080EE7CFDBFF090EDBCF10F00A0EDBCF2E
:1009A00011F0070EDBCF12F0080EDBCF13F0105062
:1009B000125C1150135801E38AD0070EDBCFF4F11B
:1009C000080EDBCFF5F1110EDBCF10F0120EDBCFEE
:1009D00011F001011050F45D1150F55901E377D089
:1009E000F4C110F0F5C111F0030ED890113210329D
:1009F000E804FBE10E0E10C0DBFF690EE66E000E90
:100A0000E66E010EE66EE66A0E0EDBCFE6FFE66AE4
:100A1000000EE66EE66A12EC0CF0F56E080EE15E72
:100A2000F55069C0DFFF070E0101F415070B04E064
:100A3000DF42DF9EE806FCE1000EDF92DF94DF96E6
:100A4000DF98DF9ADF9CDF9EDF503CE1F60EE66E1A
:100A5000010EE66E020EE66EE66A000EE66EE66ACD
:100A6000F4C1E6FFF5C1E6FF12EC0CF0F56E080EDE
:100A7000E15EF550FF0E0101F75D24E1050EDBCFCD
:100A8000E8F10101E851020D040EF3CFDBFFF4C1E0
:100A9000E6FFDBCFE6FF8FEC0EF0E552E552040EE9
:100AA000DB2AF5C1E6FFDBCFE6FF8FEC0EF0E55267
:100AB000E552E8C1E6FFF40EE66E8FEC0EF0E5526B
:100AC000E55205D00101F42B000EF5237CD701017E
:100AD000E405070DF350DF6EDF50EA6A040FE96E9C
:100AE000010EEA22EFCFF4F1DF2ADF50EA6A040FA9
:100AF000E96E010EEA22EFCFF5F1E851E824DF6E4E
:100B0000DFCFE6FF7CEC0EF0E552E76E070EE7CF95
:100B1000DBFFDF2ADFCFE6FF7CEC0EF0E552E76E6D
:100B2000080EE7CFDBFF070EDBCF10F0080EDBCFA0
:100B300011F00101F451105CF551115810E2200E32
:100B4000F36E0B0EF3CFDBFFA10EF36E0C0EF3CFA3
:100B5000DBFF070EF36E0D0EF3CFDBFF13D10B0E91
:100B6000DB6A0C0EDB6A0D0EDB6AF4C1F8F1F5C12D
:100B7000F9F1070EDBCF10F0080EDBCF11F0010109
:100B80001050F85D1150F95945E2F8C110F0F9C163
:100B900011F0030ED89011321032E804FBE10E0E72
:100BA00010C0DBFF690EE66E000EE66E010EE66E0B
:100BB000E66A0E0EDBCFE6FFE66A000EE66EE66A38
:100BC00012EC0CF0F56E080EE15EF55069C0DFFF27
:100BD000070E0101F815070B04E0DF42DF9EE8066F
:100BE000FCE1000EDF92DF94DF96DF98DF9ADF9C56
:100BF000DF9EDF500AE1D9500B0FE96EDACFEAFF32
:100C0000EE52080EEE26000EEE220101F82B000E29
:100C1000F923AFD7F86BF96B000EF85D100EF95998
:100C200061E2F60EE66E010EE66E020EE66EE66A12
:100C3000F8C1E6FFF9C1E6FF070EDBCFE6FF080EBD
:100C4000DBCFE6FF12EC0CF0F56E080EE15EF5501E
:100C50000101FF0EF65DFF0EF7590AE2D9500B0FA6
:100C6000E96EDACFEAFFEE2A000EEE22EE2234D051
:100C7000FE0E0101F81902E10F0EF91901E132D05F
:100C8000F60EE66E010EE66E020EE66EE66A116A7A
:100C9000F825106EF951112210C0E6FF11C0E6FFD1
:100CA000070EDBCFE6FF080EDBCFE6FF12EC0CF001
:100CB000F56E080EE15EF5500101F61D01E1F71D2C
:100CC00002E110D009D0D9500B0FE96EDACFEAFF5C
:100CD000EE2A000EEE22EE22020E0101F827000E8F
:100CE000F9239AD7030EDB50116A000F106E010E24
:100CF0001122126A11BE1268D9500B0FE96EDACFB9
:100D0000EAFFEE50105CEE501158EE50125834E2EB
:100D1000030EDB50116A000F106E010E1122126AD1
:100D200011BE1268D9500B0FE96EDACFEAFF1050EE
:100D3000EE5E1150EE5A1250EE5A030EDBCF10F059
:100D4000116A126AD9500B0FE96EDACFEAFF10C0B0
:100D50000AF011C00BF012C00CF0EECF05F0EECF90
:100D600006F0EFCF07F00DEC1DF007C0EDFF06C059
:100D7000EDFF05C0EFFF06D00B0EDB6A0C0EDB6A41
:100D80000D0EDB6A0B0EDBCF10F00C0EDBCF11F07B
:100D90000D0EDBCF12F010501110121001E1DDD05A
:100DA0000B0EDB500101E5270C0EDB50E6230D0E88
:100DB000DB50E723E405070DF350040FDF6E020E4E
:100DC000DB6A030EF36E020EDBCFF4FFF350F45C2C
:100DD00060E2020EDB50DF24E76E010EE7CFDBFF9F
:100DE000D9500B0F106EDACF11F0020EDB500F014D
:100DF0001024E96E000E1120EA6EEF50E66E010E2F
:100E0000DB50EA6A040FE96E010EEA22E552E75070
:100E1000EF6E020EDBCFE6FF100EDF24E552E72473
:100E2000E76E010EE7CFDBFFD9500B0F106EDACF64
:100E300011F0020EDB501024E96E000E1120EA6E54
:100E4000040EEFCFDBFFDBCFE6FF010EDBCFE6FFCB
:100E50008FEC0EF0E552E552020EDB50F10FE76E1B
:100E6000010EE7CFDBFF020EDB50EA6AE50FE96E09
:100E7000010EEA22040EEFCFDBFFDBCFE6FF010E0F
:100E8000DBCFE6FF8FEC0EF0E552E552020EDB2AD7
:100E900098D70B0EDBCF10F00C0EDBCF11F00D0E40
:100EA000DBCF12F0070E1116126A0F0E10C0DBFF17
:100EB000100E11C0DBFFD9500F0FE96EDACFEAFF39
:100EC000000ED880EE54000EED5446E20F0EDBCF3C
:100ED00010F0100EDBCF11F01006000E115AD89052
:100EE000103611360F0E10C0DBFF100E11C0DBFFE5
:100EF000F60EE66E010EE66E020EE66EE66A0F0E66
:100F0000DBCFE6FF100EDBCFE6FF040EE66EE66AEF
:100F100012EC0CF0F56E080EE15EF5500101E405EF
:100F2000070DF350DF6E040EF6C1DBFFDBCFE6FFEB
:100F3000120EDF24E66E8FEC0EF0E552E552040E41
:100F4000F7C1DBFFDBCFE6FF120EDF24010FE66EF9
:100F50008FEC0EF0E552E5523AD00101E405070DA1
:100F6000F350EA6A040FE96E010EEA22EFCFF4F1C2
:100F7000E405070DF328EA6A040FE96E010EEA2280
:100F8000EFCFF5F1F4C1F8F1F5C1F9F10A0EE66E13
:100F9000E66A1CEC00F0E552E552F8C1E6FFF9C143
:100FA000E6FFAEEC0DF0E552E552DF6E0A0EE66E9E
:100FB000E66A1CEC00F0E552E5520101E407E4C1E9
:100FC000E6FFF00EE66E8FEC0EF0E552E552010101
:100FD000010EEA6FE66EF60EE66E8FEC0EF0E5524D
:100FE000E552F56E130EE15C02E2E16AE552E16E54
:100FF000F550E552E7CFD9FF1200D9CFE6FFE1CF98
:10100000D9FF070EE126030EDE6EDD6ADECF10F09B
:10101000DDCF11F0090E105C000E115813E25AECEE
:1010200000F0E66EDECFE9FFDDCFEAFF600EE926D5
:10103000000EEA22E552E750EF6EDF2A010E01E3CF
:10104000DB2AE4D7050E64C0DBFF060E65C0DBFFBC
:1010500066C0F4F167C0F5F1DBEC03F0020EDB6A69
:10106000040EF36E030EF3CFDBFF0101ED51000818
:1010700007E2020EDB6A080EF36E030EF3CFDBFF0E
:10108000020EDBCF10F0030EDBCF11F00101105088
:10109000F45D1150F55901E39ED0D950050FE96E6A
:1010A000DACFEAFF000ED880EE54000EED5401E3D3
:1010B00092D0F4C110F0F5C111F0030ED8901132A6
:1010C0001032E804FBE1040E10C0DBFF690EE66E8F
:1010D000000EE66E010EE66EE66A040EDBCFE6FF5A
:1010E000E66A000EE66EE66A9DDBF56E080EE15ECE
:1010F000F55000016951DE6EDD6A070E0101F4153D
:10110000106E116AD9CFE9FFDACFEAFF10500F0B4A
:1011100006E0EC52D890ED32EF32E806FAE1010E2B
:10112000DE16DD6AD9CFE9FFDACFEAFFEE50ED1027
:101130004DE1DE6ADD6ADECF10F0DDCF11F0400E4A
:10114000105C000E115842E2D950050FE96EDACF5B
:10115000EAFF000ED880EE54000EED5437E2DECFE9
:10116000F8F1DDCFF9F1060E0101D890F837F93723
:10117000E806FBE1690EE66E000EE66E400EE66ED6
:10118000E66AF8C1E6FFF9C1E6FFF4C1E6FFF5C182
:10119000E6FF48DBF56E080EE15EF550400EE66EA8
:1011A00034EC01F0E552050EDB06060E01E2DB062B
:1011B000D950050FE96EDACFEAFFEE50ED1001E1EC
:1011C00005D0DF2A010E01E3DB2AB5D70101F42B9C
:1011D000000EF52355D7F56E070EE15C02E2E16AD9
:1011E000E552E16EF550E552E7CFD9FF1200D9CFB5
:1011F000E6FFE1CFD9FF0E0EE126060EDB6A040EF4
:10120000F36E070EF3CFDBFF0101ED0507E1060EDC
:10121000DB6A080EF36E070EF3CFDBFF0A0E64C025
:10122000DBFF0B0E65C0DBFF0C0E66C0DBFF0D0E97
:1012300067C0DBFF010EDB6A080EDB6A090EDB6AA2
:10124000D9500A0FE96EDACFEAFFEE50ED1001E057
:10125000BFD0D9500C0FE96EDACFEAFFFF0EEE18BF
:1012600002E1FF0EED1801E0B3D0000EE66EE66A73
:10127000AEEC0DF0E552E5520001636F050EF36E22
:10128000040EF3CFDBFF050EDB6A040EDBCF10F09C
:10129000050EDBCF11F0060EDBCF12F0070EDBCF11
:1012A00013F01250105C1350115858E2040EDBCFAB
:1012B000E6FF050EDBCFE6FFAEEC0DF0E552E552A2
:1012C000DF6E010EDBCFF3FFF390F342F3CFDBFFD2
:1012D000DF5007E0010EDB8E080EDB2A090E01E36A
:1012E000DB2A070EE76E040EDBCF10F0050EDBCF16
:1012F00011F0E7501016116A070E101801E1115095
:1013000027E1040EDBCF10F0050EDBCF11F0030E4A
:10131000D89011321032E804FBE1030E10C0DBFF5D
:10132000010EDBCF69F0690EE66E000EE66E010E6F
:10133000E66EE66A030EDBCFE6FFE66A000EE66EB7
:10134000E66A57DBF56E080EE15EF550010EDB6ACA
:10135000040EDB2A050E01E3DB2A97D7080EDBCF4C
:1013600006F0090EDBCF07F00C0E06C0DBFF0D0EFA
:1013700007C0DBFF060EDBCF10F0070EDBCF11F04E
:10138000030ED89011321032E804FBE1040E10C0B5
:10139000DBFF050E11C0DBFF0C0EDBCF69F00D0E7D
:1013A000DBCF6AF0690EE66E000EE66E020EE66EA8
:1013B000E66A040EDBCFE6FF050EDBCFE6FF000E8C
:1013C000E66EE66A16DBF56E080EE15EF55050D06B
:1013D000E851E824DF6EDFCFE6FF7CEC0EF0E5524B
:1013E000E76E0C0EE7CFDBFFDF2ADFCFE6FF7CECFA
:1013F0000EF0E552E76E0D0EE7CFDBFF010EE76E54
:101400000C0EDBCF10F00D0EDBCF11F0E7501026E5
:10141000000E1122060E10C0DBFF070E11C0DBFF0D
:10142000050EF36E040EF3CFDBFF050EDB6A040E30
:10143000DBCF10F0050EDBCF11F0060EDBCF12F084
:10144000070EDBCF13F01250105C1350115810E24E
:10145000040EDBCFE6FF050EDBCFE6FF7FDBE552B8
:10146000E552DF6E040EDB2A050E01E3DB2ADFD72F
:101470000A0EE66EE66A1CEC00F0E552E552DF6A01
:10148000DF50106E116AD890115004E6F60E105C11
:10149000000E115809E2E66ADFCFE6FF8FEC0EF08E
:1014A000E552E552DF2AECD7010EE66EF60EE66E47
:1014B0008FEC0EF0E552E552F56E0E0EE15C02E2A5
:1014C000E16AE552E16EF550E552E7CFD9FF12002F
:1014D000D9CFE6FFE1CFD9FF020EE126030EDF6E82
:1014E000090EDF5C0EE25AEC00F0E66EDF50EA6AAD
:1014F000600FE96E000EEA22E552E750EF6EDF2A38
:10150000EFD700016351400D010EF3CFDBFFDF6A1F
:10151000400EDF5C13E2010EDB50DF24E66EECDBF5
:10152000E552E66E090EDF24EA6A600FE96E000EEE
:10153000EA22E552E750EF6EDF2AEAD7400EE66E68
:1015400034EC01F0E552F56E020EE15C02E2E16A74
:10155000E552E16EF550E552E7CFD9FF1200D9CF41
:10156000E6FFE1CFD9FF030EE126DF6E4A0EDF5C16
:101570000EE25AEC00F0E66EDF50EA6A600FE96EA8
:10158000000EEA22E552E750EF6EDF2AEFD70001A6
:101590006351E66ED950010FE96EDACFEAFFE552EA
:1015A000E750EE6EED6AD950010FE96EDACFEAFF2F
:1015B000060ED890EE36ED36E806FBE1DF6A400E07
:1015C000DF5C1CE2090EDF24EA6A600FE96E000EA0
:1015D000EA22EF50E66EDF50E76E010EDBCF10F02F
:1015E000020EDBCF11F0E7501026000E1122105032
:1015F000E66E95DBE552E552DF2AE1D7080EE66E8E
:101600006CEC00F0E552F56E030EE15C02E2E16A7B
:10161000E552E16EF550E552E7CFD9FF1200D9CF80
:10162000E6FFE1CFD9FF020EE126DF6A080EDF5C9C
:1016300010E28196FE0EDBAE02D0818401D081944F
:101640008186DBCFF3FFF39EF346F3CFDBFFDF2A88
:10165000EDD7F56E020EE15C02E2E16AE552E16E61
:10166000F550E552E7CFD9FF1200D9CFE6FFE1CF21
:10167000D9FF030EE126010EDB6ADF6A080EDF5C8C
:101680000DE28196010EDBCFF3FFF39EF346F3CF1D
:10169000DBFF81B0DB2A8186DF2AF0D7010EDB5029
:1016A000F56E030EE15C03E200D0E16AE552E16E03
:1016B000F550E552E7CFD9FF1200D9CFE6FFE1CFD1
:1016C000D9FFFD0EDBCF10F0FE0EDBCF11F0000EC8
:1016D000105C040E115804E281920000000003D057
:1016E000839E00000000060EE66E99DFE5520000C2
:1016F0000000818200000000838EE552E7CFD9FF11
:101700001200D9CFE6FFE1CFD9FFE652DF6AFD0E26
:10171000DBCF10F0FE0EDBCF11F0000E105C040EDC
:10172000115804E281920000000003D0839E000063
:101730000000050EE66E73DFE55297DFDF6E0000F6
:101740000000818200000000838EDF5000D0E5524F
:10175000E552E7CFD9FF1200D9CFE6FFE1CFD9FF9D
:10176000E652FD0EDBCFE6FFFE0EDBCFE6FFC9DF64
:10177000E552E552DF6EDFAE28D0FD0EDBCFE6FF8F
:10178000FE0EDBCFE6FF99DFE552E552FD0EDBCF23
:1017900010F0FE0EDBCF11F0000E105C040E11589D
:1017A00004E281920000000003D0839E000000004C
:1017B000010EE66E34DFE552E66A31DFE5520000E5
:1017C0000000818200000000838EFD0EDBCFE6FF6B
:1017D000FE0EDBCFE6FF71DFE552E552FD0EDBCFFB
:1017E00010F0FE0EDBCF11F0000E105C040E11584D
:1017F00004E281920000000003D0839E00000000FC
:10180000010EE66E0CDFE552E66A09DFE5520000E4
:101810000000818200000000838EE552E552E7CF90
:10182000D9FF1200D9CFE6FFE1CFD9FF030EE126A1
:10183000FD0EDBCF10F0FE0EDBCF11F0000E105CC2
:10184000040E115813E2819200000000FD0EDBCF60
:1018500010F0FE0EDBCF11F0126A10C0DFFF010E98
:1018600011C0DBFF020E12C0DBFF16D0839E00000A
:101870000000FD0EDBCF10F0FE0EDBCF11F0000EEE
:10188000105E040E115A126A10C0DFFF010E11C063
:10189000DBFF020E12C0DBFFD9CFE9FFDACFEAFF90
:1018A0000C0EE76ED890EF36010EEB36020EEB36DB
:1018B000E706F8E1FB0EDBCF10F0FC0EDBCF11F0FA
:1018C000126AD9CFE9FFDACFEAFF1050EE261150A5
:1018D000EE221250EE22030EE66EA1DEE552020E5B
:1018E000DBCFE6FF9CDEE552010EDBCFE6FF97DEA5
:1018F000E552DFCFE6FF93DEE552F90EDBCF10F0C5
:10190000DB06FA0EDBCF11F001E2DB0610501110FE
:1019100011E0ABDEE66EF70EDBCFE9FFF80EDBCFB2
:10192000EAFFE552E750EF6EF70EDB2AF80E01E30F
:10193000DB2AE3D700000000818200000000838ED4
:10194000F56E030EE15C02E2E16AE552E16EF550EC
:10195000E552E7CFD9FF1200D9CFE6FFE1CFD9FF9B
:10196000E652040EDF6EFD0EDBCF10F0FE0EDBCF75
:1019700011F0000E105C040E115804E28192000078
:10198000000013D0839E00000000FD0EDBCF10F09E
:10199000FE0EDBCF11F0000E105E040E115AFD0E8C
:1019A00010C0DBFFFE0E11C0DBFF9F0EE66E37DEC0
:1019B000E552DF50DF06000911E057DEE66EFB0E50
:1019C000DBCFE9FFFC0EDBCFEAFFE552E750EF6E1D
:1019D000FB0EDB2AFC0E01E3DB2AEBD70000000044
:1019E000818200000000838EE552E552E7CFD9FFE7
:1019F0001200D9CFE6FFE1CFD9FF040EE126FD0E9C
:101A0000DBCFE6FFFE0EDBCFE6FF57DEE552E55209
:101A1000FD0EDBCF10F0FE0EDBCF11F0000E105CE0
:101A2000040E115814E2819200000000FD0EDBCF7D
:101A300010F0FE0EDBCF11F0126A010E10C0DBFFBA
:101A4000020E11C0DBFF030E12C0DBFF17D0839E16
:101A500000000000FD0EDBCF10F0FE0EDBCF11F01A
:101A6000000E105E040E115A126A010E10C0DBFF48
:101A7000020E11C0DBFF030E12C0DBFFD950010FB5
:101A8000E96EDACFEAFF0C0EE76ED890EF36010E62
:101A9000EB36020EEB36E706F8E1FB0EDBCF10F07B
:101AA000FC0EDBCF11F0126AD950010FE96EDACFCC
:101AB000EAFF1050EE261150EE221250EE22020ED6
:101AC000E66EADDDE552030EDBCFE6FFA8DDE552A5
:101AD000020EDBCFE6FFA3DDE552010EDBCFE6FF12
:101AE0009EDDE552F90EDBCF10F0DB06FA0EDBCF00
:101AF00011F001E2DB061050111017E0F70EDBCFFA
:101B0000E9FFF80EDBCFEAFFEF50E66E88DDE55225
:101B10000C0EDF6EDF50000802E2DF06FBD7F70E87
:101B2000DB2AF80E01E3DB2ADDD70000000081820A
:101B300000000000838E240EDF6EDF50000802E2FA
:101B4000DF06FBD7F56E040EE15C02E2E16AE552C6
:101B5000E16EF550E552E7CFD9FF1200D9CFE6FF8D
:101B6000E1CFD9FF050EE126DF6A0A0EE66EE66ACE
:101B70001CEC00F0E552E552FD0EDBCF06F0FE0E48
:101B8000DBCF07F0030E06C0DBFF040E07C0DBFF50
:101B9000FD0EDBCFE6FFFE0EDBCFE6FF8EDDE5526E
:101BA000E552FD0EDBCF10F0FE0EDBCF11F0000E84
:101BB000105C040E115818E2819200000000030E20
:101BC000DBCF10F0040EDBCF11F00001116A0F0E15
:101BD00010161038106AF00B116E010E10C0DBFFEA
:101BE000020E11C0DBFF27D0839E00000000FD0E17
:101BF000DBCF10F0FE0EDBCF11F0000E105E040EF6
:101C0000115A030E10C0DBFF040E11C0DBFF030EE0
:101C1000DBCF10F0040EDBCF11F00001116A0F0EC4
:101C200010161038106AF00B116E010E10C0DBFF99
:101C3000020E11C0DBFF200EE66EF1DCE552030E52
:101C4000DBCF10F0040EDBCF11F0040ED890113270
:101C50001032E804FBE11050E66EE1DCE552010EC3
:101C6000DBCF10F0020EDBCF11F011C010F0116AC3
:101C70001050E66ED4DCE552010EDBCFE6FFCFDC80
:101C8000E55200000000818200000000838E0A0EF1
:101C9000E66EE66A1CEC00F0E552E552FD0EDBCF85
:101CA000E6FFFE0EDBCFE6FF2CDDE552E552DF6EF0
:101CB000000EDB92DB94DB96DB98DB9ADB9CDB9EF1
:101CC000DF50ECE1FD0EDBCFE6FFFE0EDBCFE6FFE3
:101CD00018DDE552E552DF6E200EDF16DF5000D032
:101CE000F56E050EE15C02E2E16AE552E16EF55047
:101CF000E552E7CFD9FF1200D9CFE6FFE1CFD9FFF8
:101D0000E652FE0EDB50A96E010EA66EA850DF6EE5
:101D1000DF5000D0E552E552E7CFD9FF1200D9CF0E
:101D2000E6FFE1CFD9FFFD0EDBCFE6FFFE0EDBCFF6
:101D3000E6FF11D8E552E552A6A609D0FD0EDBCF8D
:101D4000E6FFFE0EDBCFE6FF06D8E552E552E55290
:101D5000E7CFD9FF1200D9CFE6FFE1CFD9FFFE0EC2
:101D6000DB50A96EFD0EDB50A86E040EA66E550E5C
:101D7000A76EAA0EA76EA682A6B2FED7A694E552BB
:101D8000E7CFD9FF1200D9CFE6FFE1CFD9FF040E8C
:101D9000E126020EDB6ADF6A080EDF5C20E2839236
:101DA000030EF36EF3CFDBFFDB50000803E2030EFC
:101DB000DB06FAD78382030EF36EF3CFDBFFDB5033
:101DC000000803E2030EDB06FAD7020EDB50020D19
:101DD000020EF3CFDBFF83B6DB80DF2ADDD7020EF6
:101DE000DB50F56E040EE15C03E200D0E16AE552DF
:101DF000E16EF550E552E7CFD9FF1200D9CFE6FFEB
:101E0000E1CFD9FF020EE126DF6A080EDF5C27E290
:101E1000FE0EDB50DF5206E0DFCFF3FFE846FE0B9D
:101E2000F306FCE1800B02E0838401D0839483926B
:101E3000DE52030EDD6E010EDB50000803E2010EE0
:101E4000DB06F9D78382DE52030EDD6E010EDB5016
:101E5000000803E2010EDB06F9D7DF2AD6D7F56EBC
:101E6000020EE15C02E2E16AE552E16EF550E552F4
:101E7000E7CFD9FF120083900000000000000000AF
:101E80000000E668BBDFE552E668B8DFE552E668C9
:101E9000B5DFE552E668B2DFE552E668AFDFE5524E
:101EA000E668ACDFE5520000000000000000000022
:101EB00083800A0EE66EE66A1CEC00F0E552E552FD
:101EC00012008390000000000000000000000000ED
:101ED000000000000000080EE66E90DFE552E66AA2
:101EE0008DDFE552010EE66E89DFE552100EE66EDB
:101EF00085DFE552ABC0E6FF81DFE552100EE66EEE
:101F00007DDFE552070EE66EE66A1CEC00F0E55256
:101F1000E552D3A807D0070EE66EE66A1CEC00F087
:101F2000E552E552580EE66E69DFE5522CDF0101FD
:101F3000026F29DF0101016F26DF0101006F000040
:101F4000000000000000000000000000838012007C
:101F5000839000000000000000000000000000006E
:101F600000000000100EE66E49DFE552100EE66E2E
:101F700045DFE552010EE66E41DFE552080EE66EE2
:101F80003DDFE552E66A3ADFE552010EE66E36DFE6
:101F9000E552070EE66EE66A1CEC00F0E552E552EB
:101FA000D3A807D0070EE66EE66A1CEC00F0E552F7
:101FB000E552580EE66E22DFE552E5DE0101026FC2
:101FC000E2DE0101016FDFDE0101006F00000000B1
:101FD0000000000000000000000083801200080ED6
:101FE000E66E0CDFE552E66A09DFE5520A0EE66EA0
:101FF00005DFE552100EE66E01DFE552ABC0E6FFED
:10200000FDDEE552100EE66EF9DEE552820EE66E5A
:10201000E66A1CEC00F0E552E552D3A807D0820E28
:10202000E66EE66A1CEC00F0E552E552580EE66EEC
:10203000E5DEE5520101006B016B026B036BA3DE71
:102040000101026FA0DE0101016F9DDE0101006F41
:10205000010E1F0B08E00101D8900037013702374D
:102060000337E806F9E10101036B080E1F0B08E0D6
:102070000101D8900333023301330033E806F9E15C
:102080000101EE51010100270101EF51010101237E
:10209000000E022303231200080EE66EAFDEE552A7
:1020A000E66AACDEE5520A0EE66EA8DEE552100ED8
:1020B000E66EA4DEE552ABC0E6FFA0DEE552110EEF
:1020C000E66E9CDEE552820EE66EE66A1CEC00F0DF
:1020D000E552E552D3A807D0820EE66EE66A1CEC04
:1020E00000F0E552E552580EE66E88DEE552010139
:1020F000006B016B026B036B46DE0101026F43DE76
:102100000101016F40DE0101006F010E1F0B08E0AD
:102110000101D8900037013702370337E806F9E1AB
:102120000101036B080E1F0B08E00101D890033377
:10213000023301330033E806F9E10101EE510101F8
:1021400000270101EF5101010123000E02230323A7
:102150001200080EE66E52DEE552E66A4FDEE552E8
:10216000070EE66E4BDEE552100EE66E47DEE552D8
:10217000100EE66E43DEE552010EE66E3FDEE552DE
:10218000460EE66EE66A1CEC00F0E552E552D3A876
:1021900007D0460EE66EE66A1CEC00F0E552E5520A
:1021A000580EE66E2BDEE5520101006B016B026BEF
:1021B000036BE9DD0101026FE6DD0101016FE3DD83
:1021C0000101006F1200100EE66E18DEE552100ECF
:1021D000E66E14DEE552020EE66E10DEE552080EE3
:1021E000E66E0CDEE552E66A09DEE552070EE66EA3
:1021F00005DEE552460EE66EE66A1CEC00F0E5529E
:10220000E552D3A807D0460EE66EE66A1CEC00F055
:10221000E552E552580EE66EF1DDE5520101006B24
:10222000016B026B036BAFDD0101026FACDD0101DD
:10223000016FA9DD0101006F1200100EE66EDEDDF8
:10224000E552ABC0E6FFDADDE552100EE66ED6DDF4
:10225000E552080EE66ED2DDE552E66ACFDDE552C4
:102260000E0EE66ECBDDE5524F0EE66E010EE66E0B
:102270001CEC00F0E552E552D3A808D04F0EE66EF4
:10228000010EE66E1CEC00F0E552E552580EE66ECB
:10229000B5DDE5520101006B016B026B036B73DD71
:1022A0000101026F70DD0101016F6DDD0101006F41
:1022B000010E1F0B08E00101D890003701370237EB
:1022C0000337E806F9E10101036B040E1F0B08E078
:1022D0000101D8900333023301330033E806F9E1FA
:1022E0000101EE51010100270101EF51010101231C
:1022F000000E02230323040E1F0B08E00101D890F7
:102300000037013702370337E806F9E10101036BB3
:10231000040E1F0B08E00101D89003330233013390
:102320000033E806F9E11200100EE66E67DDE552B3
:10233000100EE66E63DDE552010EE66E5FDDE552DE
:10234000080EE66E5BDDE552E66A58DDE5520A0EE0
:10235000E66E54DDE552820EE66EE66A1CEC00F095
:10236000E552E552D3A807D0820EE66EE66A1CEC71
:1023700000F0E552E552580EE66E40DDE5520101EF
:10238000006B016B026B036BFEDC0101026FFBDC77
:102390000101016FF8DC0101006F036B050E1F0BDB
:1023A00008E00101D8900333023301330033E8061B
:1023B000F9E112008390000000000000000000001E
:1023C000C8DE01C162F002C163F0050EE66EE66A86
:1023D0001CEC00F0E552E552D3A807D0050EE66EDE
:1023E000E66A1CEC00F0E552E552F9DD00C160F050
:1023F00001C161F0000000000000000000008380C7
:102400001200839000000000000000000000DBDEEE
:1024100001C164F002C165F0050EE66EE66A1CECCF
:1024200000F0E552E552D3A807D0050EE66EE66A45
:102430001CEC00F0E552E5522FDE01C162F002C152
:1024400063F0050EE66EE66A1CEC00F0E552E5521C
:10245000D3A807D0050EE66EE66A1CEC00F0E55244
:10246000E552BDDD00C160F001C161F00000000077
:102470000000000000008380120083900000000034
:102480000000000000009FDE01C164F002C165F0A1
:10249000050EE66EE66A1CEC00F0E552E552D3A8A4
:1024A00007D0050EE66EE66A1CEC00F0E552E55238
:1024B00050DE01C162F002C163F0050EE66EE66A0D
:1024C0001CEC00F0E552E552D3A807D0050EE66EED
:1024D000E66A1CEC00F0E552E55281DD00C160F0D7
:1024E00001C161F0000000000000000000008380D6
:1024F000120083900000000000000000000014DFC4
:1025000000C163F001C164F002C165F0050EE66E22
:10251000E66A1CEC00F0E552E552D3A807D0050EA0
:10252000E66EE66A1CEC00F0E552E55286DE00C17C
:1025300060F001C161F002C162F000000000000023
:102540000000000083801200D9CFE6FFE1CFD9FF61
:102550000D0EE126060EDB6A070EDB6A640EE66EE0
:10256000E66A1CEC00F0E552E552040EDB6AF36EFD
:10257000050EF3CFDBFF0B0EF6C1DBFF0C0EF7C130
:10258000DBFF0101ED51000807E2040EDB6A080ED3
:10259000F36E050EF3CFDBFF030EDB6A6CDCBCECE5
:1025A00003F08FDC0101EC51060A20E0040A17E079
:1025B000030A0EE0010A06E0020EF36EF3CFDBFF22
:1025C000F9DE1BD0020EF36EF3CFDBFFF3DE15D086
:1025D000030EF36E020EF3CFDBFF13DF0ED0030EFC
:1025E000F36E020EF3CFDBFF48DF07D0030EF36E6E
:1025F000020EF3CFDBFF7DDF00D0040EE66EE66A4D
:1026000081EC0BF0E552E552DF6E0C0EDF140EE0AC
:10261000040EE66EE66AACEC0BF0E552E552020EF3
:10262000E66EE66A1CEC00F0E552E552040EE66E3A
:10263000E66A81EC0BF0E552E552DF6E0C0EDF141A
:102640000EE0040EE66EE66AACEC0BF0E552E552E5
:10265000020EE66EE66A1CEC00F0E552E552F60E5C
:10266000E66E010EE66E020EE66EE66AFAC1E6FF5F
:10267000FBC1E6FF040EE66EE66AF9EC0CF0F56EBF
:10268000080EE15EF550120EE66EE66A1CEC00F0F4
:10269000E552E552D950090FE66E000EDA20E66EDB
:1026A000020EE66EE66AFAC1E6FFFBC1E6FF040E23
:1026B000E66EE66A12EC0CF0F56E080EE15EF5507F
:1026C000F6C110F0F7C111F0090EDB50101803E14C
:1026D0000A0EDB5011181BE0F60EE66E010EE66ED8
:1026E000020EE66EE66AFAC1E6FFFBC1E6FF040EE3
:1026F000E66EE66AF9EC0CF0F56E080EE15EF55058
:10270000120EE66EE66A1CEC00F0E552E552020E8F
:102710000101FA27000EFB23FF0EFA15106E0F0EB3
:10272000FB15116E060E10C0DBFF070E11C0DBFF9C
:10273000D950060FE96EDACFEAFFEE50ED1021E135
:10274000070E0101E403F350120FDF6EF6C1E6FF3E
:10275000DFCFE6FF8FEC0EF0E552E552DF2AF7C13E
:10276000E6FFDFCFE6FF8FEC0EF0E552E552040EF8
:10277000E66EE66AAEEC0DF0E552E5520101FA6B49
:10278000FB6B010EDB6A020EDB50F36E010EDBCF3A
:10279000F4FFF350F45C01E343D1FF0E0101F8159F
:1027A000106E0F0EF915116E060E10C0DBFF070E2E
:1027B00011C0DBFFD950060FE96EDACFEAFFEE5009
:1027C000ED106DE10101F42B000EF523F4C110F0C2
:1027D000F5C111F0040EDB50101803E1050EDB50BB
:1027E000111801E129D9F4C110F0F5C111F0030E5F
:1027F000D89011321032E804FBE1080E10C0DBFF64
:10280000690EE66E000EE66E010EE66EE66A080ED2
:10281000DBCFE6FFE66A000EE66EE66A12EC0CF02D
:10282000F56E080EE15EF55069C0DFFF070E01018D
:10283000F415070B04E0DF42DF9EE806FCE1000E22
:10284000DF92DF94DF96DF98DF9ADF9CDF9EDF5018
:10285000B9E10101F86BF96B0101E851060802E2E8
:10286000E86B01D0E82BE851E824DF6EF4C1E6FF05
:10287000DFCFE6FF8FEC0EF0E552E552DF2AF5C11F
:10288000E6FFDFCFE6FF8FEC0EF0E552E552E8C140
:10289000E6FFF40EE66E8FEC0EF0E552E552030E05
:1028A000DB5041E10101000EF45D040EF5593BE3FC
:1028B000F4C1E6FFF5C1E6FF81EC0BF0E552E5520D
:1028C000DF6E0C0EDF1408E0F4C1E6FFF5C1E6FF91
:1028D000ACEC0BF0E552E552020EE66EE66A1CEC3B
:1028E00000F0E552E552F4C1E6FFF5C1E6FF81ECE8
:1028F0000BF0E552E552DF6E0C0EDF1408E0F4C178
:10290000E6FFF5C1E6FFACEC0BF0E552E552010E37
:10291000F36E030EF3CFDBFF020EE66EE66A1CECED
:1029200000F0E552E552010EDBCFE6FFDB50E55249
:10293000E724EA6A600FE96E000EEA22EFCFF6F1B3
:10294000010EDBCFE6FFDB28E552E724EA6A600FE1
:10295000E96E000EEA22EFCFF7F1F60EE66E010EF9
:10296000E66E020EE66EE66AF8C1E6FFF9C1E6FF22
:10297000F4C1E6FFF5C1E6FFF9EC0CF0F56E080EC8
:10298000E15EF550120EE66EE66A1CEC00F0E552D0
:10299000E552D950090FE66E000EDA20E66E020EFF
:1029A000E66EE66AF8C1E6FFF9C1E6FFF4C1E6FFAC
:1029B000F5C1E6FF12EC0CF0F56E080EE15EF55085
:1029C000F6C110F0F7C111F0090EDB50101803E149
:1029D0000A0EDB5011181CE0F60EE66E010EE66ED4
:1029E000020EE66EE66AF8C1E6FFF9C1E6FFF4C141
:1029F000E6FFF5C1E6FFF9EC0CF0F56E080EE15EBE
:102A0000F550120EE66EE66A1CEC00F0E552E55257
:102A1000020E0101F827000EF923010EDB2AB3D6BE
:102A2000F56E0D0EE15C02E2E16AE552E16EF550F1
:102A3000E552E7CFD9FF1200F26A700ECD6EECECD2
:062A400015F00300120076
:0A2A4600DACFE4FFE2CFDAFFE65238
:102A50000000000000009E50010B146E9D50010B01
:102A6000141412E0F26A0101B70EFD6F0101FD516D
:102A7000000803E20101FD07F9D79E90CD90000107
:102A8000010EAA6FC00EF26E9EAA03D09D9A01019C
:102A9000FC6BE552E5CFDAFF1100D9CFE6FFE1CFBD
:102AA000D9FFE6521E0EE66EE66A1CEC00F0E55217
:102AB000E552620ED36ED3A4FED70A0EE66EE66A26
:102AC0001CEC00F0E552E55278D85CD81E0EE66E9C
:102AD000E66A1CEC00F0E552E552DBEC03F03BEC5F
:102AE0000FF0000EE66EE66AACEC0BF0E552E55234
:102AF000000EE66EE66A81EC0BF0E552E552DF6E01
:102B00000C0EDF140EE0000EE66EE66AACEC0BF085
:102B1000E552E5520A0EE66EE66A1CEC00F0E5525C
:102B2000E5520101ED0523E1010EE66E040EE66EAD
:102B3000ACEC0BF0E552E552010EE66E040EE66ECB
:102B400081EC0BF0E552E552DF6E0C0EDF140FE066
:102B5000010EE66E040EE66EACEC0BF0E552E552AB
:102B60000A0EE66EE66A1CEC00F0E552E55282BE03
:102B700002D077D901D093D8FFD7E552E552E7CFFD
:102B8000D9FF1200F26A896A92683A0EC16E070E86
:102B9000B46E8A6AF10E936E020E816E8B6ABF0E5E
:102BA000946E826A8C6A680E956E810E836E8D6A51
:102BB00096686D96C69AC29012009268F10E936E56
:102BC000020E816E826A3F0E946E9668680E956E54
:102BD000810E836E83981200F00E936E816A3E0E12
:102BE000946E030E82169268806A966A080E846E4E
:102BF000956A300E836E1200F70EE66E7CEC0EF0D6
:102C0000E5520101EB6FEB51800A28E0C00A22E097
:102C1000600A1CE0300A16E0180A10E00C0A0AE00C
:102C2000060A04E00001040EAB6F1CD00001010E87
:102C3000AB6F18D00001020EAB6F14D00001030E71
:102C4000AB6F10D00001040EAB6F0CD00001050E6D
:102C5000AB6F08D00001060EAB6F04D00001070E69
:102C6000AB6F00D0F80EE66E7CEC0EF0E552010181
:102C7000EC6FFE0EE66E7CEC0EF0E5520101F26F99
:102C8000FA0EE66E7CEC0EF0E5520101EE6FFB0EE3
:102C9000E66E7CEC0EF0E5520101EF6F1200D9CF29
:102CA000E6FFE1CFD9FFE652948E948CB06A100E05
:102CB000AF6E080EB86E240EAC6E100EAB6E720EB8
:102CC000D36E3C0EE66EE66A1CEC00F0E552E5526F
:102CD000100EE66E7CEC0EF0E552DF6EAB8EC00E91
:102CE000F26E0101010EFC6F9D8AFC5101E0FDD7DF
:102CF0005AEC00F00001606FAA0E605D01E0ABD0FD
:102D00005AEC00F00001616F5AEC00F00001626FB4
:102D100062518F0A01E197D0010A01E191D0460A80
:102D200001E18BD0100A01E185D0550A6AE0010A61
:102D30004DE0070A48E0010A43E0030A3DE0010ACA
:102D400033E00F0A29E0010A1FE0030A15E0010A37
:102D50000BE0070A01E07FD0010EE66EE66A50EC58
:102D600001F0E552E55277D0010EE66EE66A11EC0D
:102D700002F0E552E5526FD0020EE66EE66A50ECC4
:102D800001F0E552E55267D0020EE66EE66A8DEC80
:102D900002F0E552E5525FD0030EE66EE66A50ECB3
:102DA00001F0E552E55257D0030EE66EE66A8DEC6F
:102DB00002F0E552E5524FD01FDF23EC03F04BD079
:102DC000FDEC07F048D0A7EC01F045D0030EDF6E14
:102DD000090EDF5C0EE25AEC00F0E66EDF50EA6AA4
:102DE000600FE96E000EEA22E552E750EF6EDF2A2F
:102DF000EFD7F7EC08F0080EE66E6CEC00F0E55249
:102E00002AD0030EDF6E090EDF5C0EE25AEC00F0F2
:102E1000E66EDF50EA6A600FE96E000EEA22E552C4
:102E2000E750EF6EDF2AEFD7080EE66E6CEC00F08D
:102E3000E55211D0AFEC0AF00ED068EC0AF00BD0DE
:102E4000BBEC00F008D0000EE66EE66A50EC01F034
:102E5000E552E55200D045D7E552E552E7CFD9FF1C
:102E60001200D9CFE6FFE1CFD9FF0F0EE126030E06
:102E7000DB6A7E0ECD6EAB9E829E949E829E949C5B
:102E8000070EDB6A040EF36E080EF3CFDBFF0101C1
:102E9000ED0506E1070EDB6A080EF36EF3CFDBFFEC
:102EA000200EE45D51E1829EB80EE66E0B0EE66EDA
:102EB0001CEC00F0E552E552DF6A020EDF5C14E222
:102EC000828EB80EE66E0B0EE66E1CEC00F0E5523C
:102ED000E552829EE80EE66E030EE66E1CEC00F0F4
:102EE000E552E552DF2AE9D7100EE66E270EE66EB0
:102EF0001CEC00F0E552E5520101E851020D010E13
:102F0000F3CFDBFFDBCFE6FF7CEC0EF0E552E76EA4
:102F1000090EE7CFDBFF010EDB2ADBCFE6FF7CECFF
:102F20000EF0E552E76E0A0EE7CFDBFF0001050E5B
:102F3000646F656B090EDBCF66F00A0EDBCF67F0BE
:102F4000F7EC08F0DBEC03F00101E45104E1050EBD
:102F5000F46FF56B12D0E851E824DF6EDFCFE6FFA7
:102F60007CEC0EF0E5520101F46FDF2ADFCFE6FFC3
:102F70007CEC0EF0E5520101F56FF4C110F0F5C1E3
:102F800011F0030ED89011321032E804FBE1040E68
:102F900010C0DBFF690EE66E000EE66E010EE66EF7
:102FA000E66A040EDBCFE6FFE66A000EE66EE66A2E
:102FB00012EC0CF0F56E080EE15EF550010E69C0E2
:102FC000DBFF070E0101F415106E116AD950010FD5
:102FD000E96EDACFEAFF1050070B04E0EF42EF9EF4
:102FE000E806FCE1010EDB92DB94DB96DB98DB9AD2
:102FF000DB9CDB9EDB5029E10F0EE66EE66A1CECE3
:1030000000F0E552E552000EE66E010EE66E040E8B
:10301000E66EE66A000EE66EE66AF4C1E6FFF5C10A
:10302000E6FF12EC0CF0F56E080EE15EF550E86874
:103030000101001908E1E868011905E1E8680219D1
:1030400002E1E868031901E10FD00101F42B000E41
:10305000F523070EDBCF10F0080EDBCF11F0105078
:10306000F45D1150F55989E3F4C110F0F5C111F088
:10307000070EDB50101803E1080EDB50111802E1B7
:103080001CEC15F0B9DD61EC0FF0DAEC11F00B0E71
:1030900060C0DBFF0C0E61C0DBFF0B0EDBCF10F05E
:1030A0000C0EDBCF11F0000E105C000E11580DE37A
:1030B0000B0EDBCF12F00C0EDBCF13F0FF0E125C09
:1030C000FF0E135802E2DF6A02D0010EDF6EDF50FE
:1030D00002E0828EFCD70101E851060802E2E86BAB
:1030E00001D0E82BE851E824DF6EF4C1E6FFDFCF22
:1030F000E6FF8FEC0EF0E552E552DF2AF5C1E6FF60
:10310000DFCFE6FF8FEC0EF0E552E552E8C1E6FFB7
:10311000F40EE66E8FEC0EF0E552E552070E01015B
:10312000E403F350100FDF6EF4C1E6FFDFCFE6FFDC
:103130008FEC0EF0E552E552DF2AF5C1E6FFDFCF56
:10314000E6FF8FEC0EF0E552E552DF2A0101E4299B
:10315000E66EF00EE66E8FEC0EF0E552E552E66A92
:10316000F60EE66E8FEC0EF0E552E552010EDB6ACC
:10317000400EF36E010EDBCFF4FFF350F45C55E22A
:10318000010EDB50E66ED950090FE96EDACFEAFF87
:10319000E552E750EE6EED6AD950090FE96EDACFCD
:1031A000EAFF030ED890EE36ED36E806FBE1600E3E
:1031B000E66E000EE66E080EE66EE66A090EDBCFDE
:1031C000E6FF0A0EDBCFE6FF020EE66EE66A12ECC1
:1031D0000CF0F56E080EE15EF5500A0EE66EE66A3A
:1031E0001CEC00F0E552E552600EE66E000EE66E55
:1031F000080EE66EE66A090EDBCFE6FF0A0EDBCFAD
:10320000E6FFF4C1E6FFF5C1E6FFF9EC0CF0F56E60
:10321000080EE15EF5500F0EE66EE66A1CEC00F05B
:10322000E552E552010EDB2AA3D7090EDB6A020E36
:10323000F36E0A0EF3CFDBFF0101EC51060A01E148
:10324000AFD0040A01E182D0030A56E0010A2AE065
:10325000DAEC11F0600EE66E000EE66E040EE66E1D
:10326000E66A090EDBCFE6FF0A0EDBCFE6FFF4C10C
:10327000E6FFF5C1E6FFF9EC0CF0F56E080EE15E35
:10328000F550120EE66EE66A1CEC00F0E552E552CF
:10329000D950090FE96EDACFEAFF040EEE26000ED0
:1032A000ED22A8D0DAEC11F0600EE66E000EE66EAC
:1032B000040EE66EE66A090EDBCFE6FF0A0EDBCFF0
:1032C000E6FFF4C1E6FFF5C1E6FFF9EC0CF0F56EA0
:1032D000080EE15EF550120EE66EE66A1CEC00F098
:1032E000E552E552D950090FE96EDACFEAFF040E34
:1032F000EE26000EED227ED001EC12F0600EE66E9E
:10330000000EE66E060EE66EE66A090EDBCFE6FFFD
:103310000A0EDBCFE6FFF4C1E6FFF5C1E6FFF9ECEC
:103320000CF0F56E080EE15EF550120EE66EE66AE0
:103330001CEC00F0E552E552D950090FE96EDACFE6
:10334000EAFF060EEE26000EED2254D03DEC12F000
:10335000600EE66E000EE66E060EE66EE66A090E7A
:10336000DBCFE6FF0A0EDBCFE6FFF4C1E6FFF5C1D7
:10337000E6FFF9EC0CF0F56E080EE15EF550120E6A
:10338000E66EE66A1CEC00F0E552E552D950090FF2
:10339000E96EDACFEAFF060EEE26000EED222AD005
:1033A00079EC12F0600EE66E000EE66E060EE66E2A
:1033B000E66A090EDBCFE6FF0A0EDBCFE6FFF4C1BB
:1033C000E6FFF5C1E6FFF9EC0CF0F56E080EE15EE4
:1033D000F550120EE66EE66A1CEC00F0E552E5527E
:1033E000D950090FE96EDACFEAFF060EEE26000E7D
:1033F000ED2200D0DF6A030EDF5C14E2828EE80E5D
:10340000E66E030EE66E1CEC00F0E552E552829E7D
:10341000E80EE66E030EE66E1CEC00F0E552E55297
:10342000DF2AE9D70101EC29DF6EDF50F35D02E00E
:10343000828EFFD7040EE66EE66AAEEC0DF0E55222
:10344000E552DF6E030EECC1DBFF0101F251F86FB4
:10345000F96B000EF827020EF923FA6BFB6B0CD800
:10346000F56E0F0EE15C02E2E16AE552E16EF550A5
:10347000E552E7CFD9FF1200D9CFE6FFE1CFD9FF60
:10348000170EE1267E0ECD6EAB9E829E949E829E8E
:10349000949CC00EF26E9D80D9500F0FE66E000E08
:1034A000DA20E66E080EE66EE66A000EE66EE66A62
:1034B000020EE66EE66A12EC0CF0F56E080EE15EA6
:1034C000F550010EDF6EDF50400801E249D2D950BD
:1034D0000F0FE96EDACFEAFFD880000EEE54000E2F
:1034E000EE54000EEE54000EEE5401E339D2D950E2
:1034F000130FE96EDACFEAFFD880000EEE54000E0B
:10350000EE54000EEE54000EEE5401E329D20F0EDD
:10351000DBCF10F0100EDBCF11F0110EDBCF12F06D
:10352000120EDBCF13F01006000E115A000E125AC5
:10353000000E135A040ED890133212321132103288
:10354000E806F9E1050E10C0DBFF060E11C0DBFF37
:10355000070E12C0DBFF080E13C0DBFF0F0EDBCF20
:1035600010F0100EDBCF11F0110EDBCF12F0120EA7
:10357000DBCF13F01006000E115A000E125A000E87
:10358000135A0F0E1016116A126A136A020E10C037
:10359000DBFF020EDB38F00B106E116A000ED880D4
:1035A0001056010E1156040E10C0DBFF030EDB6A2D
:1035B000D950130FE96EDACFEAFFD880000EEE542F
:1035C000000EEE54000EEE54000EEE5404E2DE52F5
:1035D000010EDD6E02D0010EDB6AD9500F0FE96ECD
:1035E000DACFEAFFD880010EEE54000EEE54000E42
:1035F000EE54000EEE5411E2D9500F0FE96EDACFFF
:10360000EAFF570EEE1806E1040EEE1803E1EE5045
:1036100001E1EE5002E0ECEC15F0D9500F0FE96E2D
:10362000DACFEAFFD880100EEE54000EEE54000EF2
:10363000EE54000EEE5401E37FD0D9500F0FE96E27
:10364000DACFEAFF570EEE1806E1040EEE1803E19A
:10365000EE5001E1EE5070E0D950050FE96EDACF7F
:10366000EAFF090EEECFDBFF0A0EEECFDBFF0B0EFB
:10367000EECFDBFF0C0EEECFDBFFD950090FE96E6A
:10368000DACFEAFFD880000EEE54000EEE54000EA2
:10369000EE54000EEE5410E2060ECE6ECF6ACD80D0
:1036A000D950090FE96EDACFEAFFEE06000EEE5AA6
:1036B000EE5AEE5A0300E1D7020EDB50000807E293
:1036C000060ECE6E040EDB50CF6ECD800300060ECC
:1036D000CE6EF00ECF6E0001AA6BCD80DDEC15F042
:1036E000030E0101F66FF76BA4EC12F0D950130F23
:1036F000E96EDACFEAFFEE06000EEE5AEE5AEE5A07
:10370000ECEC15F0D950130FE96EDACFEAFFD88050
:10371000000EEE54000EEE54000EEE54000EEE5469
:1037200004E2DE52010EDD6E02D0010EDB6A000102
:10373000AA5101E1FCD7D7D0D9500F0FE96EDACFEB
:10374000EAFFD880010EEE54000EEE54000EEE5447
:10375000000EEE544BE2D9500F0FE96EDACFEAFFBC
:10376000D880100EEE54000EEE54000EEE54000EF3
:10377000EE543CE3060ECE6E040EDB50CF6ECD80D1
:103780000300060ECE6EF00ECF6E0001AA6BCD8048
:10379000DDEC15F0020E0101F66FF76BA4EC12F0F0
:1037A000D950130FE96EDACFEAFFEE06000EEE5A9B
:1037B000EE5AEE5AECEC15F0D950130FE96EDACF51
:1037C000EAFFD880000EEE54000EEE54000EEE54C8
:1037D000000EEE5404E2DE52010EDD6E02D0010E48
:1037E000DB6A0001AA5101E1FCD77DD0D9500F0F4F
:1037F000E96EDACFEAFF010EEE1805E1EE5003E1C3
:10380000EE5001E1EE5031E1060ECE6EF00ECF6EBD
:103810000001AA6BCD80010E0101F66FF76BA4ECDD
:1038200012F0D950130FE96EDACFEAFFEE06000E60
:10383000EE5AEE5AEE5AD950130FE96EDACFEAFF7C
:10384000D880000EEE54000EEE54000EEE54000E22
:10385000EE5404E2DE52010EDD6E02D0010EDB6A90
:103860000001AA5101E1FCD73ED0D9500F0FE96EFB
:10387000DACFEAFF570EEE1806E1040EEE1803E168
:10388000EE5001E1EE502FE1060ECE6EF80ECF6E37
:103890000001AA6BCD800101F66BF76BA4EC12F06E
:1038A000D950130FE96EDACFEAFFEE06000EEE5A9A
:1038B000EE5AEE5AD950130FE96EDACFEAFFD880EC
:1038C000000EEE54000EEE54000EEE54000EEE54B8
:1038D00004E2DE52010EDD6E02D0010EDB6A000151
:1038E000AA5101E1FCD7010EDB5001E096D6DDECD8
:1038F00015F0190EE66EE66A1CEC00F0E552E55292
:10390000DF50E66ED9500D0FE96EDACFEAFFE552CF
:10391000E750EE6EED6AD9500D0FE96EDACFEAFF8F
:10392000030ED890EE36ED36E806FBE1D9500F0FC6
:10393000E66E000EDA20E66E080EE66EE66A0D0E02
:10394000DBCFE6FF0E0EDBCFE6FF020EE66EE66A89
:1039500012EC0CF0F56E080EE15EF550DF2AB3D5DF
:103960001CEC15F0F56E170EE15C02E2E16AE5521F
:0C397000E16EF550E552E7CFD9FF1200E0
:04397C002A0EF66EAB
:10398000000EF76E000EF86E00010900F550B16FE1
:103990000900F550B26F03E1B16701D03DD00900D5
:1039A000F550AC6F0900F550AD6F0900F550AE6FE2
:1039B00009000900F550E96E0900F550EA6E0900AA
:1039C00009000900F550AF6F0900F550B06F09000C
:1039D0000900F6CFB3F0F7CFB4F0F8CFB5F0ACC034
:1039E000F6FFADC0F7FFAEC0F8FF0001AF5302E134
:1039F000B05307E00900F550EE6EAF07F8E2B007EC
:103A0000F9D7B3C0F6FFB4C0F7FFB5C0F8FF0001A7
:0A3A1000B107000EB25BBFD7120031
:063A1A00036A026A016A62
:103A2000180EE76ED8900536063607360136023690
:103A300003360A50015C0B5002580C50035807E340
:103A40000A50015E0B50025A0C50035A052AE72E09
:043A5000EAD712009F
:0C3A540013EE00F023EE00F0F86A0F9C67
:0C3A6000BEEC1CF04DEC15F0FDD7120080
:043A6C000000000056
:103A70000000000000000000000000000000000046
:103A80000000000000000000000000000000000036
:103A90000000000000000000000000000000000026
:103AA0000000000000000000000000000000000016
:083AB00000000000000000000E
:00000001FF
