:020000040000FA
:06000000CDEF02F012003A
:0600080004EF04F01200F9
:060018000CEF04F01200E1
:02002A000000D4
:04002C00D9CFE6FF43
:10003000E1CFD9FFE652DF6AA68EA69CA684F2AE77
:1000400003D0F29E010EDF6E550EA76EAA0EA76EAC
:10005000A68200000000A6B2FED7A694DF5001E001
:10006000F28EE552E552E7CFD9FF1200D9CFE6FF75
:10007000E1CFD9FF030EE126D950FB0FE96EFF0E49
:10008000DA20EA6EEECFE6FFEECFE6FFEECFE6FF38
:10009000EFCFE6FF92D8E552E552E552E552DF6A2E
:1000A000080EDF5C01E37DD0F86A020EDB6A080E01
:1000B000F36E020EDBCFF4FFF350F45C6EE2080E39
:1000C000DF02F3CF14F0156A166A176AD950FB0FD6
:1000D000E96EFF0EDA20EA6EEE501426EE5015227D
:1000E000EE501622EE501722020EDBCF18F0196ADE
:1000F0001A6A1B6A18501426195015221A50162213
:100100001B5017221450F66E080EDF02F3CF14F0C6
:10011000156A166A176AD950FB0FE96EFF0EDA20CE
:10012000EA6EEE501426EE501522EE501622EE50D6
:100130001722020EDBCF18F0196A1A6A1B6A1850D0
:100140001426195015221A5016221B501722080E79
:10015000D8901732163215321432E806F9E11450ED
:10016000F76E020EDB50E76EF90EDBCF14F0FA0EDD
:10017000DBCF15F0E7501426000E1522080EDF0223
:10018000F3500F011424E96E000E1520EA6EEF50B3
:10019000F56E0C00020EDB2A8AD7A69847DFDF2A0D
:1001A0007FD7F56E030EE15C02E2E16AE552E16E93
:1001B000F550E552E7CFD9FF1200D9CFE6FFE1CFE6
:1001C000D9FFE652DF6AD950FB0FE96EFF0EDA2045
:1001D000EA6E000EEE5C080EEE58000EEE58000EB1
:1001E000EE5801E23FD0D950FB0FE96EFF0EDA2046
:1001F000EA6E000EEE5C800EEE58000EEE58000E19
:10020000EE5801E32FD0F86AFB0EDB50F66EFB0EC2
:10021000DBCF14F0FC0EDBCF15F0FD0EDBCF16F0BC
:10022000FE0EDBCF17F0080ED890173216321532BB
:100230001432E806F9E11450F76EA68EA69CA68447
:10024000A688F29EF2AE03D0F29E010EDF6E550E2E
:10025000A76EAA0EA76EA682A6B2FED7A694DF50FE
:1002600001E0F28EE552E552E7CFD9FF1200CE0E43
:10027000CD6E9D909E90800ECF6ECE6ACD80120086
:10028000D9CFE6FFE1CFD9FF020EE126948E948C00
:10029000B06A220EAF6E080EB86E240EAC6E900ED1
:1002A000AB6E939AF06AA06AF26AE1DF00016E6BAE
:1002B0009EAA06D0F90EAE5C03E1F90EAD6E0AD02F
:1002C0009EA004D09E90D3DF00016E2B6E0501E14D
:1002D00001D0EED79E90CD906E0509E1146A080E0C
:1002E000156E04D015C0FAFF1450F96EFBDF000143
:1002F0006A6B9EBA07D09EA004D09E90CD9000015C
:100300006A6BF7D7B4DFAECF6BF000016A0501E08E
:1003100099D06C2B000E6D23010E6C1901E16D510B
:100320000DE16BC06FF0706B716B726B71C072F02E
:1003300070C071F06FC070F06F6B26D0020E6C1938
:1003400001E16D5113E16B516F13000E70137113C6
:10035000721371C072F070C071F06FC070F06F6B8B
:10036000080E7027000E712372230ED06CC0E9FFB7
:100370006DC0EAFF030EE95E000EEA5A000EE926A0
:10038000010EEA226BC0EFFF020E6C1902E1010EB2
:100390006D1957E1DE6ADD6ADECF14F0DDCF15F0AE
:1003A000D890155004E6040E145C000E155843E274
:1003B000DECF14F0DDCF15F0060ED89014361536CA
:1003C000E806FBE1000E1426010E152214C0E6FF1C
:1003D00015C0E6FF400E066E076ADECF0BF0DDCFDC
:1003E0000CF0A0EC02F004C016F005C017F0186A7B
:1003F000196A17AE02D0186819686F0EE96E000E00
:10040000EA6EEE501626EE501722EE501822EE50ED
:10041000192216C0E6FF17C0E6FF18C0E6FF19C094
:10042000E6FF24DEF56E060EE15EF550DF2A010ED2
:1004300001E3DB2AB1D7F80EAD6E00016C6B6D6B7A
:100440006A6B22D06B51B80A13E04F0A0FE00F0A13
:1004500006E0010A01E018D0F90EAD6E15D0F80ED5
:10046000AD6E010E6A6F6C6B6D6B0ED0AD6A0CD009
:10047000E70EAD6E146A080E156E04D015C0FAFFB3
:100480001450F96EFBDF00D034D7F56E020EE15C3C
:1004900002E2E16AE552E16EF550E552E7CFD9FF9D
:0204A000120048
:0E04A2002A0EF66E000EF76E000EF86E0001C8
:1004B0000900F550656F0900F550666F03E1656747
:1004C00001D03DD00900F550606F0900F550616F13
:1004D0000900F550626F09000900F550E96E090046
:1004E000F550EA6E090009000900F550636F090034
:1004F000F550646F09000900F6CF67F0F7CF68F098
:10050000F8CF69F060C0F6FF61C0F7FF62C0F8FF86
:100510000001635302E1645307E00900F550EE6EF9
:100520006307F8E26407F9D767C0F6FF68C0F7FF12
:1005300069C0F8FF00016507000E665BBFD71200B7
:1005400007C013F006C012F006500B02F4CF05F0FE
:10055000F3CF04F007500C02F4CF07F0F3CF06F00E
:100560000B02F3500526F4500622E86A07221250C7
:100570000C02F3500526F4500622E86A07220CAE5E
:10058000C6EF02F01250065E1350075A13AE000C6D
:0A0590000B50065E0C50075A000CD9
:06059A0013EE00F023EE59
:1005A00000F0F86A0F9C51EC02F040EC01F0FDD72E
:0205B000120037
:00000001FF
