:080000000C944E000C947100F9
:040040000C94C60452
:040048000C94A5046B
:040078000C94910251
:14008C00000080430000CA420AD723400000FA40CFEFD0E1A4
:1400A000CDBFDEBFC050D1400AEA08830024E0E0F1E013E0DB
:1400B400EC34F10711F00192FBCF0083ECE9F0E0A0E0B1E089
:1400C80010E000E00BBFEC39F10721F0C89531960D92F9CFD1
:1400DC000E945A06FFCF2A923A928A939A93AA93EA93FA9327
:1400F0002FB62A92222425BCF89489B78E7F89BF33243092FA
:14010400BE022092BD0209C08091BD029091BE020196909382
:14011800BE028093BD028091BD029091BE028430E0E09E0777
:14012C0078F388B7816088BF809901C0C0C1222424BC83E009
:1401400085BD29C024B433243092BA022092B90280E590E091
:140154008215930508F4AFC180991BC0222433243092BE02E9
:140168002092BD0209C08091BD029091BE0201969093BE021E
:14017C008093BD028091BD029091BE028430E0E09E0778F368
:14019000809901C031C0D6CF24B433243092BA022092B902D1
:1401A40080E590E08215930508F485C188B78170813001F52A
:1401B800222433243092BE022092BD0209C08091BD029091E9
:1401CC00BE0201969093BE028093BD028091BD029091BE0262
:1401E0008430E0E09E0778F388B7816088BF80B3817081304B
:1401F40009F401C0CFCF24B433243092BA022092B90222243B
:1402080024BC2090B9023090BA02C1018C33E0E09E0728F01D
:14021C0080E590E08215930508F449C189E08093C002A6C020
:1402300024B433243092BA022092B90280E590E0821593059C
:1402440008F439C180991BC0222433243092BE022092BD022C
:1402580009C08091BD029091BE0201969093BE028093BD02CC
:14026C008091BD029091BE028430E0E09E0778F3809901C06F
:1402800031C0D6CF24B433243092BA022092B90280E590E0E5
:140294008215930508F40FC188B78170813001F522243324E7
:1402A8003092BE022092BD0209C08091BD029091BE0201963E
:1402BC009093BE028093BD028091BD029091BE028430E0E054
:1402D0009E0778F388B7816088BF80B38170813009F401C010
:1402E400CFCF24B433243092BA022092B902222424BC809117
:1402F800B9029091BA028431E0E09E0720F483E08093BF02F5
:14030C00D6C08091B9029091BA028832E0E09E0750F483EECA
:1403200092E0E091C002FF27E80FF91F81E0808320C080919A
:14033400B9029091BA028C33E0E09E0750F483EE92E0E09161
:14034800C002FF27E80FF91F222420820EC080E590E020906F
:14035C00B9023090BA028215930508F05FCF83E08093BF02CA
:14037000A4C08091C00281508093C00280E02090C002821533
:1403840008F47DCF222433243092E0022092DF022090E502B2
:14039800222049F08091DF029091E00281609093E0028093E8
:1403AC00DF022090E602222049F08091DF029091E002826072
:1403C0009093E0028093DF022090E702222049F08091DF022A
:1403D4009091E00284609093E0028093DF022090E802222059
:1403E80049F08091DF029091E00288609093E0028093DF02F2
:1403FC002090E902222049F08091DF029091E00280619093DE
:14041000E0028093DF022090EA02222049F08091DF029091D8
:14042400E00280629093E0028093DF022090EB02222049F0EF
:140438008091DF029091E00280649093E0028093DF0220902E
:14044C00EC02222049F08091DF029091E00280689093E00251
:140460008093DF0281E08093E30282E08093C00212C083EEC1
:1404740092E0E091C002FF27E80FF91F20803090E3023224FF
:140488003092E3028091C0028F5F8093C0028091C0028A3096
:14049C0050F32090E4023090E302321421F481E08093BF023E
:1404B0000AC082E08093BF0206C088B7816088BF89B78160EA
:1404C40089BF222425BC789429902FBEF991E991A99199919B
:1404D800899139902990189580916500877E809365008091C3
:1404EC00640088618093640082B38F7B82BB8E9A08952224B1
:1405000020929A0082E080939B0086E080939D0087E68093F5
:1405140099002092980088E980939A0008952A928A939A932F
:14052800EA93FA932FB62A928091F502843078F486EF92E005
:14053C00E091F502FF27E80FF91F20909C0020828091F50218
:140550008F5F8093F50229902FBEF991E991999189912990F8
:1405640018954A93442709C086EF92E0E42FFF27E80FF91F96
:140578008FEF808343954430A8F322242092F50220909B00CD
:14058C0025FEFCCF00939C0040919C0080919A00806880932B
:1405A0009A0020302307C9F022242092D902309346032093E8
:1405B400450386E082BF83B7866083BF86B7816086BF87B741
:1405C800816087BF2090D9022220E1F387B78E7F87BF8091B5
:1405DC009A008F7780939A004991089580917D008B7F80939C
:1405F0007D0080917C008B7F80937C00222420928A008EEF55
:140604008093890080E68093880081E080938A0080917C00BA
:140618008B7F80937C000895AA924A93A02EE0DF80917C0065
:14062C008B7FE1F38EEF8093890080E68093880080917C0035
:140640008B7F80937C00969A44271CC080917C008B7FE1F32B
:140654008EEF8093890080E68093880080917C008B7F8093CE
:140668007C0001E0142F0E948C202A2C202221F082B38F7BA8
:14067C0082BB01C0969A4395483010F380917C008B7FE1F37E
:140690008EEF8093890080E68093880082B38F7B82BB8091AF
:1406A4007C008B7FE1F38EEF8093890080E6809388008091BD
:1406B8007C008B7FE1F38EEF8093890080E6809388008091A9
:1406CC007C008B7FE1F38EEF8093890080E680938800222460
:1406E00020928A0080917C008B7F80937C004991A9900895F4
:1406F4004A934FEF22242EBC84E69FEF9DBD8CBD86B78460EB
:1407080086BF85E08EBDC2C08199C0C0809165008160809362
:14071C00650064DF80917C008B7FE1F38EEF8093890080E637
:140730008093880080917C008B7F80937C00819B02C0416075
:1407440001C04E7F80917C008B7FE1F38EEF8093890080E629
:140758008093880080917C008B7F80937C00819B02C042604C
:14076C0001C04D7F80917C008B7FE1F38EEF8093890080E602
:140780008093880080917C008B7F80937C00819B02C0446022
:1407940001C04B7F80917C008B7FE1F38EEF8093890080E6DC
:1407A8008093880080917C008B7F80937C00819B02C04860F6
:1407BC0001C0477F80917C008B7FE1F38EEF8093890080E6B8
:1407D0008093880080917C008B7F80937C00819B02C04061D5
:1407E40001C04F7E80917C008B7FE1F38EEF8093890080E689
:1407F8008093880080917C008B7F80937C00819B02C04062AC
:14080C0001C04F7D80917C008B7FE1F38EEF8093890080E661
:140820008093880080917C008B7F80937C00819B02C0406481
:1408340001C04F7B80917C008B7FE1F38EEF8093890080E63B
:140848008093880080917C008B7F80937C00819B02C0406855
:14085C0001C04F7780917C008B7FE1F38EEF8093890080E617
:140870008093880080917C008B7F80937C00222420928A0031
:1408840080917C008B7F80937C00819B01C003C026B622FE9E
:140898003BCF22242EBC86B7846086BF042F49910895AA92C6
:1408AC00A02E24970A2DB6DE1FDF08831DDF09831BDFA02E0B
:1408C000AA8218DFA02EAB82298033243092DE022092DD02D3
:1408D400322C22243092DE022092DD02288033244090DD028B
:1408E8005090DE02422853285092DE024092DD022A2C332437
:1408FC003092DC022092DB02322C22243092DC022092DB02E6
:140910002A8033244090DB025090DC02422853285092DC02C2
:140924004092DB022496A990089522242AB882E08BB986E04C
:140938008093950080E189B92092900088E98AB908952A9211
:14094C008A939A93EA93FA932FB62A928091FA028A3470F473
:140960008BEF92E0E091FA02FF27E80FF91F2CB02082809166
:14097400FA028F5F8093FA0229902FBEF991E9919991899188
:14098800299018952A928A939A932FB62A92809145039091D4
:14099C004603019790934603809345038030890761F42224C4
:1409B00022BE81E08093D90287B78E7F87BF8AB18F778AB9EF
:1409C40002C086E082BF29902FBE99918991299018954A9389
:1409D8006A93442709C08BEF92E0E42FFF27E80FF91F8FEF28
:1409EC00808343954A34A8F322242092FA02442710C05D9BDC
:140A0000FECF662701C06395683CE8F38FE291E0E42FFF2735
:140A1400E80FF91F20802CB84395401770F320302307F1F04E
:140A280022242092D902309346032093450386E082BF83B7FF
:140A3C00866083BF86B7816086BF87B7816087BF4CB1579AC8
:140A50002090D9022220E1F387B78E7F87BF8AB18F778AB9DC
:140A64006991499108950E945720AE80442709C08BEF92E0A6
:140A7800E42FFF27E80FF91F8FEF808343954A34A8F322246A
:140A8C002092FA02442710C05D9BFECF662701C06395683CBE
:140AA000E8F38FE291E0E42FFF27E80FF91F20802CB84395E1
:140AB400401770F32030230721F122242092D9023093460309
:140AC8002093450386E082BF83B7866083BF86B7816086BFB3
:140ADC0087B7816087BF4CB1579A05C02090FA022A1408F00C
:140AF00004C02090D9022220B9F387B78E7F87BF8AB18F77E3
:140B04008AB90C945E200E946520A02E24978A2D805487B901
:140B180083EC86B9CC24DD2403C0C60101966C01C60184361B
:140B2C00E0E09E07C0F386B180748034E1F3C4B0DD24C5B000
:140B4000DD2480E0888389838A838B83AA242CC083EC86B9A6
:140B5400CC24DD2403C0C60101966C01C6018436E0E09E0728
:140B6800C0F386B180748034E1F3C4B0DD2425B03324322C14
:140B7C002224C228D328C60193706C011C014424552468801D
:140B900079808A809B80620C731C841C951C688279828A82F4
:140BA4009B82A3948A2D803288F287E090E0088119812A8161
:140BB8003B818A930E949920088319832A833B834FEF50E0F5
:140BCC0060E070E0288039804A805B80242235224622572201
:140BE000022D24960C946E200E94572058012497AA2019F4E6
:140BF400BB2009F43AC022242EBC84EC90E28A159B0508F4CE
:140C08005C0185010E94D720088319832A833B8308E910E0E9
:140C1C000E942D20CE019A938A930E947422088319832A83B0
:140C30003B83088119812A813B810E94A5205801150144242A
:140C440055244FEF5FEF60E070E042195309640975095DBD4B
:140C58004CBD86B7846086BF85E08EBD26B622FEFDCF22245B
:140C6C002EBC24960C945E2035DC5BDE42DC22242092BF0291
:140C800033243092C2022092C10230922D0120922C0130927D
:140C94002B0120922A0180916A00836080936A0088B7816048
:140CA80088BF89B7816089BF78940895299780E089838A83A6
:140CBC008B838C831BC0AA24BB2403C0C50101965C01C5013C
:140CD000883EE3E09E07C0F341E050E060E070E029803A80EB
:140CE4004B805C80240E351E461E571E29823A824B825C82E5
:140CF80048EE53E060E070E029803A804B805C802416350670
:140D0C0046065706C0F2B0DF02E310E067DF0027F6DE0E3194
:140D200010F00C94821B22242AB883B18D7F83B9119A83B1FF
:140D34008D7F83B9FFCF8091BF02823059F422242092BF020B
:140D480088B7816088BF89B7816089BF0C94821B8091BF02B8
:140D5C00813011F00C94821B2090C1023090C202222019F44E
:140D7000332009F4B4C489E791E0E0912A01F0912B01E80F86
:140D8400F91F2090DF023090E002208280912A0190912B01E5
:140D9800019690932B0180932A0120902C0130902D018215C1
:140DAC00930511F00C94791B8091C1029091C2028130E0E03C
:140DC0009E0709F0E5C088EE80932F0180E48093300188E80B
:140DD4008093310122242092320181E28093330182E280937A
:140DE800340183E28093350184E28093360182E380933701B4
:140DFC0033243092BC022092BB021AC04090BB025090BC0298
:140E100089E791E0F201E80FF91F20808FE291E0F2013996A7
:140E2400E80FF91F20828091BB029091BC0201969093BC02E4
:140E38008093BB028091BB029091BC028034E0E09E07F0F22E
:140E4C0024E130E00AE4C1DD8091FA028930B1F48091FB0278
:140E6000853591F48091FC02803471F48091FD02883851F402
:140E74008091E1029091E20280709093E2028093E10206C0BE
:140E88008AEA90E09093E2028093E10288EE80932F0180E458
:140E9C008093300188E88093310181E08093320181E280932C
:140EB000330182E28093340183E28093350184E280933601F0
:140EC40082E380933701222433243092BC022092BB021CC002
:140ED800A090BB02B090BC0289E791E0F501E05CFF4FE80FC3
:140EEC00F91F20808FE291E0F5013996E80FF91F20828091D1
:140F0000BB029091BC0201969093BC028093BB028091BB022B
:140F14009091BC028034E0E09E07E0F224E130E00AE457DDC8
:140F28008091FA028930B1F48091FB02853591F48091FC02EE
:140F3C00803471F48091FD02883851F48091E1029091E2027A
:140F500090709093E2028093E10209C08091E1029091E202CE
:140F640095659093E2028093E102222433243092C2022092AD
:140F7800C10230922D0120922C018AE08093DA020E94861B37
:140F8C000C94791B8091C1029091C2028230E0E09E0709F054
:140FA000E6C088EE80932F0180E48093300188E88093310181
:140FB40082E08093320181E28093330182E28093340183E2C6
:140FC8008093350184E28093360182E38093370122243324CF
:140FDC003092BC022092BB021AC0A090BB02B090BC0289E7DD
:140FF00091E0F501E80FF91F20808FE291E0F5013996E80F39
:14100400F91F20828091BB029091BC0201969093BC028093E6
:14101800BB028091BB029091BC028034E0E09E07F0F224E15A
:14102C0030E00AE4D2DC8091FA028930B1F48091FB028535D1
:1410400091F48091FC02803471F48091FD02883851F48091C9
:14105400E1029091E20280709093E2028093E10206C08AEA79
:1410680090E09093E2028093E10288EE80932F0180E48093D7
:14107C00300188E88093310183E08093320181E28093330127
:1410900082E28093340183E28093350184E28093360182E3DD
:1410A40080933701222433243092BC022092BB021CC0A09055
:1410B800BB02B090BC0289E791E0F501E05CFF4FE80FF91FF9
:1410CC0020808FE291E0F5013996E80FF91F20828091BB024A
:1410E0009091BC0201969093BC028093BB028091BB029091E6
:1410F400BC028034E0E09E07E0F224E130E00AE468DC8091E7
:14110800FA028930B1F48091FB02853591F48091FC02803469
:14111C0071F48091FD02883851F48091E1029091E20290704C
:141130009093E2028093E10209C08091E1029091E2029565F2
:141144009093E2028093E102222433243092C2022092C10202
:1411580030922D0120922C018BE08093DA020E94861B0C9477
:14116C00791B8091C1029091C2028330E0E09E0709F0A4C0AD
:14118000222433243092C2022092C10230922D0120922C01F4
:1411940089E08093DA02A0907A01BB24BA2CAA242090790187
:1411A8003324A228B328C0907C01DD24DC2CCC2420907B0145
:1411BC003324C228D32822243092BC022092BB0273C088EE05
:1411D00080932F0180E4809330018AE98093310188E08093ED
:1411E40032012090BB023090BC0220923301232C332420929B
:1411F8003401A09235011501232C33242092360126E030E08B
:14120C0009E0E3DB22243324309227012092260139C08BEF54
:1412200092E0E0912601F0912701EE0FFF1F3196E80FF91F16
:14123400208033243092E2022092E102322C22243092E2022A
:141248002092E102E0912601F0912701EE0FFF1FE80FF91F92
:14125C00208033244090E1025090E202422853285092E20265
:141270004092E1020E94861B0AE010E0B5DC809126019091AE
:14128400270101969093270180932601809126019091270191
:141298008032E0E09E0708F4BECF8091BB029091BC0201965E
:1412AC009093BC028093BB022090BB023090BC022C143D0411
:1412C00008F485CF0C94791B8091C1029091C2028430E0E069
:1412D4009E0711F00C94791B222433243092E2022092E10254
:1412E80088EE80932F0180E48093300184E88093310120922E
:1412FC00320181E28093330182E28093340183E280933501A7
:1413100084E28093360182E3809337013092BC022092BB027A
:141324001AC0A090BB02B090BC0289E791E0F501E80FF91F0A
:1413380020808FE291E0F5013996E80FF91F20828091BB02DB
:14134C009091BC0201969093BC028093BB028091BB02909177
:14136000BC028034E0E09E07F0F224E130E00AE432DB80919F
:14137400FA02893061F48091FB02853541F48091FC0280349B
:1413880021F48091FD02843849F08091E1029091E20281605D
:14139C009093E2028093E10288EE80932F0180E480933001DF
:1413B00084E88093310181E08093320181E28093330182E2C3
:1413C4008093340183E28093350184E28093360182E38093F7
:1413D8003701222433243092BC022092BB021CC0A090BB0274
:1413EC00B090BC0289E791E0F501E05CFF4FE80FF91F2080DF
:141400008FE291E0F5013996E80FF91F20828091BB02909191
:14141400BC0201969093BC028093BB028091BB029091BC0211
:141428008034E0E09E07E0F224E130E00AE4CFDA8091FA020C
:14143C00893061F48091FB02853541F48091FC02803421F4B9
:141450008091FD02843849F08091E1029091E2028260909385
:14146400E2028093E10288EE80932F0180E48093300184E8CD
:141478008093310182E08093320181E28093330182E2809352
:14148C00340183E28093350184E28093360182E38093370109
:1414A000222433243092BC022092BB021CC0A090BB02B090A3
:1414B400BC0289E791E0F501E058FF4FE80FF91F20808FE2E9
:1414C80091E0F5013996E80FF91F20828091BB029091BC027C
:1414DC0001969093BC028093BB028091BB029091BC02803453
:1414F000E0E09E07E0F224E130E00AE46CDA8091FA028930A2
:1415040061F48091FB02853541F48091FC02803421F4809198
:14151800FD02843849F08091E1029091E20284609093E202E7
:14152C008093E10288EE80932F0180E48093300184E88093D5
:14154000310183E08093320181E28093330182E28093340166
:1415540083E28093350184E28093360182E38093370122242F
:1415680033243092BC022092BB021CC0A090BB02B090BC0262
:14157C0089E791E0F501E054FF4FE80FF91F20808FE291E071
:14159000F5013996E80FF91F20828091BB029091BC0201968D
:1415A4009093BC028093BB028091BB029091BC028034E0E061
:1415B8009E07E0F224E130E00AE409DA8091FA02893061F4A7
:1415CC008091FB02853541F48091FC02803421F48091FD0226
:1415E000843849F08091E1029091E20288609093E202809307
:1415F400E10288EE80932F0180E48093300184E880933101EE
:1416080084E08093320181E28093330182E28093340183E269
:14161C008093350184E28093360182E3809337012224332474
:141630003092BC022092BB021CC0A090BB02B090BC0289E780
:1416440091E0F501E050FF4FE80FF91F20808FE291E0F50126
:141658003996E80FF91F20828091BB029091BC020196909397
:14166C00BC028093BB028091BB029091BC028034E0E09E0716
:14168000E0F224E130E00AE4A6D98091FA02893061F48091D6
:14169400FB02853541F48091FC02803421F48091FD028438B2
:1416A80049F08091E1029091E20280619093E2028093E1021E
:1416BC00222433243092C2022092C10230922D0120922C01B3
:1416D0008CE08093DA020E94861B0C94791B2090DF023090E3
:1416E400E0023594279435942794359427943594279420924E
:1416F800DA028091DF029091E002807F90705C018037E0E03A
:14170C009E0709F457C480E790E08A159B050CF43AC0C50136
:141720008033E0E09E0709F4F2C080E390E08A159B05A4F048
:14173400C5018031E0E09E0709F466C08031E0E09E0714F484
:141748000C94791BC5018032E0E09E0709F499C00C94791BF2
:14175C00C5018035E0E09E0709F413C280E590E08A159B05B3
:1417700044F0C5018034E0E09E0709F42CC10C94791BC5016E
:141784008036E0E09E0709F4E0C30C94791BC501803AE0E022
:141798009E0709F4F1C780EA90E08A159B05A4F0C5018038B8
:1417AC00E0E09E0709F440C48038E0E09E0714F40C94791B6A
:1417C000C5018039E0E09E0709F402C50C94791BC501803CB7
:1417D400E0E09E0711F40C94241680EC90E08A159B054CF066
:1417E800C501803BE0E09E0711F40C9488140C94791BC501CC
:1417FC00803DE0E09E0711F40C94481B0C94791B88EE8093F2
:141810002F0180E4809330018DE8809331018FE1809332017C
:1418240025E030E009E0D5D88091FA02893099F48091FB02A4
:14183800853579F48091FC02803459F48091FD028D3839F463
:14184C00222433243092E2022092E10206C08FEF90E09093D9
:14186000E2028093E1022090E1023090E202322C22243092FD
:14187400E2022092E1023092E2022092E1020E94861B0C94C9
:14188800791B88EE80932F0180E4809330018DE8809331019D
:14189C008FE18093320125E030E009E096D88091FA02893050
:1418B000A1F48091FB02853581F48091FC02803461F4809129
:1418C400FD028D3841F42090FE0233243092E2022092E102D5
:1418D80006C08FEF90E09093E2028093E1022090E1023090F8
:1418EC00E202322C22243092E2022092E102C101816190935E
:14190000E2028093E1020E94861B0C94791B0EE110E06AD960
:141914000027F9D8A02E11270E94D9200D831E832F83388784
:1419280004E910E00E942D20CE0105969A938A930E947422F3
:14193C000D831E832F83388700E910E00E942D20CE010596C3
:141950009A938A930E9474220D831E832F8338872D803E80F4
:141964004F8058840CE810E00E942D203A932A931A930A931D
:14197800810192010E9404210D831E832F8338870D811E81B0
:14198C002F8138850E94A5201093E2020093E1021801322CFF
:1419A00022243092E2022092E10224E030E000E30E94B30264
:1419B4002090F60233244090E1025090E202422853285092E2
:1419C800E2024092E1020E94861B0C94791B8091DF029091E8
:1419DC00E0028F34E0E09E0729F50EE110E0FED80091DF02A8
:1419F0001091E0020E9455040EE110E0F5D82090DD0230906A
:141A0400DE023092E2022092E1020E94861B0EE110E0E8D8D1
:141A18002090DB023090DC023092E2022092E1020E94861B11
:141A2C000C94791B88EE80932F0180E48093300189E880938D
:141A4000310189E08093320122E330E009E00E94EB04809111
:141A5400FA02803109F054C08091FB02853509F04FC08091E3
:141A6800FC028C3009F04AC08091FD02893809F045C020902E
:141A7C00FF0233243092E2022092E1022090E1023090E2028C
:141A9000322C22243092E2022092E1022090FE02332440908C
:141AA400E1025090E202422853285092E2024092E1020E9485
:141AB800861B0EE110E094D82090010333243092E2022092CB
:141ACC00E1022090E1023090E202322C22243092E2022092F0
:141AE000E1022090000333244090E1025090E20242285328A9
:141AF4005092E2024092E1020E94861B0C94791B2090FC023E
:141B080033243092E2022092E1022090E1023090E202322CA2
:141B1C0022243092E2022092E1022090FB0233244090E1027D
:141B30005090E202422853285092E2024092E1020E94861B3A
:141B44000EE110E04FD82090FE0233243092E2022092E10245
:141B58002090E1023090E202322C22243092E2022092E10263
:141B6C002090FD0233244090E1025090E20242285328509221
:141B8000E2024092E1020E94861B0C94791B88EE80932F0188
:141B940080E48093300189E88093310189E08093320122E32B
:141BA80030E009E00E94EB048091FA02803109F094C0809183
:141BBC00FB02853509F08FC08091FC028C3009F08AC08091F7
:141BD000FD02893809F085C02090020320924803209003039B
:141BE400209249032090040320924A032090050320924B0381
:141BF80020904A0330904B033092E2022092E1020E94861B50
:141C0C002090E1023090E20220920001232C332427FC30944D
:141C2000209201010EE110E00E94F40520904803309049037B
:141C34003092E2022092E1020E94861B2090E1023090E202E7
:141C480020920201232C332427FC3094209203010EE110E0B1
:141C5C000E94F405209006032092480320900703209249036B
:141C70002090080320924A032090090320924B0320904A03ED
:141C840030904B033092E2022092E1020E94861B2090E1022D
:141C98003090E20220920401232C332427FC30942092050198
:141CAC000EE110E00E94F40520904803309049033092E202FD
:141CC0002092E1020E94861B2090E1023090E2022092060148
:141CD400232C332427FC3094209207010AC1209000033324E0
:141CE80044245524309223012092220150922501409224014D
:141CFC0088E090E020912401309125010091220110912301C6
:141D10008A930E948020109323010093220130932501209347
:141D240024012090FF023324442455243801490162287328F5
:141D3800842895287092230160922201909225018092240174
:141D4C004FEF5FEF60E070E0130124012422352246225722B0
:141D60003092230120922201509225014092240181019201A0
:141D74000E94E220109349030093480330934B0320934A03D9
:141D880020904A0330904B033092E2022092E1020E94861BBE
:141D9C002090E1023090E20220920001232C332427FC3094BC
:141DB000209201010EE110E00E94F4052090480330904903EA
:141DC4003092E2022092E1020E94861B2090E1023090E20256
:141DD80020920201232C332427FC3094209203010EE110E020
:141DEC000E94F40520900203332444245524309223012092C3
:141E00002201509225014092240188E090E02091240130913D
:141E1400250100912201109123018A930E94802010932301F5
:141E28000093220130932501209324012090010333244424BC
:141E3C005524380149016228732884289528709223016092F0
:141E5000220190922501809224014FEF5FEF60E070E01301AC
:141E640024012422352246225722309223012092220150922A
:141E7800250140922401810192010E94E220109349030093FE
:141E8C00480330934B0320934A0320904A0330904B03309219
:141EA000E2022092E1020E94861B2090E1023090E202209289
:141EB4000401232C332427FC3094209205010EE110E00E944F
:141EC800F40520904803309049033092E2022092E1020E9429
:141EDC00861B2090E1023090E20220920601232C332427FC98
:141EF0003094209207010EE110E00E94F40528E030E000E0EE
:141F040011E00E94CE1F2090210133243092E2022092E102E5
:141F18002090E1023090E202322C22243092E2022092E1029F
:141F2C002090200133244090E1025090E2024228532850923B
:141F4000E2024092E1020E94861B0C94791BA090DF02B0902C
:141F5400E002C5018136E0E09E0731F08236E0E09E0711F076
:141F68000C94791B28EC30E00091DF021091E0020E94B302C1
:141F7C002090F70233243092E2022092E1022090E1023090C3
:141F9000E202322C22243092E2022092E1022090F60233247B
:141FA4004090E1025090E202422853285092E2024092E10252
:141FB8000E94861B0C94791BA090DF02B090E002C5018137ED
:141FCC00E0E09E072CF08CE790E08A159B0514F40C94791B22
:141FE00028EC30E00091DF021091E0020E94B3022090F702D4
:141FF40033243092E2022092E1022090E1023090E202322CB2
:1420080022243092E2022092E1022090F60233244090E10291
:14201C005090E202422853285092E2024092E1020E94861B49
:142030000C94791B8091DF029091E0028038E0E09E0781F4E1
:1420440024E030E000E80E94B3022090F60233243092E20290
:142058002092E1020E94861B0C94791B8091DF029091E00273
:14206C008138E0E09E0709F04BC024E030E001E80E94B302EA
:142080002090F70233243092E2022092E1022090E1023090BE
:14209400E202322C22243092E2022092E1022090F602332476
:1420A8004090E1025090E202422853285092E2024092E1024D
:1420BC000E94861B0EE110E00E94F4052090F902332430928F
:1420D000E2022092E1022090E1023090E202322C22243092E6
:1420E400E2022092E1022090F80233244090E1025090E202F7
:1420F800422853285092E2024092E1020E94861B0C94791BFD
:14210C008091DF029091E0028238E0E09E0781F42EE130E017
:1421200002E80E94B3022090F60233243092E2022092E10230
:142134000E94861B0C94791B8091DF029091E0028338E0E0B0
:142148009E0739F524E030E003E80E94B3022090F70233245A
:14215C003092E2022092E1022090E1023090E202322C222459
:142170003092E2022092E1022090F60233244090E10250908E
:14218400E202422853285092E2024092E1020E94861B0C9420
:14219800791B83E890E02090DF023090E0028215930514F05E
:1421AC000C94791B24E030E081010E94B3022090F6023324FF
:1421C0003092E2022092E1020E94861B0C94791B8091DF0267
:1421D4009091E0028039E0E09E0709F016C188EE80932F014D
:1421E80080E48093300188EC8093310122242092320124E053
:1421FC0030E009E00E94EB04AA242FC004E110E00E94F40518
:142210008CEF92E0EA2DFF27EE0FFF1FE80FF91F208033246F
:142224003092E2022092E102322C22243092E2022092E1028C
:142238008BEF92E0EA2DFF27EE0FFF1FE80FF91F2080332448
:14224C004090E1025090E202422853285092E2024092E102A7
:142260000E94861BA3948A2D803270F288EE80932F0180E408
:142274008093300188EC8093310181E08093320124E030E09E
:1422880009E00E94EB04AA242FC08CEF92E0EA2DFF27EE0FE4
:14229C00FF1FE80FF91F208033243092E2022092E102322C71
:1422B00022243092E2022092E1028BEF92E0EA2DFF27EE0F73
:1422C400FF1FE80FF91F208033244090E1025090E202422801
:1422D80053285092E2024092E1020E94861B04E110E00E9442
:1422EC00F405A3948A2D803270F288EE80932F0180E48093B3
:14230000300188EC8093310182E08093320124E030E009E03A
:142314000E94EB04AA242FC08CEF92E0EA2DFF27EE0FFF1F22
:14232800E80FF91F208033243092E2022092E102322C2224BC
:14233C003092E2022092E1028BEF92E0EA2DFF27EE0FFF1F0E
:14235000E80FF91F208033244090E1025090E2024228532817
:142364005092E2024092E1020E94861B04E110E00E94F40537
:14237800A3948A2D803270F288EE80932F0180E480933001EE
:14238C0088EC8093310183E08093320124E030E009E00E943C
:1423A000EB04AA242FC08CEF92E0EA2DFF27EE0FFF1FE80F41
:1423B400F91F208033243092E2022092E102322C2224309265
:1423C800E2022092E1028BEF92E0EA2DFF27EE0FFF1FE80F4D
:1423DC00F91F208033244090E1025090E202422853285092A0
:1423F000E2024092E1020E94861B04E110E00E94F405A39456
:142404008A2D803270F20C94791B8091DF029091E002813916
:14241800E0E09E0729F583E090E09093C2028093C10284E039
:14242C0090932D0180932C012224332430922B0120922A01A3
:142440002092D90288EC909346038093450386E082BF83B7DF
:14245400866083BF86B7816086BF87B7816087BF0C94791B50
:142468008091DF029091E0028239E0E09E07F1F588EE8093DC
:14247C002F0180E4809330018CE88093310188E0809332010D
:14249000222420923301209234018FEF809335018093360114
:1424A40089E0888328E833E109E00E9435058091FA02893001
:1424B80099F48091FB02853579F48091FC02803459F480912D
:1424CC00FD028C3839F4222433243092E2022092E10206C06E
:1424E0008FEF9FEF9093E2028093E1020E94861B0C94791B68
:1424F4008091DF029091E0028339E0E09E0709F026C188EE68
:1425080080932F0180E48093300187E8809331012224209228
:14251C00320124E030E009E00E94EB048091FA028034A1F593
:14253000AA242FC004E110E00E94F4058CEF92E0EA2DFF2740
:14254400EE0FFF1FE80FF91F208033243092E2022092E10227
:14255800322C22243092E2022092E1028BEF92E0EA2DFF2767
:14256C00EE0FFF1FE80FF91F208033244090E1025090E202C3
:14258000422853285092E2024092E1020E94861BA3948A2DB6
:14259400803270F288EE80932F0180E48093300187E880933C
:1425A800310181E08093320124E030E009E00E94EB048091A7
:1425BC00FA028034A1F5AA242FC08CEF92E0EA2DFF27EE0FE1
:1425D000FF1FE80FF91F208033243092E2022092E102322C3A
:1425E40022243092E2022092E1028BEF92E0EA2DFF27EE0F3C
:1425F800FF1FE80FF91F208033244090E1025090E2024228CA
:14260C0053285092E2024092E1020E94861B04E110E00E940A
:14262000F405A3948A2D803270F288EE80932F0180E480937B
:14263400300187E88093310182E08093320124E030E009E008
:142648000E94EB048091FA028034A1F5AA242FC004E110E004
:14265C000E94F4058CEF92E0EA2DFF27EE0FFF1FE80FF91F7B
:14267000208033243092E2022092E102322C22243092E202DA
:142684002092E1028BEF92E0EA2DFF27EE0FFF1FE80FF91F5A
:14269800208033244090E1025090E202422853285092E20215
:1426AC004092E1020E94861BA3948A2D803270F288EE809397
:1426C0002F0180E48093300187E88093310183E080933201D1
:1426D40024E030E009E00E94EB048091FA02803411F00C9402
:1426E800791BAA242EC08CEF92E0EA2DFF27EE0FFF1FE80F52
:1426FC00F91F208033243092E2022092E102322C222430921A
:14271000E2022092E1028BEF92E0EA2DFF27EE0FFF1FE80F01
:14272400F91F208033244090E1025090E20242285328509254
:14273800E2024092E102E6D704E110E00E94F405A3948A2DD9
:14274C00803278F2D0C78091DF029091E0028A39E0E09E07A9
:142760000CF4C7C724E030E08C010E94B3022090F6023324E0
:142774003092E2022092E102C7D7B9C78091DF029091E00203
:14278800803AE0E09E0729F581E090E09093C2028093C10272
:14279C0080E890932D0180932C012224332430922B012092F3
:1427B0002A012092D90288EE93E0909346038093450386E047
:1427C40082BF83B7866083BF86B7816086BF87B7816087BF96
:1427D8008CC78091DF029091E002813AE0E09E0709F083C742
:1427EC0088EE80932F0180E48093300187E88093310122247E
:142800002092320125E030E009E00E94EB048091FA0280348F
:1428140099F5AA242EC004E110E00E94F4058CEF92E0EA2DF2
:14282800FF27EE0FFF1FE80FF91F208033243092E2022092FD
:14283C00E102322C22243092E2022092E1028BEF92E0EA2DC3
:14285000FF27EE0FFF1FE80FF91F208033244090E10250909A
:14286400E202422853285092E2024092E1024CD7A3948A2D0B
:14287800803278F288EE80932F0180E48093300187E880934D
:14288C00310181E08093320125E030E009E00E94EB048091BF
:1428A000FA02803409F025C7AA242EC08CEF92E0EA2DFF27A9
:1428B400EE0FFF1FE80FF91F208033243092E2022092E102B4
:1428C800322C22243092E2022092E1028BEF92E0EA2DFF27F4
:1428DC00EE0FFF1FE80FF91F208033244090E1025090E20250
:1428F000422853285092E2024092E10207D704E110E00E941F
:14290400F405A3948A2D803278F2F1C68091DF029091E00210
:14291800803BE0E09E0729F582E090E09093C2028093C102DE
:14292C0080E890932D0180932C012224332430922B01209261
:142940002A012092D90288EE93E0909346038093450386E0B5
:1429540082BF83B7866083BF86B7816086BF87B7816087BF04
:14296800C4C68091DF029091E002813BE0E09E0709F092C070
:14297C0088EE80932F0180E48093300187E88093310182E0D0
:142990008093320125E030E009E00E94EB048091FA0280349D
:1429A40099F5AA242EC004E110E00E94F4058CEF92E0EA2D61
:1429B800FF27EE0FFF1FE80FF91F208033243092E20220926C
:1429CC00E102322C22243092E2022092E1028BEF92E0EA2D32
:1429E000FF27EE0FFF1FE80FF91F208033244090E102509009
:1429F400E202422853285092E2024092E10284D6A3948A2D43
:142A0800803278F288EE80932F0180E48093300187E88093BB
:142A1C00310183E08093320125E030E009E00E94EB0480912B
:142A3000FA02803409F05DC6AA242EC08CEF92E0EA2DFF27E0
:142A4400EE0FFF1FE80FF91F208033243092E2022092E10222
:142A5800322C22243092E2022092E1028BEF92E0EA2DFF2762
:142A6C00EE0FFF1FE80FF91F208033244090E1025090E202BE
:142A8000422853285092E2024092E1023FD604E110E00E9456
:142A9400F405A3948A2D803278F229C68091DF029091E00247
:142AA800823BE0E09E0709F054C088EE80932F0180E48093BB
:142ABC00300182EB8093310125E030E009E00E94EB0422244E
:142AD00033243092BC022092BB0235C08BEF92E0E091BB029D
:142AE400F091BC02E80FF91F208033243092E2022092E1025E
:142AF800322C22243092E2022092E102E091BB02F091BC027E
:142B0C003196E80FF91F208033244090E1025090E202422807
:142B200053285092E2024092E102F0D508E210E00E94F40571
:142B34008091BB029091BC0202969093BC028093BB02809186
:142B4800BB029091BC028830E0E09E0708F4C2CFCCC58BEB2C
:142B5C0090E02090DF023090E002821593050CF0C2C588EE9A
:142B700080932F0180E480933001209231012DE730E009E075
:142B84000E94EB048091FA02843009F0B0C58091FB028535B5
:142B980009F0ABC52090FC02222009F0A6C52090DF0230901B
:142BAC00E0024090FD0255244214530409F09BC52224332448
:142BC0003092BC022092BB0236C088EE80932F0180E48093EC
:142BD40030018BEB8093310124E030E009E00E94EB042090C3
:142BE800FC0233243092E2022092E1022090E1023090E20212
:142BFC00322C22243092E2022092E1022090FB023324409012
:142C1000E1025090E202422853285092E2024092E10274D560
:142C24008091BB029091BC0201969093BC028093BB02809196
:142C3800BB029091BC028830E7E09E0710F255C5C090DF027B
:142C4C00D090E002C601803CE0E09E0729F08F3CE0E09E0701
:142C600009F074C388EE80932F0180E48093300189E880934B
:142C7400310189E08093320122E330E009E00E94EB048091CB
:142C8800FA02803109F0EEC08091FB02853509F0E9C0809169
:142C9C00FC028C3009F0E4C08091FD02893809F0DFC02090B4
:142CB000FF0233243092E2022092E1022090E1023090E20246
:142CC400322C22243092E2022092E1022090FE023324409046
:142CD800E1025090E202422853285092E2024092E10210D5FC
:142CEC002090E1023090E20220920001232C332427FC30945D
:142D0000209201010EE110E00E94F4052090010333243092C4
:142D1400E2022092E1022090E1023090E202322C2224309295
:142D2800E2022092E1022090000333244090E1025090E2029D
:142D3C00422853285092E2024092E102E1D42090E10230901B
:142D5000E20220920201232C332427FC3094209203010EE1A4
:142D640010E00E94F4052090020320924803209003032092B6
:142D780049032090040320924A032090050320924B032090DD
:142D8C004A0330904B033092E2022092E102B8D42090E1027E
:142DA0003090E20220920401232C332427FC3094209205017F
:142DB4000EE110E00E94F40520904803309049033092E202E4
:142DC8002092E1029FD42090E1023090E20220920601232CB0
:142DDC00332427FC3094209207010EE110E00E94F4052090C1
:142DF0000603209248032090070320924903209008032092A4
:142E04004A032090090320924B0320904A0330904B033092E4
:142E1800E2022092E10276D42090E1023090E20220920801F1
:142E2C00232C332427FC3094209209010EE110E00E94F405CF
:142E400020904803309049033092E2022092E1025DD420905B
:142E5400E1023090E20220920A01232C332427FC30942092E7
:142E68000B0164C12090FC0233243092E2022092E102209035
:142E7C00E1023090E202322C22243092E2022092E10220902C
:142E9000FB0233244090E1025090E202422853285092E202B8
:142EA4004092E10231D42090E1023090E20220920001232C27
:142EB800332427FC3094209201010EE110E00E94F4052090EA
:142ECC00FE0233243092E2022092E1022090E1023090E20229
:142EE000322C22243092E2022092E1022090FD023324409029
:142EF400E1025090E202422853285092E2024092E10202D4ED
:142F08002090E1023090E20220920201232C332427FC30943C
:142F1C00209203010EE110E00E94F4052090000333244424FF
:142F300055243092230120922201509225014092240188E0F2
:142F440090E0209124013091250100912201109123018A93B6
:142F58000E94802010932301009322013093250120932401E5
:142F6C002090FF023324442455243801490162287328842814
:142F80009528709223016092220190922501809224014FEF88
:142F94005FEF60E070E01301240124223522462257223092D2
:142FA8002301209222015092250140922401810192010E9466
:142FBC00E220109349030093480330934B0320934A03209071
:142FD0004A0330904B033092E2022092E10296D32090E1025B
:142FE4003090E20220920401232C332427FC30942092050139
:142FF8000EE110E00E94F40520904803309049033092E2029E
:14300C002092E1027DD32090E1023090E20220920601232C8C
:14302000332427FC3094209207010EE110E00E94F40520907A
:14303400020333244424552430922301209222015092250188
:143048004092240188E090E020912401309125010091220134
:14305C00109123018A930E94802010932301009322013093FC
:143070002501209324012090010333244424552438014901DF
:14308400622873288428952870922301609222019092250127
:14309800809224014FEF5FEF60E070E01301240124223522FB
:1430AC00462257223092230120922201509225014092240175
:1430C000810192010E94E220109349030093480330934B0365
:1430D40020934A0320904A0330904B033092E2022092E102A2
:1430E80011D32090E1023090E20220920801232C332427FC35
:1430FC003094209209010EE110E00E94F4052090480330900B
:1431100049033092E2022092E102F8D22090E1023090E20223
:1431240020920A01232C332427FC309420920B0124E030E07B
:1431380001E80E94B3022090F70233243092E2022092E10208
:14314C002090E1023090E202322C22243092E2022092E10259
:143160002090F60233244090E1025090E2024228532850921E
:14317400E2024092E102C8D22090E1023090E20220920C011E
:14318800232C332427FC309420920D010EE110E00E94F4056C
:14319C002090F90233243092E2022092E1022090E10230908F
:1431B000E202322C22243092E2022092E1022090F802332447
:1431C4004090E1025090E202422853285092E2024092E10220
:1431D80099D22090E1023090E20220920E01232C332427FCB7
:1431EC00309420920F0101E010E00E94F40524E030E001E3E5
:143200000E94B3022090F60233243092E2022092E1027CD2DB
:143214002090E1023090E20220921001232C332427FC30941F
:14322800209211018091DF029091E0028F3CE0E09E0709F0B0
:14323C005EC08C010E94550409E110E00E94F4052090DD02D4
:143250003090DE023092E2022092E10257D22090E102309013
:14326400E20220921201232C332427FC3094209213010EE16B
:1432780010E00E94F4052090DB023090DC023092E202209234
:14328C00E1023ED22090E1023090E20220921401232C332497
:1432A00027FC3094209215010EE110E00E94F40526E130E0DA
:1432B40000E011E071D62090210133243092E2022092E1028A
:1432C8002090E1023090E202322C22243092E2022092E102DC
:1432DC002090200133244090E1025090E20242285328509278
:1432F000E2024092E1020AD2FCC10EE110E00E94F40522E11B
:1433040030E000E011E048D62090210133243092E202209235
:14331800E1022090E1023090E202322C22243092E20220928B
:14332C00E1022090200133244090E1025090E2024228532826
:143340005092E2024092E102E1D1D3C18091DF029091E002C3
:14335400853CE0E09E0709F06AC188EE80932F0180E48093EB
:14336800300183E88093310122242092320125E030E009E047
:14337C000E94EB048091FA02803499F5AA242EC004E110E0CC
:143390000E94F4058CEF92E0EA2DFF27EE0FFF1FE80FF91F3A
:1433A400208033243092E2022092E102322C22243092E20299
:1433B8002092E1028BEF92E0EA2DFF27EE0FFF1FE80FF91F19
:1433CC00208033244090E1025090E202422853285092E202D4
:1433E0004092E10293D1A3948A2D803278F288EE80932F01FD
:1433F40080E48093300183E88093310181E08093320125E0C1
:1434080030E009E00E94EB048091FA02803499F5AA242EC01B
:14341C008CEF92E0EA2DFF27EE0FFF1FE80FF91F2080332451
:143430003092E2022092E102322C22243092E2022092E1026E
:143444008BEF92E0EA2DFF27EE0FFF1FE80FF91F208033242A
:143458004090E1025090E202422853285092E2024092E10289
:14346C004FD104E110E00E94F405A3948A2D803278F288EE3C
:1434800080932F0180E48093300183E88093310182E0809328
:14349400320125E030E009E00E94EB048091FA02803499F513
:1434A800AA242EC08CEF92E0EA2DFF27EE0FFF1FE80FF91F00
:1434BC00208033243092E2022092E102322C22243092E20280
:1434D0002092E1028BEF92E0EA2DFF27EE0FFF1FE80FF91F00
:1434E400208033244090E1025090E202422853285092E202BB
:1434F8004092E10207D104E110E00E94F405A3948A2D803223
:14350C0078F288EE80932F0180E48093300183E88093310130
:1435200083E08093320125E030E009E00E94EB048091FA0252
:14353400803499F5AA242EC08CEF92E0EA2DFF27EE0FFF1F40
:14354800E80FF91F208033243092E2022092E102322C22248A
:14355C003092E2022092E1028BEF92E0EA2DFF27EE0FFF1FDC
:14357000E80FF91F208033244090E1025090E20242285328E5
:143584005092E2024092E102BFD004E110E00E94F405A39482
:143598008A2D803278F288EE80932F0180E48093300183E880
:1435AC008093310184E08093320125E030E009E00E94EB048D
:1435C0008091FA02803409F094C0AA242EC08CEF92E0EA2D29
:1435D400FF27EE0FFF1FE80FF91F208033243092E202209244
:1435E800E102322C22243092E2022092E1028BEF92E0EA2D0A
:1435FC00FF27EE0FFF1FE80FF91F208033244090E1025090E1
:14361000E202422853285092E2024092E10276D004E110E047
:143624000E94F405A3948A2D803278F260C08091DF029091BA
:14363800E0028A3CE0E09E0709F057C084E090E09093C202A6
:14364C008093C10280E491E090932D0180932C012224332491
:1436600030922B0120922A012092D90280ED97E090934603AE
:143674008093450386E082BF83B7866083BF86B7816086BF7B
:1436880087B7816087BF31C08091DF029091E0028F3DE0E057
:14369C009E0749F523E030E00FED0E94B3022090F6023324D2
:1436B0003092E2022092E1022090E1023090E202322C2224F0
:1436C4003092E2022092E1020FED0E9410030E947A03A02E19
:1436D8002A2C33244090E1025090E202422853285092E2020F
:1436EC004092E1020DD022242092BF0288B7816088BF89B7D8
:14370000816089BF0C949D06299608954A938FB78F778FBF76
:14371400809165008860809365008091DA02887086958695B0
:1437280086958093D8028091DA028470869586958093D70282
:14373C008091DA02827086958093D6028091DA0281708093A3
:14375000D5022FE030E00091E1021091E202007010780E94DC
:1437640092200093D4022EE030E00091E1021091E2020070AF
:1437780010740E9426200093D3022DE030E00091E102109137
:14378C00E202007010720E9426200093D2022CE030E0009157
:1437A000E1021091E202007010710E9426200093D1022BE063
:1437B40030E00091E1021091E202007018700E942620009385
:1437C800D0022AE030E00091E1021091E202007014700E9472
:1437DC0026200093CF0229E030E00091E1021091E2020070AD
:1437F00012700E9426200093CE028091E1029091E20280700F
:1438040091701C01232C332427FC30942092CD0227E030E06D
:143818000091E1021091E202007810700E9426200093CC0262
:14382C0026E030E00091E1021091E202007410700E9426209D
:143840000093CB0225E030E00091E1021091E2020072107014
:143854000E9426200093CA028091E1029091E202807190702F
:143868001C013594279435942794359427943594279420926D
:14387C00C9028091E1029091E202887090701C0135942794DB
:1438900035942794359427942092C8028091E1029091E202A7
:1438A400847090701C0135942794359427942092C70280916B
:1438B800E1029091E202827090701C01359427942092C60207
:1438CC008091E1029091E202817090708093C50281E08093B0
:1438E000C40242E00DC083EC92E0E42FFF27E80FF91F208056
:1438F4003090C40232243092C4024395463188F322243324F5
:143908003092BE022092BD0209C08091BD029091BE020196A7
:14391C009093BE028093BD028091BD029091BE028032E0E0BF
:143930009E0778F380916500877F8093650022243324309220
:14394400BE022092BD0209C08091BD029091BE02019690930A
:14395800BE028093BD028091BD029091BE028031E0E09E0702
:14396C0078F380916500806180936500222433243092BE02EE
:143980002092BD0209C08091BD029091BE0201969093BE02CE
:143994008093BD028091BD029091BE028032E0E09E0778F31A
:1439A800809165008F7E80936500222433243092BE0220923F
:1439BC00BD0209C08091BD029091BE0201969093BE02809331
:1439D000BD028091BD029091BE028031E0E09E0778F38091E1
:1439E4006500886080936500222433243092BE022092BD027A
:1439F80009C08091BD029091BE0201969093BE028093BD02F5
:143A0C008091BD029091BE028032E0E09E0778F322243324D6
:143A20003092BE022092BD0209C08091BD029091BE0201968E
:143A34009093BE028093BD028091BD029091BE028032E0E0A6
:143A48009E0778F3222433243092BE022092BD0209C08091F0
:143A5C00BD029091BE0201969093BE028093BD028091BD029A
:143A70009091BE028032E0E09E0778F3222433243092BE02C0
:143A84002092BD0209C08091BD029091BE0201969093BE02C9
:143A98008093BD028091BD029091BE028032E0E09E0778F315
:143AAC00222433243092BE022092BD0209C08091BD029091BC
:143AC000BE0201969093BE028093BD028091BD029091BE0235
:143AD4008032E0E09E0778F380916500877F80936500222422
:143AE80033243092BE022092BD0209C08091BD029091BE0206
:143AFC0001969093BE028093BD028091BD029091BE02803108
:143B1000E0E09E0778F345E124C183EC92E0E42FFF27E80FB5
:143B2400F91F2080222009F475C08091650080618093650092
:143B3800222433243092BE022092BD0209C08091BD0290912F
:143B4C00BE0201969093BE028093BD028091BD029091BE02A8
:143B60008032E0E09E0778F3809165008F7E8093650022248E
:143B740033243092BE022092BD0209C08091BD029091BE0279
:143B880001969093BE028093BD028091BD029091BE0280317B
:143B9C00E0E09E0778F38091650088608093650022243324D2
:143BB0003092BE022092BD0209C08091BD029091BE020196FD
:143BC4009093BE028093BD028091BD029091BE028032E0E015
:143BD8009E0778F380916500877F8093650022243324309276
:143BEC00BE022092BD0209C08091BD029091BE020196909360
:143C0000BE028093BD028091BD029091BE028031E0E09E0757
:143C140078F3A4C0809165008061809365002224332430929F
:143C2800BE022092BD0209C08091BD029091BE020196909323
:143C3C00BE028093BD028091BD029091BE028032E0E09E071A
:143C500078F3809165008F7E80936500222433243092BE02DB
:143C64002092BD0209C08091BD029091BE0201969093BE02E7
:143C78008093BD028091BD029091BE028031E0E09E0778F334
:143C8C0080916500886080936500222433243092BE0220927D
:143CA000BD0209C08091BD029091BE0201969093BE0280934A
:143CB400BD028091BD029091BE028032E0E09E0778F32224C4
:143CC80033243092BE022092BD0209C08091BD029091BE0224
:143CDC0001969093BE028093BD028091BD029091BE02803225
:143CF000E0E09E0778F3222433243092BE022092BD0209C097
:143D04008091BD029091BE0201969093BE028093BD0280919D
:143D1800BD029091BE028032E0E09E0778F380916500877FF9
:143D2C0080936500222433243092BE022092BD0209C08091A1
:143D4000BD029091BE0201969093BE028093BD028091BD02B3
:143D54009091BE028031E0E09E0778F34A9580E0841708F423
:143D6800D8CE80916500806180936500222433243092BE02B3
:143D7C002092BD0209C08091BD029091BE0201969093BE02CE
:143D90008093BD028091BD029091BE028032E0E09E0778F31A
:143DA400809165008F7E80936500222433243092BE0220923F
:143DB800BD0209C08091BD029091BE0201969093BE02809331
:143DCC00BD028091BD029091BE028031E0E09E0778F38091E1
:143DE0006500886080936500222433243092BE022092BD027A
:143DF40009C08091BD029091BE0201969093BE028093BD02F5
:143E08008091BD029091BE028032E0E09E0778F322243324D6
:143E1C003092BE022092BD0209C08091BD029091BE0201968E
:143E30009093BE028093BD028091BD029091BE028032E0E0A6
:143E44009E0778F3222433243092BE022092BD0209C08091F0
:143E5800BD029091BE0201969093BE028093BD028091BD029A
:143E6C009091BE028032E0E09E0778F3222433243092BE02C0
:143E80002092BD0209C08091BD029091BE0201969093BE02C9
:143E94008093BD028091BD029091BE028032E0E09E0778F315
:143EA800222433243092BE022092BD0209C08091BD029091BC
:143EBC00BE0201969093BE028093BD028091BD029091BE0235
:143ED0008032E0E09E0778F3222433243092BE022092BD02CC
:143EE40009C08091BD029091BE0201969093BE028093BD0204
:143EF8008091BD029091BE028032E0E09E0778F322243324E6
:143F0C003092BE022092BD0209C08091BD029091BE0201969D
:143F20009093BE028093BD028091BD029091BE028032E0E0B5
:143F34009E0778F380916500877F8093650022243324309216
:143F4800BE022092BD0209C08091BD029091BE020196909300
:143F5C00BE028093BD028091BD029091BE028031E0E09E07F8
:143F700078F388B7886088BF789449910895E199FECF1FBBC0
:143F84000EBB2DBBE29AE19A0895E199FECF1FBB0EBBE09A80
:143F98000DB308950E9421200E944C2021978FEF809321015C
:143FAC008093200161E080EAA82E4427552738C0FA010B84E3
:143FC0001C84E00DF11D208030902001322430922001CC24A8
:143FD400DD24209021012882E09020012694209221012E2CE3
:143FE80026942092200188818170813021F4822D80688093CE
:143FFC0020018E2D8170813051F4209021012A2420922101FA
:1440100020902001262620922001C60101966C018830E0E069
:144024009E07BCF24F5F5F4FC90102974817590708F4C2CF2A
:1440380021960E944120249608953A932A931A930A930895F2
:14404C00222321F0159507952A95FACF0895EA93FA930A92F9
:14406000E02FF12FD895002D3196D895102D3196D895202D91
:144074003196D895302D0990F991E9910895A990B990C99092
:14408800D990E990F990499159916991799108957A936A934A
:14409C005A934A93FA92EA92DA92CA92BA92AA9208957A9344
:1440B0006A935A934A93BA92AA920895A990B99049915991CA
:1440C4006991799108957A936A935A934A93DA92CA92BA925F
:1440D800AA920895A990B990C990D9904991599169917991EF
:1440EC00089500951095209530950F5F1F4F2F4F3F4F0895EA
:144100000F920990002031F0000F111F221F331F0A94F8CFF9
:144114000F900895112319F0000F1A95FBCF0895222321F0A3
:14412800169507952A95FACF08950F920990002031F03695D1
:14413C002795179507950A94F8CF0F9008954A925A926A9206
:144150008A930E94A52111F15520E2F08FE14816C0F487E1A3
:144164004816D1F058F4419489EE481A05C035952795179537
:1441780007954A94D1F70EC087E1481A000F111F221F331F87
:14418C004A94D1F705C03FE7232F132F032F04C0662011F07D
:1441A0000E94772089916990599049900895689401C0E89427
:1441B4002227332746F017FD209517FD309503C0689401C0FC
:1441C800E8944A925A926A928A9387E1482E5524662436F07F
:1441DC00332322F40E94772080E8682E0E94BE218991699098
:1441F000599049900895FA93EA93EA81FB8127D0E991F99170
:1442040022960895FA93EA93EC2FFD2F32961DD0E991F99147
:1442180024960895FA93EA93EA81FB8114D0E991F9913983A6
:14422C0028831A930A930895FA93EA93EC2FFD2F329607D0FC
:14424000E991F9913B832A831983088308950A921A922A9233
:144254003A920E9403223A932A931A930A9300811181228139
:1442680033810E94A52109F457C0E62CD52CC42CB32EA22E5E
:14427C00912E802E09911991299139910E94A521A1F16E246D
:144290004C185D0880E8481653060CF033C081E848168FEFFE
:1442A40058060CF436C080E23324232E122E012E302F222791
:1442B8001127002726941794079437952795000F111F221F8B
:1442CC00331F001C111C221C331C28F0081819082A083B08E8
:1442E00004C0080C191C2A1C3B1C0AF001608A9551F70E94BC
:1442F400BE210E941222399029901990099008950FEF102F63
:144308002FE73FE7662099F30E947720F0CF0027102F202FA6
:14431C00302FEBCF0991199129913991EDCF0FD029F0662072
:1443300011F00E94772098940895002329F4112319F42223B0
:1443440009F433230895F7DF99F08A93632E80E86822220F45
:14435800331F432E8FE7481A55248827580A269530E8232B0B
:14436C0033278991989408954424552466240895DEDF09F43E
:144380000895AA93BA93D2019A938A938EE790E0332349F071
:144394003695279517950795A817B907CCF41196F5CF809587
:1443A800909501962223BAF0000F111F221FA817B90714F053
:1443BC001197F6CF0027112722273327899199912D01B991C2
:1443D000A991089533270FEF102F2FE7322F899199912D0182
:1443E40002C0AA93BA93A7DF49F0D201A158BF4F2D01342D51
:1443F800220F369527953629B991A99108954A925A926A92B5
:14440C007A928A929A92AA92BA92CA92DA92EA92FA928A93D3
:144420009A93089599918991F990E990D990C990B990A99034
:1444340099908990799069905990499008950E940322AA93CD
:14444800BA930E94A521E1F1E62CD52CC42CB32EA22E912E66
:14445C00802E00811181228133810E94A52171F16E244C0C80
:144470005D1C80E84816530664F581E848168FEF58066CF147
:14448400A29EB12DA02D919E912D802DA09E800D911DA31F64
:14449800B31F829E800D911DA31FB31F929E900DA11DB31FF2
:1444AC00A19E900DA11DB31F2B2F1A2F092F880F001F111FCF
:1444C000221F331F0E94BE21B991A9910E94122208950FEFDF
:1444D400102F2FE78FE7482EF5CF0027102F202F302FF0CFFC
:1444E800FA93EA93EA81FB810E942122E991F9912296089591
:00000001FF
