:020000040000FA
:060000001CEF27F01200C6
:060808003AEF1DF01200A2
:02080E000100E7
:0C081000504E0000600000004E00000090
:04081C00D9CFE6FF4B
:10082000E1CFD9FF030EE126FD0EDBCFDEFFDBCFEC
:10083000DDFFD9CFE9FFDACFEAFF000ED880EE5412
:10084000000EED5410E28B0EF36E020EF3CFDBFFC1
:10085000DB50000803E2020EDB06FAD7DF06010ECA
:1008600001E2DB06E6D7F56E030EE15C02E2E16A27
:10087000E552E16EF550E552E7CFD9FF1200D9CF2E
:10088000E6FFE1CFD9FFE652DF6AFE0EDB50DF5C08
:1008900003E20000DF2AF9D7E552E552E7CFD9FF9E
:1008A0001200D9CFE6FFE1CFD9FFACA2FED7FE0EF2
:1008B000DB50AD6EE552E7CFD9FF1200D9CFE6FF8E
:1008C000E1CFD9FFE6529EAAFED7AE50DF6EDF50D1
:1008D00000D0E552E552E7CFD9FF1200D9CFE6FFAD
:1008E000E1CFD9FFE652FE0EDB50EA6A600FE96EF7
:1008F000000EEA22EF6A550EE66ED3DFE552550E82
:10090000106EFE0EDB50EA6A600FE96E000EEA22FE
:100910001050EF26010EDF6EFE0EDB50DF5C1DE295
:10092000DF50EA6A600FE96E000EEA22EF50E66ED1
:10093000B8DFE552DF50EA6A600FE96E000EEA2286
:10094000EFCF10F0FE0EDB50EA6A600FE96E000E8A
:10095000EA221050EF26DF2ADFD7FE0EDB50EA6ACC
:10096000600FE96E000EEA22EF50E66E9ADFE55264
:10097000E552E552E7CFD9FF1200D9CFE6FFE1CF2C
:10098000D9FF040EE126030EDF6E090EDF5C0DE2D7
:1009900095DFE66EDF50EA6A600FE96E000EEA222C
:1009A000E552E750EF6EDF2AF0D7010E63C0DBFFA0
:1009B000020E64C0DBFF030E65C0DBFF010EDB50DF
:1009C000020810E1600EE66E000EE66E020EDBCF4E
:1009D000E6FF030EDBCFE6FFF6EC12F0E552E55240
:1009E000E552E552010EDB50030815E1839A000041
:1009F0000000000000000000200EE66E04EC18F07D
:100A0000E552C7EC17F00001606F00000000000025
:100A100000000000838A0001686BDF6A080EDF5C5B
:100A200015E2DF50EA6A600FE96E000EEA22EF502D
:100A3000E66E37DFE552DF50EA6A600FE96E000EBE
:100A4000EA22EF5000016827DF2AE8D768C0E6FFF6
:100A500028DFE552F56E040EE15C02E2E16AE55240
:100A6000E16EF550E552E7CFD9FF1200D9CFE6FF8E
:100A7000E1CFD9FFE652DF6AFE0EDB50DF5C0DE20C
:100A8000090EDF24EA6A600FE96E000EEA22EF50D9
:100A9000E66E07DFE552DF2AEFD7E552E552E7CFF2
:100AA000D9FF1200D9CFE6FFE1CFD9FF030EE1262F
:100AB000DF6E090EDF5C0DE201DFE66EDF50EA6AF1
:100AC000600FE96E000EEA22E552E750EF6EDF2A72
:100AD000F0D700016351E66ED950010FE96EDACF0D
:100AE000EAFFE552E750EE6EED6AD950010FE96E6C
:100AF000DACFEAFF060ED890EE36ED36E806FBE1D7
:100B0000690EE66E000EE66E400EE66EE66A010EB7
:100B1000DBCFE6FF020EDBCFE6FFFD0EDBCFE6FF0D
:100B2000FE0EDBCFE6FF79EC12F0F56E080EE15E0B
:100B3000F550400EE66E9ADFE552F56E030EE15C6D
:100B400002E2E16AE552E16EF550E552E7CFD9FFE6
:100B50001200D9CFE6FFE1CFD9FF070EE126030E41
:100B6000DF6E090EDF5C0DE2A9DEE66EDF50EA6A99
:100B7000600FE96E000EEA22E552E750EF6EDF2AC1
:100B8000F0D7050E64C0DBFF060E65C0DBFF050E67
:100B9000DBCF06F0060EDBCF07F0030E06C0DBFF4F
:100BA000040E07C0DBFF00016351E66ED950010F50
:100BB000E96EDACFEAFFE552E750EE6EED6AD95002
:100BC000010FE96EDACFEAFF060ED890EE36ED3669
:100BD000E806FBE1690EE66E000EE66E400EE66E7C
:100BE000E66A010EDBCFE6FF020EDBCFE6FF030E67
:100BF000DBCFE6FF040EDBCFE6FF79EC12F0F56EFB
:100C0000080EE15EF550400EE66E30DFE552F56EFF
:100C1000070EE15C02E2E16AE552E16EF550E55251
:100C2000E7CFD9FF1200D9CFE6FFE1CFD9FF030EFE
:100C3000E126DF6E4A0EDF5C0DE240DEE66EDF503D
:100C4000EA6A600FE96E000EEA22E552E750EF6EA5
:100C5000DF2AF0D70001635122E1FD0EDBCFE6FF72
:100C6000FE0EDBCFE6FFC0EC13F0E552E5520001CB
:100C7000A96FDF6A090EDF5C12E2090EDF24EA6A5F
:100C8000600FE96E000EEA22EF50E66EF70EDF24E9
:100C9000E66E73EC14F0E552E552DF2AEBD7000163
:100CA0006351E66ED950010FE96EDACFEAFFE552E3
:100CB000E750EE6EED6AD950010FE96EDACFEAFF28
:100CC000060ED890EE36ED36E806FBE1690EE66ECC
:100CD000000EE66E400EE66EE66A010EDBCFE6FF22
:100CE000020EDBCFE6FFFD0EDBCFE6FFFE0EDBCF15
:100CF000E6FF29EC13F0F56E080EE15EF550080EE4
:100D0000E66EECDDE552F56E030EE15C02E2E16AAF
:100D1000E552E16EF550E552E7CFD9FF1200D9CF89
:100D2000E6FFE1CFD9FF030EE126DF6E4A0EDF5C5E
:100D30000DE2C4DDE66EDF50EA6A600FE96E000E78
:100D4000EA22E552E750EF6EDF2AF0D7D950FD0FC7
:100D5000E96EFF0EDA20EA6E030EEE1801E1ED50A7
:100D600061E1000EE66E010EE66E400EE66EE66A8A
:100D7000000EE66EE66AFD0EDBCFE6FFFE0EDBCF71
:100D8000E6FF79EC12F0F56E080EE15EF550400ECC
:100D9000E66E010EE66E400EE66EE66AE66EE66A06
:100DA000FD0EDBCFE6FFFE0EDBCFE6FF79EC12F0A7
:100DB000F56E080EE15EF550800EE66E010EE66EF1
:100DC000400EE66EE66A800EE66EE66AFD0EDBCF4A
:100DD000E6FFFE0EDBCFE6FF79EC12F0F56E080EB3
:100DE000E15EF550C00EE66E010EE66E400EE66E58
:100DF000E66AC00EE66EE66AFD0EDBCFE6FFFE0E8B
:100E0000DBCFE6FF79EC12F0F56E080EE15EF550EF
:100E1000FD0EDBCFE6FFFE0EDBCFE6FFC0EC13F0EE
:100E2000E552E552000163510CE1FD0EDBCFE6FF18
:100E3000FE0EDBCFE6FFC0EC13F0E552E5520001F9
:100E4000A96F6351E66ED950010FE96EDACFEAFF60
:100E5000E552E750EE6EED6AD950010FE96EDACF38
:100E6000EAFF060ED890EE36ED36E806FBE1D950E3
:100E7000FD0FE96EFF0EDA20EA6E030EEE1801E1B7
:100E8000ED5001E098D0DF6A400EDF5C1EE2090EF3
:100E9000DF24EA6A600FE96E000EEA22EF50E66E88
:100EA000DF50E76E010EDBCFE9FF020EDBCFEAFF7A
:100EB000E750E926000EEA22000EE926010EEA229A
:100EC000E552E750EF6EDF2ADFD7050EE66EE66AE1
:100ED000A5DCE552E552000EE66E010EE66E400E10
:100EE000E66EE66A000EE66EE66AFD0EDBCFE6FF12
:100EF000FE0EDBCFE6FF29EC13F0F56E080EE15E87
:100F0000F550050EE66EE66A89DCE552E552400EC4
:100F1000E66E010EE66E400EE66EE66AE66EE66A84
:100F2000FD0EDBCFE6FFFE0EDBCFE6FF29EC13F074
:100F3000F56E080EE15EF550050EE66EE66A6EDCB3
:100F4000E552E552800EE66E010EE66E400EE66E4C
:100F5000E66A800EE66EE66AFD0EDBCFE6FFFE0E69
:100F6000DBCFE6FF29EC13F0F56E080EE15EF550DD
:100F7000050EE66EE66A52DCE552E552C00EE66EFC
:100F8000010EE66E400EE66EE66AC00EE66EE66A9A
:100F9000FD0EDBCFE6FFFE0EDBCFE6FF29EC13F004
:100FA000F56E080EE15EF550050EE66EE66A36DC7B
:100FB000E552E55219D0690EE66E000EE66E400E5F
:100FC000E66EE66A010EDBCFE6FF020EDBCFE6FF40
:100FD000FD0EDBCFE6FFFE0EDBCFE6FF29EC13F0C4
:100FE000F56E080EE15EF550080EE66E77DCE55210
:100FF000F56E030EE15C02E2E16AE552E16EF55046
:10100000E552E7CFD9FF1200D9CFE6FFE1CFD9FFF4
:10101000020EE126030EDF6E090EDF5C0DE24EDCF0
:10102000E66EDF50EA6A600FE96E000EEA22E552D2
:10103000E750EF6EDF2AF0D70201F2417F0BE76E37
:10104000010EE7CFDBFFB6EC18F00201EC51090A04
:1010500050E0010A3BE0090A24E0010A11E0EEEC4D
:1010600019F060C069F061C06AF062C06BF063C0E3
:101070006CF0D6EC19F0F6C26DF0F7C26EF04CD001
:10108000EEEC19F060C069F061C06AF062C06BF00C
:1010900063C06CF0D6EC19F0F6C26DF0F7C26EF0DA
:1010A0003BD00FEC1AF060C069F061C06AF062C01A
:1010B0006BF063C06CF064C06DF065C06EF0D6EC90
:1010C00019F0F6C26FF0F7C270F026D030EC1AF0CB
:1010D00060C069F061C06AF062C06BF063C06CF020
:1010E00064C06DF065C06EF066C06FF067C070F0F0
:1010F00013D047EC1AF060C069F061C06AF062C0BA
:101100006BF063C06CF064C06DF065C06EF066C0DB
:101110006FF067C070F000D0ECC2A8F0400EE66E31
:10112000A5DCE552F56E020EE15C02E2E16AE552F1
:10113000E16EF550E552E7CFD9FF1200D9CFE6FFB7
:10114000E1CFD9FF020EE12630EC1AF0F56E020E67
:10115000E15C02E2E16AE552E16EF550E552E7CF6B
:10116000D9FF1200D9CFE6FFE1CFD9FF130EE12658
:101170000A0EE66EE66A0EEC04F0E552E552100E39
:10118000E66E60EC14F0E552DF6EDF6ADF50106E41
:10119000116AD890115004E6F00E105C000E115840
:1011A00017E2100EDF24E76E040EE7CFDBFFDBCF84
:1011B000E6FF60EC14F0E552E66EDF50EA6A040FD9
:1011C000E96E020EEA22E552E750EF6EDF2ADED723
:1011D000110EDB6A040EF36E120EF3CFDBFF020179
:1011E000010EED6FED07ED51000807E2110EDB6A0D
:1011F000080EF36E120EF3CFDBFF080EEC6FEC510E
:10120000090A24E0010A1CE00A0A15E0030A0EE0BC
:10121000010A06E0020EF36E030EF3CFDBFF1CD0D3
:10122000020EF36E030EF3CFDBFF16D0030EF36E48
:10123000F3CFDBFF11D0030EF36EF3CFDBFF0CD047
:10124000040EF36E030EF3CFDBFF06D0040EF36E35
:10125000030EF3CFDBFF00D0EA5101E09FD3E66A33
:1012600060EC14F0E552E76E090EE7CFDBFF010EEC
:10127000E66E60EC14F0E552E76E0A0EE7CFDBFF96
:10128000050EDB6A010EDF6E080EDF5C3BE2DF500D
:10129000020D040EF3CFDBFFDBCFE6FF60EC14F0B2
:1012A000E552E76E070EE7CFDBFF040EDB2ADBCF4C
:1012B000E6FF60EC14F0E552E76E080EE7CFDBFFC7
:1012C000070EDBCF10F0080EDBCF11F0090EDBCFDD
:1012D00012F00A0EDBCF13F01050125C11501358AD
:1012E0000FE2070EDBCF06F0080EDBCF07F0090E8A
:1012F00006C0DBFF0A0E07C0DBFF050EDFCFDBFFFA
:10130000DF2AC2D70201E85107080CE2050EDBCF45
:10131000E8F2E8C2E6FFF40EE66E73EC14F0E55274
:10132000E552B2D0E851E824DF6EDFCFE6FF60EC93
:1013300014F0E552E76E070EE7CFDBFFDF2ADFCFC1
:10134000E6FF60EC14F0E552E76E080EE7CFDBFF36
:10135000090EDBCF10F00A0EDBCF11F0070EDBCF4A
:1013600012F0080EDBCF13F01050125C115013581E
:1013700001E38AD0070EDBCFF4F2080EDBCFF5F2E3
:10138000110EDBCF10F0120EDBCF11F00201105066
:10139000F45D1150F55901E377D0F4C210F0F5C2B5
:1013A00011F0030ED89011321032E804FBE10E0E5A
:1013B00010C0DBFF690EE66E000EE66E010EE66EF3
:1013C000E66A0E0EDBCFE6FFE66A000EE66EE66A20
:1013D00079EC12F0F56E080EE15EF55069C0DFFFA2
:1013E000070E0201F415070B04E0DF42DF9EE8065A
:1013F000FCE1000EDF92DF94DF96DF98DF9ADF9C3E
:10140000DF9EDF503CE1F60EE66E020EE66E020E47
:10141000E66EE66A000EE66EE66AF4C2E6FFF5C224
:10142000E6FF79EC12F0F56E080EE15EF550FF0E66
:101430000201F75D24E1050EDBCFE8F20201E8517D
:10144000020D040EF3CFDBFFF4C2E6FFDBCFE6FFB5
:1014500073EC14F0E552E552040EDB2AF5C2E6FF08
:10146000DBCFE6FF73EC14F0E552E552E8C2E6FF8D
:10147000F40EE66E73EC14F0E552E55205D002016D
:10148000F42B000EF5237CD70201E405070DF35081
:10149000DF6EDF50EA6A040FE96E020EEA22EFCF38
:1014A000F4F2DF2ADF50EA6A040FE96E020EEA2244
:1014B000EFCFF5F2E851E824DF6EDFCFE6FF60EC16
:1014C00014F0E552E76E070EE7CFDBFFDF2ADFCF30
:1014D000E6FF60EC14F0E552E76E080EE7CFDBFFA5
:1014E000070EDBCF10F0080EDBCF11F00201F45134
:1014F000105CF551115810E2200EF36E0B0EF3CF75
:10150000DBFFA10EF36E0C0EF3CFDBFF070EF36EC5
:101510000D0EF3CFDBFF13D10B0EDB6A0C0EDB6A73
:101520000D0EDB6AF4C2F8F2F5C2F9F2070EDBCF5A
:1015300010F0080EDBCF11F002011050F85D1150D1
:10154000F95945E2F8C210F0F9C211F0030ED89033
:1015500011321032E804FBE10E0E10C0DBFF690E01
:10156000E66E000EE66E010EE66EE66A0E0EDBCF4C
:10157000E6FFE66A000EE66EE66A79EC12F0F56EBA
:10158000080EE15EF55069C0DFFF070E0201F81595
:10159000070B04E0DF42DF9EE806FCE1000EDF926D
:1015A000DF94DF96DF98DF9ADF9CDF9EDF500AE151
:1015B000D9500B0FE96EDACFEAFFEE52080EEE2695
:1015C000000EEE220201F82B000EF923AFD7F86BC4
:1015D000F96B000EF85D100EF95961E2F60EE66E39
:1015E000020EE66E020EE66EE66AF8C2E6FFF9C289
:1015F000E6FF070EDBCFE6FF080EDBCFE6FF79EC58
:1016000012F0F56E080EE15EF5500201FF0EF65D78
:10161000FF0EF7590AE2D9500B0FE96EDACFEAFF55
:10162000EE2A000EEE22EE2234D0FE0E0201F81950
:1016300002E10F0EF91901E132D0F60EE66E020E4C
:10164000E66E020EE66EE66A116AF825106EF95132
:10165000112210C0E6FF11C0E6FF070EDBCFE6FF48
:10166000080EDBCFE6FF79EC12F0F56E080EE15EB6
:10167000F5500201F61D01E1F71D02E110D009D07D
:10168000D9500B0FE96EDACFEAFFEE2A000EEE22F8
:10169000EE22020E0201F827000EF9239AD7030E5C
:1016A000DB50116A000F106E010E1122126A11BE7A
:1016B0001268D9500B0FE96EDACFEAFFEE50105CDA
:1016C000EE501158EE50125834E2030EDB50116AFE
:1016D000000F106E010E1122126A11BE1268D9504D
:1016E0000B0FE96EDACFEAFF1050EE5E1150EE5AA2
:1016F0001250EE5A030EDBCF10F0116A126AD95065
:101700000B0FE96EDACFEAFF10C00AF011C00BF040
:1017100012C00CF0EECF05F0EECF06F0EFCF07F0E1
:10172000FFEC26F007C0EDFF06C0EDFF05C0EFFFA0
:1017300006D00B0EDB6A0C0EDB6A0D0EDB6A0B0E9D
:10174000DBCF10F00C0EDBCF11F00D0EDBCF12F063
:1017500010501110121001E1DDD00B0EDB50020110
:10176000E5270C0EDB50E6230D0EDB50E723E405E6
:10177000070DF350040FDF6E020EDB6A030EF36EEB
:10178000020EDBCFF4FFF350F45C60E2020EDB509C
:10179000DF24E76E010EE7CFDBFFD9500B0F106E91
:1017A000DACF11F0020EDB500F011024E96E000EAB
:1017B0001120EA6EEF50E66E010EDB50EA6A040F6C
:1017C000E96E020EEA22E552E750EF6E020EDBCF21
:1017D000E6FF100EDF24E552E724E76E010EE7CFA7
:1017E000DBFFD9500B0F106EDACF11F0020EDB5079
:1017F0001024E96E000E1120EA6E040EEFCFDBFF1D
:10180000DBCFE6FF010EDBCFE6FF73EC14F0E55211
:10181000E552020EDB50F10FE76E010EE7CFDBFF62
:10182000020EDB50EA6AE50FE96E020EEA22040EB0
:10183000EFCFDBFFDBCFE6FF010EDBCFE6FF73EC84
:1018400014F0E552E552020EDB2A98D70B0EDBCFDF
:1018500010F00C0EDBCF11F00D0EDBCF12F0070EE7
:101860001116126A0F0E10C0DBFF100E11C0DBFF45
:10187000D9500F0FE96EDACFEAFF000ED880EE5490
:10188000000EED5446E20F0EDBCF10F0100EDBCF52
:1018900011F01006000E115AD890103611360F0EA6
:1018A00010C0DBFF100E11C0DBFFF60EE66E020E5D
:1018B000E66E020EE66EE66A0F0EDBCFE6FF100E56
:1018C000DBCFE6FF040EE66EE66A79EC12F0F56E09
:1018D000080EE15EF5500201E405070DF350DF6EDE
:1018E000040EF6C2DBFFDBCFE6FF120EDF24E66E4E
:1018F00073EC14F0E552E552040EF7C2DBFFDBCFC8
:10190000E6FF120EDF24010FE66E73EC14F0E552D1
:10191000E5523AD00201E405070DF350EA6A040FDC
:10192000E96E020EEA22EFCFF4F2E405070DF32888
:10193000EA6A040FE96E020EEA22EFCFF5F2F4C272
:10194000F8F2F5C2F9F20A0EE66EE66A0EEC04F061
:10195000E552E552F8C2E6FFF9C2E6FFC0EC13F02B
:10196000E552E552DF6E0A0EE66EE66A0EEC04F012
:10197000E552E5520201E407E4C2E6FFF00EE66E2E
:1019800073EC14F0E552E5520201010EEA6FE66EC7
:10199000F60EE66E73EC14F0E552E552F56E130E9A
:1019A000E15C02E2E16AE552E16EF550E552E7CF13
:1019B000D9FF1200D9CFE6FFE1CFD9FF070EE1260C
:1019C000030EDE6EDD6ADECF10F0DDCF11F0090E02
:1019D000105C000E115813E25EEC04F0E66EDECFF0
:1019E000E9FFDDCFEAFF600EE926000EEA22E552AC
:1019F000E750EF6EDF2A010E01E3DB2AE4D7050E84
:101A000064C0DBFF060E65C0DBFF66C0F4F267C092
:101A1000F5F2B2EC08F0020EDB6A040EF36E030E70
:101A2000F3CFDBFF0201ED51000807E2020EDB6A93
:101A3000080EF36E030EF3CFDBFF020EDBCF10F0C8
:101A4000030EDBCF11F002011050F45D1150F55977
:101A500001E3A0D0D950050FE96EDACFEAFF000EFE
:101A6000D880EE54000EED5401E394D0F4C210F08F
:101A7000F5C211F0030ED89011321032E804FBE1E8
:101A8000040E10C0DBFF690EE66E000EE66E010E5E
:101A9000E66EE66A040EDBCFE6FFE66A000EE66E4F
:101AA000E66A79EC12F0F56E080EE15EF550000181
:101AB0006951DE6EDD6A070E0201F415106E116ABF
:101AC000D9CFE9FFDACFEAFF10500F0B06E0EC5256
:101AD000D890ED32EF32E806FAE1010EDE16DD6A4B
:101AE000D9CFE9FFDACFEAFFEE50ED104EE1DE6A22
:101AF000DD6ADECF10F0DDCF11F0400E105C000E7D
:101B0000115843E2D950050FE96EDACFEAFF000E13
:101B1000D880EE54000EED5438E2DECFF8F2DDCF7F
:101B2000F9F2060E0201D890F837F937E806FBE122
:101B3000690EE66E000EE66E400EE66EE66AF8C2CC
:101B4000E6FFF9C2E6FFF4C2E6FFF5C2E6FF79EC74
:101B500012F0F56E080EE15EF550400EE66E36ECC2
:101B600005F0E552050EDB06060E01E2DB06D95054
:101B7000050FE96EDACFEAFFEE50ED1001E105D076
:101B8000DF2A010E01E3DB2AB4D70201F42B000E99
:101B9000F52353D7F56E070EE15C02E2E16AE552E8
:101BA000E16EF550E552E7CFD9FF1200D9CFE6FF3D
:101BB000E1CFD9FF070EE126030EDE6EDD6ADECF30
:101BC00010F0DDCF11F0090E105C000E115813E279
:101BD0005EEC04F0E66EDECFE9FFDDCFEAFF600EDB
:101BE000E926000EEA22E552E750EF6EDF2A010EE9
:101BF00001E3DB2AE4D7050E64C0DBFF060E65C0F7
:101C0000DBFF66C0F4F267C0F5F2B2EC08F0020E3A
:101C1000DB6A040EF36E030EF3CFDBFF0201ED511E
:101C2000000807E2020EDB6A080EF36E030EF3CF24
:101C3000DBFF020EDBCF10F0030EDBCF11F0020151
:101C40001050F45D1150F55976E2050EDBCF12F01D
:101C5000060EDBCF13F0400E125C000E13586BE241
:101C6000F4C210F0F5C211F0030ED8901132103208
:101C7000E804FBE1040E10C0DBFF690EE66E000E07
:101C8000E66E010EE66EE66A040EDBCFE6FFE66A5C
:101C9000000EE66EE66A79EC12F0F56E080EE15E73
:101CA000F55000016951DE6EDD6A070E0201F41580
:101CB000106E116AD9CFE9FFDACFEAFF10500F0B8F
:101CC00006E0EC52D890ED32EF32E806FAE1010E70
:101CD000DE16DD6AD9CFE9FFDACFEAFFEE50ED106C
:101CE00025E1050EDBCFF8F2060EDBCFF9F202019B
:101CF000D890F837F937E806FBE1690EE66E000E7A
:101D0000E66E400EE66EE66AF8C2E6FFF9C2E6FF4E
:101D1000F4C2E6FFF5C2E6FFECDBF56E080EE15E0D
:101D2000F550400EE66E36EC05F0E5520201F42B5C
:101D3000000EF523E5D0020EDBCF10F0030EDBCF53
:101D400011F01050F45D1150F55959E2050EDBCF3A
:101D500012F0060EDBCF13F0400E125C000E13588B
:101D60004EE3F4C210F0F5C211F0030ED890113218
:101D70001032E804FBE1040E10C0DBFF690EE66ED2
:101D8000000EE66E010EE66EE66A040EDBCFE6FF9D
:101D9000E66A000EE66EE66AACDBF56E080EE15E02
:101DA000F55000016951DE6EDD6A070E0201F4157F
:101DB000106E116AD9CFE9FFDACFEAFF10500F0B8E
:101DC00006E0EC52D890ED32EF32E806FAE1010E6F
:101DD000DE16DD6AD9CFE9FFDACFEAFFEE50ED106B
:101DE00009E1D950050FE96EDACFEAFF400EEE5E49
:101DF000000EED5A0201F42B000EF5239CD7020EC3
:101E0000DBCF10F0030EDBCF11F01050F45D11505A
:101E1000F55976E2050EDBCF12F0060EDBCF13F09C
:101E2000400E125C000E13586BE2F4C210F0F5C2C3
:101E300011F0030ED89011321032E804FBE1040EC9
:101E400010C0DBFF690EE66E000EE66E010EE66E58
:101E5000E66A040EDBCFE6FFE66A000EE66EE66A8F
:101E600048DBF56E080EE15EF55000016951DE6E4B
:101E7000DD6A070E0201F415106E116AD9CFE9FF71
:101E8000DACFEAFF10500F0B06E0EC52D890ED329B
:101E9000EF32E806FAE1010EDE16DD6AD9CFE9FF7E
:101EA000DACFEAFFEE50ED1026E1050EDBCFF8F2B7
:101EB000060EDBCFF9F20201D890F837F937E806C1
:101EC000FBE1690EE66E000EE66E400EE66EE66A17
:101ED000F8C2E6FFF9C2E6FFF4C2E6FFF5C2E6FF8C
:101EE00008DBF56E080EE15EF550400EE66E36EC4E
:101EF00005F0E55205D00201F42B000EF5237FD743
:101F0000F56E070EE15C02E2E16AE552E16EF55022
:101F1000E552E7CFD9FF1200D9CFE6FFE1CFD9FFD5
:101F20000E0EE126060EDB6A040EF36E070EF3CFEB
:101F3000DBFF0201ED0507E1060EDB6A080EF36E1A
:101F4000070EF3CFDBFF0A0E64C0DBFF0B0E65C08C
:101F5000DBFF0C0E66C0DBFF0D0E67C0DBFF010E62
:101F6000DB6A080EDB6A090EDB6AD9500A0FE96EDC
:101F7000DACFEAFFEE50ED1001E0BDD0D9500C0FE2
:101F8000E96EDACFEAFFFF0EEE1802E1FF0EED1860
:101F900001E0B1D0000EE66EE66AF2DBE552E552F2
:101FA0000001636F050EF36E040EF3CFDBFF050E29
:101FB000DB6A040EDBCF10F0050EDBCF11F0060E4E
:101FC000DBCF12F0070EDBCF13F01250105C135072
:101FD000115857E2040EDBCFE6FF050EDBCFE6FF1C
:101FE000CFDBE552E552DF6E010EDBCFF3FFF3905E
:101FF000F342F3CFDBFFDF5007E0010EDB8E080E6C
:10200000DB2A090E01E3DB2A070EE76E040EDBCFA5
:1020100010F0050EDBCF11F0E7501016116A070E15
:10202000101801E1115027E1040EDBCF10F0050E6E
:10203000DBCF11F0030ED89011321032E804FBE12F
:10204000030E10C0DBFF010EDBCF69F0690EE66EF8
:10205000000EE66E010EE66EE66A030EDBCFE6FFCB
:10206000E66A000EE66EE66AF4DAF56E080EE15EE8
:10207000F550010EDB6A040EDB2A050E01E3DB2AB4
:1020800098D7080EDBCF06F0090EDBCF07F00C0E59
:1020900006C0DBFF0D0E07C0DBFF060EDBCF10F026
:1020A000070EDBCF11F0030ED89011321032E80486
:1020B000FBE1040E10C0DBFF050E11C0DBFF0C0EB0
:1020C000DBCF69F00D0EDBCF6AF0690EE66E000E15
:1020D000E66E020EE66EE66A040EDBCFE6FF050E44
:1020E000DBCFE6FF000EE66EE66AB3DAF56E080EA9
:1020F000E15EF5504ED0E851E824DF6EDFCFE6FF19
:10210000DFDBE552E76E0C0EE7CFDBFFDF2ADFCF28
:10211000E6FFD6DBE552E76E0D0EE7CFDBFF010EE3
:10212000E76E0C0EDBCF10F00D0EDBCF11F0E75099
:102130001026000E1122060E10C0DBFF070E11C084
:10214000DBFF050EF36E040EF3CFDBFF050EDB6A3B
:10215000040EDBCF10F0050EDBCF11F0060EDBCF47
:1021600012F0070EDBCF13F01250105C1350115811
:1021700010E2040EDBCFE6FF050EDBCFE6FF00DB4F
:10218000E552E552DF6E040EDB2A050E01E3DB2A81
:10219000DFD70A0EE66EE66A0EEC04F0E552E55271
:1021A000DF6ADF50106E116AD890115004E6F60E07
:1021B000105C000E115808E2E66ADFCFE6FF93DB01
:1021C000E552E552DF2AEDD7010EE66EF60EE66E19
:1021D0008ADBE552E552F56E0E0EE15C02E2E16A41
:1021E000E552E16EF550E552E7CFD9FF1200D9CFA5
:1021F000E6FFE1CFD9FF020EE126030EDF6E090EE6
:10220000DF5C0EE25EEC04F0E66EDF50EA6A600F1F
:10221000E96E000EEA22E552E750EF6EDF2AEFD7B3
:1022200000016351400D010EF3CFDBFFDF6A400E6A
:10223000DF5C13E2010EDB50DF24E66E41DBE5528A
:10224000E66E090EDF24EA6A600FE96E000EEA22EC
:10225000E552E750EF6EDF2AEAD7400EE66E36EC25
:1022600005F0E552F56E020EE15C02E2E16AE5522C
:10227000E16EF550E552E7CFD9FF1200D9CFE6FF66
:10228000E1CFD9FF030EE126DF6E4A0EDF5C0EE2DE
:102290005EEC04F0E66EDF50EA6A600FE96E000E55
:1022A000EA22E552E750EF6EDF2AEFD700016351D3
:1022B000E66ED950010FE96EDACFEAFFE552E7503A
:1022C000EE6EED6AD950010FE96EDACFEAFF060E25
:1022D000D890EE36ED36E806FBE1DF6A400EDF5CB3
:1022E0001CE2090EDF24EA6A600FE96E000EEA22A2
:1022F000EF50E66EDF50E76E010EDBCF10F0020EFE
:10230000DBCF11F0E7501026000E11221050E66EC0
:10231000EADAE552E552DF2AE1D7080EE66E6EEC06
:1023200004F0E552F56E030EE15C02E2E16AE5526B
:10233000E16EF550E552E7CFD9FF1200D9CFE6FFA5
:10234000E1CFD9FF020EE126DF6A080EDF5C10E262
:102350008192FE0EDBAE02D0818401D08194818215
:10236000DBCFF3FFF39EF346F3CFDBFFDF2AEDD79E
:10237000F56E020EE15C02E2E16AE552E16EF550B3
:10238000E552E7CFD9FF1200D9CFE6FFE1CFD9FF61
:10239000030EE126010EDB6ADF6A080EDF5C0DE248
:1023A0008192010EDBCFF3FFF39EF346F3CFDBFF09
:1023B00081B6DB2A8182DF2AF0D7010EDB50F56E71
:1023C000030EE15C03E200D0E16AE552E16EF550F4
:1023D000E552E7CFD9FF1200D9CFE6FFE1CFD9FF11
:1023E00081900000000000000000000000000000DC
:1023F0000000060EE66EA2DFE552000000000000BD
:1024000000008180E552E7CFD9FF1200D9CFE6FF67
:10241000E1CFD9FFE652DF6A8190000000000000A2
:1024200000000000000000000000050EE66E86DFE0
:10243000E552AADFDF6E000000000000000081808E
:10244000DF5000D0E552E552E7CFD9FF1200D9CFD7
:10245000E6FFE1CFD9FFE652FD0EDBCFE6FFFE0E31
:10246000DBCFE6FFD3DFE552E552DF6EDFAE1ED0F5
:10247000FD0EDBCFE6FFFE0EDBCFE6FFADDFE55264
:10248000E552819000000000000000000000000004
:1024900000000000010EE66E51DFE552E66A4EDFF5
:1024A000E55200000000000000008180FD0EDBCF3F
:1024B000E6FFFE0EDBCFE6FF8FDFE552E5528190AF
:1024C000000000000000000000000000000000000C
:1024D000010EE66E33DFE552E66A30DFE5520000BA
:1024E0000000000000008180E552E552E7CFD9FFEF
:1024F0001200D9CFE6FFE1CFD9FF030EE12681908C
:1025000000000000000000000000000000000000CB
:10251000FD0EDBCF10F0FE0EDBCF11F0126A10C003
:10252000DFFF010E11C0DBFF020E12C0DBFFD9CFAF
:10253000E9FFDACFEAFF0C0EE76ED890EF36010E16
:10254000EB36020EEB36E706F8E1FB0EDBCF10F0C0
:10255000FC0EDBCF11F0126AD9CFE9FFDACFEAFF28
:102560001050EE261150EE221250EE22030EE66EAF
:10257000E5DEE552020EDBCFE6FFE0DEE552010EBE
:10258000DBCFE6FFDBDEE552DFCFE6FFD7DEE5524D
:10259000F90EDBCF10F0DB06FA0EDBCF11F001E213
:1025A000DB061050111011E0EFDEE66EF70EDBCF08
:1025B000E9FFF80EDBCFEAFFE552E750EF6EF70ECA
:1025C000DB2AF80E01E3DB2AE3D70000000000005D
:1025D00000008180F56E030EE15C02E2E16AE552E3
:1025E000E16EF550E552E7CFD9FF1200D9CFE6FFF3
:1025F000E1CFD9FFE652040EDF6E819000000000AB
:102600000000000000000000000000009F0EE66EC9
:1026100095DEE552DF50DF06000911E0B5DEE66E1B
:10262000FB0EDBCFE9FFFC0EDBCFEAFFE552E75004
:10263000EF6EFB0EDB2AFC0E01E3DB2AEBD700007A
:102640000000000000008180E552E552E7CFD9FF8D
:102650001200D9CFE6FFE1CFD9FF040EE126FD0E2F
:10266000DBCFE6FFFE0EDBCFE6FFB6DEE552E5523E
:102670008190000000000000000000000000000049
:102680000000FD0EDBCF10F0FE0EDBCF11F0126A62
:10269000010E10C0DBFF020E11C0DBFF030E12C0E3
:1026A000DBFFD950010FE96EDACFEAFF0C0EE76EBF
:1026B000D890EF36010EEB36020EEB36E706F8E166
:1026C000FB0EDBCF10F0FC0EDBCF11F0126AD950FD
:1026D000010FE96EDACFEAFF1050EE261150EE221C
:1026E0001250EE22020EE66E29DEE552030EDBCF1B
:1026F000E6FF24DEE552020EDBCFE6FF1FDEE552E9
:10270000010EDBCFE6FF1ADEE552F90EDBCF10F04B
:10271000DB06FA0EDBCF11F001E2DB0610501110E0
:1027200017E0F70EDBCFE9FFF80EDBCFEAFFEF5043
:10273000E66E04DEE5520C0EDF6EDF50000802E2AA
:10274000DF06FBD7F70EDB2AF80E01E3DB2ADDD725
:1027500000000000000000008180240EDF6EDF50CA
:10276000000802E2DF06FBD7F56E040EE15C02E230
:10277000E16AE552E16EF550E552E7CFD9FF12006C
:10278000D9CFE6FFE1CFD9FF050EE126DF6A0A0EB9
:10279000E66EE66A0EEC04F0E552E552FD0EDBCF84
:1027A00006F0FE0EDBCF07F0030E06C0DBFF040EC3
:1027B00007C0DBFFFD0EDBCFE6FFFE0EDBCFE6FF43
:1027C0000BDEE552E55281900000000000000000A1
:1027D0000000000000000000030EDBCF10F0040E2C
:1027E000DBCF11F00001116A0F0E10161038106ABD
:1027F000F00B116E010E10C0DBFF020E11C0DBFFEB
:10280000200EE66E9BDDE552030EDBCF10F0040ECA
:10281000DBCF11F0040ED89011321032E804FBE146
:102820001050E66E8BDDE552010EDBCF10F0020E8C
:10283000DBCF11F011C010F0116A1050E66E7EDD92
:10284000E552010EDBCFE6FF79DDE5520000000026
:102850000000000081800A0EE66EE66A0EEC04F0CD
:10286000E552E552FD0EDBCFE6FFFE0EDBCFE6FFC5
:10287000CDDDE552E552DF6E000EDB92DB94DB9698
:10288000DB98DB9ADB9CDB9EDF50ECE1FD0EDBCFBF
:10289000E6FFFE0EDBCFE6FFB9DDE552E552DF6E67
:1028A000200EDF16DF5000D0F56E050EE15C02E26F
:1028B000E16AE552E16EF550E552E7CFD9FF12002B
:1028C000D9CFE6FFE1CFD9FFE652FE0EDB50A96E6D
:1028D000010EA66EA850DF6EDF5000D0E552E55223
:1028E000E7CFD9FF1200D9CFE6FFE1CFD9FFFD0E28
:1028F000DBCFE6FFFE0EDBCFE6FF11D8E552E55257
:10290000A6A609D0FD0EDBCFE6FFFE0EDBCFE6FF6D
:1029100006D8E552E552E552E7CFD9FF1200D9CFEC
:10292000E6FFE1CFD9FFFE0EDB50A96EFD0EDB50B6
:10293000A86E040EA66E550EA76EAA0EA76EA682EE
:10294000A6B2FED7A694E552E7CFD9FF1200D9CFA1
:10295000E6FFE1CFD9FF040EE126020EDB6A030E8B
:10296000DB6A8182DF6A110EDF5C1EE2000000007C
:102970008192020EDBCF10F0030EDBCF11F0D89066
:1029800010361136020E10C0DBFF030E11C0DBFF44
:1029900081A607D0D950020FE96EDACFEAFFEE80A8
:1029A000ED528182DF2ADFD78192020EDBCF10F059
:1029B000030EDBCF11F010C0F3FF11C0F4FF00D005
:1029C000F56E040EE15C02E2E16AE552E16EF5505B
:1029D000E552E7CFD9FF1200D9CFE6FFE1CFD9FF0B
:1029E0008192FE0EDBAE02D0818401D0819481926F
:1029F000000000008182FE0EDB50E824800B02E024
:102A0000818401D081948192000000008182FE0EB9
:102A1000DB50040DF350800B02E0818401D08194DF
:102A20008192000000008182FE0EDB50080DF35001
:102A3000800B02E0818401D081948192000000002B
:102A40008182FE0EDB38F00B800B02E0818401D026
:102A500081948192000000008182FE0EDB50200DE7
:102A6000F350800B02E0818401D0819481920000B8
:102A700000008182FE0EDB50400DF350800B02E01F
:102A8000818401D081948192000000008182FE0E39
:102A9000DB50800DF350800B02E0818401D08194E3
:102AA0008192000000008182000000008192E552C6
:102AB000E7CFD9FF1200839A000000000000000059
:102AC0000000E66889DFE552E66886DFE552E668E1
:102AD00083DFE552E66880DFE552E6687DDFE55298
:102AE000E6687ADFE5520000000000000000000008
:102AF000838A0A0EE66EE66A0EEC04F0E552E552B1
:102B00001200960EE66E68DFE552010EE66E3FECAF
:102B100004F0E5521CDFF3CFF6F2F4CFF7F2000039
:102B200000001200D60EE66E57DFE552010EE66E8B
:102B30003FEC04F0E5520BDFF3CFF6F2F4CFF7F2FF
:102B4000000000001200D9CFE6FFE1CFD9FFE65226
:102B5000839A00000000000000000000D2DF0A0E8F
:102B6000E66E3FEC04F0E5520201006B016B026B74
:102B7000036BDF6ADF50106E116AD890115004E6C3
:102B8000800E105C000E115820E2960EE66E24DFD7
:102B9000E552020EE66E3FEC04F0E552D8DEF3CFCC
:102BA000F6F2F4CFF7F20A0EE66E3FEC04F0E552CF
:102BB0000201F651020100270201F751020101232F
:102BC000000E02230323DF2AD5D7070E1F0B00C2F6
:102BD00000F201C201F202C202F203C203F208E0F3
:102BE0000201D8900333023301330033E806F9E1E0
:102BF00000C2F6F201C2F7F200000000000000007F
:102C00000000838AE552E552E7CFD9FF1200D9CF01
:102C1000E6FFE1CFD9FFE652839A000000000000F2
:102C2000000000007FDF0A0EE66E3FEC04F0E55284
:102C30000201006B016B026B036BDF6A400EDF5C0D
:102C400020E2D60EE66EC8DEE552020EE66E3FECDE
:102C500004F0E5527CDEF3CFF6F2F4CFF7F20A0E81
:102C6000E66E3FEC04F0E5520201F6510201002746
:102C70000201F75102010123000E02230323DF2A80
:102C8000DDD7060E1F0B00C200F201C201F202C224
:102C900002F203C203F208E00201D89003330233C8
:102CA00001330033E806F9E100C2F6F201C2F7F29F
:102CB00000000000000000000000838AE552E55299
:102CC000E7CFD9FF1200D9CFE6FFE1CFD9FF030E3E
:102CD000E126839A0000000000000000000011DFE0
:102CE0000A0EE66E3FEC04F0E5520201006B016B48
:102CF000026B036BDF6ADF50106E116AD8901150BF
:102D000004E6800E105C000E11584AE2020EDB6AE7
:102D10000A0EE66E3FEC04F0E55284808482030ED6
:102D200083121C0EE66E3FEC04F0E552FC0E831697
:102D30008490740E0001645DE840E8403F0BE76E4C
:102D4000010EE7CFDBFF010EDBCFE6FF3FEC04F027
:102D5000E552A60EE66E40DEE552020EE66E3FEC50
:102D600004F0E552F4DDF3CFF6F2F4CFF7F20A0EF9
:102D7000E66E3FEC04F0E5520201F6510201002735
:102D80000201F75102010123000E02230323020E68
:102D9000E66EE66A0EEC04F0E552E552DF2AABD7A8
:102DA000070E1F0B00C200F201C201F202C202F2C2
:102DB00003C203F208E00201D89003330233013367
:102DC0000033E806F9E100C2F6F201C2F7F20000B2
:102DD0000000000000000000838AF56E030EE15C35
:102DE00002E2E16AE552E16EF550E552E7CFD9FF24
:102DF0001200D9CFE6FFE1CFD9FFE6520A0EE66E08
:102E00003FEC04F0E552280ED56E0201006B016B19
:102E1000026B036BDF6A080EDF5C0EE21DD8020155
:102E2000F651020100270201F75102010123000EB1
:102E300002230323DF2AEFD7030E1F0B08E0020152
:102E4000D8900333023301330033E806F9E1E55249
:102E5000E552E7CFD9FF1200D9CFE6FFE1CFD9FF86
:102E6000E652640EDF6E0A0EE66E3FEC04F0E552A9
:102E700084828382280ED56ED76AD66AD58EF29464
:102E80008480060EE66E3FEC04F0E5528392140E49
:102E9000E66E3FEC04F0E5528492020EE66E3FECE3
:102EA00004F0E552DF06DF5001E102D084A4FAD736
:102EB000D59ED6CFF6F2D7CFF7F284908482020E59
:102EC000E66EE66A0EEC04F0E552E552E552E55294
:102ED000E7CFD9FF1200D9CFE6FFE1CFD9FFE65205
:102EE000839A000000000000000000001BDE010EBD
:102EF000E66E3FEC04F0E5520201006B016B026BE1
:102F0000036BDF6A400EDF5C20E2E60EE66E64DDF6
:102F1000E552010EE66E3FEC04F0E55218DDF3CF0A
:102F2000F6F2F4CFF7F20A0EE66E3FEC04F0E5524B
:102F30000201F651020100270201F75102010123AB
:102F4000000E02230323DF2ADDD7060E1F0B00C26B
:102F500000F201C201F202C202F203C203F208E06F
:102F60000201D8900333023301330033E806F9E15C
:102F700000C2F6F201C2F7F20000000000000000FB
:102F80000000838AE552E552E7CFD9FF1200D9CF7E
:102F9000E6FFE1CFD9FF040EE126020EDB6ADF6A0D
:102FA000080EDF5C22E28192080EF36E030EF3CF6F
:102FB000DBFFDB50000803E2030EDB06FAD7818259
:102FC000080EF36E030EF3CFDBFFDB50000803E2C5
:102FD000030EDB06FAD7020EDB50020D020EF3CF12
:102FE000DBFF81B6DB80DF2ADBD7020EDB50F56E1C
:102FF000040EE15C03E200D0E16AE552E16EF550B7
:10300000E552E7CFD9FF1200D9CFE6FFE1CFD9FFD4
:10301000020EE126DF6A080EDF5C27E2FE0EDB50BF
:10302000DF5206E0DFCFF3FFE846FE0BF306FCE1DC
:10303000800B02E0818401D081948192DE52080EDF
:10304000DD6E010EDB50000803E2010EDB06F9D74E
:103050008182DE52080EDD6E010EDB50000803E2B5
:10306000010EDB06F9D7DF2AD6D7000000000000EA
:1030700000000000F56E020EE15C02E2E16AE5523A
:10308000E16EF550E552E7CFD9FF1200839A0000B8
:103090000000000000000000000000000000000030
:1030A0000000000000000000E668AEDFE552E668C0
:1030B000ABDFE552E668A8DFE552E668A5DFE5523A
:1030C000E668A2DFE552E6689FDFE55200000000F7
:1030D000000000000000838A160EE66EE66A0EEC21
:1030E00004F0E552E5521200839A0000000000004F
:1030F00000000000000000000000000000000000D0
:1031000000000000080EE66E7FDFE552E66A7CDF15
:10311000E552010EE66E78DFE552100EE66E74DFC2
:10312000E552ABC0E6FF70DFE552120EE66E6CDFD3
:10313000E5520A0EE66EE66A0EEC04F0E552E55240
:10314000580EE66E61DFE55222DF0201026F1FDFDB
:103150000201016F1CDF0201006F0000000000008F
:103160000000000000000000838A1200839A000023
:10317000000000000000000000000000000000004F
:103180000000000000000000100EE66E3DDFE5527A
:10319000110EE66E39DFE552010EE66E35DFE552BF
:1031A000080EE66E31DFE552E66A2EDFE552010ECB
:1031B000E66E2ADFE5520A0EE66EE66A0EEC04F0D1
:1031C000E552E552580EE66E1FDFE552E0DE0201E1
:1031D000026FDDDE0201016FDADE0201006F000026
:1031E000000000000000000000000000838A1200C0
:1031F000080EE66E09DFE552E66A06DFE552080EC4
:10320000E66E02DFE552100EE66EFEDEE552ABC062
:10321000E6FFFADEE552120EE66EF6DEE552690EC4
:10322000E66EE66A0EEC04F0E552E552690EE66ED3
:10323000E66A0EEC04F0E552E552580EE66EE4DE66
:10324000E5520201006B016B026B036BA0DE020111
:10325000026F9DDE0201016F9ADE0201006F010E16
:103260001F0B08E00201D8900037013702370337FF
:10327000E806F9E10201036B080E1F0B08E00201EA
:10328000D8900333023301330033E806F9E1020139
:10329000EE51020100270201EF5102010123000E4D
:1032A000022303231200080EE66EAEDEE552E66A44
:1032B000ABDEE552070EE66EA7DEE552100EE66EB7
:1032C000A3DEE552100EE66E9FDEE552010EE66EBD
:1032D0009BDEE5527C0EE66EE66A0EEC04F0E552EB
:1032E000E552580EE66E90DEE5520201006B016B6E
:1032F000026B036B4CDE0201026F49DE0201016FBB
:1033000046DE0201006F1200080EE66E7DDEE55219
:10331000E66A7ADEE552070EE66E76DEE552100EBC
:10332000E66E72DEE552100EE66E6EDEE552E66A7D
:103330006BDEE552800EE66EE66A0EEC04F0E552B6
:10334000E552580EE66E60DEE55221DE0201F76FAF
:103350001EDE0201F66FC7EF17F0080EE66E54DEB0
:10336000E552E66A51DEE552070EE66E4DDEE552A5
:10337000100EE66E49DEE552100EE66E45DEE552B1
:10338000E66A42DEE552800EE66EE66A0EEC04F076
:10339000E552E552580EE66E37DEE552F8DD0201E1
:1033A000F76FF5DD0201F66FC7EF17F00E0EC16E75
:1033B000C26AA10EC06EC280080EE66EE66A0EEC0E
:1033C00004F0E552E552C282000000000000C2B2E3
:1033D000FED7C3CFF6F2C4CFF7F21200839A0000F3
:1033E00000000000000000000000000000000000DD
:1033F000000000000000000056DF01C262F002C2BF
:1034000063F0F6DE00C260F001C261F0000000006F
:1034100000000000000000000000838A1200839A70
:10342000000000000000000000000000000000009C
:103430000000000000000000000035DF01C262F063
:1034400002C263F0D5DE00C260F001C261F000008C
:10345000000000000000000000000000838A12004D
:1034600007EC16F000C262F001C263F0A3EC15F0A5
:1034700000C260F001C261F0BCDC00C264F001C2B5
:1034800065F021DC00C266F001C267F01200839A89
:10349000000000000000000000000000000000002C
:1034A00000000000000000000000140EE66EE66A56
:1034B0000EEC04F0E552E5528380FA0EE66EE66A01
:1034C0000EEC04F0E552E5528390FA0EE66EE66AE1
:1034D0000EEC04F0E552E5528380740EE66EE66A67
:1034E0000EEC04F0E552E552DEDE01C262F002C2EB
:1034F00063F083901E0EE66EE66A0EEC04F0E55271
:10350000E55276DE00C260F001C261F08380FA0EFF
:10351000E66EE66A0EEC04F0E552E55283906A0E20
:10352000E66EE66A0EEC04F0E552E552EDDEF6C218
:1035300064F0F7C265F0060EE66EE66A0EEC04F083
:10354000E552E55283806A0EE66EE66A0EEC04F000
:10355000E552E55202DFF6C266F0F7C267F0060EEA
:10356000E66EE66A0EEC04F0E552E5528390000048
:10357000000000000000000000000000838A12002C
:10358000D9CFE6FFE1CFD9FF0D0EE126060EDB6AAB
:10359000070EDB6A040EDB6AF36E050EF3CFDBFF6A
:1035A0000B0EF6C2DBFF0C0EF7C2DBFF0201ED5182
:1035B000000807E2040EDB6A080EF36E050EF3CF77
:1035C000DBFF030EDB6A090EF6C2DBFF0A0EF7C251
:1035D000DBFFEC51090A1CE0010A14E0090A0CE0C7
:1035E000010A05E0020EF36EF3CFDBFF17D0020EE7
:1035F000F36EF3CFDBFF12D0030EF36E020EF3CFA8
:10360000DBFF0CD0040EF36E020EF3CFDBFF06D00F
:10361000040EF36E020EF3CFDBFF00D0040EE66E55
:10362000E66A06EC12F0E552E552DF6E0C0EDF148E
:103630000EE0040EE66EE66A27EC12F0E552E55263
:10364000020EE66EE66A0EEC04F0E552E552040E58
:10365000E66EE66A06EC12F0E552E552DF6E0C0EFD
:10366000DF140EE0040EE66EE66A27EC12F0E55277
:10367000E552020EE66EE66A0EEC04F0E552E55203
:10368000090EDBCFF6F20A0EDBCFF7F2F60EE66E8E
:10369000020EE66E020EE66EE66AFAC2E6FFFBC2B4
:1036A000E6FF040EE66EE66A29EC13F0F56E080EEE
:1036B000E15EF550120EE66EE66A0EEC04F0E5529D
:1036C000E552D950090FE66E000EDA20E66E020EC2
:1036D000E66EE66AFAC2E6FFFBC2E6FF040EE66E9D
:1036E000E66A79EC12F0F56E080EE15EF550F6C26E
:1036F00010F0F7C211F0090EDB50101803E10A0EAA
:10370000DB5011181BE0F60EE66E020EE66E020E9E
:10371000E66EE66AFAC2E6FFFBC2E6FF040EE66E5C
:10372000E66A29EC13F0F56E080EE15EF550120E14
:10373000E66EE66A0EEC04F0E552E552020E020176
:10374000FA27000EFB23FF0EFA15106E0F0EFB1565
:10375000116E060E10C0DBFF070E11C0DBFFD95043
:10376000060FE96EDACFEAFFEE50ED1021E1070E09
:103770000201E403F350120FDF6EF6C2E6FFDFCF63
:10378000E6FF73EC14F0E552E552DF2AF7C2E6FFDC
:10379000DFCFE6FF73EC14F0E552E552040EE66E5F
:1037A000E66AC0EC13F0E552E5520201FA6BFB6BDE
:1037B000010EDB6A020EDB50F36E010EDBCFF4FF6D
:1037C000F350F45C01E343D1FF0E0201F815106ED3
:1037D0000F0EF915116E060E10C0DBFF070E11C09B
:1037E000DBFFD950060FE96EDACFEAFFEE50ED109D
:1037F0006DE10201F42B000EF523F4C210F0F5C2C6
:1038000011F0040EDB50101803E1050EDB50111807
:1038100001E129D9F4C210F0F5C211F0030ED890DD
:1038200011321032E804FBE1080E10C0DBFF690E14
:10383000E66E000EE66E010EE66EE66A080EDBCF5F
:10384000E6FFE66A000EE66EE66A79EC12F0F56EC7
:10385000080EE15EF55069C0DFFF070E0201F415A6
:10386000070B04E0DF42DF9EE806FCE1000EDF927A
:10387000DF94DF96DF98DF9ADF9CDF9EDF50B9E1AF
:103880000201F86BF96B0201E851060802E2E86BED
:1038900001D0E82BE851E824DF6EF4C2E6FFDFCF69
:1038A000E6FF73EC14F0E552E552DF2AF5C2E6FFBD
:1038B000DFCFE6FF73EC14F0E552E552E8C2E6FF15
:1038C000F40EE66E73EC14F0E552E552030EDB5095
:1038D00041E10201000EF45D040EF5593BE3F4C230
:1038E000E6FFF5C2E6FF06EC12F0E552E552DF6EA8
:1038F0000C0EDF1408E0F4C2E6FFF5C2E6FF27EC89
:1039000012F0E552E552020EE66EE66A0EEC04F0A5
:10391000E552E552F4C2E6FFF5C2E6FF06EC12F00E
:10392000E552E552DF6E0C0EDF1408E0F4C2E6FF4C
:10393000F5C2E6FF27EC12F0E552E552010EF36EF8
:10394000030EF3CFDBFF020EE66EE66A0EEC04F028
:10395000E552E552010EDBCFE6FFDB50E552E724EE
:10396000EA6A600FE96E000EEA22EFCFF6F2010E6E
:10397000DBCFE6FFDB28E552E724EA6A600FE96E59
:10398000000EEA22EFCFF7F2F60EE66E020EE66EBA
:10399000020EE66EE66AF8C2E6FFF9C2E6FFF4C27E
:1039A000E6FFF5C2E6FF29EC13F0F56E080EE15EC6
:1039B000F550120EE66EE66A0EEC04F0E552E552A2
:1039C000D950090FE66E000EDA20E66E020EE66EA2
:1039D000E66AF8C2E6FFF9C2E6FFF4C2E6FFF5C206
:1039E000E6FF79EC12F0F56E080EE15EF550F6C2D6
:1039F00010F0F7C211F0090EDB50101803E10A0EA7
:103A0000DB5011181CE0F60EE66E020EE66E020E9A
:103A1000E66EE66AF8C2E6FFF9C2E6FFF4C2E6FF28
:103A2000F5C2E6FF29EC13F0F56E080EE15EF550E5
:103A3000120EE66EE66A0EEC04F0E552E552020E56
:103A40000201F827000EF923010EDB2AB3D6F56E2A
:103A50000D0EE15C02E2E16AE552E16EF550E552DD
:103A6000E7CFD9FF1200F26A700ECD6E95EC1EF012
:043A7000030012003D
:0C3A7400DACFE4FFE2CFDAFFE9CFE4FF95
:103A8000EACFE4FFE6520000000000009E50010B68
:103A9000146E9D50010B141473E0F26A0001AC51D6
:103AA00015E10201B70EFD6F0201FD51000803E2AE
:103AB0000201FD07F9D79E90CD900001010EAA6F7B
:103AC0000001010E926FC00EF26E5AD09E90F00E61
:103AD000CF6ECE6AD6CFD0F0D7CFCFF0D76AD66A26
:103AE0000001CF51E66E0001CE51E96EEA6AD8902E
:103AF000E936EA36AE0EE926000EEA22E552E75034
:103B0000EE6EED6A0001CE51E96EEA6AD890E936B0
:103B1000EA36AE0EE926000EEA22EECF14F0EFCF21
:103B200015F014C015F0146A0001CE51E96EEA6A6E
:103B3000D890E936EA36AE0EE926000EEA2214C025
:103B4000EEFF15C0EDFF0001D051146E156A0001A3
:103B5000CE51E96EEA6AD890E936EA36AE0EE92629
:103B6000000EEA221450EE261550ED220001CE2B55
:103B7000100E0001CE5D02E30001CE6BC00EF26EAE
:103B80009EAA03D09D9A0201FC6BE552E5CFEAFFA5
:103B9000E5CFE9FFE5CFDAFF1100D9CFE6FFE1CFAE
:103BA000D9FFE6523C0EE66EE66A0EEC04F0E552F2
:103BB000E552400ED36EC80EE66EE66A0EEC04F0D7
:103BC000E552E5523DD80000000000003C0EE66ED4
:103BD000E66A0EEC04F0E552E552000EE66EE66A87
:103BE00027EC12F0E552E552000EE66EE66A06ECAE
:103BF00012F0E552E552DF6E0C0EDF140EE0000EFF
:103C0000E66EE66A27EC12F0E552E5520A0EE66E21
:103C1000E66A0EEC04F0E552E552B2EC08F046EC30
:103C200018F00001AD5101E02DD882BE02D0CDD9EF
:103C300001D0E6D8FFD7E552E552E7CFD9FF120011
:103C4000F26A896A100E926E200E806E0E0EC16EA0
:103C5000070EB46E8A6A080E936E010E816E8B6A2F
:103C6000820E946E030E826E8C6A100E956E300E6C
:103C7000836E8D6A966A846A280ED56E6D96C69A92
:103C8000C29012009494630ECB6EBD8ABD98BE6A3A
:103C9000CA92CA90CA84BD86BD84BD92BD901200EE
:103CA000CE0ECD6E9D80F00ECF6ECE6ACD8012000E
:103CB000D9CFE6FFE1CFD9FFE6520001CE6BDF6A34
:103CC000080EDF5C0DE2EA6ADF34FE0BEA36E96ECD
:103CD000AE0EE926000EEA22EE6AED6ADF2AF0D780
:103CE000280ED56EF294D76AD66AD58EE552E55283
:103CF000E7CFD9FF12000001010EAC6FD9DF50EF02
:103D00001EF0080E936E010E816E020E946E030E6D
:103D1000826E966A846A100E956E300E836E100E57
:103D2000926E200E806E808A1200100E926E806E4F
:103D3000809A020E946E030E826E936A816A966A6E
:103D4000846A956A836A1200F70EE66E60EC14F0DE
:103D5000E5520201EB6F080EEB6FEB51800A28E091
:103D6000C00A22E0600A1CE0300A16E0180A10E0DF
:103D70000C0A0AE0060A04E00001040EAB6F1CD036
:103D80000001010EAB6F18D00001020EAB6F14D012
:103D90000001030EAB6F10D00001040EAB6F0CD00E
:103DA0000001050EAB6F08D00001060EAB6F04D00A
:103DB0000001070EAB6F00D0F80EE66E60EC14F059
:103DC000E5520201EC6FFE0EE66E60EC14F0E55277
:103DD0000201F26FFA0EE66E60EC14F0E552020199
:103DE000EE6FFB0EE66E60EC14F0E5520201EF6F31
:103DF000080EEC6FF26F880EEE6F130EEF6F12006D
:103E0000D9CFE6FFE1CFD9FFE652948E948CB06A09
:103E1000220EAF6E080EB86E240EAC6E100EAB6E96
:103E2000E66E60EC14F0E552DF6EAB8EC00EF26E03
:103E300062DF0201010EFC6F9D8AFC5101E0FDD79B
:103E40005EEC04F00001606FE80E605D01E0B7D049
:103E50005EEC04F00001616F400E615D01E0AFD0E7
:103E60005EEC04F00001626F62518F0A01E19FD0A5
:103E7000010A01E199D0460A01E193D0100A01E15B
:103E80008DD0550A6FE0010A52E0070A4DE0110A91
:103E900048E0100A43E0030A3DE0010A33E00F0A5C
:103EA00029E0010A1FE0030A15E0010A0BE0070AF6
:103EB00001E085D0010EE66EE66A52EC05F0E552AF
:103EC000E5527DD0010EE66EE66A13EC06F0E5528F
:103ED000E55275D0020EE66EE66A52EC05F0E55248
:103EE000E5526DD0020EE66EE66A8FEC06F0E55202
:103EF000E55265D0030EE66EE66A52EC05F0E55237
:103F0000E5525DD0030EE66EE66A8FEC06F0E552F0
:103F1000E55255D019DF04EC08F051D0DAEC0CF082
:103F20004ED0D6EC0DF04BD0A9EC05F048D0030EE6
:103F3000DF6E090EDF5C0EE25EEC04F0E66EDF5031
:103F4000EA6A600FE96E000EEA22E552E750EF6E72
:103F5000DF2AEFD78CEC0FF0080EE66E6EEC04F063
:103F6000E5522DD0030EDF6E090EDF5C0EE25EEC33
:103F700004F0E66EDF50EA6A600FE96E000EEA2296
:103F8000E552E750EF6EDF2AEFD70001300E636F86
:103F9000080EE66E6EEC04F0E55211D03EEC11F026
:103FA0000ED0F7EC10F00BD0BDEC04F008D0000EF2
:103FB000E66EE66A52EC05F0E552E55200D039D7DC
:103FC000E552E552E7CFD9FF1200D9CFE6FFE1CFA6
:103FD000D9FF170EE1260B0EDB6A4E0ECD6EAB9E9F
:103FE000829E949E829E949C0F0EDB6A040EF36E5A
:103FF000100EF3CFDBFF0201ED0507E10F0EDB6AC8
:10400000080EF36E100EF3CFDBFF200EE45D58E3D5
:10401000829EB80EE66E0B0EE66E0EEC04F0E552D4
:10402000E552080EDB6A020EF36E080EDBCFF4FFDA
:10403000F350F45C15E2828EB80EE66E0B0EE66E5F
:104040000EEC04F0E552E552829EE80EE66E030E99
:10405000E66E0EEC04F0E552E552080EDB2AE3D7DB
:10406000100EE66E270EE66E0EEC04F0E552E552F9
:104070000201E851020D090EF3CFDBFFDBCFE6FFB3
:1040800060EC14F0E552E76E110EE7CFDBFF090E8E
:10409000DB2ADBCFE6FF60EC14F0E552E76E120E90
:1040A000E7CFDBFF0001050E646F656B110EDBCF00
:1040B00066F0120EDBCF67F08CEC0FF0B2EC08F07C
:1040C0000201E45104E1050EF46FF56B15D0E851DF
:1040D000020D080EF3CFDBFFDBCFE6FF60EC14F040
:1040E000E5520201F46F080EDB2ADBCFE6FF60EC3D
:1040F00014F0E5520201F56FF4C210F0F5C211F0B0
:10410000030ED89011321032E804FBE10C0E10C0FF
:10411000DBFF690EE66E000EE66E010EE66EE66AE5
:104120000C0EDBCFE6FFE66A000EE66EE66A79EC7F
:1041300012F0F56E080EE15EF550090E69C0DBFF66
:10414000070E0201F415106E116AD950090FE96EBD
:10415000DACFEAFF1050070B04E0EF42EF9EE806CB
:10416000FCE1090EDB92DB94DB96DB98DB9ADB9CAF
:10417000DB9EDB5029E10F0EE66EE66A0EEC04F0E2
:10418000E552E552000EE66E020EE66E040EE66E95
:10419000E66A000EE66EE66AF4C2E6FFF5C2E6FFE6
:1041A00079EC12F0F56E080EE15EF550E868020158
:1041B000001908E1E868011905E1E868021902E15F
:1041C000E868031901E10FD00201F42B000EF5237A
:1041D0000F0EDBCF10F0100EDBCF11F01050F45D9E
:1041E0001150F55989E3F4C210F0F5C211F00F0E29
:1041F000DB50101803E1100EDB50111802E133EC14
:104200001DF0A2DD74EC18F0EEEC19F00201E8519B
:10421000060802E2E86B01D0E82BE851020D080E17
:10422000F3CFDBFFF4C2E6FFDBCFE6FF73EC14F065
:10423000E552E552080EDB2AF5C2E6FFDBCFE6FFCA
:1042400073EC14F0E552E552E8C2E6FFF40EE66EB8
:1042500073EC14F0E552E552070E0201E403F3504B
:10426000100FE76E080EE7CFDBFFF4C2E6FFDBCFEF
:10427000E6FF73EC14F0E552E552080EDB2AF5C2B6
:10428000E6FFDBCFE6FF73EC14F0E552E552080ED3
:10429000DB2A0201E429E66EF00EE66E73EC14F000
:1042A000E552E552E66AF60EE66E73EC14F0E5525E
:1042B000E552090EDB6A400EF36E090EDBCFF4FF08
:1042C000F350F45C67E2090EDB50E66ED950110F33
:1042D000E96EDACFEAFFE552E750EE6EED6AD950AB
:1042E000110FE96EDACFEAFF030ED890EE36ED3605
:1042F000E806FBE1600EE66E000EE66E080EE66E66
:10430000E66A110EDBCFE6FF120EDBCFE6FF020EF0
:10431000E66EE66A79EC12F0F56E080EE15EF55095
:10432000040EDB6A800EF36E050EF3CFDBFF060E84
:10433000DB6A070EDB6A050EDE6EDE6ADE6ADD6AA8
:10434000DD52DD520A0EE66EE66A0EEC04F0E5522E
:10435000E552D9CFE6FFDACFE6FF080EE66EE66A51
:10436000110EDBCFE6FF120EDBCFE6FFF4C2E6FF55
:10437000F5C2E6FF29EC13F0F56E080EE15EF5508C
:104380000F0EE66EE66A0EEC04F0E552E552090EF9
:10439000DB2A91D7110EDB6A020EF36E120EF3CFF9
:1043A000DBFF0201EC51090A01E1AFD0010A01E192
:1043B00082D0090A56E0010A2AE0EEEC19F0600EFC
:1043C000E66E000EE66E040EE66EE66A110EDBCFB8
:1043D000E6FF120EDBCFE6FFF4C2E6FFF5C2E6FF12
:1043E00029EC13F0F56E080EE15EF550120EE66E44
:1043F000E66A0EEC04F0E552E552D950110FE96E71
:10440000DACFEAFF040EEE26000EED22A8D0EEEC85
:1044100019F0600EE66E000EE66E040EE66EE66AB9
:10442000110EDBCFE6FF120EDBCFE6FFF4C2E6FF94
:10443000F5C2E6FF29EC13F0F56E080EE15EF550CB
:10444000120EE66EE66A0EEC04F0E552E552D95023
:10445000110FE96EDACFEAFF040EEE26000EED2210
:104460007ED00FEC1AF0600EE66E000EE66E060EC1
:10447000E66EE66A110EDBCFE6FF120EDBCFE6FF3B
:10448000F4C2E6FFF5C2E6FF29EC13F0F56E080E64
:10449000E15EF550120EE66EE66A0EEC04F0E552AF
:1044A000E552D950110FE96EDACFEAFF060EEE267B
:1044B000000EED2254D030EC1AF0600EE66E000EC5
:1044C000E66E080EE66EE66A110EDBCFE6FF120E10
:1044D000DBCFE6FFF4C2E6FFF5C2E6FF29EC13F0FE
:1044E000F56E080EE15EF550120EE66EE66A0EEC11
:1044F00004F0E552E552D950110FE96EDACFEAFF28
:10450000080EEE26000EED222AD047EC1AF0600EBF
:10451000E66E000EE66E080EE66EE66A110EDBCF62
:10452000E6FF120EDBCFE6FFF4C2E6FFF5C2E6FFC0
:1045300029EC13F0F56E080EE15EF550120EE66EF2
:10454000E66A0EEC04F0E552E552D950110FE96E1F
:10455000DACFEAFF080EEE26000EED2200D0080E9C
:10456000DB6A030EF36E080EDBCFF4FFF350F45C4E
:1045700015E2828ED00EE66E070EE66E0EEC04F0AB
:10458000E552E552829ED00EE66E070EE66E0EEC08
:1045900004F0E552E552080EDB2AE3D7040EE66E7E
:1045A000E66AC0EC13F0E552E552E76E080EE7CF7D
:1045B000DBFF0B0EECC2DBFF0201F251F86FF96B6F
:1045C000000EF827020EF923FA6BFB6B0CD8F56E80
:1045D000170EE15C02E2E16AE552E16EF550E55248
:1045E000E7CFD9FF1200D9CFE6FFE1CFD9FF1F0EE9
:1045F000E1264E0ECD6EAB9E829E949E829E949C32
:10460000C00EF26E9D80D950170FE66E000EDA20B4
:10461000E66E080EE66EE66A000EE66EE66A020ECA
:10462000E66EE66A79EC12F0F56E080EE15EF55082
:104630001B0EDB6A800EF36E1C0EF3CFDBFF1D0E2C
:10464000DB6A1E0EDB6A050EF36E170EF3CFDBFF7F
:10465000180EDB6A190EDB6A1A0EDB6A010EDF6EBA
:10466000DF50400801E26ED3D950170FE96EDACF60
:10467000EAFFD880010EEE54000EEE54000EEE5408
:10468000000EEE5401E35ED3D9501B0FE96EDACF72
:10469000EAFFD880000EEE54000EEE54000EEE54E9
:1046A000000EEE5401E34ED3170EDBCF10F0180EC0
:1046B000DBCF11F0190EDBCF12F01A0EDBCF13F0A7
:1046C000020E105E000E115A000E125A000E135AFE
:1046D000D8901332123211321032050E10C0DBFFA7
:1046E000060E11C0DBFF070E12C0DBFF080E13C061
:1046F000DBFF170EDBCF10F0180EDBCF11F0190E19
:10470000DBCF12F01A0EDBCF13F0020E105E000E9C
:10471000115A000E125A000E135A010E1016116A89
:10472000126A136A020E10C0DBFF030EDB6AD95057
:104730001B0FE96EDACFEAFFD880000EEE54000EB0
:10474000EE54000EEE54000EEE5404E2DE52010E62
:10475000DD6E02D0010EDB6AD950170FE96EDACF99
:10476000EAFFD880020EEE54000EEE54000EEE5416
:10477000000EEE5402E295EC1EF0D950170FE96ED0
:10478000DACFEAFFD880020EEE54000EEE54000E8F
:10479000EE54000EEE5440E2D950050FE96EDACF28
:1047A000EAFF090EEECFDBFF0A0EEECFDBFF0B0EAA
:1047B000EECFDBFF0C0EEECFDBFFD950090FE96E19
:1047C000DACFEAFFD880000EEE54000EEE54000E51
:1047D000EE54000EEE5410E2060ECE6ECF6ACD807F
:1047E000D950090FE96EDACFEAFFEE06000EEE5A55
:1047F000EE5AEE5A0300E1D7020EDB50E76E040ECC
:10480000E7CFDBFF040EDB50000806E2060ECE6E9B
:10481000800ECF6ECD80030081EC1EF00F0EDB6AA0
:10482000100EDB6A110EDB6A120EDB6A130EDB6AF6
:10483000140EDB6A150EDB6A160EDB6A8380839A20
:10484000000000000000000000001A0ECE6EF00E06
:10485000CF6E0001AA6BCD800001AA5101E1FCD707
:1048600083900001AA6B100ECE6EF00ECF6ECD803D
:104870000001AA5101E1FCD783800001AA6B100E50
:10488000CE6EF00ECF6ECD800001AA5101E1FCD7B3
:1048900083900001AA6B100ECE6EF00ECF6ECD800D
:1048A0000001AA5101E1FCD783800001AA6B100E20
:1048B000CE6EF00ECF6ECD8053EC19F001C262F0D7
:1048C00002C263F00001AA5101E1FCD7839000010C
:1048D000AA6B100ECE6EF00ECF6ECD80F8EC18F0F5
:1048E00000C260F001C261F00001AA5101E1FCD7F1
:1048F00083800001AA6B100ECE6EF00ECF6ECD80BD
:104900000001AA5101E1FCD783900001AA6B100EAF
:10491000CE6EF00ECF6ECD806A0EE66EE66A0EECBD
:1049200004F0E552E55284EC19F0F6C210F0F7C23B
:1049300011F0126A136AD9500F0FE96EDACFEAFF4D
:104940001050EE261150EE221250EE221350EE229D
:104950000001AA5101E1FCD783800001AA6B100E6F
:10496000CE6EF00ECF6ECD806A0EE66EE66A0EEC6D
:1049700004F0E552E552ADEC19F0F6C210F0F7C2C2
:1049800011F0126A136AD950130FE96EDACFEAFFF9
:104990001050EE261150EE221250EE221350EE224D
:1049A0000001AA5101E1FCD783900001AA6B100E0F
:1049B000CE6EF00ECF6ECD806A0EE66EE66A0EEC1D
:1049C00004F0E552E55284EC19F0F6C210F0F7C29B
:1049D00011F0126A136AD9500F0FE96EDACFEAFFAD
:1049E0001050EE261150EE221250EE221350EE22FD
:1049F0000001AA5101E1FCD783800001AA6B100ECF
:104A0000CE6EF00ECF6ECD806A0EE66EE66A0EECCC
:104A100004F0E552E552ADEC19F0F6C210F0F7C221
:104A200011F0126A136AD950130FE96EDACFEAFF58
:104A30001050EE261150EE221250EE221350EE22AC
:104A40000001AA5101E1FCD783900001AA6B100E6E
:104A5000CE6EF00ECF6ECD806A0EE66EE66A0EEC7C
:104A600004F0E552E55284EC19F0F6C210F0F7C2FA
:104A700011F0126A136AD9500F0FE96EDACFEAFF0C
:104A80001050EE261150EE221250EE221350EE225C
:104A90000001AA5101E1FCD783800001AA6B100E2E
:104AA000CE6EF00ECF6ECD806A0EE66EE66A0EEC2C
:104AB00004F0E552E552ADEC19F0F6C210F0F7C281
:104AC00011F0126A136AD950130FE96EDACFEAFFB8
:104AD0001050EE261150EE221250EE221350EE220C
:104AE0000001AA5101E1FCD783900001AA6B100ECE
:104AF000CE6EF00ECF6ECD806A0EE66EE66A0EECDC
:104B000004F0E552E55284EC19F0F6C210F0F7C259
:104B100011F0126A136AD9500F0FE96EDACFEAFF6B
:104B20001050EE261150EE221250EE221350EE22BB
:104B30000001AA5101E1FCD783800001AA6B100E8D
:104B4000CE6EF00ECF6ECD806A0EE66EE66A0EEC8B
:104B500004F0E552E552ADEC19F0F6C210F0F7C2E0
:104B600011F0126A136AD950130FE96EDACFEAFF17
:104B70001050EE261150EE221250EE221350EE226B
:104B80000001AA5101E1FCD783900F0EDBCF10F09A
:104B9000100EDBCF11F0110EDBCF12F0120EDBCFB7
:104BA00013F0020ED8901332123211321032E8068E
:104BB000F9E10F0E10C0DBFF100E11C0DBFF110E6C
:104BC00012C0DBFF120E13C0DBFF0F0EDBCF64F051
:104BD000100EDBCF65F0130EDBCF10F0140EDBCF21
:104BE00011F0150EDBCF12F0160EDBCF13F0020E14
:104BF000D8901332123211321032E806F9E1130E56
:104C000010C0DBFF140E11C0DBFF150E12C0DBFF5E
:104C1000160E13C0DBFF130EDBCF66F0140EDBCFD6
:104C200067F00001AA6B100ECE6EF00ECF6ECD8035
:104C3000030E0201F66FF76B000000000000000099
:104C40000000838AC0EC1AF0D9501B0FE96EDACF4E
:104C5000EAFFEE06000EEE5AEE5AEE5AD950170F42
:104C6000E96EDACFEAFFD880020EEE54000EEE5461
:104C7000000EEE54000EEE5402E295EC1EF0D950F8
:104C80001B0FE96EDACFEAFFD880000EEE54000E5B
:104C9000EE54000EEE54000EEE5404E2DE52010E0D
:104CA000DD6E02D0010EDB6A0001AA5101E1FCD7E2
:104CB000010EDB5001E061D5DF50E66ED9500D0FDB
:104CC000E96EDACFEAFFE552E750EE6EED6AD950B1
:104CD0000D0FE96EDACFEAFF030ED890EE36ED360F
:104CE000E806FBE1D950170FE66E000EDA20E66EFB
:104CF000080EE66EE66A0D0EDBCFE6FF0E0EDBCF8A
:104D0000E6FF020EE66EE66A79EC12F0F56E080E2A
:104D1000E15EF5501B0EDB6A800EF36E1C0EF3CFC6
:104D2000DBFF1D0EDB6A1E0EDB6A050EF36E170E2F
:104D3000F3CFDBFF180EDB6A190EDB6A1A0EDB6A93
:104D4000DF2A8ED433EC1DF0F56E1F0EE15C02E21B
:104D5000E16AE552E16EF550E552E7CFD9FF120066
:104D60000E0EF66E080EF76E000EF86E00010900CA
:104D7000F550D66F0900F550D76F03E1D66701D023
:104D80003DD00900F550D16F0900F550D26F0900F0
:104D9000F550D36F09000900F550E96E0900F55090
:104DA000EA6E090009000900F550D46F0900F550BA
:104DB000D56F09000900F6CFD8F0F7CFD9F0F8CFBA
:104DC000DAF0D1C0F6FFD2C0F7FFD3C0F8FF000180
:104DD000D45302E1D55307E00900F550EE6ED40735
:104DE000F8E2D507F9D7D8C0F6FFD9C0F7FFDAC087
:0E4DF000F8FF0001D607000ED75BBFD71200F8
:024DFE00036A46
:104E0000026A016A180EE76ED89005360636073634
:104E10000136023603360A50015C0B5002580C5022
:104E2000035807E30A50015E0B50025A0C50035A14
:084E3000052AE72EEAD7120063
:084E380013EE00F023EE00F080
:104E4000F86A0F9CB0EC26F0CDEC1DF0FDD71200F7
:104E50000000000000000000000000000000000052
:104E60000000000000000000000000000000000042
:104E70000000000000000000000000000000000032
:104E80000000000000000000000000000000000022
:0E4E9000000000000000000000000000000113
:00000001FF
