:020000021000EC
:04E000000C947BF011
:020000021000EC
:04E01C000C94D0F49C
:020000021000EC
:04E074000C9456F1C1
:020000021000EC
:14E08C0000007A4100000000000012011001FF803708153896
:14E0A00001280001010200010902270001010080320904004B
:14E0B4000003FF80370007058202400000070502024000007F
:14E0C80007058103080000040309040E0347005A005400533F
:14E0DC00004E0059001203540053004E0059002D0031002E9A
:05E0F0000030000000FB
:020000021000EC
:14E0F60001E005BF02E005BFCFEFD0E1CDBFDEBFC058D0400B
:14E10A000AEA08830024E5E6F1E012E0E53FF10711F0019220
:14E11E00FBCF0083E0E9F0EEA0E0B1E010EE01E00BBFE53F1B
:14E13200F10721F0D89531960D92F9CF0E940CF2FFCF222481
:14E146002AB82BB886E0809395008BE089B92092900088E19A
:14E15A008AB9089522242BBA2ABA80E188BB87BB25BA24BA1F
:14E16E0022BA21BA23B822B8209262002092610020926500F3
:14E182002092640008950E9405F95801249784EC90E28A15A1
:14E196009B0508F45C0185010E9473F9088319832A833B8356
:14E1AA000CE810EE0E9492F8CE019A938A930E9476FA08838D
:14E1BE0019832A833B83088119812A813B810E9441F9580187
:14E1D20015014424552440E050E061E070E04219530964093D
:14E1E60075095DBD4CBD85E08EBD86B7846086BF26B622FE72
:14E1FA00FDCF22242EBC24960C940CF90E948DF80E94FAF8FB
:14E20E0021978FEF809369018093680161E080EAA82E4427E1
:14E22200552738C0FA010B841C84E00DF11D20803090680186
:14E23600322430926801CC24DD24209069012882E0906801C5
:14E24A002694209269012E2C26942092680188818170813010
:14E25E0021F4822D8068809368018E2D8170813051F4209032
:14E2720069012A242092690120906801262620926801C6017D
:14E2860001966C018830E0E09E07BCF24F5F5F4FC9010297F6
:14E29A004817590708F4C2CF21960E94EFF8249608952A92D1
:14E2AE008A932FB62A92222420926C0120928A0080917D006F
:14E2C2008B7F80937D0080917C00846080937C0029902FBE08
:14E2D600899129901895222420928A0080EF809389008EEBAE
:14E2EA008093880080917C00846080937C0085E080938A0083
:14E2FE0080917C00846080937C0080917D00846080937D000A
:14E312000895F89422242CBE20926D001FDF222425BE2092A6
:14E326006A002ABE29BE27BE20927D00789408950E948DF8C6
:14E33A000C81E02FF12F2BBF00936800E895249608950E94B8
:14E34E008DF8E02FF12F022E132E81E080936800E895249683
:14E36200089508C02090680020FCFCCF81E180936800E895E9
:14E376002090680026FCF4CF08954A935A93219783E0888309
:14E38A0020910201309103010091000110910101CDDFE3DF63
:14E39E004427552782EF91E0FA01E80FF91F20803324322C43
:14E3B200222481EF91E0FA01E80FF91F20813327220D331DAC
:14E3C6008A01C1DF4E5F5F4F4030E1E05E0734F385E0888390
:14E3DA0020910201309103010091000110910101A5DFBBDF63
:14E3EE0021965991499108951801015010402220D9F73320E4
:14E40200C9F7089522242AB881E085BF25BE2BBE0C94000070
:14E41600089508EE13E0ECDF7ADF222420926D0180B58B7FA3
:14E42A0080BDC39A87B3877F87BB909A81B38E7F81BB80B5E6
:14E43E008B7F80BDC39A87B3877F87BBC39A909A81B38E7FDC
:14E4520081BB909A04E610E096DEF89481E489BF7894222477
:14E4660020926D0187B3876087BB0EE110E089DE22242DB8AE
:14E47A000EE110E084DE8FE58DB981E08EB98FE58DB980E0D1
:14E48E00809300018093010180930201809303012224332487
:14E4A2003092F0022092EF02209204010E9493F7AA2412C08C
:14E4B60080916301813009F404C0809164018130B9F3809187
:14E4CA006301813009F407C00EE110E058DEA3948A2D8436A8
:14E4DE0080F38A2D843608F08FDF22242AB820928A0088E410
:14E4F2008093890085EE8093880080917C00846080937C006C
:14E5060080917D008B7F80937D0085E080938A0080917C004A
:14E51A00846080937C0020926C0179C080916D01813009F0F9
:14E52E0074C080917301813089F587EE8093AF018093B001F5
:14E5420022242092B1012092B201209073012092B30182E0CA
:14E556008093B40122242092B50181E08093B60187EE809388
:14E56A00B7012092B8012092B9012092BA012092BB01209281
:14E57E00BC012092BD012092BE012FEA31E000E10E946BF8DB
:14E5920081E080936C013CC0222420928A0080917C008460A5
:14E5A60080937C0080917D008B7F80937D0087EE8093AF0172
:14E5BA008093B0012092B1012092B201209073012092B30136
:14E5CE0082E08093B40122242092B501209073012092B601D4
:14E5E20087EE8093B70122242092B8012092B9012092BA015B
:14E5F6002092BB012092BC012092BD012092BE012FEA31E029
:14E60A0000E10E946BF8FADE222420926D0120907C0022FC8E
:14E61E0005C020906C01222009F47ECF222420928A008091E7
:14E632007C00846080937C0080917D008B7F80937D0020900D
:14E646006C01222009F4DCDE222420926C01A3C180916D0112
:14E65A00813009F09EC180E020906C01821508F0BFC037DE03
:14E66E008FEE91E0E0916A01F0916B01E80FF91F20907301AE
:14E68200208280916A0190916B01019690936B0180936A0135
:14E696008230E1E09E0709F07BC1222420928A0080917D0013
:14E6AA008B7F80937D0080917C00846080937C0080916C0144
:14E6BE00813009F05DC02091EF01332700E011E00E94A6F875
:14E6D20018014090F0015524240C351C442437FC4094552478
:14E6E60047FC509430920101209200015092030140920201C7
:14E6FA0040E051E060E070E05A924A923A922A928A019B01B4
:14E70E000E94B6F810930101009300013093030120930201F1
:14E7220040E050E060E070E004171507260737074CF480E0C1
:14E736008093000180930101809302018093030140E05FEF0B
:14E74A0060E070E04090020150900301209000013090010101
:14E75E00421553056405750554F480E0809300018093020143
:14E77200809303018FEF8093010101DE222420926C0122E0A3
:14E7860031E00FEE11E03CDD87EE8093AF018093B001222425
:14E79A002092B1012092B20182E08093B3018093B4012092FF
:14E7AE00B501209068012092B601209069012092B701222455
:14E7C2002092B8012092B9012092BA012092BB012092BC0122
:14E7D6002092BD012092BE012FEA31E000E10E946BF8D6C0A8
:14E7EA00A0907301BB24AA2011F4BB2081F0C5018130E0E046
:14E7FE009E07B9F18230E0E09E0709F460C08330E0E09E076C
:14E8120009F492C0BFC087EE8093AF018093B0012224209230
:14E82600B1012092B201209073012092B30181E08093B40114
:14E83A0022242092B5012092B6012092B7012092B80120922C
:14E84E00B9012092BA012092BB012092BC012092BD01209290
:14E86200BE012FEA31E000E10E946BF893C087EE8093AF0148
:14E876008093B00122242092B1012092B201209073012092E5
:14E88A00B30182E08093B40122242092B50181E08093B601C3
:14E89E0087EE8093B7012092B8012092B9012092BA01209230
:14E8B200BB012092BC012092BD012092BE012FEA31E000E13B
:14E8C6000E946BF865C081E080936C012224332430926B0168
:14E8DA0020926A01FEDC87EE8093AF018093B001222420923F
:14E8EE00B1012092B201209073012092B30182E08093B4014B
:14E9020022242092B5018093B60187EE8093B7012092B801DE
:14E916002092B9012092BA012092BB012092BC012092BD01C7
:14E92A002092BE012FEA31E000E10E946BF82EC087EE8093E2
:14E93E00AF018093B00122242092B1012092B201209073011E
:14E952002092B30182E08093B40122242092B50183E08093FD
:14E96600B60187EE8093B7012092B8012092B9012092BA0162
:14E97A002092BB012092BC012092BD012092BE012FEA31E0A1
:14E98E0000E10E946BF838DD222420926D015CCE08950A92B1
:14E9A2001A922A923A924A925A926A927A928A929A920A9378
:14E9B6001A932A933A938A939A93AA93BA93EA93FA930FB673
:14E9CA000A920E9405F92A97AA2409E00E94C3F7402F842F07
:14E9DE008F7009F467C241FF18C081E080936401222708E0DE
:14E9F2000E94D6F72EE00CE00E94D6F72EE00DE00E94D6F7CF
:14EA060022E00EE00E94D6F722E109E00E94D6F74DC240FFF4
:14EA1A0030C20AE00E94C3F7402F642F77276F7070706030C1
:14EA2E00670709F413C26230E0E07E07B9F06030E0E07E073F
:14EA42000CF416C26830E0E07E0709F4BAC16930E0E07E07B5
:14EA560071F16A30E0E07E07D1F06C30E0E07E0799F104C279
:14EA6A00222420926D010BE00E94C3F7A02EA0926E018FE607
:14EA7E0091E0998388832A2D00EC0E94E7F781E080936D0147
:14EA9200EFC10EE00E94C3F7602F80E4262F2C7F22602827B2
:14EAA6000EE00E94D6F7222420920501DFC10DE00E94C3F718
:14EABA00602F80E4262F207F2E6028270DE00E94D6F7D2C195
:14EACE000BE00E94C3F7A02E083009F04EC1CE01029699835C
:14EAE20088832A2D08E20E94E7F728842092F2022984222013
:14EAF60029F48FE72090F202821518F48FE78093F202AA24E7
:14EB0A002B802092F102622D77276030670709F414C1613019
:14EB1E00E0E07E0709F4B8C06530E0E07E0709F49EC066305E
:14EB3200E0E07E07D1F06830E0E07E0709F499C06930E0E03D
:14EB46007E0709F4A1C06A30E0E07E0709F4ECC06030E0E000
:14EB5A007E070CF409C16E3FE0E07E0709F4FFC003C16D81F8
:14EB6E0077276130E0E07E0749F06230E0E07E0771F063301B
:14EB8200E0E07E0799F03EC086E091E09093F4028093F302BB
:14EB960082E1A82E37C088E191E09093F4028093F30287E2D7
:14EBAA00A82E2EC06C81772760306707D9F06130E0E07E076B
:14EBBE0029F06230E0E07E0751F01BC083E491E09093F40246
:14EBD2008093F3028EE0A82E17C081E591E09093F402809309
:14EBE600F30282E1A82E0EC08FE391E09093F4028093F3021B
:14EBFA0084E0A82E05C08FEFA82E02C08FEFA82E2A2C3324F1
:14EC0E004090F20255242414350414F4A092F2028091F20211
:14EC2200883018F068E070E003C06091F2027727A62E2090BC
:14EC3600F3023090F402398228822A2D00E20E9429F820900E
:14EC4A00F202261A2092F2022090F3023090F4024A2C552492
:14EC5E00420C531C5092F4024092F30288C02C802092F202AC
:14EC720084C02091630100E20E94D6F78091F202813008F432
:14EC86007AC0AA24A39477C02C802092630173C08A818F7104
:14EC9A00823009F044C06E8177276130E0E07E0789F1623048
:14ECAE00E0E07E07C1F06130E0E07E079CF16138E0E07E071B
:14ECC200D1F06238E0E07E0709F02AC00EE00E94C3F7602FE2
:14ECD600262F2C7F22600EE00E94D6F74CC00EE00E94C3F7F5
:14ECEA00602F262F2F7C0EE00E94D6F742C00DE00E94C3F7DF
:14ECFE00602F262F207F2E600DE00E94D6F737C00DE00E940F
:14ED1200C3F7602F262F2F7C0DE00E94D6F72DC08FEFA82E07
:14ED26002AC08FEFA82E27C0222700E20E94D6F78091F20215
:14ED3A008130F8F0AA24A3941CC0222700E20E94D6F7222768
:14ED4E0001E20E94D6F78091F202823018F082E0A82E0DC09B
:14ED6200A090F2020AC0222700E20E94D6F705C08FEFA82EFC
:14ED760002C08FEFA82E8A2D8F3F29F42FE30CE00E94D6F764
:14ED8A0073C088E08A1570F00CE00E94C3F7602F8A2D8F704E
:14ED9E00262F207C282B20640CE00E94D6F762C00CE00E948E
:14EDB200C3F7602F262F207C2E680CE00E94D6F757C060911A
:14EDC600F10277276530E0E07E07D1F16630E0E07E0709F038
:14EDDA003AC08091F202883018F068E070E003C06091F20226
:14EDEE007727A62E2090F3023090F402398228822A2D00E2A6
:14EE02000E9429F82090F202261A2092F2022090F30230904A
:14EE1600F4024A2C5524420C531C5092F4024092F3020CE0BB
:14EE2A000E94C3F7602F8A2D8F70262F207F282B80E4282739
:14EE3E000CE00E94D6F716C02091F20208E00E94D6F72EE085
:14EE52000CE00E94D6F70CC06091F10277276630E0E07E0728
:14EE660009F000C02EE00CE00E94D6F721E109E00E94D6F71C
:14EE7A001BC042FF0EC024E109E00E94D6F705E00E94C3F7FC
:14EE8E00602F262F216005E00E94D6F70BC043FF05C028E1DC
:14EEA20009E00E94D6F704C02FE109E00E94D6F72A960E9476
:14EEB6000CF909900FBEF991E991B991A99199918991399147
:14EECA00299119910991999089907990699059904990399067
:14EEDE002990199009901895222708E00E94D6F72EE00CE0DE
:14EEF2000E94D6F72EE00DE00E94D6F722E00EE00E94D6F7D4
:14EF06002FE109E00E94D6F727E007E00E94D6F720E405E049
:14EF1A000E94D6F723E006E00C94D6F74A935A9328E005E067
:14EF2E000E94D6F74427552702C04F5F5F4F80E593ECA0E0F7
:14EF4200B0E01A0144245524281639064A065B0694F3222731
:14EF560005E00E94D6F74427552702C04F5F5F4F80E593EC6A
:14EF6A00A0E0B0E01A0144245524281639064A065B0694F3D2
:14EF7E00B3DF599149910895BC9A88B38F7E88BB0FB9779BD1
:14EF9200FECF80EC8FB9779BFECF22242FB8779BFECFBC9AA9
:14EFA600C49A0FB10895BC9A88B38F7E88BB0FB9779BFECF14
:14EFBA0080E88FB9779BFECF2FB9779BFECFBC9AC49A08959C
:14EFCE00AA92BA92AA80BB80BC9A88B38F7E88BB0FB9779B87
:14EFE200FECF80EC8FB9779BFECF08C022242FB8779BFECFE7
:14EFF6002FB0F50121925F01222E33242150222099F7BC9ADF
:14F00A00C49AB990A9900895AA92BA92AA80BB80BC9A88B3F7
:14F01E008F7E88BB0FB9779BFECF80E88FB9779BFECF06C092
:14F03200F50121905F012FB8779BFECF222E332421502220A3
:14F04600A9F7BC9AC49AB990A9900895AA92BA92AA80BB8056
:14F05A00BC9A88B38F7E88BB0FB9779BFECF80E88FB9779B58
:14F06E00FECF06C0F50121905F012FB8779BFECF222E332487
:14F0820021502220A9F7BC9AC49AB990A99008950E9400F9B9
:14F096006901A02E2297209005012220E1F7D982C8822A2DA9
:14F0AA0000E4D2DF2A2D0BE07CDF0EE067DF80E890E0202FC5
:14F0BE0033272C7F282739270EE071DF81E08093050122961A
:14F0D2000C94EAF80E9400F96901A02E229720900501222024
:14F0E600E1F7D982C8822A2D00E490DF2A2D0BE05ADF0EE086
:14F0FA0045DF80E890E0202F33272C7F282739270EE04FDFE7
:14F10E0081E08093050122960C94EAF83A932A931A930A9365
:14F122000895EA93FA930A92E02FF12FD895002D3196D89599
:14F13600102D3196D895202D3196D895302D0990F991E991D9
:14F14A0008950A921A928A939A93029FC001129F900D039F30
:14F15E00900D8C01999189911990099008950E941CF97A928D
:14F172000E9435F959F177240E943BF919F48C019D0124C0E2
:14F186000A921A92089FB02CA12C289F902C812C189FA00C4A
:14F19A00911C871C099FA00C911C871C199F900C811C0A9FD3
:14F1AE00900C811C389F800C299F800C1A9F800C0B9F800CE2
:14F1C200199009900B2D1A2D292D382D79900C942AF9A990B8
:14F1D600B990C990D9900895A990B990C990D990E990F99037
:14F1EA00499159916991799108957A936A935A934A93FA924C
:14F1FE00EA92DA92CA92BA92AA9208957A936A935A934A93C0
:14F21200BA92AA920895A990B99049915991699179910895DC
:14F2260000951095209530950F5F1F4F2F4F3F4F08958A927F
:14F23A009A92AA92BA92EA938A939A93AA93BA9389859A858E
:14F24E00AB85BC850895B991A99199918991E991B990A990DA
:14F262009990899024960895EE27E02BE12BE22BE32B08951B
:14F27600EE27E82BE92BEA2BEB2B08954A925A926A928A939F
:14F28A000E94A7F911F15520E2F08FE14816C0F487E148169D
:14F29E00D1F058F4419489EE481A05C035952795179507950E
:14F2B2004A94D1F70EC087E1481A000F111F221F331F4A945A
:14F2C600D1F705C03FE7232F132F032F04C0662011F00E94CE
:14F2DA0013F989916990599049900895689401C0E894222720
:14F2EE00332746F017FD209517FD309503C0689401C0E894DE
:14F302004A925A926A928A9387E1482E5524662436F03323B9
:14F3160022F40E9413F980E8682E0E94C0F9899169905990CA
:14F32A00499008950FD029F0662011F00E9413F99894089563
:14F33E00002329F4112319F4222309F433230895F7DF99F0A6
:14F352008A93632E80E86822220F331F432E8FE7481A5524C2
:14F366008827580A269530E8232B33278991989408954424BC
:14F37A00552466240895DEDF09F40895AA93BA93D2019A93FE
:14F38E008A938EE790E0332349F03695279517950795A8174C
:14F3A200B907CCF41196F5CF8095909501962223BAF0000F9D
:14F3B600111F221FA817B90714F01197F6CF0027112722273A
:14F3CA003327899199912D01B991A991089533270FEF102FAB
:14F3DE002FE7322F899199912D0102C0AA93BA93A7DF49F027
:14F3F200D201A158BF4F2D01342D220F369527953629B9913D
:14F40600A99108954A925A926A927A928A929A92AA92BA927B
:14F41A00CA92DA92EA92FA928A939A93089599918991F9905A
:14F42E00E990D990C990B990A99099908990799069905990E0
:14F44200499008950E9405FAAA93BA930E94A7F9E1F1E62CEF
:14F45600D52CC42CB32EA22E912E802E008111812281338129
:14F46A000E94A7F971F16E244C0C5D1C80E84816530664F50F
:14F47E0081E848168FEF58066CF1A29EB12DA02D919E912DA2
:14F49200802DA09E800D911DA31FB31F829E800D911DA31F8F
:14F4A600B31F929E900DA11DB31FA19E900DA11DB31F2B2F5D
:14F4BA001A2F092F880F001F111F221F331F0E94C0F9B9919F
:14F4CE00A9910E9414FA08950FEF102F2FE78FE7482EF5CFA0
:14F4E2000027102F202F302FF0CFFA93EA93EA81FB810E94B0
:0AF4F60023FAE991F9912296089596
:00000001FF
