:020000021000EC
:08E000000C9448F00C9442F668
:020000021000EC
:04E048000C940DF136
:020000021000EC
:08E074000C94B6F10C94E1F0EC
:020000021000EC
:14E08C000000000001E005BF02E005BFCFEFD0E1CDBFDEBF9D
:14E0A000C050D1400AEA08830024E4E0F1E013E0E934F1070B
:14E0B40011F00192FBCF0083ECE8F0EEA0E0B1E010EE01E0D5
:14E0C8000BBFE039F10721F0D89531960D92F9CF0E9455F2D4
:14E0DC00FFCF0E94E0FB0C81E02FF12F2BBF00936800E895C7
:14E0F000249608950E94E0FBE02FF12F022E132E81E0809334
:14E104006800E8952496089508C02090680020FCFCCF81E1A2
:14E1180080936800E8952090680026FCF4CF08954A935A9397
:14E12C00219783E0888320910201309103010091000110910D
:14E140000101CDDFE3DF4427552789E091E0FA01E80FF91F90
:14E1540020803324322C222488E091E0FA01E80FF91F208198
:14E168003327220D331D8A01C1DF4E5F5F4F4030E1E05E07AE
:14E17C0034F385E0888320910201309103010091000110914C
:14E190000101A5DFBBDF2196599149910895222420929A00B1
:14E1A40082E080939B0086E080939D0080E180939900209282
:14E1B800980088E980939A0008952A928A939A93EA93FA93F0
:14E1CC002FB62A928DE092E0E0910D03FF27E80FF91F209059
:14E1E0009C00208280910D038F5F80930D0329902FBEF9918B
:14E1F400E991999189912990189522242AB882E08BB986E0BF
:14E208008093950080E189B92092900088E98AB908952A9268
:14E21C008A939A93EA93FA932FB62A928DE892E0E0910E0390
:14E23000FF27E80FF91F2CB0208280910E038F5F80930E03F3
:14E2440029902FBEF991E991999189912990189581E085BFCD
:14E25800222425BE2BBE0C940000089580916500877E8093D5
:14E26C00650080916400886180936400C2DF91DF449A88B13C
:14E28000877F88B980916A00836080936A0088B7816088BF01
:14E2940089B7816089BF7894809165008860809365000E9489
:14E2A800CCFB0E94CCFB0E94CCFB0E94CCFB0E94CCFB8091E6
:14E2BC006500877F8093650008950E94E0FB0E9434FC2197C7
:14E2D0008FEF809314038093130361E080EAA82E4427552701
:14E2E40038C0FA010B841C84E00DF11D20803090130332243D
:14E2F80030921303CC24DD24209014032882E0901303269498
:14E30C00209214032E2C26942092130388818170813021F498
:14E32000822D8068809313038E2D8170813051F420901403C0
:14E334002A242092140320901303262620921303C601019686
:14E348006C018830E0E09E07BCF24F5F5F4FC901029748176B
:14E35C00590708F4C2CF21960E9429FC249608952A928A9312
:14E370002FB62A9222242092170320928A0080917D008B7F12
:14E3840080937D0080917C00846080937C0029902FBE899135
:14E3980029901895AA928FEF80938D0280938E022224209214
:14E3AC000E03ACB05D9BFECF0CB9ACB0579A22242EBC2223A4
:14E3C00039F480E398E59DBD8CBD85E08EBD06C080E096E04D
:14E3D4009DBD8CBD81E08EBD86B7846086BF26B622FEFDCFB8
:14E3E80022242EBC86B7846086BF8AB18F778AB9A990089531
:14E3FC00AA928FEF80930D0280930E02222420920D03A090D6
:14E410009C0020909B0025FEFCCF00939C00A0909C00809117
:14E424009A00806880939A0022242EBC222339F480E398E533
:14E438009DBD8CBD85E08EBD06C080E096E09DBD8CBD81E0DD
:14E44C008EBD86B7846086BF26B622FEFDCF22242EBC86B7D6
:14E46000846086BF80919A008F7780939A00A9900895222405
:14E4740020928A0080EF809389008EEB8093880080917C00AC
:14E48800846080937C0085E080938A0080917C008460809387
:14E49C007C0080917D00846080937D0008950E94CCFB2224A2
:14E4B00020921A0320921703332430923603209235033092BF
:14E4C40034032092330320920F03CADE0E94CCFB2224209258
:14E4D8008A0081ED8093890080E28093880080917C0084602E
:14E4EC0080937C0080917D008B7F80937D0085E080938A0063
:14E5000080917C00846080937C0020921703DEC080911A036F
:14E51400813009F0CCC080913303909134038A3FE0E09E07F0
:14E52800C9F481E0809317038FE0809332038AEF97EE9093BC
:14E53C003603809335030E94CCFB9DD5222420921A0388B718
:14E55000816088BF89B7816089BFABC080913303909134031C
:14E56400853FE0E09E0781F581E08093170321E005EF42DF60
:14E578008FE08093320387EE90E090933603809335031C012F
:14E58C00322C2224309236032092350320908D02332440908C
:14E5A0003503509036034228532850923603409235030E946A
:14E5B400CCFB65D5222420921A0388B7816088BF89B78160B5
:14E5C80089BF73C080913303909134038B3FE0E09E07A1F560
:14E5DC0081E08093170321E005EBDADE8FE08093320320908D
:14E5F0008D023324309236032092350320903503309036036B
:14E60400322C2224309236032092350320908E023324409012
:14E618003503509036034228532850923603409235030E94F1
:14E62C00CCFB29D5222420921A0388B7816088BF89B7816078
:14E6400089BF37C08091330390913403893FE0E09E0779F54D
:14E6540081E08093170321E009EF9EDE8FE08093320387EE83
:14E6680090E090933603809335031C01322C222430923603CB
:14E67C002092350320908D023324409035035090360342287F
:14E69000532850923603409235030E94CCFBF1D422242092B0
:14E6A4001A0388B7816088BF89B7816089BF80911A03823095
:14E6B80049F4222420921A0388B7816088BF89B7816089BF2C
:14E6CC0020907C0022FC05C020901703222009F419CF2224F4
:14E6E00020928A0080917C00846080937C0080917D008B7F52
:14E6F40080937D0020901703222009F4A9DD222420921703E1
:14E70800BBC280911A03823051F4222420921A0388B7816026
:14E71C0088BF89B7816089BFADC280911A03813009F0A8C288
:14E7300080E020901703821508F0D5C09ADE86E091E0E091C7
:14E744001503F0911603E80FF91F2090330330903403208281
:14E7580080911503909116030196909316038093150380913B
:14E76C001703823041F45D9BFECF20903303309034032CB812
:14E780000EC080911703833051F420909B0025FEFCCF2090AB
:14E7940033033090340320929C0080911503909116038230E1
:14E7A800E1E09E0709F05FC2222420928A0080917D008B7FC3
:14E7BC0080937D0080917C00846080937C00809117038130DD
:14E7D00009F05DC020910601332700E011E00E94E5FB1801A1
:14E7E400409007015524240C351C442437FC4094552447FC24
:14E7F80050943092010120920001509203014092020140E0D7
:14E80C0051E060E070E05A924A923A922A928A019B010E941E
:14E82000F5FB1093010100930001309303012093020140E01E
:14E8340050E060E070E004171507260737074CF480E08093BB
:14E84800000180930101809302018093030140E05FEF60E0CB
:14E85C0070E0409002015090030120900001309001014215D7
:14E8700053056405750554F480E08093000180930201809374
:14E8840003018FEF809301014DDC2224209217038FE080932C
:14E89800320322E031E006E011E011DD20901403332430927F
:14E8AC003603209235032090350330903603322C22243092EE
:14E8C0003603209235032090130333244090350350903603E3
:14E8D4004228532850923603409235035BD7CFD3C4C120901D
:14E8E800330330903403C1018032E0E09E0709F442C0803265
:14E8FC00E0E09E070CF4B5C12090330330903403C101803FCF
:14E91000E0E09E0709F43FC0843FE0E09E0709F469C0853F80
:14E92400E0E09E0709F441C0883FE0E09E0709F4AFC0893F1C
:14E93800E0E09E0709F487C08A3FE0E09E0709F4D2C08B3F9B
:14E94C00E0E09E0709F4D9C08C3FE0E09E0709F4FBC08D3F08
:14E96000E0E09E0709F40CC18E3FE0E09E0709F438C18F3F7E
:14E97400E0E09E0709F459C178C182E0809332032224332493
:14E98800309236032092350303D777D36CC18FE0809332038E
:14E99C008FEF97EE9093360380933503F7D66BD360C18FE022
:14E9B0008093320321E005EF21DD87EE90E0909336038093C4
:14E9C40035031C01322C2224309236032092350320900D02A2
:14E9D8003324409035035090360342285328509236034092E1
:14E9EC003503D4D648D33DC18FE08093320321E004EFFEDC97
:14EA000087EE90E090933603809335031C01322C22243092F3
:14EA140036032092350320900D023324409035035090360394
:14EA2800422853285092360340923503B1D625D383E08093DB
:14EA3C00170322243324309216032092150313DD10C18FE03A
:14EA50008093320321E009EFA1DC87EE90E0909336038093A0
:14EA640035031C01322C2224309236032092350320908D0281
:14EA7800332440903503509036034228532850923603409240
:14EA8C00350384D6F8D2EDC08FE08093320321E008EF7EDC64
:14EAA00087EE90E090933603809335031C01322C2224309253
:14EAB40036032092350320908D023324409035035090360374
:14EAC80042285328509236034092350361D6D5D282E08093DD
:14EADC001703222433243092160320921503C3DCC0C08FE03C
:14EAF000809332038AEF97EE90933603809335034BD6BFD273
:14EB0400B4C08FE08093320321E005EB45DC20908D0233242A
:14EB180030923603209235032090350330903603322C22247F
:14EB2C00309236032092350320908E02332440903503509071
:14EB4000360342285328509236034092350324D698D28DC0CD
:14EB54008FE0809332038CEF97EE909336038093350318D661
:14EB68008CD281E0809317032224332430921603209215036B
:14EB7C007ADC77C08FE08093320321E007EB08DC20908D022B
:14EB9000332430923603209235032090350330903603322CF6
:14EBA4002224309236032092350320908E0233244090350393
:14EBB80050903603422853285092360340923503E7D55BD23D
:14EBCC0082E08093170322243324309216032092150349DC3F
:14EBE00046C0222706EBDADB20908D023324309236032092E9
:14EBF40035032090350330903603322C2224309236032092A3
:14EC0800350320908E02332440903503509036034228532823
:14EC1C0050923603409235038FE0809332032BD220C021E02A
:14EC300008EBB4DB20908D0233243092360320923503209023
:14EC4400350330903603322C22243092360320923503C10140
:14EC58008F6F90933603809335038FE08093320397D50BD203
:14EC6C00F3DA222420921A0388B7816088BF89B7816089BFE2
:14EC800044CD08952A923A928A939A93AA93EA93FA932FB6D4
:14EC94002A92222425BCF89489B78E7F89BF33243092190333
:14ECA8002092180309C0809118039091190301969093190383
:14ECBC008093180380911803909119038430E0E09E0778F329
:14ECD00088B7816088BF809901C0C0C1222424BC83E085BDA3
:14ECE40029C024B43324309205012092040180E590E0821519
:14ECF800930508F4AFC180991BC022243324309219032092E3
:14ED0C00180309C080911803909119030196909319038093BD
:14ED2000180380911803909119038430E0E09E0778F38099BE
:14ED340001C031C0D6CF24B43324309205012092040180E561
:14ED480090E08215930508F485C188B78170813001F52224B9
:14ED5C003324309219032092180309C080911803909119036F
:14ED700001969093190380931803809118039091190384306E
:14ED8400E0E09E0778F388B7816088BF80B38170813009F472
:14ED980001C0CFCF24B433243092050120920401222424BC34
:14EDAC002090040130900501C1018C33E0E09E0728F080E575
:14EDC00090E08215930508F449C189E080931B03A6C024B4C2
:14EDD4003324309205012092040180E590E08215930508F455
:14EDE80039C180991BC022243324309219032092180309C018
:14EDFC00809118039091190301969093190380931803809185
:14EE10001803909119038430E0E09E0778F3809901C031C047
:14EE2400D6CF24B43324309205012092040180E590E082151B
:14EE3800930508F40FC188B78170813001F52224332430922C
:14EE4C0019032092180309C0809118039091190301969093DD
:14EE600019038093180380911803909119038430E0E09E07D2
:14EE740078F388B7816088BF80B38170813009F401C0CFCF87
:14EE880024B433243092050120920401222424BC809104018C
:14EE9C00909105018431E0E09E0720F483E080931A03D6C0E4
:14EEB00080910401909105018832E0E09E0750F487E393E0D1
:14EEC400E0911B03FF27E80FF91F81E0808320C0809104011C
:14EED800909105018C33E0E09E0750F487E393E0E0911B032B
:14EEEC00FF27E80FF91F222420820EC080E590E0209004019D
:14EF0000309005018215930508F05FCF83E080931A03A4C0EB
:14EF140080911B03815080931B0380E020901B03821508F4F7
:14EF28007DCF222433243092340320923303209039032220DD
:14EF3C0049F080913303909134038160909334038093330365
:14EF500020903A03222049F0809133039091340382609093A1
:14EF640034038093330320903B03222049F080913303909148
:14EF780034038460909334038093330320903C03222049F05D
:14EF8C00809133039091340388609093340380933303209097
:14EFA0003D03222049F08091330390913403806190933403C8
:14EFB4008093330320903E03222049F08091330390913403F5
:14EFC8008062909334038093330320903F03222049F0809132
:14EFDC00330390913403806490933403809333032090400319
:14EFF000222049F0809133039091340380689093340380939E
:14F00400330381E08093370382E080931B0312C087E393E0D2
:14F01800E0911B03FF27E80FF91F208030903703322430926E
:14F02C00370380911B038F5F80931B0380911B038A3050F31C
:14F040002090380330903703321421F481E080931A030AC021
:14F0540082E080931A0306C088B7816088BF89B7816089BF80
:14F06800222425BC789429902FBEF991E991A9919991899139
:14F07C003990299018954A938FB78F778FBF8091650088607C
:14F0900080936500809132038870869586958695809331031E
:14F0A40080913203847086958695809330038091320382706A
:14F0B800869580932F0380913203817080932E032FE030E04A
:14F0CC000091350310913603007010780E9464FC00932D03D0
:14F0E0002EE030E00091350310913603007010740E9464FC65
:14F0F40000932C032DE030E000913503109136030070107294
:14F108000E9464FC00932B032CE030E0009135031091360371
:14F11C00007010710E9464FC00932A032BE030E00091350348
:14F1300010913603007018700E9464FC009329032AE030E01E
:14F144000091350310913603007014700E9464FC0093280360
:14F1580029E030E00091350310913603007012700E9464FCF3
:14F16C00009327038091350390913603807091701C01232CD2
:14F1800033242092260327E030E00091350310913603007817
:14F1940010700E9464FC0093250326E030E0009135031091AA
:14F1A8003603007410700E9464FC0093240325E030E00091C4
:14F1BC00350310913603007210700E9464FC0093230380916F
:14F1D000350390913603807190701C01369427943694279481
:14F1E400369427943694279420922203809135039091360393
:14F1F800887090701C013694279436942794369427942092AD
:14F20C0021038091350390913603847090701C013694279491
:14F220003694279420922003809135039091360382709070EB
:14F234001C013694279420921F0380913503909136038170BC
:14F24800907080931E0381E080931D0342E00DC08CE193E01B
:14F25C00E42FFF27E80FF91F208030901D03322430921D039E
:14F270004395463188F322243324309219032092180309C0AF
:14F284008091180390911903019690931903809318038091F8
:14F298001803909119038032E0E09E0778F380916500877F0C
:14F2AC008093650022243324309219032092180309C08091B4
:14F2C0001803909119030196909319038093180380911803B2
:14F2D400909119038031E0E09E0778F38091650080618093FE
:14F2E800650022243324309219032092180309C08091180370
:14F2FC00909119030196909319038093180380911803909170
:14F3100019038032E0E09E0778F3809165008F7E8093650050
:14F3240022243324309219032092180309C080911803909177
:14F33800190301969093190380931803809118039091190338
:14F34C008031E0E09E0778F380916500886080936500222410
:14F360003324309219032092180309C0809118039091190365
:14F37400019690931903809318038091180390911903803266
:14F38800E0E09E0778F322243324309219032092180309C090
:14F39C008091180390911903019690931903809318038091DF
:14F3B0001803909119038032E0E09E0778F322243324309210
:14F3C40019032092180309C080911803909119030196909360
:14F3D80019038093180380911803909119038032E0E09E0757
:14F3EC0078F322243324309219032092180309C08091180365
:14F4000090911903019690931903809318038091180390916A
:14F4140019038032E0E09E0778F32224332430921903209219
:14F42800180309C0809118039091190301969093190380939A
:14F43C00180380911803909119038032E0E09E0778F38091A5
:14F450006500877F809365002224332430921903209218037D
:14F4640009C08091180390911903019690931903809318035E
:14F4780080911803909119038031E0E09E0778F345E124C18B
:14F48C008CE193E0E42FFF27E80FF91F2080222009F475C030
:14F4A00080916500806180936500222433243092190320925C
:14F4B400180309C0809118039091190301969093190380930E
:14F4C800180380911803909119038032E0E09E0778F3809119
:14F4DC0065008F7E80936500222433243092190320921803EA
:14F4F00009C0809118039091190301969093190380931803D2
:14F5040080911803909119038031E0E09E0778F38091650093
:14F5180088608093650022243324309219032092180309C06E
:14F52C0080911803909119030196909319038093180380914D
:14F540001803909119038032E0E09E0778F380916500877F61
:14F554008093650022243324309219032092180309C0809109
:14F56800180390911903019690931903809318038091180307
:14F57C00909119038031E0E09E0778F3A4C080916500806102
:14F590008093650022243324309219032092180309C08091CD
:14F5A4001803909119030196909319038093180380911803CB
:14F5B800909119038032E0E09E0778F3809165008F7E8093EA
:14F5CC00650022243324309219032092180309C08091180389
:14F5E000909119030196909319038093180380911803909189
:14F5F40019038031E0E09E0778F38091650088608093650090
:14F6080022243324309219032092180309C080911803909190
:14F61C00190301969093190380931803809118039091190351
:14F630008032E0E09E0778F3222433243092190320921803FC
:14F6440009C08091180390911903019690931903809318037C
:14F6580080911803909119038032E0E09E0778F32224332416
:14F66C00309219032092180309C08091180390911903019616
:14F68000909319038093180380911803909119038032E0E02E
:14F694009E0778F380916500877F80936500222433243092FF
:14F6A80019032092180309C080911803909119030196909379
:14F6BC0019038093180380911803909119038031E0E09E0771
:14F6D00078F34A9580E0841708F4D8CE8091650080618093D5
:14F6E400650022243324309219032092180309C08091180370
:14F6F800909119030196909319038093180380911803909170
:14F70C0019038032E0E09E0778F3809165008F7E8093650050
:14F7200022243324309219032092180309C080911803909177
:14F73400190301969093190380931803809118039091190338
:14F748008031E0E09E0778F3442719C022243324309219036D
:14F75C002092180309C08091180390911903019690931903C4
:14F770008093180380911803909119038032E0E09E0778F36C
:14F78400439582E3841720F388B7816088BF7894499108959C
:14F7980022242EBC85E19FEF9DBD8CBD85E08EBD86B78460C5
:14F7AC0086BF26B622FEFDCF22242EBC86B7846086BF089509
:14F7C0003A932A931A930A9308950A921A928A939A93029F91
:14F7D400C001129F900D039F900D8C019991899119900990C0
:14F7E80008950E943FFC7A920E9458FC59F177240E945EFCB0
:14F7FC0019F48C019D0124C00A921A92089FB02CA12C289F7E
:14F81000902C812C189FA00C911C871C099FA00C911C871C24
:14F82400199F900C811C0A9F900C811C389F800C299F800C46
:14F838001A9F800C0B9F800C199009900B2D1A2D292D382DC5
:14F84C0079900C944DFCA990B990C990D990E990F990499196
:14F8600059916991799108957A936A935A934A93FA92EA922D
:14F87400DA92CA92BA92AA9208958A929A92AA92BA92EA9346
:14F888008A939A93AA93BA9389859A85AB85BC850895B99113
:14F89C00A99199918991E991B990A990999089902496089545
:14F8B000EE27E02BE12BE22BE32B0895EE27E82BE92BEA2B0F
:12F8C400EB2B0895222321F0169507952A95FACF0895BD
:00000001FF
