:040000000C94480014
:040010000C948017B5
:040040000C9492008A
:040048000C945F179E
:04005C000C941917D0
:14008C000000FA40CFEFD0E1CDBFDEBFC058D0400AEA0883E7
:1400A0000024E0E0F1E013E0E732F10711F00192FBCF0083B2
:1400B400E0E9F0E0A0E0B1E010E000E00BBFE039F10721F0D2
:1400C800C89531960D92F9CF0E945905FFCF22242BBA87E039
:1400DC008ABB28BA80E887BB25BA24BA22BA86E081BB23B829
:1400F00022B82092620087E080936100209265002092640006
:14010400089522242AB882E08BB986E08093950080E189B9CB
:140118002092900088E98AB9089518952A928A939A932FB6A8
:14012C002A9280911A0390911B03019790931B0380931A038D
:140140008030890761F4222422BE81E08093B70287B78E7F78
:1401540087BF8AB18F778AB902C086E082BF29902FBE999194
:140168008991299018950E94EA1D5901C02E442709C080ED71
:14017C0092E0E42FFF27E80FF91F8FEF808343954A34A8F343
:1401900022242092CF02442710C05D9BFECF662701C063954C
:1401A400683CE8F38DE091E0E42FFF27E80FF91F20802CB81E
:1401B80043954C1570F3AA2011F4BB2011F122242092B7023A
:1401CC00B0921B03A0921A0386E082BF83B7866083BF86B72A
:1401E000816086BF87B7816087BF4CB1579A03C00027112770
:1401F400FAD12090B7022220C9F387B78E7F87BF8AB18F77F3
:140208008AB90C94F31D0E94DF1D6901E02EAA84442709C077
:14021C0080ED92E0E42FFF27E80FF91F8FEF808343954A34D0
:14023000A8F322242092CF02442710C05D9BFECF662701C008
:140244006395683CE8F38DE091E0E42FFF27E80FF91F208069
:140258002CB843954E1570F3CC2011F4DD2039F12224209200
:14026C00B702D0921B03C0921A0386E082BF83B7866083BFCD
:1402800086B7816086BF87B7816087BF4CB1579A08C00027C5
:140294001127A9D12090CF022A1408F004C02090B70222207E
:1402A800A1F387B78E7F87BF8AB18F778AB90C94D41D4A932B
:1402BC006A93013009F07FC0662737C0D19AD99A22243324C9
:1402D00030929C0220929B0209C080919B0290919C0201969E
:1402E40090939C0280939B0280919B0290919C028A32E0E0AC
:1402F8009E0778F3D19A8BB38D7F8BBB2224332430929C02EA
:14030C0020929B0209C080919B0290919C02019690939C0200
:1403200080939B0280919B0290919C028A32E0E09E0778F320
:1403340063956E3138F244273EC0D19A8BB38D7F8BBB662703
:140348000CC0000000000000000000000000000000000000D5
:14035C00000000006395242E332488EC90E02C014218530826
:14037000262E33242414350444F3209021033090220325FC4C
:1403840003C0D19AD99A04C0D19A8BB38D7F8BBB66270CC0AC
:14039800000000000000000000000000000000000000000051
:1403AC0000006395842F8E5C681780F34395483C08F4BFCFD0
:1403C000A4C0023009F0A1C0662745C080916100846080933E
:1403D4006100809162008460809362002224332430929C02EB
:1403E80020929B0209C080919B0290919C02019690939C0224
:1403FC0080939B0280919B0290919C028A32E0E09E0778F344
:1404100080916100846080936100809162008B7F809362001C
:140424002224332430929C0220929B0209C080919B029091E0
:140438009C02019690939C0280939B0280919B0290919C029D
:14044C008A32E0E09E0778F363956E3108F4B8CF442752C079
:1404600080916100846080936100809162008B7F80936200CC
:1404740066270CC0000000000000000000000000000000001B
:140488000000000000006395242E332488EC90E02C01421854
:14049C005308262E33242414350444F320901F0330902003E9
:1404B00025FC0BC0809161008460809361008091620084602B
:1404C400809362000AC08091610084608093610080916200A8
:1404D8008B7F8093620066270CC00000000000000000000038
:1404EC000000000000000000000000006395842F8E5C6817E8
:1405000080F34395483C08F4ABCF6991499108950E94EA1D88
:14051400A02E2497A7B883EC86B9CC24DD2403C0C60101962B
:140528006C01C6018436E0E09E07C0F386B180748034E1F306
:14053C00C4B0DD24C5B0DD2480E0888389838A838B83AA2460
:140550002CC083EC86B9CC24DD2403C0C60101966C01C601B7
:140564008436E0E09E07C0F386B180748034E1F3C4B0DD2489
:1405780025B03324322C2224C228D328C60193706C011C0166
:14058C0044245524688079808A809B80620C731C841C951C26
:1405A000688279828A829B82A3948A2D803288F287E090E048
:1405B400088119812A813B818A930E940C1E088319832A83EC
:1405C8003B834FEF50E060E070E0288039804A805B80242217
:1405DC00352246225722022D24960C94F31D0E94EA1D580138
:1405F000249722242EBC84EC90E28A159B0508F45C0185010C
:140604000E944A1E088319832A833B830CE810E00E94B01DF3
:14061800CE019A938A930E944D1F088319832A833B8308818C
:14062C0019812A813B810E94181E680116014424552440E060
:1406400050E061E070E042195309640975095DBD4CBD85E0BB
:140654008EBD86B7846086BF40C189B382708695813009F0ED
:1406680070C007E051DF802F99279070982F88278070E091F1
:14067C002103F0912203F070E82BF92BF0932203E0932103CA
:1406900020901E033324CF01892F992790702816390618F55C
:1406A4008AB387608ABB8BB38D7F8BBB8BB3887F8BBB8091AD
:1406B8006100876080936100809162008B7F8093620080916F
:1406CC006200887F80936200BF9A88B38F7788BBCF018061AE
:1406E000909322038093210330C08091210390912203892F64
:1406F400992790708431E0E09E0728F58AB387608ABB8BB354
:140708008D7F8BBB8BB3887F8BBB8091610087608093610033
:14071C00809162008B7F8093620080916200887F80936200E8
:14073000BF9A88B38F7788BB80912103909122038460909356
:1407440022038093210389B399278270907095958795817020
:140758009070E0912103F0912203EE7FE82BF92BF093220306
:14076C00E093210389B3992784709070959587959595879566
:1407800081709070880F991F82709070ED7FE82BF92BF0930D
:140794002203E093210380B1847086958695813009F070C060
:1407A80006E0B2DE802F99279070982F88278070E0911F035F
:1407BC00F0912003F070E82BF92BF0932003E0931F03209003
:1407D0001D033324CF01892F992790702816390618F58AB38F
:1407E40087608ABB8BB38D7F8BBB8BB3887F8BBB8091610048
:1407F800876080936100809162008B7F80936200809162002D
:14080C00887F80936200BF9A88B38F7788BBCF0180619093AB
:14082000200380931F0330C080911F0390912003892F99278D
:1408340090708431E0E09E0728F58AB387608ABB8BB38D7FC6
:140848008BBB8BB3887F8BBB809161008760809361008091ED
:14085C0062008B7F8093620080916200887F80936200BF9A5F
:1408700088B38F7788BB80911F03909120038460909320034F
:1408840080931F0380B19927847090709595879595958795BA
:1408980081709070E0911F03F0912003EE7FE82BF92BF093FD
:1408AC002003E0931F0380B199278170907081709070880F16
:1408C000991F82709070ED7FE82BF92BF0932003E0931F039C
:1408D400AA2019F4BB2009F403C026B622FEBDCE22242EBCE7
:1408E80024960C94F31DF3DB0ADC8AB387608ABB8BB38D7F2B
:1408FC008BBB8BB3887F8BBB80916100876080936100809139
:1409100062008B7F8093620080916200887F80936200BF9AAA
:1409240088B38F7788BBD09A8BB38E7F8BBB809161008260EC
:1409380080936100809162008D7F8093620089B39927827055
:14094C0090709595879581709070E0912103F0912203EE7FB8
:14096000E82BF92BF0932203E093210389B39927847090701D
:14097400959587959595879581709070880F991F82709070B1
:14098800ED7FE82BF92BF0932203E0932103CF018B7F90937C
:14099C00220380932103877F90932203809321038F7E909336
:1409B0002203809321038F7D90932203809321038F73909327
:1409C4002203809321039070909322038093210380B1992753
:1409D80084709070959587959595879581709070E0911F0307
:1409EC00F0912003EE7FE82BF92BF0932003E0931F0380B143
:140A000099278170907081709070880F991F82709070ED7F93
:140A1400E82BF92BF0932003E0931F03CF018B7F909320033C
:140A280080931F03877F9093200380931F038F7E90932003B1
:140A3C0080931F038F7D9093200380931F038F7390932003A2
:140A500080931F0390709093200380931F03222420929D024B
:140A640033243092A00220929F0230920B0120920A01309223
:140A7800090120920801449A83E088B9439A449A88B7886041
:140A8C0088BF80916A00806C80936A0089B7886089BF80E853
:140AA0008FBF929A02E310E0A0DD82B38B7F82BB08952597A1
:140AB4001CDF02E310E097DD002711270E94A21D00931E0376
:140AC80001E010E00E94A21D00931D0380911E038D3418F436
:140ADC008DE480931E038AE920901E03821510F480931E034E
:140AF00080911D038D3418F48DE480931D038AE920901D030D
:140B0400821510F480931D0305E000DD402F0D3210F00C94FF
:140B1800151722242AB883B18D7F83B9119A83B18D7F83B9D2
:140B2C00FFCF002711275BDD80919D02823059F422242092A9
:140B40009D0288B7886088BF89B7886089BF0C941517809147
:140B54009D02813011F00C94151720909F023090A00222207B
:140B680019F4332009F4B8C487E591E0E0910801F0910901BE
:140B7C00E80FF91F2090B9023090BA02208280910801909192
:140B900009010196909309018093080120900A0130900B01E0
:140BA4008215930511F00C940C1780919F029091A002813024
:140BB800E0E09E0709F0E5C088EE80930D0180E480930E0109
:140BCC0088E880930F0122242092100181E28093110182E28D
:140BE0008093120183E28093130184E28093140182E3809349
:140BF4001501332430929A02209299021AC0409199025091AE
:140C08009A0287E591E0FA01E80FF91F20808DE091E0FA01DC
:140C1C003996E80FF91F20828091990290919A020196909321
:140C30009A02809399028091990290919A028034E0E09E07E4
:140C4400F0F224E130E00AE490DA8091CF028930B1F48091FC
:140C5800D002853591F48091D102803471F48091D2028838D5
:140C6C0051F48091BB029091BC0280709093BC028093BB02E1
:140C800006C08AEA90E09093BC028093BB0288EE80930D016E
:140C940080E480930E0188E880930F0181E08093100181E24B
:140CA8008093110182E28093120183E28093130184E2809384
:140CBC00140182E3809315012224332430929A022092990239
:140CD0001CC04091990250919A0287E591E0FA01E05CFF4FE9
:140CE400E80FF91F20808DE091E0FA013996E80FF91F2082F4
:140CF8008091990290919A02019690939A028093990280916A
:140D0C00990290919A028034E0E09E07E0F224E130E00AE48D
:140D200026DA8091CF028930B1F48091D002853591F480914C
:140D3400D102803471F48091D202883851F48091BB029091E6
:140D4800BC0290709093BC028093BB0209C08091BB02909170
:140D5C00BC0295659093BC028093BB02222433243092A00219
:140D700020929F0230920B0120920A018AE08093B8020E94B8
:140D840097190C940C1780919F029091A0028230E0E09E075C
:140D980009F0E6C088EE80930D0180E480930E0188E8809308
:140DAC000F0182E08093100181E28093110182E2809312018B
:140DC00083E28093130184E28093140182E380931501222431
:140DD400332430929A02209299021AC04091990250919A0246
:140DE80087E591E0FA01E80FF91F20808DE091E0FA013996C8
:140DFC00E80FF91F20828091990290919A02019690939A0273
:140E1000809399028091990290919A028034E0E09E07F0F2BC
:140E240024E130E00AE4A1D98091CF028930B1F48091D0021A
:140E3800853591F48091D102803471F48091D202883851F480
:140E4C008091BB029091BC0280709093BC028093BB0206C07E
:140E60008AEA90E09093BC028093BB0288EE80930D0180E4EE
:140E740080930E0188E880930F0183E08093100181E28093B8
:140E8800110182E28093120183E28093130184E280931401A0
:140E9C0082E3809315012224332430929A02209299021CC090
:140EB0004091990250919A0287E591E0FA01E05CFF4FE80FEC
:140EC400F91F20808DE091E0FA013996E80FF91F20828091F8
:140ED800990290919A02019690939A028093990280919902FE
:140EEC0090919A028034E0E09E07E0F224E130E00AE437D937
:140F00008091CF028930B1F48091D002853591F48091D10297
:140F1400803471F48091D202883851F48091BB029091BC0219
:140F280090709093BC028093BB0209C08091BB029091BC028E
:140F3C0095659093BC028093BB02222433243092A002209243
:140F50009F0230920B0120920A018BE08093B8020E949719D7
:140F64000C940C1780919F029091A0028330E0E09E0709F030
:140F7800A4C0222433243092A00220929F0230920B0120922D
:140F8C000A0189E08093B802A0905801BB24BA2CAA24209044
:140FA00057013324A228B328C0905A01DD24DC2CCC24209095
:140FB40059013324C228D328222430929A022092990273C06F
:140FC80088EE80930D0180E480930E018AE980930F0188E0FA
:140FDC00809310012090990230909A0220921101232C3324CC
:140FF00020921201A09213011501232C33242092140126E059
:1410040030E009E0B2D822243324309205012092040139C040
:1410180080ED92E0E0910401F0910501EE0FFF1F3196E80F0F
:14102C00F91F208033243092BC022092BB02322C222430924C
:14104000BC022092BB02E0910401F0910501EE0FFF1FE80F60
:14105400F91F208033244090BB025090BC0242285328509287
:14106800BC024092BB020E9497190AE010E0B9DA8091040152
:14107C0090910501019690930501809304018091040190912A
:1410900005018032E0E09E0708F4BECF8091990290919A023D
:1410A400019690939A02809399022090990230909A022C144D
:1410B8003D0408F485CF0C940C1780919F029091A0028430A7
:1410CC00E0E09E0711F00C940C17222433243092BC02209218
:1410E000BB0288EE80930D0180E480930E0184E880930F0193
:1410F4002092100181E28093110182E28093120183E280939B
:14110800130184E28093140182E38093150130929A02209293
:14111C0099021AC04091990250919A0287E591E0FA01E80F92
:14113000F91F20808DE091E0FA013996E80FF91F2082809189
:14114400990290919A02019690939A0280939902809199028F
:1411580090919A028034E0E09E07F0F224E130E00AE401D8EF
:14116C008091CF02893061F48091D002853541F48091D102C9
:14118000803421F48091D202843849F08091BB029091BC020B
:1411940081609093BC028093BB0288EE80930D0180E48093A7
:1411A8000E0184E880930F0181E08093100181E28093110188
:1411BC0082E28093120183E28093130184E28093140182E316
:1411D000809315012224332430929A02209299021CC04091ED
:1411E400990250919A0287E591E0FA01E05CFF4FE80FF91F6E
:1411F80020808DE091E0FA013996E80FF91F2082809199023E
:14120C0090919A02019690939A028093990280919902909140
:141220009A028034E0E09E07E0F224E130E00AE40E94B700D7
:141234008091CF02893061F48091D002853541F48091D10200
:14124800803421F48091D202843849F08091BB029091BC0242
:14125C0082609093BC028093BB0288EE80930D0180E48093DD
:141270000E0184E880930F0182E08093100181E280931101BE
:1412840082E28093120183E28093130184E28093140182E34D
:14129800809315012224332430929A02209299021CC0409124
:1412AC00990250919A0287E591E0FA01E058FF4FE80FF91FA9
:1412C00020808DE091E0FA013996E80FF91F20828091990275
:1412D40090919A02019690939A028093990280919902909178
:1412E8009A028034E0E09E07E0F224E130E00AE40E94B7000F
:1412FC008091CF02893061F48091D002853541F48091D10238
:14131000803421F48091D202843849F08091BB029091BC0279
:1413240084609093BC028093BB0288EE80930D0180E4809312
:141338000E0184E880930F0183E08093100181E280931101F4
:14134C0082E28093120183E28093130184E28093140182E384
:14136000809315012224332430929A02209299021CC040915B
:14137400990250919A0287E591E0FA01E054FF4FE80FF91FE4
:1413880020808DE091E0FA013996E80FF91F208280919902AC
:14139C0090919A02019690939A0280939902809199029091AF
:1413B0009A028034E0E09E07E0F224E130E00AE40E94B70046
:1413C4008091CF02893061F48091D002853541F48091D1026F
:1413D800803421F48091D202843849F08091BB029091BC02B1
:1413EC0088609093BC028093BB0288EE80930D0180E4809346
:141400000E0184E880930F0184E08093100181E2809311012A
:1414140082E28093120183E28093130184E28093140182E3BB
:14142800809315012224332430929A02209299021CC0409192
:14143C00990250919A0287E591E0FA01E050FF4FE80FF91F1F
:1414500020808DE091E0FA013996E80FF91F208280919902E3
:1414640090919A02019690939A0280939902809199029091E6
:141478009A028034E0E09E07E0F224E130E00AE40E94B7007D
:14148C008091CF02893061F48091D002853541F48091D102A6
:1414A000803421F48091D202843849F08091BB029091BC02E8
:1414B40080619093BC028093BB02222433243092A0022092DF
:1414C8009F0230920B0120920A018CE08093B8020E94971959
:1414DC000C940C172090B9023090BA0235942794359427944A
:1414F00035942794359427942092B8024091B9025091BA024B
:14150400407F50704036E0E05E0709F434C280E690E0841755
:14151800950774F14033E0E05E0709F4E2C080E390E0841719
:14152C00950794F04031E0E05E0709F455C04031E0E05E074D
:1415400014F40C940C174032E0E05E0709F48AC00C940C172B
:141554004034E0E05E0709F4FAC04034E0E05E0714F40C94F2
:141568000C174035E0E05E0709F446C10C940C174039E0E0B2
:14157C005E0709F44CC580E990E08417950794F04037E0E01D
:141590005E0709F4C2C24037E0E05E0714F40C940C17403882
:1415A400E0E05E0709F48BC30C940C17403BE0E05E0711F45B
:1415B8000C94851380EB90E0841795073CF0403AE0E05E070A
:1415CC0009F4D7C70C940C17403CE0E05E0711F40C944B1408
:1415E0000C940C1788EE80930D0180E480930E018DE880938F
:1415F4000F018FE18093100125E030E009E00E94B7008091D7
:14160800CF02893099F48091D002853579F48091D102803415
:14161C0059F48091D2028D3839F4222433243092BC022092C7
:14163000BB0206C08FEF90E09093BC028093BB022090BB0217
:141644003090BC02322C22243092BC022092BB023092BC0201
:141658002092BB020E9497190C940C1788EE80930D0180E4FF
:14166C0080930E018DE880930F018FE18093100125E030E007
:1416800009E00E94B7008091CF028930A1F48091D002853547
:1416940081F48091D102803461F48091D2028D3841F4209051
:1416A800D30233243092BC022092BB0206C08FEF90E090933C
:1416BC00BC028093BB022090BB023090BC02322C222430923B
:1416D000BC022092BB02C10181639093BC028093BB020E94E0
:1416E40097190C940C170EE110E00E94F50205E00E948802F6
:1416F800A02E2A2C33243092BC022092BB020EE110E00E94F3
:14170C00F5022090BB023090BC02322C22243092BC02209211
:14172000BB0204E00E948802A02E2A2C33244090BB02509000
:14173400BC02422853285092BC024092BB020EE110E00E944E
:14174800F5020E9497190C940C1788EE80930D0180E4809373
:14175C000E0189E880930F0189E08093100122E330E009E04B
:141770000E94B7002090D10233243092BC022092BB02209093
:14178400BB023090BC02322C22243092BC022092BB022090D3
:14179800D00233244090BB025090BC02422853285092BC0264
:1417AC004092BB020E9497190EE110E00E94F5022090D3024B
:1417C00033243092BC022092BB022090BB023090BC02322C86
:1417D40022243092BC022092BB022090D20233244090BB0264
:1417E8005090BC02422853285092BC024092BB020E949719E9
:1417FC000C940C1788EE80930D0180E480930E0189E8809375
:141810000F0189E08093100122E330E009E00E94B70020911F
:14182400D502332700E011E00E94C41D1801442437FC4094A3
:14183800552447FC50943092010120920001509203014092CD
:14184C0002012090D402332444245524809002019090030190
:141860006090000170900101620C731C841C951C709201012F
:14187400609200019092030180920201830194010E94551E04
:1418880010932403009323033093260320932503209025032A
:14189C00309026033092BC022092BB020E9497190EE110E02F
:1418B0000E94F50220902303309024033092BC022092BB02DF
:1418C4000E9497190EE110E00E94F5022091D702332700E082
:1418D80011E00E94C41D1801442437FC4094552447FC509460
:1418EC00309201012092000150920301409202012090D6022E
:14190000332444245524809002019090030160900001709073
:141914000101620C731C841C951C7092010160920001909256
:14192800030180920201830194010E94551E10932403009307
:14193C00230330932603209325032090250330902603309227
:14195000BC022092BB020E9497190EE110E00E94F5022090DC
:141964002303309024033092BC022092BB020E9497190C9481
:141978000C174091B9025091BA024136E0E05E0731F04236DA
:14198C00E0E05E0711F00C940C1780B1847086958695813052
:1419A00071F48091210390912203806C9093220380932103E8
:1419B40004E610E00E94F502A2C089B382708695813009F057
:1419C80050C089B384708695869541F48091B9029091BA02B7
:1419DC008136E0E09E0771F089B3847086958695813099F4D6
:1419F0008091B9029091BA028236E0E09E0759F4809121039B
:141A0400909122038F738064909322038093210325C089B302
:141A180084708695869541F48091B9029091BA028236E0E03A
:141A2C009E0771F089B3847086958695813091F48091B90238
:141A40009091BA028136E0E09E0751F48091210390912203D9
:141A54008F738068909322038093210304E610E00E94F502A2
:141A68004CC080912103909122038B7F90932203809321035A
:141A7C00877F90932203809321038F7E909322038093210345
:141A90008F7D90932203809321038F73909322038093210336
:141AA400BF9AC79A04EF11E00E94F5028091B9029091BA024E
:141AB8008136E0E09E0719F4D29ADA9A04C0D29A8BB38B7F99
:141ACC008BBB22242EBC8DEB90EF9DBD8CBD86B7846086BF90
:141AE00085E08EBD86B7846086BF01E00E945D0126B622FEFF
:141AF400FDCF22242EBC04EF11E00E94F502209021033090D1
:141B080022033092BC022092BB020E9497190C940C174091CF
:141B1C00B9025091BA024137E0E05E0731F04237E0E05E0701
:141B300011F00C940C1789B382708695813071F480911F034B
:141B440090912003806C9093200380931F0304E610E00E9466
:141B5800F502A7C080B1847086958695813009F046C0009977
:141B6C0008C08091B9029091BA028137E0E09E0761F080B155
:141B80008170813099F48091B9029091BA028237E0E09E075B
:141B940059F480911F03909120038F7380649093200380933A
:141BA8001F0320C0009908C08091B9029091BA028237E0E0A4
:141BBC009E0761F080B18170813091F48091B9029091BA021E
:141BD0008137E0E09E0751F480911F03909120038F7380683E
:141BE4009093200380931F0304E610E00E94F5025AC08091D4
:141BF8001F03909120038B7F9093200380931F03877F9093C5
:141C0C00200380931F038F7E9093200380931F038F7D9093B5
:141C2000200380931F038F739093200380931F03BF9AC79A21
:141C340004EF11E00E94F5028091B9029091BA028137E0E0FE
:141C48009E0759F4809161008160809361008091620081607B
:141C5C00809362000AC08091610081608093610080916200FB
:141C70008E7F8093620022242EBC8DEB90EF9DBD8CBD86B7D7
:141C8400846086BF85E08EBD86B7846086BF02E00E945D012B
:141C980026B622FEFDCF22242EBC04EF11E00E94F502209013
:141CAC001F03309020033092BC022092BB020E9497190C943E
:141CC0000C178091B9029091BA028038E0E09E07A1F40EE1A3
:141CD40010E00E94F502BF9AC79A0EE110E00E94F5022224FB
:141CE80033243092BC022092BB020E9497190C940C1780917C
:141CFC00B9029091BA028138E0E09E07F1F40EE110E00E94B8
:141D1000F50220902103309022033092BC022092BB020E947E
:141D240097190EE110E00E94F50220901F033090200330920C
:141D3800BC022092BB020E9497190C940C178091B902909168
:141D4C00BA028238E0E09E0709F047C089B3827086958130AE
:141D600049F480912103909122038860909322038093210350
:141D740080B1847086958695813049F480911F03909120039B
:141D880088609093200380931F038AB387608ABB8BB38D7F31
:141D9C008BBB8BB3887F8BBB80916100876080936100809184
:141DB00062008B7F8093620080916200887F80936200BF9AF6
:141DC40088B38F7788BB08EC10E00E94F502222433243092AB
:141DD800BC022092BB020E9497190C940C178091B9029091C8
:141DEC00BA028338E0E09E0799F5002711270E94A21DA02EEB
:141E0000A0921E0301E010E00E94A21DA02EA0921D030EE13A
:141E140010E00E94F50220901D0333243092BC022092BB021B
:141E28002090BB023090BC02322C22243092BC022092BB0228
:141E3C0020901E0333244090BB025090BC0242285328509278
:141E5000BC024092BB020E949719DEC783E890E02090B902F4
:141E64003090BA02821593050CF0D4C7C1018438E0E09E0745
:141E780049F48DE480931E03282F002711270E949A1DBAC0EB
:141E8C008091B9029091BA028538E0E09E0749F48DE58093B5
:141EA0001E03282F002711270E949A1DA9C08091B9029091A8
:141EB400BA028638E0E09E0749F48CE680931E03282F0027DA
:141EC80011270E949A1D98C08091B9029091BA028738E0E0F5
:141EDC009E0749F48BE780931E03282F002711270E949A1D5B
:141EF00087C08091B9029091BA028838E0E09E0749F48BE819
:141F040080931E03282F002711270E949A1D76C08091B90284
:141F18009091BA028938E0E09E0749F48AE980931E03282F77
:141F2C00002711270E949A1D65C08091B9029091BA028A3859
:141F4000E0E09E0749F48DE480931D03282F01E010E00E947D
:141F54009A1D54C08091B9029091BA028B38E0E09E0749F4A0
:141F68008DE580931D03282F01E010E00E949A1D43C080912B
:141F7C00B9029091BA028C38E0E09E0749F48CE680931D03AE
:141F9000282F01E010E00E949A1D32C08091B9029091BA0221
:141FA4008D38E0E09E0749F48BE780931D03282F01E010E0F5
:141FB8000E949A1D21C08091B9029091BA028E38E0E09E0707
:141FCC0049F48BE880931D03282F01E010E00E949A1D10C0CD
:141FE0008091B9029091BA028F38E0E09E0741F48AE980935D
:141FF4001D03282F01E010E00E949A1D0EE110E00E94F502C0
:14200800222433243092BC022092BB020E949719FFC6809110
:14201C00B9029091BA028039E0E09E0709F011C188EE8093A6
:142030000D0180E480930E0188EC80930F0122242092100168
:1420440024E030E009E00E94B70044272FC004E110E00E9461
:14205800F50281ED92E0E42FFF27EE0FFF1FE80FF91F20809A
:14206C0033243092BC022092BB02322C22243092BC02209244
:14208000BB0280ED92E0E42FFF27EE0FFF1FE80FF91F2080AD
:1420940033244090BB025090BC02422853285092BC0240925F
:1420A800BB020E9497194395403278F288EE80930D0180E466
:1420BC0080930E0188EC80930F0181E08093100124E030E0BE
:1420D00009E00E94B70044272FC081ED92E0E42FFF27EE0F4A
:1420E400FF1FE80FF91F208033243092BC022092BB02322C77
:1420F80022243092BC022092BB0280ED92E0E42FFF27EE0F8A
:14210C00FF1FE80FF91F208033244090BB025090BC02422806
:1421200053285092BC024092BB020E94971904E110E00E9438
:14213400F5024395403278F288EE80930D0180E480930E01CF
:1421480088EC80930F0182E08093100124E030E009E00E94C7
:14215C00B70044272FC081ED92E0E42FFF27EE0FFF1FE80F33
:14217000F91F208033243092BC022092BB02322C22243092F7
:14218400BC022092BB0280ED92E0E42FFF27EE0FFF1FE80FF0
:14219800F91F208033244090BB025090BC0242285328509232
:1421AC00BC024092BB020E94971904E110E00E94F50243953A
:1421C000403278F288EE80930D0180E480930E0188EC80938B
:1421D4000F0183E08093100124E030E009E00E94B70044279F
:1421E8002FC081ED92E0E42FFF27EE0FFF1FE80FF91F208011
:1421FC0033243092BC022092BB02322C22243092BC022092B3
:14221000BB0280ED92E0E42FFF27EE0FFF1FE80FF91F20801B
:1422240033244090BB025090BC02422853285092BC024092CD
:14223800BB020E94971904E110E00E94F5024395403278F261
:14224C00E5C58091B9029091BA028139E0E09E0721F583E093
:1422600090E09093A00280939F0284E090930B0180930A01D0
:142274002224332430920901209208012092B70288EC909330
:142288001B0380931A0386E082BF83B7866083BF86B78160CD
:14229C0086BF87B7816087BFB9C58091B9029091BA028239A2
:1422B000E0E09E07E9F588EE80930D0180E480930E018CE846
:1422C40080930F0188E0809310012224209211012092120188
:1422D8008FEF809313018093140189E0888328E833E109E0A4
:1422EC000E9407018091CF02893099F48091D002853579F402
:142300008091D102803459F48091D2028C3839F42224332471
:142314003092BC022092BB0206C08FEF9FEF9093BC02809300
:14232800BB020E94971974C58091B9029091BA028339E0E034
:14233C009E0709F06BC588EE80930D0180E480930E0187E833
:1423500080930F0122242092100124E030E009E00E94B700F7
:142364008091CF02803491F544272EC004E110E00E94F50282
:1423780081ED92E0E42FFF27EE0FFF1FE80FF91F2080332417
:14238C003092BC022092BB02322C22243092BC022092BB02BB
:1423A00080ED92E0E42FFF27EE0FFF1FE80FF91F20803324F0
:1423B4004090BB025090BC02422853285092BC024092BB02D6
:1423C800B2D74395403280F288EE80930D0180E480930E019F
:1423DC0087E880930F0181E08093100124E030E009E00E9437
:1423F000B7008091CF02803491F544272EC081ED92E0E42FBA
:14240400FF27EE0FFF1FE80FF91F208033243092BC0220924B
:14241800BB02322C22243092BC022092BB0280ED92E0E42F6E
:14242C00FF27EE0FFF1FE80FF91F208033244090BB025090E8
:14244000BC02422853285092BC024092BB026FD704E110E09B
:142454000E94F5024395403280F288EE80930D0180E4809311
:142468000E0187E880930F0182E08093100124E030E009E03C
:14247C000E94B7008091CF02803491F544272EC004E110E0A9
:142490000E94F50281ED92E0E42FFF27EE0FFF1FE80FF91F5C
:1424A400208033243092BC022092BB02322C22243092BC021A
:1424B8002092BB0280ED92E0E42FFF27EE0FFF1FE80FF91F5F
:1424CC00208033244090BB025090BC02422853285092BC0255
:1424E0004092BB0224D74395403280F288EE80930D0180E4A7
:1424F40080930E0187E880930F0183E08093100124E030E085
:1425080009E00E94B7008091CF02803409F080C444272EC051
:14251C0081ED92E0E42FFF27EE0FFF1FE80FF91F2080332471
:142530003092BC022092BB02322C22243092BC022092BB0215
:1425440080ED92E0E42FFF27EE0FFF1FE80FF91F208033244A
:142558004090BB025090BC02422853285092BC024092BB0230
:14256C00E0D604E110E00E94F5024395403280F24DC4809159
:14258000B9029091BA02803AE0E09E0729F581E090E090937E
:14259400A00280939F0280E890930B0180930A01222433248B
:1425A80030920901209208012092B70288EE93E090931B0303
:1425BC0080931A0386E082BF83B7866083BF86B7816086BF6F
:1425D00087B7816087BF20C48091B9029091BA02813AE0E08A
:1425E4009E0709F017C488EE80930D0180E480930E0187E8DE
:1425F80080930F0122242092100125E030E009E00E94B7004C
:14260C008091CF02803491F544272EC004E110E00E94F502D7
:1426200081ED92E0E42FFF27EE0FFF1FE80FF91F208033246C
:142634003092BC022092BB02322C22243092BC022092BB0210
:1426480080ED92E0E42FFF27EE0FFF1FE80FF91F2080332445
:14265C004090BB025090BC02422853285092BC024092BB022B
:142670005ED64395403280F288EE80930D0180E480930E0149
:1426840087E880930F0181E08093100125E030E009E00E948B
:14269800B7008091CF02803409F0BAC344272EC081ED92E032
:1426AC00E42FFF27EE0FFF1FE80FF91F208033243092BC0240
:1426C0002092BB02322C22243092BC022092BB0280ED92E025
:1426D400E42FFF27EE0FFF1FE80FF91F208033244090BB020B
:1426E8005090BC02422853285092BC024092BB021AD604E157
:1426FC0010E00E94F5024395403280F287C38091B90290914E
:14271000BA02803BE0E09E0729F582E090E09093A002809311
:142724009F0280E890930B0180930A012224332430920901E2
:14273800209208012092B70288EE93E090931B0380931A030D
:14274C0086E082BF83B7866083BF86B7816086BF87B78160EE
:1427600087BF5AC38091B9029091BA02813BE0E09E0709F03F
:1427740051C388EE80930D0180E480930E0187E880930F018E
:1427880082E08093100125E030E009E00E94B7008091CF027E
:14279C00803491F544272EC004E110E00E94F50281ED92E048
:1427B000E42FFF27EE0FFF1FE80FF91F208033243092BC023B
:1427C4002092BB02322C22243092BC022092BB0280ED92E020
:1427D800E42FFF27EE0FFF1FE80FF91F208033244090BB0206
:1427EC005090BC02422853285092BC024092BB0298D54395E2
:14280000403280F288EE80930D0180E480930E0187E8809341
:142814000F0183E08093100125E030E009E00E94B7008091B1
:14282800CF02803409F0F4C244272EC081ED92E0E42FFF27F6
:14283C00EE0FFF1FE80FF91F208033243092BC022092BB0278
:14285000322C22243092BC022092BB0280ED92E0E42FFF27C9
:14286400EE0FFF1FE80FF91F208033244090BB025090BC0214
:14287800422853285092BC024092BB0254D504E110E00E9498
:14288C00F5024395403280F2C1C28091B9029091BA02803C9D
:1428A000E0E09E0709F01DC188EE80930D0180E480930E01CB
:1428B40089E880930F0189E08093100122E330E009E00E944F
:1428C800B7008091CF02803409F0A2C22090D10233243092B6
:1428DC00BC022092BB022090BB023090BC02322C222430926A
:1428F000BC022092BB022090D00233244090BB025090BC02A3
:14290400422853285092BC024092BB020ED50EE110E00E9447
:14291800F5022090D30233243092BC022092BB022090BB027C
:14292C003090BC02322C22243092BC022092BB022090D20202
:1429400033244090BB025090BC02422853285092BC024092AA
:14295400BB02EBD40EE110E00E94F5022091D502332700E0B9
:1429680011E00E94C41D1801442437FC4094552447FC5094BF
:14297C00309201012092000150920301409202012090D4028F
:142990003324442455248090020190900301609000017090D3
:1429A4000101620C731C841C951C70920101609200019092B6
:1429B800030180920201830194010E94551E10932403009367
:1429CC00230330932603209325032090250330902603309287
:1429E000BC022092BB02A3D40EE110E00E94F50220902303F1
:1429F400309024033092BC022092BB0296D40EE110E00E940E
:142A0800F5022091D702332700E011E00E94C41D180144240A
:142A1C0037FC4094552447FC509430920101209200015092A6
:142A30000301409202012090D60233244424552480900201E6
:142A4400909003016090000170900101620C731C841C951C19
:142A580070920101609200019092030180920201830194011F
:142A6C000E94551E10932403009323033093260320932503F7
:142A800020902503309026033092BC022092BB024ED40EE181
:142A940010E00E94F50220902303309024033092BC022092B6
:142AA800BB0241D40EE110E00E94F502209021033090220317
:142ABC003092BC022092BB0234D40EE110E00E94F5022090E7
:142AD0001F03309020033092BC022092BB0227D49BC1809196
:142AE400B9029091BA02853CE0E09E0709F065C188EE809378
:142AF8000D0180E480930E0183E880930F012224209210019F
:142B0C0025E030E009E00E94B7008091CF02803491F54427D7
:142B20002EC004E110E00E94F50281ED92E0E42FFF27EE0F2F
:142B3400FF1FE80FF91F208033243092BC022092BB02322C1C
:142B480022243092BC022092BB0280ED92E0E42FFF27EE0F2F
:142B5C00FF1FE80FF91F208033244090BB025090BC024228AC
:142B700053285092BC024092BB02D9D34395403280F288EEC9
:142B840080930D0180E480930E0183E880930F0181E0809394
:142B9800100125E030E009E00E94B7008091CF02803491F5A5
:142BAC0044272EC081ED92E0E42FFF27EE0FFF1FE80FF91F79
:142BC000208033243092BC022092BB02322C22243092BC02F7
:142BD4002092BB0280ED92E0E42FFF27EE0FFF1FE80FF91F3C
:142BE800208033244090BB025090BC02422853285092BC0232
:142BFC004092BB0296D304E110E00E94F5024395403280F2A3
:142C100088EE80930D0180E480930E0183E880930F0182E0A3
:142C24008093100125E030E009E00E94B7008091CF0280348B
:142C380091F544272EC081ED92E0E42FFF27EE0FFF1FE80F7E
:142C4C00F91F208033243092BC022092BB02322C2224309210
:142C6000BC022092BB0280ED92E0E42FFF27EE0FFF1FE80F09
:142C7400F91F208033244090BB025090BC024228532850924B
:142C8800BC024092BB024FD304E110E00E94F5024395403211
:142C9C0080F288EE80930D0180E480930E0183E880930F0107
:142CB00083E08093100125E030E009E00E94B7008091CF0250
:142CC400803491F544272EC081ED92E0E42FFF27EE0FFF1F35
:142CD800E80FF91F208033243092BC022092BB02322C22244F
:142CEC003092BC022092BB0280ED92E0E42FFF27EE0FFF1FB2
:142D0000E80FF91F208033244090BB025090BC0242285328A9
:142D14005092BC024092BB0208D304E110E00E94F50243955B
:142D2800403280F288EE80930D0180E480930E0183E8809318
:142D3C000F0184E08093100125E030E009E00E94B700809183
:142D5000CF02803409F060C044272EC081ED92E0E42FFF275F
:142D6400EE0FFF1FE80FF91F208033243092BC022092BB024B
:142D7800322C22243092BC022092BB0280ED92E0E42FFF279C
:142D8C00EE0FFF1FE80FF91F208033244090BB025090BC02E7
:142DA000422853285092BC024092BB02C0D204E110E00E9402
:142DB400F5024395403280F22DC08091B9029091BA028A3CFC
:142DC800E0E09E0729F584E090E09093A00280939F0280E4C3
:142DDC0091E090930B0180930A01222433243092090120920A
:142DF00008012092B70280ED97E090931B0380931A0386E0A0
:142E040082BF83B7866083BF86B7816086BF87B7816087BF4F
:142E1800222420929D0288B7886088BF89B7886089BF0C9491
:142E2C009705259608951A922A928A939A931FB61A9289B32F
:142E400082708695813049F480912103909122038062909303
:142E540022038093210380B1847086958695813049F48091B4
:142E68001F039091200380629093200380931F038AB387606F
:142E7C008ABB8BB38D7F8BBB8BB3887F8BBB80916100876089
:142E900080936100809162008B7F8093620080916200887F4E
:142EA40080936200BF9A88B38F7788BB19901FBE99918991FE
:142EB8002990199018952A928A939A93EA93FA932FB62A9246
:142ECC008091CF028A3470F480ED92E0E091CF02FF27E80FB0
:142EE000F91F2CB020828091CF028F5F8093CF0229902FBEEE
:142EF400F991E99199918991299018952A923A920A931A934A
:142F08008A939A93AA93EA93FA932FB62A928FB78F778FBFE9
:142F1C0089B7877F89BF222425BC332430929C0220929B02E6
:142F300009C080919B0290919C02019690939C0280939B024F
:142F440080919B0290919C028430E0E09E0778F388B7886061
:142F580088BF839901C0CDC1222424BC83E085BD29C024B427
:142F6C003324309298022092970280E590E08215930508F453
:142F8000BCC183991BC02224332430929C0220929B0209C0B4
:142F940080919B0290919C02019690939C0280939B028091A3
:142FA8009B0290919C028430E0E09E0778F3839901C031C067
:142FBC00D6CF24B43324309298022092970280E590E082151A
:142FD000930508F492C188B78870883001F5222433243092C2
:142FE4009C0220929B0209C080919B0290919C0201969093FC
:142FF8009C0280939B0280919B0290919C028430E0E09E07F1
:14300C0078F388B7886088BF80B38870883009F401C0CFCF98
:1430200024B433243092980220929702222424BC2090970257
:1430340030909802C1018C33E0E09E0728F080E590E08215C4
:14304800930508F456C189E080939E02B3C024B43324309249
:14305C0098022092970280E590E08215930508F446C1839958
:143070001BC02224332430929C0220929B0209C080919B02AE
:1430840090919C02019690939C0280939B0280919B029091A2
:143098009C028430E0E09E0778F3839901C031C0D6CF24B4B7
:1430AC003324309298022092970280E590E08215930508F412
:1430C0001CC188B78870883001F52224332430929C0220928B
:1430D4009B0209C080919B0290919C02019690939C028093AA
:1430E8009B0280919B0290919C028430E0E09E0778F388B707
:1430FC00886088BF80B38870883009F401C0CFCF24B4332423
:143110003092980220929702222424BC809197029091980279
:143124008431E0E09E0720F483E080939D02E3C02090970268
:1431380030909802C1018431E0E09E0770F08832E0E09E07CE
:14314C0050F48DEB92E0E0919E02FF27E80FF91F81E0808397
:1431600028C000919702109198020832E0E01E0770F00C3350
:14317400E0E01E0750F48DEB92E0E0919E02FF27E80FF91FEE
:143188002224208212C000919702109198020C33E0E01E07F0
:14319C0030F080E590E08017910708F052CF83E080939D02CD
:1431B000A4C080919E02815080939E0280E020909E0282152B
:1431C40008F470CF222433243092BA022092B9022090BF02C3
:1431D800222049F08091B9029091BA0281609093BA028093EC
:1431EC00B9022090C002222049F08091B9029091BA0282609C
:143200009093BA028093B9022090C102222049F08091B90253
:143214009091BA0284609093BA028093B9022090C202222082
:1432280049F08091B9029091BA0288609093BA028093B9021B
:14323C002090C302222049F08091B9029091BA0280619093E1
:14325000BA028093B9022090C402222049F08091B902909102
:14326400BA0280629093BA028093B9022090C502222049F019
:143278008091B9029091BA0280649093BA028093B902209058
:14328C00C602222049F08091B9029091BA0280689093BA027B
:1432A0008093B90281E08093BD0282E080939E0212C08DEBBA
:1432B40092E0E0919E02FF27E80FF91F20803090BD023224D9
:1432C8003092BD0280919E028F5F80939E0280919E028A30B4
:1432DC0050F32090BE023090BD02321421F481E080939D023E
:1432F0000FC082E080939D020BC088B7886088BF80916A0033
:14330400806C80936A0089B7886089BF222425BC78942990F0
:143318002FBEF991E991A9919991899119910991399029906C
:14332C0018954A938FB78F778FBF929A8091B802887086955F
:14334000869586958093B6028091B802847086958695809370
:14335400B5028091B802827086958093B4028091B802817051
:143368008093B3022FE030E00091BB021091BC0200701078C5
:14337C000E94051E0093B2022EE030E00091BB021091BC0266
:14339000007010740E94A91D0093B1022DE030E00091BB021C
:1433A4001091BC02007010720E94A91D0093B0022CE030E0FB
:1433B8000091BB021091BC02007010710E94A91D0093AF02B7
:1433CC002BE030E00091BB021091BC02007018700E94A91DC5
:1433E0000093AE022AE030E00091BB021091BC0200701470DB
:1433F4000E94A91D0093AD0229E030E00091BB021091BC0255
:14340800007012700E94A91D0093AC028091BB029091BC0268
:14341C00807091701C01232C332427FC30942092AB0227E09B
:1434300030E00091BB021091BC02007810700E94A91D0093D8
:14344400AA0226E030E00091BB021091BC02007410700E946F
:14345800A91D0093A90225E030E00091BB021091BC02007228
:14346C0010700E94A91D0093A8028091BB029091BC02807189
:1434800090701C01359427943594279435942794359427940B
:143494002092A7028091BB029091BC02887090701C0135943E
:1434A800279435942794359427942092A6028091BB02909104
:1434BC00BC02847090701C0135942794359427942092A502CC
:1434D0008091BB029091BC02827090701C01359427942092F6
:1434E400A4028091BB029091BC02817090708093A30281E077
:1434F8008093A20242E00DC081EA92E0E42FFF27E80FF91FF5
:14350C0020803090A20232243092A2024395463188F32224DB
:14352000332430929C0220929B0209C080919B0290919C025B
:14353400019690939C0280939B0280919B0290919C0280325C
:14354800E0E09E0778F382B38B7F82BB2224332430929C0226
:14355C0020929B0209C080919B0290919C02019690939C027E
:1435700080939B0280919B0290919C028031E0E09E0778F3A9
:14358400919A2224332430929C0220929B0209C080919B0245
:1435980090919C02019690939C0280939B0280919B02909189
:1435AC009C028032E0E09E0778F382B38D7F82BB22243324D0
:1435C00030929C0220929B0209C080919B0290919C0201967B
:1435D40090939C0280939B0280919B0290919C028031E0E094
:1435E8009E0778F3929A2224332430929C0220929B0209C07E
:1435FC0080919B0290919C02019690939C0280939B02809135
:143610009B0290919C028032E0E09E0778F322243324309269
:143624009C0220929B0209C080919B0290919C0201969093B5
:143638009C0280939B0280919B0290919C028032E0E09E07AC
:14364C0078F32224332430929C0220929B0209C080919B023C
:1436600090919C02019690939C0280939B0280919B029091C0
:143674009C028032E0E09E0778F32224332430929C02209273
:143688009B0209C080919B0290919C02019690939C028093F0
:14369C009B0280919B0290919C028032E0E09E0778F3222448
:1436B000332430929C0220929B0209C080919B0290919C02CA
:1436C400019690939C0280939B0280919B0290919C028032CB
:1436D800E0E09E0778F382B38B7F82BB2224332430929C0295
:1436EC0020929B0209C080919B0290919C02019690939C02ED
:1437000080939B0280919B0290919C028031E0E09E0778F317
:1437140045E10CC181EA92E0E42FFF27E80FF91F20802220A7
:1437280009F469C0919A2224332430929C0220929B0209C027
:14373C0080919B0290919C02019690939C0280939B028091F3
:143750009B0290919C028032E0E09E0778F382B38D7F82BB09
:143764002224332430929C0220929B0209C080919B0290916D
:143778009C02019690939C0280939B0280919B0290919C022A
:14378C008031E0E09E0778F3929A2224332430929C022092CD
:1437A0009B0209C080919B0290919C02019690939C028093D7
:1437B4009B0280919B0290919C028032E0E09E0778F382B340
:1437C8008B7F82BB2224332430929C0220929B0209C0809180
:1437DC009B0290919C02019690939C0280939B0280919B02C7
:1437F00090919C028031E0E09E0778F398C0919A2224332465
:1438040030929C0220929B0209C080919B0290919C02019634
:1438180090939C0280939B0280919B0290919C028032E0E04C
:14382C009E0778F382B38D7F82BB2224332430929C0220924B
:143840009B0209C080919B0290919C02019690939C02809336
:143854009B0280919B0290919C028031E0E09E0778F3929AA9
:143868002224332430929C0220929B0209C080919B02909168
:14387C009C02019690939C0280939B0280919B0290919C0225
:143890008032E0E09E0778F32224332430929C0220929B0256
:1438A40009C080919B0290919C02019690939C0280939B02D2
:1438B80080919B0290919C028032E0E09E0778F32224332470
:1438CC0030929C0220929B0209C080919B0290919C0201966C
:1438E00090939C0280939B0280919B0290919C028032E0E084
:1438F4009E0778F382B38B7F82BB2224332430929C02209285
:143908009B0209C080919B0290919C02019690939C0280936D
:14391C009B0280919B0290919C028031E0E09E0778F34A952D
:1439300080E0841708F4F0CE919A2224332430929C022092F4
:143944009B0209C080919B0290919C02019690939C02809331
:143958009B0280919B0290919C028032E0E09E0778F382B39A
:14396C008D7F82BB2224332430929C0220929B0209C08091D8
:143980009B0290919C02019690939C0280939B0280919B0221
:1439940090919C028031E0E09E0778F3929A22243324309254
:1439A8009C0220929B0209C080919B0290919C02019690932E
:1439BC009C0280939B0280919B0290919C028032E0E09E0725
:1439D00078F32224332430929C0220929B0209C080919B02B5
:1439E40090919C02019690939C0280939B0280919B02909139
:1439F8009C028032E0E09E0778F32224332430929C022092EC
:143A0C009B0209C080919B0290919C02019690939C02809368
:143A20009B0280919B0290919C028032E0E09E0778F32224C0
:143A3400332430929C0220929B0209C080919B0290919C0242
:143A4800019690939C0280939B0280919B0290919C02803243
:143A5C00E0E09E0778F32224332430929C0220929B0209C071
:143A700080919B0290919C02019690939C0280939B028091BC
:143A84009B0290919C028032E0E09E0778F3222433243092F1
:143A98009C0220929B0209C080919B0290919C02019690933D
:143AAC009C0280939B0280919B0290919C028032E0E09E0734
:143AC00078F32224332430929C0220929B0209C080919B02C4
:143AD40090919C02019690939C0280939B0280919B02909148
:143AE8009C028032E0E09E0778F382B38B7F82BB2224332491
:143AFC0030929C0220929B0209C080919B0290919C0201963A
:143B100090939C0280939B0280919B0290919C028031E0E052
:143B24009E0778F388B7886088BF789449910895E199FECF45
:143B38001FBB0EBB2DBBE29AE19A0895E199FECF1FBB0EBB70
:143B4C00E09A0DB30895222321F0159507952A95FACF0895CD
:143B6000EA93FA930A92E02FF12FD895002D3196D895102D71
:143B74003196D895202D3196D895302D0990F991E9910895F1
:143B88000A921A928A939A93029FC001129F900D039F900DA8
:143B9C008C0199918991199009900895A990B990C990D99021
:143BB000E990F990499159916991799108957A936A935A93A3
:143BC4004A93FA92EA92DA92CA92BA92AA9208957A936A9311
:143BD8005A934A93DA92CA92BA92AA920895A990B990C99047
:143BEC00D99049915991699179910895009510952095309543
:143C00000F5F1F4F2F4F3F4F0895222321F0169507952A95CF
:143C1400FACF08950F920990002031F03695279517950795EC
:143C28000A94F8CF0F9008954A925A926A928A930E947E1EC8
:143C3C0011F15520E2F08FE14816C0F487E14816D1F058F4D6
:143C5000419489EE481A05C035952795179507954A94D1F779
:143C64000EC087E1481A000F111F221F331F4A94D1F705C077
:143C78003FE7232F132F032F04C0662011F00E94FC1D89912C
:143C8C006990599049900895689401C0E8942227332746F0BA
:143CA00017FD209517FD309503C0689401C0E8944A925A92AA
:143CB4006A928A9387E1482E5524662436F0332322F40E94CE
:143CC800FC1D80E8682E0E94971E8991699059904990089508
:143CDC000FD029F0662011F00E94FC1D98940895002329F491
:143CF000112319F4222309F433230895F7DF99F08A93632E3D
:143D040080E86822220F331F432E8FE7481A55248827580A63
:143D1800269530E8232B3327899198940895442455246624CE
:143D2C000895DEDF09F40895AA93BA93D2019A938A938EE773
:143D400090E0332349F03695279517950795A817B907CCF462
:143D54001196F5CF8095909501962223BAF0000F111F221FB0
:143D6800A817B90714F01197F6CF002711272227332789913B
:143D7C0099912D01B991A991089533270FEF102F2FE7322FAC
:143D9000899199912D0102C0AA93BA93A7DF49F0D201A158D6
:143DA400BF4F2D01342D220F369527953629B991A991089536
:143DB8004A925A926A927A928A929A92AA92BA92CA92DA928F
:143DCC00EA92FA928A939A93089599918991F990E990D99045
:143DE000C990B990A990999089907990699059904990089551
:143DF4000E94DC1EAA93BA930E947E1EE1F1E62CD52CC42C82
:143E0800B32EA22E912E802E00811181228133810E947E1EE0
:143E1C0071F16E244C0C5D1C80E84816530664F581E848168E
:143E30008FEF58066CF1A29EB12DA02D919E912D802DA09E82
:143E4400800D911DA31FB31F829E800D911DA31FB31F929E7C
:143E5800900DA11DB31FA19E900DA11DB31F2B2F1A2F092FE2
:143E6C00880F001F111F221F331F0E94971EB991A9910E944C
:143E8000EB1E08950FEF102F2FE78FE7482EF5CF0027102F1F
:143E9400202F302FF0CFFA93EA93EA81FB810E94FA1EE99188
:063EA800F9912296089535
:00000001FF
