:040000000C94480014
:040010000C948E18A6
:040040000C9492008A
:040048000C946D188F
:04005C000C942718C1
:14008C000000FA40CFEFD0E1CDBFDEBFC058D0400AEA0883E7
:1400A0000024E0E0F1E013E0E933F10711F00192FBCF0083AF
:1400B400E0E9F0E0A0E0B1E010E000E00BBFE039F10721F0D2
:1400C800C89531960D92F9CF0E945905FFCF22242BBA87E039
:1400DC008ABB28BA80E887BB25BA24BA22BA86E081BB23B829
:1400F00022B82092620087E080936100209265002092640006
:14010400089522242AB882E08BB986E08093950080E189B9CB
:140118002092900088E98AB9089518952A928A939A932FB6A8
:14012C002A9280912C0390912D03019790932D0380932C0345
:140140008030890761F4222422BE81E08093C90287B78E7F66
:1401540087BF8AB18F778AB902C086E082BF29902FBE999194
:140168008991299018950E94401F5901C02E442709C082EE16
:14017C0092E0E42FFF27E80FF91F8FEF808343954A34A8F343
:1401900022242092E102442710C05D9BFECF662701C063953A
:1401A400683CE8F38FE191E0E42FFF27E80FF91F20802CB81B
:1401B80043954C1570F3AA2011F4BB2011F122242092C90228
:1401CC00B0922D03A0922C0386E082BF83B7866083BF86B706
:1401E000816086BF87B7816087BF4CB1579A03C00027112770
:1401F400FAD12090C9022220C9F387B78E7F87BF8AB18F77E1
:140208008AB90C94491F0E94351F6901E02EAA84442709C0C7
:14021C0082EE92E0E42FFF27E80FF91F8FEF808343954A34CD
:14023000A8F322242092E102442710C05D9BFECF662701C0F6
:140244006395683CE8F38FE191E0E42FFF27E80FF91F208066
:140258002CB843954E1570F3CC2011F4DD2039F12224209200
:14026C00C902D0922D03C0922C0386E082BF83B7866083BF97
:1402800086B7816086BF87B7816087BF4CB1579A08C00027C5
:140294001127A9D12090E1022A1408F004C02090C90222205A
:1402A800A1F387B78E7F87BF8AB18F778AB90C942A1F4A93D3
:1402BC006A93013009F07FC0662737C0D19AD99A22243324C9
:1402D0003092AE022092AD0209C08091AD029091AE02019656
:1402E4009093AE028093AD028091AD029091AE028A32E0E064
:1402F8009E0778F3D19A8BB38D7F8BBB222433243092AE02D8
:14030C002092AD0209C08091AD029091AE0201969093AE02B8
:140320008093AD028091AD029091AE028A32E0E09E0778F3EA
:1403340063956E3138F244273EC0D19A8BB38D7F8BBB662703
:140348000CC0000000000000000000000000000000000000D5
:14035C00000000006395242E332488EC90E02C014218530826
:14037000262E33242414350444F3209033033090340325FC28
:1403840003C0D19AD99A04C0D19A8BB38D7F8BBB66270CC0AC
:14039800000000000000000000000000000000000000000051
:1403AC0000006395842F8E5C681780F34395483C08F4BFCFD0
:1403C000A4C0023009F0A1C0662745C080916100846080933E
:1403D400610080916200846080936200222433243092AE02D9
:1403E8002092AD0209C08091AD029091AE0201969093AE02DC
:1403FC008093AD028091AD029091AE028A32E0E09E0778F30E
:1404100080916100846080936100809162008B7F809362001C
:14042400222433243092AE022092AD0209C08091AD029091AA
:14043800AE0201969093AE028093AD028091AD029091AE0243
:14044C008A32E0E09E0778F363956E3108F4B8CF442752C079
:1404600080916100846080936100809162008B7F80936200CC
:1404740066270CC0000000000000000000000000000000001B
:140488000000000000006395242E332488EC90E02C01421854
:14049C005308262E33242414350444F32090310330903203C5
:1404B00025FC0BC0809161008460809361008091620084602B
:1404C400809362000AC08091610084608093610080916200A8
:1404D8008B7F8093620066270CC00000000000000000000038
:1404EC000000000000000000000000006395842F8E5C6817E8
:1405000080F34395483C08F4ABCF6991499108950E94401F30
:14051400A02E2497A7B883EC86B9CC24DD2403C0C60101962B
:140528006C01C6018436E0E09E07C0F386B180748034E1F306
:14053C00C4B0DD24C5B0DD2480E0888389838A838B83AA2460
:140550002CC083EC86B9CC24DD2403C0C60101966C01C601B7
:140564008436E0E09E07C0F386B180748034E1F3C4B0DD2489
:1405780025B03324322C2224C228D328C60193706C011C0166
:14058C0044245524688079808A809B80620C731C841C951C26
:1405A000688279828A829B82A3948A2D803288F287E090E048
:1405B400088119812A813B818A930E946E1F088319832A8389
:1405C8003B834FEF50E060E070E0288039804A805B80242217
:1405DC00352246225722022D24960C94491F0E94401F580188
:1405F000249722242EBC84EC90E28A159B0508F45C0185010C
:140604000E94AC1F088319832A833B830CE810E00E94161F28
:14061800CE019A938A930E94AF20088319832A833B83088129
:14062C0019812A813B810E947A1F680116014424552440E0FD
:1406400050E061E070E042195309640975095DBD4CBD85E0BB
:140654008EBD86B7846086BF40C189B382708695813009F0ED
:1406680070C007E051DF802F99279070982F88278070E091F1
:14067C003303F0913403F070E82BF92BF0933403E093330382
:14069000209030033324CF01892F992790702816390618F54A
:1406A4008AB387608ABB8BB38D7F8BBB8BB3887F8BBB8091AD
:1406B8006100876080936100809162008B7F8093620080916F
:1406CC006200887F80936200BF9A88B38F7788BBCF018061AE
:1406E000909334038093330330C08091330390913403892F1C
:1406F400992790708431E0E09E0728F58AB387608ABB8BB354
:140708008D7F8BBB8BB3887F8BBB8091610087608093610033
:14071C00809162008B7F8093620080916200887F80936200E8
:14073000BF9A88B38F7788BB80913303909134038460909332
:1407440034038093330389B3992782709070959587958170FC
:140758009070E0913303F0913403EE7FE82BF92BF0933403D0
:14076C00E093330389B3992784709070959587959595879554
:1407800081709070880F991F82709070ED7FE82BF92BF0930D
:140794003403E093330380B1847086958695813009F070C03C
:1407A80006E0B2DE802F99279070982F88278070E09131034D
:1407BC00F0913203F070E82BF92BF0933203E09331032090CD
:1407D0002F033324CF01892F992790702816390618F58AB37D
:1407E40087608ABB8BB38D7F8BBB8BB3887F8BBB8091610048
:1407F800876080936100809162008B7F80936200809162002D
:14080C00887F80936200BF9A88B38F7788BBCF0180619093AB
:1408200032038093310330C08091310390913203892F992745
:1408340090708431E0E09E0728F58AB387608ABB8BB38D7FC6
:140848008BBB8BB3887F8BBB809161008760809361008091ED
:14085C0062008B7F8093620080916200887F80936200BF9A5F
:1408700088B38F7788BB809131039091320384609093320319
:140884008093310380B19927847090709595879595958795A8
:1408980081709070E0913103F0913203EE7FE82BF92BF093D9
:1408AC003203E093310380B199278170907081709070880FF2
:1408C000991F82709070ED7FE82BF92BF0933203E093310378
:1408D400AA2019F4BB2009F403C026B622FEBDCE22242EBCE7
:1408E80024960C94491FF3DB0ADC8AB387608ABB8BB38D7FD3
:1408FC008BBB8BB3887F8BBB80916100876080936100809139
:1409100062008B7F8093620080916200887F80936200BF9AAA
:1409240088B38F7788BBD09A8BB38E7F8BBB809161008260EC
:1409380080936100809162008D7F8093620089B39927827055
:14094C0090709595879581709070E0913303F0913403EE7F94
:14096000E82BF92BF0933403E093330389B3992784709070F9
:14097400959587959595879581709070880F991F82709070B1
:14098800ED7FE82BF92BF0933403E0933303CF018B7F909358
:14099C00340380933303877F90933403809333038F7E9093EE
:1409B0003403809333038F7D90933403809333038F739093DF
:1409C4003403809333039070909334038093330380B199270B
:1409D80084709070959587959595879581709070E0913103F5
:1409EC00F0913203EE7FE82BF92BF0933203E093310380B10D
:140A000099278170907081709070880F991F82709070ED7F93
:140A1400E82BF92BF0933203E0933103CF018B7F9093320306
:140A280080933103877F90933203809331038F7E9093320369
:140A3C00809331038F7D90933203809331038F73909332035A
:140A5000809331039070909332038093310322242092AF0203
:140A640033243092B2022092B10230921D0120921C013092DB
:140A78001B0120921A01449A83E088B9439A449A88B788601D
:140A8C0088BF80916A00806C80936A0089B7886089BF80E853
:140AA0008FBF929A02E310E0A0DD82B38B7F82BB08952597A1
:140AB4001CDF02E310E097DD002711270E94B01E0093300355
:140AC80001E010E00E94B01E00932F03809130038D3418F403
:140ADC008DE4809330038AE920903003821510F48093300318
:140AF00080912F038D3418F48DE480932F038AE920902F03D7
:140B0400821510F480932F0305E000DDA02E0D3210F00C948E
:140B1800231822242AB883B18D7F83B9119A83B18D7F83B9C3
:140B2C00FFCF002711275BDD8091AF02823059F42224209297
:140B4000AF0288B7886088BF89B7886089BF0C942318809126
:140B5400AF02813011F00C9423182090B1023090B202222036
:140B680019F4332009F4B8C489E691E0E0911A01F0911B0197
:140B7C00E80FF91F2090CB023090CC02208280911A0190915C
:140B90001B01019690931B0180931A0120901C0130901D0186
:140BA4008215930511F00C941A188091B1029091B2028130F1
:140BB800E0E09E0709F0E5C088EE80931F0180E480932001E5
:140BCC0088E88093210122242092220181E28093230182E257
:140BE0008093240183E28093250184E28093260182E3809313
:140BF400270133243092AC022092AB021AC0A090AB02B090A8
:140C0800AC0289E691E0F501E80FF91F20808FE191E0F501CE
:140C1C003996E80FF91F20828091AB029091AC0201969093FD
:140C3000AC028093AB028091AB029091AC028034E0E09E079C
:140C4400F0F224E130E00AE490DA8091E1028930B1F48091EA
:140C5800E202853591F48091E302803471F48091E40288389F
:140C6C0051F48091CD029091CE0280709093CE028093CD0299
:140C800006C08AEA90E09093CE028093CD0288EE80931F0138
:140C940080E48093200188E88093210181E08093220181E215
:140CA8008093230182E28093240183E28093250184E280934E
:140CBC00260182E380932701222433243092AC022092AB02F1
:140CD0001CC0A090AB02B090AC0289E691E0F501E05CFF4F09
:140CE400E80FF91F20808FE191E0F5013996E80FF91F2082F6
:140CF8008091AB029091AC0201969093AC028093AB02809122
:140D0C00AB029091AC028034E0E09E07E0F224E130E00AE469
:140D200026DA8091E1028930B1F48091E202853591F4809128
:140D3400E302803471F48091E402883851F48091CD029091B0
:140D4800CE0290709093CE028093CD0209C08091CD02909128
:140D5C00CE0295659093CE028093CD02222433243092B202D1
:140D70002092B10230921D0120921C018AE08093CA020E9470
:140D8400A51A0C941A188091B1029091B2028230E0E09E071A
:140D980009F0E6C088EE80931F0180E48093200188E88093E4
:140DAC00210182E08093220181E28093230182E28093240143
:140DC00083E28093250184E28093260182E3809327012224FB
:140DD40033243092AC022092AB021AC0A090AB02B090AC0240
:140DE80089E691E0F501E80FF91F20808FE191E0F5013996CC
:140DFC00E80FF91F20828091AB029091AC0201969093AC023D
:140E10008093AB028091AB029091AC028034E0E09E07F0F286
:140E240024E130E00AE4A1D98091E1028930B1F48091E202F6
:140E3800853591F48091E302803471F48091E402883851F45C
:140E4C008091CD029091CE0280709093CE028093CD0206C036
:140E60008AEA90E09093CE028093CD0288EE80931F0180E4B8
:140E74008093200188E88093210183E08093220181E2809382
:140E8800230182E28093240183E28093250184E28093260158
:140E9C0082E380932701222433243092AC022092AB021CC05A
:140EB000A090AB02B090AC0289E691E0F501E05CFF4FE80F0C
:140EC400F91F20808FE191E0F5013996E80FF91F20828091FA
:140ED800AB029091AC0201969093AC028093AB028091AB02A4
:140EEC009091AC028034E0E09E07E0F224E130E00AE437D925
:140F00008091E1028930B1F48091E202853591F48091E30261
:140F1400803471F48091E402883851F48091CD029091CE02E3
:140F280090709093CE028093CD0209C08091CD029091CE0246
:140F3C0095659093CE028093CD02222433243092B20220920D
:140F5000B10230921D0120921C018BE08093CA020E94A51A80
:140F64000C941A188091B1029091B2028330E0E09E0709F0FD
:140F7800A4C0222433243092B2022092B10230921D012092F7
:140F8C001C0189E08093CA02A0906A01BB24BA2CAA2420900E
:140FA00069013324A228B328C0906C01DD24DC2CCC24209071
:140FB4006B013324C228D32822243092AC022092AB0273C039
:140FC80088EE80931F0180E4809320018AE98093210188E0C4
:140FDC00809322012090AB023090AC0220922301232C332484
:140FF00020922401A09225011501232C33242092260126E023
:1410040030E009E0B2D822243324309217012092160139C01C
:1410180082EE92E0E0911601F0911701EE0FFF1F3196E80FE8
:14102C00F91F208033243092CE022092CD02322C2224309228
:14104000CE022092CD02E0911601F0911701EE0FFF1FE80F18
:14105400F91F208033244090CD025090CE0242285328509263
:14106800CE024092CD020E94A51A0AE010E0B9DA809116010D
:14107C009091170101969093170180931601809116019091E2
:1410900017018032E0E09E0708F4BECF8091AB029091AC0207
:1410A40001969093AC028093AB022090AB023090AC022C1405
:1410B8003D0408F485CF0C941A188091B1029091B202843074
:1410CC00E0E09E0711F00C941A18222433243092CE022092F7
:1410E000CD0288EE80931F0180E48093200184E8809321014B
:1410F4002092220181E28093230182E28093240183E2809365
:14110800250184E28093260182E3809327013092AC0220924B
:14111C00AB021AC0A090AB02B090AC0289E691E0F501E80FA0
:14113000F91F20808FE191E0F5013996E80FF91F208280918B
:14114400AB029091AC0201969093AC028093AB028091AB0235
:141158009091AC028034E0E09E07F0F224E130E00AE401D8DD
:14116C008091E102893061F48091E202853541F48091E30293
:14118000803421F48091E402843849F08091CD029091CE02D5
:1411940081609093CE028093CD0288EE80931F0180E4809371
:1411A800200184E88093210181E08093220181E28093230140
:1411BC0082E28093240183E28093250184E28093260182E3E0
:1411D00080932701222433243092AC022092AB021CC0A09058
:1411E400AB02B090AC0289E691E0F501E05CFF4FE80FF91FED
:1411F80020808FE191E0F5013996E80FF91F20828091AB022E
:14120C009091AC0201969093AC028093AB028091AB029091F8
:14122000AC028034E0E09E07E0F224E130E00AE40E94B700C5
:141234008091E102893061F48091E202853541F48091E302CA
:14124800803421F48091E402843849F08091CD029091CE020C
:14125C0082609093CE028093CD0288EE80931F0180E48093A7
:14127000200184E88093210182E08093220181E28093230176
:1412840082E28093240183E28093250184E28093260182E317
:1412980080932701222433243092AC022092AB021CC0A0908F
:1412AC00AB02B090AC0289E691E0F501E058FF4FE80FF91F28
:1412C00020808FE191E0F5013996E80FF91F20828091AB0265
:1412D4009091AC0201969093AC028093AB028091AB02909130
:1412E800AC028034E0E09E07E0F224E130E00AE40E94B700FD
:1412FC008091E102893061F48091E202853541F48091E30202
:14131000803421F48091E402843849F08091CD029091CE0243
:1413240084609093CE028093CD0288EE80931F0180E48093DC
:14133800200184E88093210183E08093220181E280932301AC
:14134C0082E28093240183E28093250184E28093260182E34E
:1413600080932701222433243092AC022092AB021CC0A090C6
:14137400AB02B090AC0289E691E0F501E054FF4FE80FF91F63
:1413880020808FE191E0F5013996E80FF91F20828091AB029C
:14139C009091AC0201969093AC028093AB028091AB02909167
:1413B000AC028034E0E09E07E0F224E130E00AE40E94B70034
:1413C4008091E102893061F48091E202853541F48091E30239
:1413D800803421F48091E402843849F08091CD029091CE027B
:1413EC0088609093CE028093CD0288EE80931F0180E4809310
:14140000200184E88093210184E08093220181E280932301E2
:1414140082E28093240183E28093250184E28093260182E385
:1414280080932701222433243092AC022092AB021CC0A090FD
:14143C00AB02B090AC0289E691E0F501E050FF4FE80FF91F9E
:1414500020808FE191E0F5013996E80FF91F20828091AB02D3
:141464009091AC0201969093AC028093AB028091AB0290919E
:14147800AC028034E0E09E07E0F224E130E00AE40E94B7006B
:14148C008091E102893061F48091E202853541F48091E30270
:1414A000803421F48091E402843849F08091CD029091CE02B2
:1414B40080619093CE028093CD02222433243092B2022092A9
:1414C800B10230921D0120921C018CE08093CA020E94A51A02
:1414DC000C941A182090CB023090CC02359427943594279417
:1414F00035942794359427942092CA028091CB029091CC0295
:14150400807F90705C018036E0E09E0709F471C280E690E056
:141518008A159B050CF433C0C5018033E0E09E0709F4EDC005
:14152C0080E390E08A159B05A4F0C5018031E0E09E0709F42C
:141540005FC08031E0E09E0714F40C941A18C5018032E0E050
:141554009E0709F493C00C941A18C5018034E0E09E0709F4E0
:1415680002C18034E0E09E0714F40C941A18C5018035E0E07E
:14157C009E0709F44DC10C941A18C5018039E0E09E0709F4F8
:1415900086C580E990E08A159B05A4F0C5018037E0E09E076E
:1415A40009F4F8C28037E0E09E0714F40C941A18C501803808
:1415B800E0E09E0709F4C1C30C941A18C501803BE0E09E0781
:1415CC0011F40C94D31380EB90E08A159B054CF0C501803AAA
:1415E000E0E09E0711F40C940B130C941A18C501803CE0E0BB
:1415F4009E0711F40C949B140C941A1888EE80931F0180E40B
:14160800809320018DE8809321018FE18093220125E030E035
:14161C0009E00E94B7008091E102893099F48091E20285358F
:1416300079F48091E302803459F48091E4028D3839F4222413
:1416440033243092CE022092CD0206C08FEF90E09093CE0281
:141658008093CD022090CD023090CE02322C22243092CE0257
:14166C002092CD023092CE022092CD020E94A51A0C941A18A3
:1416800088EE80931F0180E4809320018DE8809321018FE1FB
:141694008093220125E030E009E00E94B7008091E102893008
:1416A800A1F48091E202853581F48091E302803461F4809165
:1416BC00E4028D3841F42090E50233243092CE022092CD0239
:1416D00006C08FEF90E09093CE028093CD022090CD0230903E
:1416E400CE02322C22243092CE022092CD02C10182639093A1
:1416F800CE028093CD020E94A51A0C941A180EE110E00E9478
:14170C00F50205E00E948802A02E2A2C33243092CE02209202
:14172000CD020EE110E00E94F5022090CD023090CE02322C01
:1417340022243092CE022092CD0204E00E948802A02E2A2C14
:1417480033244090CD025090CE02422853285092CE0240927E
:14175C00CD020EE110E00E94F5020E94A51A0C941A1888EE89
:1417700080931F0180E48093200189E88093210189E0809378
:14178400220122E330E009E00E94B7002090E3023324309229
:14179800CE022092CD022090CD023090CE02322C2224309277
:1417AC00CE022092CD022090E20233244090CD025090CE029E
:1417C000422853285092CE024092CD020E94A51A0EE110E09D
:1417D4000E94F5022090E50233243092CE022092CD022090B7
:1417E800CD023090CE02322C22243092CE022092CD02209027
:1417FC00E40233244090CD025090CE02422853285092CE02B6
:141810004092CD020E94A51A0C941A1888EE80931F0180E4E3
:141824008093200189E88093210189E08093220122E330E022
:1418380009E00E94B7002090E70233244424552430921301B3
:14184C0020921201509215014092140188E090E02091140146
:141860003091150100911201109113018A930E945B1F109368
:1418740013010093120130931501209314012090E602332416
:14188800442455243801490162287328842895287092130144
:14189C006092120190921501809214014FEF5FEF60E070E0B8
:1418B0001301240124223522462257223092130120921201D2
:1418C4005092150140921401810192010E94B71F10933603C8
:1418D800009335033093380320933703209037033090380361
:1418EC003092CE022092CD020E94A51A0EE110E00E94F502FC
:1419000020903503309036033092CE022092CD020E94A51A7E
:141914000EE110E00E94F5022090E9023324442455243092B2
:14192800130120921201509215014092140188E090E020916A
:14193C0014013091150100911201109113018A930E945B1F19
:14195000109313010093120130931501209314012090E802EB
:14196400332444245524380149016228732884289528709224
:1419780013016092120190921501809214014FEF5FEF60E017
:14198C0070E0130124012422352246225722309213012092B8
:1419A00012015092150140921401810192010E94B71F109311
:1419B400360300933503309338032093370320903703309086
:1419C80038033092CE022092CD020E94A51A0EE110E00E94DB
:1419DC00F50220903503309036033092CE022092CD020E946A
:1419F000A51A0C941A18A090CB02B090CC02C5018136E0E00A
:141A04009E0731F08236E0E09E0711F00C941A1880B18470F3
:141A180086958695813071F48091330390913403806C9093C0
:141A2C0034038093330304E610E00E94F502A2C089B3827023
:141A40008695813009F050C089B384708695869541F4809111
:141A5400CB029091CC028136E0E09E0771F089B384708695FA
:141A68008695813099F48091CB029091CC028236E0E09E0727
:141A7C0059F480913303909134038F73806490933403809317
:141A9000330325C089B384708695869541F48091CB0290918D
:141AA400CC028236E0E09E0771F089B38470869586958130CB
:141AB80091F48091CB029091CC028136E0E09E0751F4809156
:141ACC003303909134038F738068909334038093330304E601
:141AE00010E00E94F5024CC080913303909134038B7F909391
:141AF400340380933303877F90933403809333038F7E909385
:141B08003403809333038F7D90933403809333038F73909375
:141B1C00340380933303BF9AC79A04EF11E00E94F5028091ED
:141B3000CB029091CC028136E0E09E0719F4D29ADA9A04C018
:141B4400D29A8BB38B7F8BBB22242EBC8DEB90EF9DBD8CBDC9
:141B580086B7846086BF85E08EBD86B7846086BF01E00E947A
:141B6C005D0126B622FEFDCF22242EBC04EF11E00E94F50292
:141B800020903303309034033092CE022092CD020E94A51A00
:141B94000C941A18A090CB02B090CC02C5018137E0E09E077D
:141BA80031F08237E0E09E0711F00C941A1889B382708695CE
:141BBC00813071F48091310390913203806C9093320380930D
:141BD000310304E610E00E94F502A7C080B184708695869598
:141BE400813009F046C0009908C08091CB029091CC02813757
:141BF800E0E09E0761F080B18170813099F48091CB029091C4
:141C0C00CC028237E0E09E0759F480913103909132038F73EE
:141C20008064909332038093310320C0009908C08091CB020E
:141C34009091CC028237E0E09E0761F080B18170813091F4E6
:141C48008091CB029091CC028137E0E09E0751F48091310314
:141C5C00909132038F738068909332038093310304E610E0BB
:141C70000E94F5025AC080913103909132038B7F90933203B0
:141C840080933103877F90933203809331038F7E90933203FB
:141C9800809331038F7D90933203809331038F7390933203EC
:141CAC0080933103BF9AC79A04EF11E00E94F5028091CB02C8
:141CC0009091CC028137E0E09E0759F4809161008160809351
:141CD4006100809162008160809362000AC0809161008160B5
:141CE80080936100809162008E7F8093620022242EBC8DEBD7
:141CFC0090EF9DBD8CBD86B7846086BF85E08EBD86B784607B
:141D100086BF02E00E945D0126B622FEFDCF22242EBC04EFAD
:141D240011E00E94F50220903103309032033092CE02209204
:141D3800CD020E94A51A0C941A188091CB029091CC02803810
:141D4C00E0E09E07A1F40EE110E00E94F502BF9AC79A0EE168
:141D600010E00E94F502222433243092CE022092CD020E9494
:141D7400A51A0C941A188091CB029091CC028138E0E09E07DF
:141D8800F1F40EE110E00E94F502209033033090340330924B
:141D9C00CE022092CD020E94A51A0EE110E00E94F502209059
:141DB0003103309032033092CE022092CD020E94A51A0C94E2
:141DC4001A188091CB029091CC028238E0E09E0709F047C0ED
:141DD80089B382708695813049F48091330390913403886039
:141DEC00909334038093330380B1847086958695813049F4F7
:141E00008091310390913203886090933203809331038AB36F
:141E140087608ABB8BB38D7F8BBB8BB3887F8BBB8091610001
:141E2800876080936100809162008B7F8093620080916200E6
:141E3C00887F80936200BF9A88B38F7788BB08EC10E00E94B3
:141E5000F502222433243092CE022092CD020E94A51A0C94D6
:141E64001A188091CB029091CC028338E0E09E07A1F500278E
:141E780011270E94B01EA02EA092300301E010E00E94B01E3A
:141E8C00A02EA0922F030EE110E00E94F50220902F0333245F
:141EA0003092CE022092CD022090CD023090CE02322C222468
:141EB4003092CE022092CD022090300333244090CD0250904E
:141EC800CE02422853285092CE024092CD020E94A51A0C94FD
:141EDC001A1883E890E02090CB023090CC028215930514F0A7
:141EF0000C941A18C1018438E0E09E0749F48DE48093300335
:141F0400282F002711270E94A81EBAC08091CB029091CC0264
:141F18008538E0E09E0749F48DE580933003282F00271127E8
:141F2C000E94A81EA9C08091CB029091CC028638E0E09E07E0
:141F400049F48CE680933003282F002711270E94A81E98C022
:141F54008091CB029091CC028738E0E09E0749F48BE78093C6
:141F68003003282F002711270E94A81E87C08091CB029091CE
:141F7C00CC028838E0E09E0749F48BE880933003282F0027EA
:141F900011270E94A81E76C08091CB029091CC028938E0E019
:141FA4009E0749F48AE980933003282F002711270E94A81E70
:141FB80065C08091CB029091CC028A38E0E09E0749F48DE44E
:141FCC0080932F03282F01E010E00E94A81E54C08091CB023A
:141FE0009091CC028B38E0E09E0749F48DE580932F03282F8B
:141FF40001E010E00E94A81E43C08091CB029091CC028C380C
:14200800E0E09E0749F48CE680932F03282F01E010E00E94A1
:14201C00A81E32C08091CB029091CC028D38E0E09E0749F4C4
:142030008BE780932F03282F01E010E00E94A81E21C0809163
:14204400CB029091CC028E38E0E09E0749F48BE880932F03AC
:14205800282F01E010E00E94A81E10C08091CB029091CC0247
:14206C008F38E0E09E0741F48AE980932F03282F01E010E01F
:142080000E94A81E0EE110E00E94F502222433243092CE023D
:142094002092CD020E94A51ACBC78091CB029091CC0280393E
:1420A800E0E09E0709F015C188EE80931F0180E480932001AF
:1420BC0088EC8093210122242092220124E030E009E00E94AD
:1420D000B700AA242FC004E110E00E94F50283EE92E0EA2D20
:1420E400FF27EE0FFF1FE80FF91F208033243092CE0220925D
:1420F800CD02322C22243092CE022092CD0282EE92E0EA2D55
:14210C00FF27EE0FFF1FE80FF91F208033244090CD025090F9
:14212000CE02422853285092CE024092CD020E94A51AA3940B
:142134008A2D803270F288EE80931F0180E48093200188EC17
:142148008093210181E08093220124E030E009E00E94B70061
:14215C00AA242FC083EE92E0EA2DFF27EE0FFF1FE80FF91F68
:14217000208033243092CE022092CD02322C22243092CE021B
:142184002092CD0282EE92E0EA2DFF27EE0FFF1FE80FF91F7D
:14219800208033244090CD025090CE02422853285092CE0256
:1421AC004092CD020E94A51A04E110E00E94F502A3948A2DC1
:1421C000803270F288EE80931F0180E48093200188EC80932F
:1421D400210182E08093220124E030E009E00E94B700AA2419
:1421E8002FC083EE92E0EA2DFF27EE0FFF1FE80FF91F20800A
:1421FC0033243092CE022092CD02322C22243092CE0220927D
:14221000CD0282EE92E0EA2DFF27EE0FFF1FE80FF91F208002
:1422240033244090CD025090CE02422853285092CE02409297
:14223800CD020E94A51A04E110E00E94F502A3948A2D803254
:14224C0070F288EE80931F0180E48093200188EC8093210132
:1422600083E08093220124E030E009E00E94B700AA242FC0BE
:1422740083EE92E0EA2DFF27EE0FFF1FE80FF91F2080332415
:142288003092CE022092CD02322C22243092CE022092CD0278
:14229C0082EE92E0EA2DFF27EE0FFF1FE80FF91F20803324EE
:1422B0004090CD025090CE02422853285092CE024092CD0293
:1422C4000E94A51A04E110E00E94F502A3948A2D803270F235
:1422D800ADC68091CB029091CC028139E0E09E0721F583E01A
:1422EC0090E09093B2028093B10284E090931D0180931C01FC
:142300002224332430921B0120921A012092C90288EC90936D
:142314002D0380932C0386E082BF83B7866083BF86B781601C
:1423280086BF87B7816087BF81C68091CB029091CC02823928
:14233C00E0E09E07E9F588EE80931F0180E4809320018CE895
:142350008093210188E08093220122242092230120922401B3
:142364008FEF809325018093260189E0888328E833E109E0F3
:142378000E9407018091E102893099F48091E202853579F451
:14238C008091E302803459F48091E4028C3839F422243324C1
:1423A0003092CE022092CD0206C08FEF9FEF9093CE0280933E
:1423B400CD020E94A51A3CC68091CB029091CC028339E0E09A
:1423C8009E0709F033C688EE80931F0180E48093200187E8BA
:1423DC008093210122242092220124E030E009E00E94B70047
:1423F0008091E1028034A1F5AA242FC004E110E00E94F50270
:1424040083EE92E0EA2DFF27EE0FFF1FE80FF91F2080332483
:142418003092CE022092CD02322C22243092CE022092CD02E6
:14242C0082EE92E0EA2DFF27EE0FFF1FE80FF91F208033245C
:142440004090CD025090CE02422853285092CE024092CD0201
:142454000E94A51AA3948A2D803270F288EE80931F0180E404
:142468008093200187E88093210181E08093220124E030E0DD
:14247C0009E00E94B7008091E1028034A1F5AA242FC083EE9E
:1424900092E0EA2DFF27EE0FFF1FE80FF91F208033243092A6
:1424A400CE022092CD02322C22243092CE022092CD0282EEAC
:1424B80092E0EA2DFF27EE0FFF1FE80FF91F20803324409070
:1424CC00CD025090CE02422853285092CE024092CD020E94A3
:1424E000A51A04E110E00E94F502A3948A2D803270F288EE43
:1424F40080931F0180E48093200187E88093210182E08093F0
:14250800220124E030E009E00E94B7008091E102803499F510
:14251C00AA242EC004E110E00E94F50283EE92E0EA2DFF2761
:14253000EE0FFF1FE80FF91F208033243092CE022092CD0263
:14254400322C22243092CE022092CD0282EE92E0EA2DFF27AD
:14255800EE0FFF1FE80FF91F208033244090CD025090CE02FF
:14256C00422853285092CE024092CD02E8D7A3948A2D8032C4
:1425800078F288EE80931F0180E48093200187E880932101F8
:1425940083E08093220124E030E009E00E94B7008091E10250
:1425A800803409F043C5AA242EC083EE92E0EA2DFF27EE0F91
:1425BC00FF1FE80FF91F208033243092CE022092CD02322C76
:1425D00022243092CE022092CD0282EE92E0EA2DFF27EE0F82
:1425E400FF1FE80FF91F208033244090CD025090CE02422806
:1425F80053285092CE024092CD02A3D704E110E00E94F50219
:14260C00A3948A2D803278F20FC58091CB029091CC02803A55
:14262000E0E09E0729F581E090E09093B2028093B10280E84D
:1426340090931D0180931C012224332430921B0120921A01D9
:142648002092C90288EE93E090932D0380932C0386E082BFDC
:14265C0083B7866083BF86B7816086BF87B7816087BFE2C49A
:142670008091CB029091CC02813AE0E09E0709F0D9C488EE5D
:1426840080931F0180E48093200187E88093210122242092DB
:14269800220125E030E009E00E94B7008091E102803499F57E
:1426AC00AA242EC004E110E00E94F50283EE92E0EA2DFF27D0
:1426C000EE0FFF1FE80FF91F208033243092CE022092CD02D2
:1426D400322C22243092CE022092CD0282EE92E0EA2DFF271C
:1426E800EE0FFF1FE80FF91F208033244090CD025090CE026E
:1426FC00422853285092CE024092CD0220D7A3948A2D8032FB
:1427100078F288EE80931F0180E48093200187E88093210166
:1427240081E08093220125E030E009E00E94B7008091E102BF
:14273800803409F07BC4AA242EC083EE92E0EA2DFF27EE0FC8
:14274C00FF1FE80FF91F208033243092CE022092CD02322CE4
:1427600022243092CE022092CD0282EE92E0EA2DFF27EE0FF0
:14277400FF1FE80FF91F208033244090CD025090CE02422874
:1427880053285092CE024092CD02DBD604E110E00E94F50250
:14279C00A3948A2D803278F247C48091CB029091CC02803B8C
:1427B000E0E09E0729F582E090E09093B2028093B10280E8BB
:1427C40090931D0180931C012224332430921B0120921A0148
:1427D8002092C90288EE93E090932D0380932C0386E082BF4B
:1427EC0083B7866083BF86B7816086BF87B7816087BF1AC4D1
:142800008091CB029091CC02813BE0E09E0709F011C488EE92
:1428140080931F0180E48093200187E88093210182E08093CC
:14282800220125E030E009E00E94B7008091E102803499F5EC
:14283C00AA242EC004E110E00E94F50283EE92E0EA2DFF273E
:14285000EE0FFF1FE80FF91F208033243092CE022092CD0240
:14286400322C22243092CE022092CD0282EE92E0EA2DFF278A
:14287800EE0FFF1FE80FF91F208033244090CD025090CE02DC
:14288C00422853285092CE024092CD0258D6A3948A2D803232
:1428A00078F288EE80931F0180E48093200187E880932101D5
:1428B40083E08093220125E030E009E00E94B7008091E1022C
:1428C800803409F0B3C3AA242EC083EE92E0EA2DFF27EE0F00
:1428DC00FF1FE80FF91F208033243092CE022092CD02322C53
:1428F00022243092CE022092CD0282EE92E0EA2DFF27EE0F5F
:14290400FF1FE80FF91F208033244090CD025090CE024228E2
:1429180053285092CE024092CD0213D604E110E00E94F50286
:14292C00A3948A2D803278F27FC38091CB029091CC02803CC2
:14294000E0E09E0709F0D6C188EE80931F0180E4809320014D
:1429540089E88093210189E08093220122E330E009E00E948A
:14296800B7008091E102803409F060C32090E3023324309232
:14297C00CE022092CD022090CD023090CE02322C2224309281
:14299000CE022092CD022090E20233244090CD025090CE02A8
:1429A400422853285092CE024092CD02CCD52090CD02309007
:1429B800CE0220920001232C332427FC3094209201010EE158
:1429CC0010E00E94F5022090E50233243092CE022092CD026D
:1429E0002090CD023090CE02322C22243092CE022092CD021D
:1429F4002090E40233244090CD025090CE02422853285092CC
:142A0800CE024092CD029DD52090CD023090CE022092020113
:142A1C00232C332427FC3094209203010EE110E00E94F502EB
:142A30002090E7023324442455243092130120921201509244
:142A440015014092140188E090E0209114013091150100917B
:142A58001201109113018A930E945B1F10931301009312010C
:142A6C0030931501209314012090E6023324442455243801AC
:142A800049016228732884289528709213016092120190922D
:142A94001501809214014FEF5FEF60E070E013012401242256
:142AA80035224622572230921301209212015092150140927D
:142ABC001401810192010E94B71F10933603009335033093FA
:142AD00038032093370320903703309038033092CE022092A1
:142AE400CD0231D52090CD023090CE0220920401232C33249D
:142AF80027FC3094209205010EE110E00E94F50220903503CB
:142B0C00309036033092CE022092CD0218D52090CD0230907D
:142B2000CE0220920601232C332427FC3094209207010EE1E2
:142B340010E00E94F5022090E902332444245524309213015B
:142B480020921201509215014092140188E090E02091140137
:142B5C003091150100911201109113018A930E945B1F109359
:142B700013010093120130931501209314012090E802332405
:142B8400442455243801490162287328842895287092130135
:142B98006092120190921501809214014FEF5FEF60E070E0A9
:142BAC001301240124223522462257223092130120921201C3
:142BC0005092150140921401810192010E94B71F10933603B9
:142BD400009335033093380320933703209037033090380352
:142BE8003092CE022092CD02ACD42090CD023090CE02209285
:142BFC000801232C332427FC3094209209010EE110E00E94F2
:142C1000F50220903503309036033092CE022092CD0293D45E
:142C24002090CD023090CE0220920A01232C332427FC309443
:142C380020920B010EE110E00E94F502209033033090340375
:142C4C003092CE022092CD027AD42090CD023090CE02209252
:142C60000C01232C332427FC309420920D010EE110E00E9485
:142C7400F50220903103309032033092CE022092CD0261D434
:142C88002090CD023090CE0220920E01232C332427FC3094DB
:142C9C0020920F010EE110E00E94F50220E130E000E011E008
:142CB0000E94B71E2090110133243092CE022092CD022090BD
:142CC400CD023090CE02322C22243092CE022092CD02209036
:142CD800100133244090CD025090CE02422853285092CE029A
:142CEC004092CD022CD4A0C18091CB029091CC02853CE0E084
:142D00009E0709F06AC188EE80931F0180E48093200183E84A
:142D14008093210122242092220125E030E009E00E94B70004
:142D28008091E102803499F5AA242EC004E110E00E94F50237
:142D3C0083EE92E0EA2DFF27EE0FFF1FE80FF91F2080332442
:142D50003092CE022092CD02322C22243092CE022092CD02A5
:142D640082EE92E0EA2DFF27EE0FFF1FE80FF91F208033241B
:142D78004090CD025090CE02422853285092CE024092CD02C0
:142D8C00DED3A3948A2D803278F288EE80931F0180E4809358
:142DA000200183E88093210181E08093220125E030E009E0C9
:142DB4000E94B7008091E102803499F5AA242EC083EE92E0DD
:142DC800EA2DFF27EE0FFF1FE80FF91F208033243092CE0207
:142DDC002092CD02322C22243092CE022092CD0282EE92E0C9
:142DF000EA2DFF27EE0FFF1FE80FF91F208033244090CD02D2
:142E04005090CE02422853285092CE024092CD029AD304E180
:142E180010E00E94F502A3948A2D803278F288EE80931F016A
:142E2C0080E48093200183E88093210182E08093220125E0BD
:142E400030E009E00E94B7008091E102803499F5AA242EC03A
:142E540083EE92E0EA2DFF27EE0FFF1FE80FF91F2080332429
:142E68003092CE022092CD02322C22243092CE022092CD028C
:142E7C0082EE92E0EA2DFF27EE0FFF1FE80FF91F2080332402
:142E90004090CD025090CE02422853285092CE024092CD02A7
:142EA40052D304E110E00E94F502A3948A2D803278F288EE07
:142EB80080931F0180E48093200183E88093210183E0809325
:142ECC00220125E030E009E00E94B7008091E102803499F542
:142EE000AA242EC083EE92E0EA2DFF27EE0FFF1FE80FF91FD8
:142EF400208033243092CE022092CD02322C22243092CE028A
:142F08002092CD0282EE92E0EA2DFF27EE0FFF1FE80FF91FEB
:142F1C00208033244090CD025090CE02422853285092CE02C4
:142F30004092CD020AD304E110E00E94F502A3948A2D803201
:142F440078F288EE80931F0180E48093200183E8809321012E
:142F580084E08093220125E030E009E00E94B7008091E10280
:142F6C00803409F061C0AA242EC083EE92E0EA2DFF27EE0FAA
:142F8000FF1FE80FF91F208033243092CE022092CD02322CA8
:142F940022243092CE022092CD0282EE92E0EA2DFF27EE0FB4
:142FA800FF1FE80FF91F208033244090CD025090CE02422838
:142FBC0053285092CE024092CD02C1D204E110E00E94F50232
:142FD000A3948A2D803278F22DC08091CB029091CC028A3C63
:142FE400E0E09E0729F584E090E09093B2028093B10280E481
:142FF80091E090931D0180931C012224332430921B012092B6
:14300C001A012092C90280ED97E090932D0380932C0386E039
:1430200082BF83B7866083BF86B7816086BF87B7816087BF31
:1430340022242092AF0288B7886088BF89B7886089BF0C9461
:143048009705259608951A922A928A939A931FB61A9289B311
:14305C0082708695813049F4809133039091340380629093C1
:1430700034038093330380B1847086958695813049F4809172
:14308400310390913203806290933203809331038AB3876009
:143098008ABB8BB38D7F8BBB8BB3887F8BBB8091610087606B
:1430AC0080936100809162008B7F8093620080916200887F30
:1430C00080936200BF9A88B38F7788BB19901FBE99918991E0
:1430D4002990199018952A928A939A93EA93FA932FB62A9228
:1430E8008091E1028A3470F482EE92E0E091E102FF27E80F6B
:1430FC00F91F2CB020828091E1028F5F8093E10229902FBEAC
:14311000F991E99199918991299018952A923A920A931A932B
:143124008A939A93AA93EA93FA932FB62A928FB78F778FBFCB
:1431380089B7877F89BF222425BC33243092AE022092AD02A4
:14314C0009C08091AD029091AE0201969093AE028093AD02E9
:143160008091AD029091AE028430E0E09E0778F388B788601F
:1431740088BF839901C0CDC1222424BC83E085BD29C024B409
:1431880033243092AA022092A90280E590E08215930508F411
:14319C00BCC183991BC0222433243092AE022092AD0209C072
:1431B0008091AD029091AE0201969093AE028093AD0280913D
:1431C400AD029091AE028430E0E09E0778F3839901C031C025
:1431D800D6CF24B433243092AA022092A90280E590E08215D8
:1431EC00930508F492C188B78870883001F5222433243092A4
:14320000AE022092AD0209C08091AD029091AE020196909395
:14321400AE028093AD028091AD029091AE028430E0E09E078A
:1432280078F388B7886088BF80B38870883009F401C0CFCF7A
:14323C0024B433243092AA022092A902222424BC2090A90203
:143250003090AA02C1018C33E0E09E0728F080E590E0821594
:14326400930508F456C189E08093B002B3C024B43324309219
:14327800AA022092A90280E590E08215930508F446C1839916
:14328C001BC0222433243092AE022092AD0209C08091AD025A
:1432A0009091AE0201969093AE028093AD028091AD0290913C
:1432B400AE028430E0E09E0778F3839901C031C0D6CF24B487
:1432C80033243092AA022092A90280E590E08215930508F4D0
:1432DC001CC188B78870883001F5222433243092AE0220925B
:1432F000AD0209C08091AD029091AE0201969093AE02809344
:14330400AD028091AD029091AE028430E0E09E0778F388B7B2
:14331800886088BF80B38870883009F401C0CFCF24B4332404
:14332C003092AA022092A902222424BC8091A9029091AA0213
:143340008431E0E09E0720F483E08093AF02E3C02090A90226
:143354003090AA02C1018431E0E09E0770F08832E0E09E079E
:1433680050F48FEC92E0E091B002FF27E80FF91F81E0808364
:14337C0028C00091A9021091AA020832E0E01E0770F00C330E
:14339000E0E01E0750F48FEC92E0E091B002FF27E80FF91FBB
:1433A4002224208212C00091A9021091AA020C33E0E01E07AE
:1433B80030F080E590E08017910708F052CF83E08093AF029D
:1433CC00A4C08091B00281508093B00280E02090B0028215D7
:1433E00008F470CF222433243092CC022092CB022090D1026F
:1433F400222049F08091CB029091CC0281609093CC02809398
:14340800CB022090D202222049F08091CB029091CC02826035
:14341C009093CC028093CB022090D302222049F08091CB02ED
:143430009091CC0284609093CC028093CB022090D40222201C
:1434440049F08091CB029091CC0288609093CC028093CB02B5
:143458002090D502222049F08091CB029091CC02806190938D
:14346C00CC028093CB022090D602222049F08091CB0290919C
:14348000CC0280629093CC028093CB022090D702222049F0B3
:143494008091CB029091CC0280649093CC028093CB022090F2
:1434A800D802222049F08091CB029091CC0280689093CC0215
:1434BC008093CB0281E08093CF0282E08093B00212C08FEC63
:1434D00092E0E091B002FF27E80FF91F20803090CF02322497
:1434E4003092CF028091B0028F5F8093B0028091B0028A304E
:1434F80050F32090D0023090CF02321421F481E08093AF02EA
:14350C000FC082E08093AF020BC088B7886088BF80916A0002
:14352000806C80936A0089B7886089BF222425BC78942990D2
:143534002FBEF991E991A9919991899119910991399029904E
:1435480018954A938FB78F778FBF929A8091CA02887086952F
:14355C00869586958093C8028091CA0284708695869580932E
:14357000C7028091CA02827086958093C6028091CA028170EB
:143584008093C5022FE030E00091CD021091CE020070107871
:143598000E94671F0093C4022EE030E00091CD021091CE02AF
:1435AC00007010740E940F1F0093C3022DE030E00091CD0272
:1435C0001091CE02007010720E940F1F0093C2022CE030E051
:1435D4000091CD021091CE02007010710E940F1F0093C102FB
:1435E8002BE030E00091CD021091CE02007018700E940F1F1B
:1435FC000093C0022AE030E00091CD021091CE020070147087
:143610000E940F1F0093BF0229E030E00091CD021091CE0298
:14362400007012700E940F1F0093BE028091CD029091CE02AC
:14363800807091701C01232C332427FC30942092BD0227E06B
:14364C0030E00091CD021091CE02007810700E940F1F00932E
:14366000BC0226E030E00091CD021091CE02007410700E941B
:143674000F1F0093BB0225E030E00091CD021091CE0200726C
:1436880010700E940F1F0093BA028091CD029091CE028071CD
:14369C0090701C0135942794359427943594279435942794ED
:1436B0002092B9028091CD029091CE02887090701C013594EA
:1436C400279435942794359427942092B8028091CD029091C2
:1436D800CE02847090701C0135942794359427942092B7028A
:1436EC008091CD029091CE02827090701C01359427942092B4
:14370000B6028091CD029091CE02817090708093B50281E010
:143714008093B40242E00DC083EB92E0E42FFF27E80FF91FC1
:1437280020803090B40232243092B4024395463188F3222499
:14373C0033243092AE022092AD0209C08091AD029091AE02F5
:1437500001969093AE028093AD028091AD029091AE028032F6
:14376400E0E09E0778F382B38B7F82BB222433243092AE02F6
:143778002092AD0209C08091AD029091AE0201969093AE0218
:14378C008093AD028091AD029091AE028031E0E09E0778F355
:1437A000919A222433243092AE022092AD0209C08091AD02F1
:1437B4009091AE0201969093AE028093AD028091AD02909123
:1437C800AE028032E0E09E0778F382B38D7F82BB22243324A0
:1437DC003092AE022092AD0209C08091AD029091AE02019615
:1437F0009093AE028093AD028091AD029091AE028031E0E02E
:143804009E0778F3929A222433243092AE022092AD0209C03B
:143818008091AD029091AE0201969093AE028093AD028091CE
:14382C00AD029091AE028032E0E09E0778F322243324309227
:14384000AE022092AD0209C08091AD029091AE02019690934F
:14385400AE028093AD028091AD029091AE028032E0E09E0746
:1438680078F3222433243092AE022092AD0209C08091AD02E8
:14387C009091AE0201969093AE028093AD028091AD0290915A
:14389000AE028032E0E09E0778F3222433243092AE02209231
:1438A400AD0209C08091AD029091AE0201969093AE0280938A
:1438B800AD028091AD029091AE028032E0E09E0778F32224F4
:1438CC0033243092AE022092AD0209C08091AD029091AE0264
:1438E00001969093AE028093AD028091AD029091AE02803265
:1438F400E0E09E0778F382B38B7F82BB222433243092AE0265
:143908002092AD0209C08091AD029091AE0201969093AE0286
:14391C008093AD028091AD029091AE028031E0E09E0778F3C3
:1439300045E10CC183EB92E0E42FFF27E80FF91F2080222086
:1439440009F469C0919A222433243092AE022092AD0209C0E5
:143958008091AD029091AE0201969093AE028093AD0280918D
:14396C00AD029091AE028032E0E09E0778F382B38D7F82BBC7
:14398000222433243092AE022092AD0209C08091AD02909119
:14399400AE0201969093AE028093AD028091AD029091AE02B2
:1439A8008031E0E09E0778F3929A222433243092AE0220929D
:1439BC00AD0209C08091AD029091AE0201969093AE02809371
:1439D000AD028091AD029091AE028032E0E09E0778F382B3EC
:1439E4008B7F82BB222433243092AE022092AD0209C080913E
:1439F800AD029091AE0201969093AE028093AD028091AD024F
:143A0C009091AE028031E0E09E0778F398C0919A2224332434
:143A20003092AE022092AD0209C08091AD029091AE020196CE
:143A34009093AE028093AD028091AD029091AE028032E0E0E6
:143A48009E0778F382B38D7F82BB222433243092AE0220921B
:143A5C00AD0209C08091AD029091AE0201969093AE028093D0
:143A7000AD028091AD029091AE028031E0E09E0778F3929A55
:143A8400222433243092AE022092AD0209C08091AD02909114
:143A9800AE0201969093AE028093AD028091AD029091AE02AD
:143AAC008032E0E09E0778F3222433243092AE022092AD0214
:143AC00009C08091AD029091AE0201969093AE028093AD026C
:143AD4008091AD029091AE028032E0E09E0778F3222433242E
:143AE8003092AE022092AD0209C08091AD029091AE02019606
:143AFC009093AE028093AD028091AD029091AE028032E0E01E
:143B10009E0778F382B38B7F82BB222433243092AE02209254
:143B2400AD0209C08091AD029091AE0201969093AE02809307
:143B3800AD028091AD029091AE028031E0E09E0778F34A95D9
:143B4C0080E0841708F4F0CE919A222433243092AE022092C4
:143B6000AD0209C08091AD029091AE0201969093AE028093CB
:143B7400AD028091AD029091AE028032E0E09E0778F382B346
:143B88008D7F82BB222433243092AE022092AD0209C0809196
:143B9C00AD029091AE0201969093AE028093AD028091AD02A9
:143BB0009091AE028031E0E09E0778F3929A22243324309224
:143BC400AE022092AD0209C08091AD029091AE0201969093C8
:143BD800AE028093AD028091AD029091AE028032E0E09E07BF
:143BEC0078F3222433243092AE022092AD0209C08091AD0261
:143C00009091AE0201969093AE028093AD028091AD029091D2
:143C1400AE028032E0E09E0778F3222433243092AE022092A9
:143C2800AD0209C08091AD029091AE0201969093AE02809302
:143C3C00AD028091AD029091AE028032E0E09E0778F322246C
:143C500033243092AE022092AD0209C08091AD029091AE02DC
:143C640001969093AE028093AD028091AD029091AE028032DD
:143C7800E0E09E0778F3222433243092AE022092AD0209C02F
:143C8C008091AD029091AE0201969093AE028093AD02809156
:143CA000AD029091AE028032E0E09E0778F3222433243092AF
:143CB400AE022092AD0209C08091AD029091AE0201969093D7
:143CC800AE028093AD028091AD029091AE028032E0E09E07CE
:143CDC0078F3222433243092AE022092AD0209C08091AD0270
:143CF0009091AE0201969093AE028093AD028091AD029091E2
:143D0400AE028032E0E09E0778F382B38B7F82BB2224332460
:143D18003092AE022092AD0209C08091AD029091AE020196D3
:143D2C009093AE028093AD028091AD029091AE028031E0E0EC
:143D40009E0778F388B7886088BF789449910895E199FECF27
:143D54001FBB0EBB2DBBE29AE19A0895E199FECF1FBB0EBB52
:143D6800E09A0DB308950E940A1F0E94351F21978FEF809366
:143D7C0011018093100161E080EAA82E4427552738C0FA01A2
:143D90000B841C84E00DF11D2080309010013224309210015B
:143DA400CC24DD24209011012882E0901001269420921101AF
:143DB8002E2C26942092100188818170813021F4822D8068C9
:143DCC00809310018E2D8170813051F4209011012A2420925B
:143DE000110120901001262620921001C60101966C0188306A
:143DF400E0E09E07BCF24F5F5F4FC90102974817590708F42E
:143E0800C2CF21960E942A1F249608953A932A931A930A9348
:143E1C000895222321F0159507952A95FACF0895EA93FA932A
:143E30000A92E02FF12FD895002D3196D895102D3196D89574
:143E4400202D3196D895302D0990F991E9910895A990B990D0
:143E5800C990D990E990F990499159916991799108957A9320
:143E6C006A935A934A93FA92EA92DA92CA92BA92AA92089586
:143E80007A936A935A934A93DA92CA92BA92AA920895A99034
:143E9400B990C990D990499159916991799108950095109570
:143EA800209530950F5F1F4F2F4F3F4F08950F9209900020AD
:143EBC0031F0000F111F221F331F0A94F8CF0F900895222319
:143ED00021F0169507952A95FACF08950F920990002031F0E6
:143EE40036952795179507950A94F8CF0F9008954A925A9292
:143EF8006A928A930E94E01F11F15520E2F08FE14816C0F431
:143F0C0087E14816D1F058F4419489EE481A05C035952795D5
:143F2000179507954A94D1F70EC087E1481A000F111F221F87
:143F3400331F4A94D1F705C03FE7232F132F032F04C0662086
:143F480011F00E94521F89916990599049900895689401C022
:143F5C00E8942227332746F017FD209517FD309503C068949B
:143F700001C0E8944A925A926A928A9387E1482E552466243E
:143F840036F0332322F40E94521F80E8682E0E94F91F8991B2
:143F980069905990499008950FD029F0662011F00E94521F2B
:143FAC0098940895002329F4112319F4222309F43323089582
:143FC000F7DF99F08A93632E80E86822220F331F432E8FE784
:143FD400481A55248827580A269530E8232B3327899198942C
:143FE80008954424552466240895DEDF09F40895AA93BA933F
:143FFC00D2019A938A938EE790E0332349F0369527951795ED
:144010000795A817B907CCF41196F5CF809590950196222340
:14402400BAF0000F111F221FA817B90714F01197F6CF002747
:14403800112722273327899199912D01B991A99108953327AC
:14404C000FEF102F2FE7322F899199912D0102C0AA93BA93EE
:14406000A7DF49F0D201A158BF4F2D01342D220F369527956C
:144074003629B991A99108954A925A926A927A928A929A92A0
:14408800AA92BA92CA92DA92EA92FA928A939A9308959991BB
:14409C008991F990E990D990C990B990A99099908990799065
:1440B00069905990499008950E943E20AA93BA930E94E01F79
:1440C400E1F1E62CD52CC42CB32EA22E912E802E00811181E2
:1440D800228133810E94E01F71F16E244C0C5D1C80E8481651
:1440EC00530664F581E848168FEF58066CF1A29EB12DA02D23
:14410000919E912D802DA09E800D911DA31FB31F829E800D57
:14411400911DA31FB31F929E900DA11DB31FA19E900DA11D5E
:14412800B31F2B2F1A2F092F880F001F111F221F331F0E94BB
:14413C00F91FB991A9910E944D2008950FEF102F2FE78FE75E
:14415000482EF5CF0027102F202F302FF0CFFA93EA93EA81D9
:0E416400FB810E945C20E991F991229608955A
:00000001FF
