:020000021000EC
:04E000000C9448F044
:020000021000EC
:08E074000C94FEF00C94E1F0A5
:020000021000EC
:14E08C000000000001E005BF02E005BFCFEFD0E1CDBFDEBF9D
:14E0A000C050D1400AEA08830024E4E0F1E012E0E539F1070B
:14E0B40011F00192FBCF0083ECE8F0EEA0E0B1E010EE01E0D5
:14E0C8000BBFE039F10721F0D89531960D92F9CF0E9455F1D5
:14E0DC00FFCF0E9474F20C81E02FF12F2BBF00936800E8953C
:14E0F000249608950E9474F2E02FF12F022E132E81E08093A9
:14E104006800E8952496089508C02090680020FCFCCF81E1A2
:14E1180080936800E8952090680026FCF4CF08954A935A9397
:14E12C00219783E0888320910201309103010091000110910D
:14E140000101CDDFE3DF4427552789E091E0FA01E80FF91F90
:14E1540020803324322C222488E091E0FA01E80FF91F208198
:14E168003327220D331D8A01C1DF4E5F5F4F4030E1E05E07AE
:14E17C0034F385E0888320910201309103010091000110914C
:14E190000101A5DFBBDF2196599149910895222420929A00B1
:14E1A40082E080939B0086E080939D0080E180939900209282
:14E1B800980088E980939A0008952A923A928A932FB62A92BA
:14E1CC0020909C003324309294022092930281E080939202F5
:14E1E00029902FBE899139902990189581E085BF222425BE6E
:14E1F4002BBE0C94000008952A928A932FB62A92222420927F
:14E20800910220928A0080917D008B7F80937D0080917C007E
:14E21C00846080937C0029902FBE89912990189520909B000A
:14E2300025FEFCCF00939C000895222420928A0080EF80931C
:14E2440089008EEB8093880080917C00846080937C0085E0C4
:14E2580080938A0080917C00846080937C0080917D008460A3
:14E26C0080937D000895222420928A0084EA8093890083E77B
:14E280008093880080917C00846080937C0080917D008B7F57
:14E2940080937D0085E080938A0080917C00846080937C00E4
:14E2A80008950AD178DF789422242092920220929102DBDFFC
:14E2BC0022242092910214C080919202813081F4222420922C
:14E2D00092028091930290919402853FE0E09E0729F481E0A2
:14E2E4008093910205EFA0DF20907C0022FC04C020909102BC
:14E2F800222021F3222420928A0080917C00846080937C003A
:14E30C0080917D008B7F80937D0020909102222009F466DF0E
:14E32000222420929102CAC080919202813009F0C5C080E0A0
:14E3340020909102821508F08FC07DDF86E091E0E0918F027F
:14E34800F0919002E80FF91F20909302309094022082809151
:14E35C008F029091900201969093900280938F028230E1E006
:14E370009E0709F0A0C0222420928A0080917D008B7F80936E
:14E384007D0080917C00846080937C0080919102813009F0BA
:14E398005DC020910601332700E011E00E9479F2180140907B
:14E3AC0007015524240C351C442437FC4094552447FC50944C
:14E3C0003092010120920001509203014092020140E051E0C6
:14E3D40060E070E05A924A923A922A928A019B010E9489F211
:14E3E8001093010100930001309303012093020140E050E01B
:14E3FC0060E070E004171507260737074CF480E08093000127
:14E4100080930101809302018093030140E05FEF60E070E0B8
:14E4240040900201509003012090000130900101421553050B
:14E438006405750554F480E080930001809302018093030104
:14E44C008FEF809301016ADE2224209291022DC02090930224
:14E4600030909402C101843FE0E09E07A1F0853FE0E09E07AE
:14E4740069F0843FE0E09E07E4F080919302909194028F3F14
:14E48800E0E09E0789F013C005EFCCDE10C004EFC9DE81E066
:14E49C0080939102222433243092900220928F02C6DE03C02B
:14E4B0000FEFBCDE9BDE22242092920235CF089522242EBCEA
:14E4C40085E19FEF9DBD8CBD85E08EBD86B7846086BF26B6BB
:14E4D80022FEFDCF22242EBC86B7846086BF08953A932A9387
:14E4EC001A930A9308950A921A928A939A93029FC001129F90
:14E50000900D039F900D8C01999189911990099008950E94D9
:14E51400BDF27A920E94D6F259F177240E94DCF219F48C01DF
:14E528009D0124C00A921A92089FB02CA12C289F902C812C95
:14E53C00189FA00C911C871C099FA00C911C871C199F900C20
:14E55000811C0A9F900C811C389F800C299F800C1A9F800C3C
:14E564000B9F800C199009900B2D1A2D292D382D79900C9448
:14E57800CBF28A929A92AA92BA92EA938A939A93AA93BA93B1
:14E58C0089859A85AB85BC850895B991A99199918991E991FE
:14E5A000B990A9909990899024960895EE27E02BE12BE22B13
:10E5B400E32B0895EE27E82BE92BEA2BEB2B0895A8
:00000001FF
