:040000000C944C0010
:04005C000C94E40913
:080074000C94A5000C948E0011
:14008C00F3C8AF3ED1228B3F0000FA40CFEFD0E1CDBFDEBF29
:1400A000C050D1400AEA08830024E0E0F1E011E0E131F107FC
:1400B40011F00192FBCF0083E8E9F0E0A0E0B1E010E000E0D5
:1400C8000BBFE839F10721F0C89531960D92F9CF0E944D06B0
:1400DC00FFCF22242BBA8CE78ABB22BA80EC81BB20926500C4
:1400F00083E0809364000895222420929A0082E080939B00E3
:1401040086E080939D0087E6809399002092980088E98093EA
:140118009A0008952A928A932FB62A9220909C002092020121
:14012C0081E08093010129902FBE89912990189520909B00D8
:1401400025FEFCCF00939C0008952A928A939A93AA93EA9331
:140154002FB62A92222420927D0020928A0096989798DA9876
:14016800DB98DE98809165008D7F80936500809165008E7F1D
:14017C0080936500DC98DD9880910B0190910C0181709070D2
:140190008130E0E09E0771F480910B0190910C018E7F909365
:1401A4000C0180930B01886090930C0180930B0180910901C9
:1401B80090910A01817090708130E0E09E0771F48091090180
:1401CC0090910A018E7F90930A0180930901886090930A0185
:1401E0008093090129902FBEE991A9919991899129901895EA
:1401F4004A936A93013009F066C180910B0190910C018160A0
:1402080090930C0180930B0196958795817090708130E0E0EA
:14021C009E0709F0AAC0809165008E7F8093650022242092D3
:14023000000105C0809100018F5F8093000180910001823D0F
:14024400B8F322242092000105C0809100018F5F8093000129
:1402580080910001823DB8F3979822242092000105C0809118
:14026C0000018F5F8093000180910001823DB8F32224209207
:14028000000105C0809100018F5F8093000180910001823DBF
:14029400B8F38091650082608093650022242092000105C01D
:1402A800809100018F5F8093000180910001823DB8F3662725
:1402BC001DC0969822242092000105C0809100018F5F809352
:1402D0000001809100018A32B8F3969A22242092000105C0B2
:1402E400809100018F5F80930001809100018A32B8F3639581
:1402F8006E3108F3442737C0969866270CC00000000000006F
:14030C00000000000000000000000000000000006395242E93
:14032000332488EC90E02C0142185308262E33242414350490
:1403340044F320900B0130900C0125FC02C0969A01C09698F3
:1403480066270CC00000000000000000000000000000000048
:14035C000000000000006395842F8E5C681780F34395483CAA
:1403700008F4C6CF02C2809165008D7F809365002224209232
:14038400000105C0809100018F5F8093000180910001823DBA
:14039800B8F322242092000105C0809100018F5F80930001D4
:1403AC0080910001823DB8F3969822242092000105C08091C4
:1403C00000018F5F8093000180910001823DB8F322242092B2
:1403D400000105C0809100018F5F8093000180910001823D6A
:1403E800B8F38091650081608093650022242092000105C0C9
:1403FC00809100018F5F8093000180910001823DB8F36627D0
:140410001DC0979822242092000105C0809100018F5F8093FB
:140424000001809100018A32B8F3979A22242092000105C05B
:14043800809100018F5F80930001809100018A32B8F363952B
:14044C006E3108F3442737C0979866270CC000000000000018
:14046000000000000000000000000000000000006395242E3E
:14047400332488EC90E02C0142185308262E3324241435043B
:1404880044F320900B0130900C0125FC02C0979A01C097989C
:14049C0066270CC000000000000000000000000000000000F3
:1404B0000000000000006395842F8E5C681780F34395483C55
:1404C40008F4C6CF58C1023009F055C18091090190910A01F2
:1404D800816090930A018093090196958795817090708130FB
:1404EC00E0E09E0709F0A2C0DD9822242092000105C08091F8
:1405000000018F5F8093000180910001823DB8F32224209270
:14051400000105C0809100018F5F8093000180910001823D28
:14052800B8F3DB9822242092000105C0809100018F5F8093D0
:14053C00000180910001823DB8F322242092000105C080915F
:1405500000018F5F8093000180910001823DB8F3DC9A22245C
:140564002092000105C0809100018F5F8093000180910001E5
:14057800823DB8F366271DC0DA9822242092000105C080915A
:14058C0000018F5F80930001809100018A32B8F3DA9A222425
:1405A0002092000105C0809100018F5F8093000180910001A9
:1405B4008A32B8F363956E3108F3442737C0DA9866270CC00D
:1405C80000000000000000000000000000000000000000001F
:1405DC0000006395242E332488EC90E02C0142185308262E50
:1405F00033242414350444F32090090130900A0125FC02C090
:14060400DA9A01C0DA9866270CC000000000000000000000E2
:140618000000000000000000000000006395842F8E5C6817BA
:14062C0080F34395483C08F4C6CFA1C0DC982224209200018C
:1406400005C0809100018F5F8093000180910001823DB8F351
:1406540022242092000105C0809100018F5F809300018091AF
:140668000001823DB8F3DA9822242092000105C080910001D1
:14067C008F5F8093000180910001823DB8F3222420920001F3
:1406900005C0809100018F5F8093000180910001823DB8F301
:1406A400DD9A22242092000105C0809100018F5F80930001F9
:1406B80080910001823DB8F366271DC0DB98222420920001DC
:1406CC0005C0809100018F5F80930001809100018A32B8F3C8
:1406E000DB9A22242092000105C0809100018F5F80930001BF
:1406F400809100018A32B8F363956E3108F3442737C0DB9812
:1407080066270CC00000000000000000000000000000000084
:14071C000000000000006395242E332488EC90E02C014218BD
:140730005308262E33242414350444F32090090130900A0182
:1407440025FC02C0DB9A01C0DB9866270CC0000000000000BC
:14075800000000000000000000000000000000006395842FE2
:14076C008E5C681780F34395483C08F4C6CF6991499108953F
:140780000E94B70AA02E24978A2D805487B983EC86B9CC2410
:14079400DD2403C0C60101966C01C6018436E0E09E07C0F329
:1407A80086B180748034E1F3C4B0DD24C5B0DD2480E0888334
:1407BC0089838A838B83AA242CC083EC86B9CC24DD2403C0E6
:1407D000C60101966C01C6018436E0E09E07C0F386B1807486
:1407E4008034E1F3C4B0DD2425B03324322C2224C228D3284F
:1407F800C60193706C011C0144245524688079808A809B80B2
:14080C00620C731C841C951C688279828A829B82A3948A2D8E
:14082000803288F287E090E0088119812A813B818A930E9478
:14083400D20A088319832A833B834FEF50E060E070E028809C
:1408480039804A805B802422352246225722022D24960C9437
:14085C00C00A0E94B70A5801249722242EBC84EC90E28A1596
:140870009B0508F45C0185010E94100B088319832A833B83A6
:1408840004E910E00E94930ACE019A938A930E94130C0883DF
:1408980019832A833B83088119812A813B810E94DE0A6801C8
:1408AC001601442455244FEF5FEF60E070E042195309640900
:1408C00075095DBD4CBD86B7846086BF85E08EBD1DC180917E
:1408D4000B0190910C01817090708130E0E09E0709F081C095
:1408E80000274ADFC02E85E0801720F48C2D8550C82E01C069
:1408FC00CC242090060133244C2C55242414350404F5969861
:140910009798DA98DB98DE98809165008D7F8093650080913E
:1409240065008E7F80936500DC98DD9880910B0190910C01A1
:14093800806190930C0180930B018E7F90930C0180930B011F
:14094C0023C020900301C214F8F496989798DA98DB98DE9886
:14096000809165008D7F80936500809165008E7F809365008E
:14097400DC98DD9880910B0190910C01846090930C01809314
:140988000B018E7F90930C0180930B010C2D11270E94120BC3
:14099C00088319832A833B8300E910E00E94930ACE019A93A1
:1409B0008A930E94130C088319832A833B83088119812A81F5
:1409C4003B810E94DE0AC8019070982F88278070E0910B012D
:1409D800F0910C01F070E82BF92BF0930C01E0930B018091C6
:1409EC00090190910A01817090708130E0E09E0709F081C080
:140A000001E0BEDEC02E85E0801720F48C2D8550C82E01C022
:140A1400CC242090050133244C2C55242414350404F5969848
:140A28009798DA98DB98DE98809165008D7F80936500809125
:140A3C0065008E7F80936500DC98DD988091090190910A018C
:140A5000806190930A01809309018E7F90930A01809309010E
:140A640023C020900301C214F8F496989798DA98DB98DE986D
:140A7800809165008D7F80936500809165008E7F8093650075
:140A8C00DC98DD988091090190910A01846090930A01809301
:140AA00009018E7F90930A01809309010C2D11270E94120BB0
:140AB400088319832A833B8300E910E00E94930ACE019A9388
:140AC8008A930E94130C088319832A833B83088119812A81DC
:140ADC003B810E94DE0AC8019070982F88278070E091090116
:140AF000F0910A01F070E82BF92BF0930A01E0930901AA20FA
:140B040019F4BB2009F403C026B622FEE0CE22242EBC2496A1
:140B18000C94C00AE0DAECDA96989798DA98DB98DE98809116
:140B2C0065008D7F80936500809165008E7F80936500DC985D
:140B4000DD9880910B0190910C018E7F90930C0180930B0185
:140B54008D7F90930C0180930B018B7F90930C0180930B01D9
:140B6800877F90930C0180930B018F7E90930C0180930B01C8
:140B7C008F7D90930C0180930B018F7390930C0180930B01B9
:140B9000907090930C0180930B018091090190910A018E7FAE
:140BA40090930A01809309018D7F90930A01809309018B7F91
:140BB80090930A0180930901877F90930A01809309018F7E80
:140BCC0090930A01809309018F7D90930A01809309018F7371
:140BE00090930A0180930901907090930A0180930901222425
:140BF40020920101449A88B1877F88B9469A88B1836088B99E
:140C0800439A449A7894089580910801813018F481E0809329
:140C1C00080186E020900801821510F48093080180910701CC
:140C3000813018F481E08093070186E020900701821510F4BE
:140C440080930701109108010BE10103802D8B51845980936E
:140C58000601109107010103802D8B51845980930501809144
:140C6C000401813018F481E08093040186E020900401821587
:140C800010F480930401109104010BE00103802D8B50865F42
:140C9400809303010895289780E0888389838A838B831BC06C
:140CA800CC24DD2403C0C60101966C01C601883EE3E09E07C4
:140CBC00C0F341E050E060E070E0288039804A805B80240E58
:140CD000351E461E571E288239824A825B8248EE53E060E02D
:140CE40070E0288039804A805B802416350646065706C0F2D6
:140CF80011DF02E310E0AFDD00271127B7D30093080101E031
:140D0C0010E0B2D30093070102E010E0ADD3A02EA09203016D
:140D200077DF4FC3002711279ADD80910101813009F047C3BA
:140D3400809102019927807F90705C018037E0E09E0709F462
:140D480043C180E790E08A159B058CF0C5018033E0E09E0723
:140D5C0039F18033E0E09E070CF42AC3C5018036E0E09E0773
:140D700009F454C023C3C5018039E0E09E0709F40CC380E95F
:140D840090E08A159B053CF0C5018038E0E09E0709F42EC2B0
:140D980011C3C501803DE0E09E0709F00BC300E1C9D908C376
:140DAC0002E0E8DC11270E94120B0C831D832E833F830CE800
:140DC00010E00E94930ACE0104969A938A930E94130C0C83ED
:140DD4001D832E833F830C811D812E813F810E94DE0AA02E06
:140DE80080910B0190910C01817090708130E0E09E0751F064
:140DFC008091090190910A01817090708130E0E09E0719F488
:140E10008A2D8B5FA82E0A2D91D9D0C2E09002018E2D81363F
:140E240019F0823609F0C8C28091090190910A01817090703E
:140E38008130E0E09E0751F480910B0190910C01806C9093F1
:140E4C000C0180930B01AEC0E0900B01F0900C01C701817036
:140E600090708130E0E09E0729F5C70196958795817090704A
:140E74008130E0E09E07E1F480910201813641F4C7018F73B5
:140E8800806490930C0180930B018EC080910201823609F010
:140E9C0089C080910B0190910C018F73806890930C01809381
:140EB0000B017EC0E0900B01F0900C01C70181709070813071
:140EC400E0E09E07F1F4E1FC1CC080910201813641F4C7014F
:140ED8008F73806890930C0180930B0165C0809102018236DC
:140EEC0009F060C080910B0190910C018F73806490930C0178
:140F000080930B0155C080910B0190910C018B7F90930C0124
:140F140080930B01877F90930C0180930B018F7E90930C0118
:140F280080930B018F7D90930C0180930B018F7390930C0109
:140F3C0080930B0180910201813651F480910B0190910C0127
:140F5000826090930C0180930B010EC080910201823609F0C9
:140F64002FC280910B0190910C018D7F90930C0180930B01E2
:140F7800DE9A04EF11E06FDC22242EBC8DEB90EF9DBD8CBDF4
:140F8C0086B7846086BF85E08EBD86B7846086BF01E02AD9F1
:140FA00026B622FEFDCF22242EBC04EF11E057DC00910B0191
:140FB40010910C01C1D802E010E04FDC00910B0110910C019A
:140FC800012F1127B7D8F6C1E09002018E2D813718F08CE706
:140FDC008E1508F4EDC112E0009102010E947B0AA02E809128
:140FF0000B0190910C01817090708130E0E09E0751F4809156
:14100400090190910A01806C90930A01809309019DC0E0909E
:141018000901F0900A01C701817090708130E0E09E07F1F47B
:14102C00C70196958795817090708130E0E09E07A9F4AA2033
:1410400041F4C7018F73806490930A01809309017FC080911E
:14105400090190910A018F73806890930A018093090174C0E9
:14106800E0900901F0900A01C701817090708130E0E09E07A0
:14107C00B9F4E1FC15C0AA2041F4C7018F73806890930A0122
:14109000809309015DC08091090190910A018F7380649093C2
:1410A4000A018093090152C08091090190910A018B7F90938A
:1410B8000A0180930901877F90930A01809309018F7E90937B
:1410CC000A01809309018F7D90930A01809309018F7390936C
:1410E0000A01809309018A2D813051F48091090190910A01E0
:1410F4008D7F90930A01809309010CC0AA2009F05FC18091D1
:14110800090190910A01826090930A0180930901DE9A04EF05
:14111C0011E09FDB22242EBC8DEB90EF9DBD8CBD86B7846069
:1411300086BF85E08EBD86B7846086BF02E05AD826B622FE40
:14114400FDCF22242EBC04EF11E087DB0091090110910A010E
:141158000E949E0002E010E07EDB0091090110910A01012FA1
:14116C0011270E949E0082E720900201821508F01FC184E008
:1411800080937C0080937D00222420928A0022E030E0009117
:1411940002011127025710400F5F1F4F0E94450A6801C60166
:1411A800019604E81EE19C010E94A70A680116014424552460
:1411BC0040E050E061E070E04219530964097509CA0101963A
:1411D0006C011C01232C332420928900C092880022242092CE
:1411E4008B0085E080938A0084E080937C00E4C080910201BF
:1411F800803829F4DE9A00270E949E00DBC0809102018138C7
:14120C0049F502E010E025DB00910B0110910C010E949E0033
:1412200002E010E01CDB00910B0110910C01012F11270E949C
:141234009E0002E010E011DB0091090110910A010E949E00C3
:1412480002E010E008DB0091090110910A01012F11270E948C
:14125C009E00AEC080910201823809F048C096989798DA98D4
:14127000DB98DE98809165008D7F80936500809165008E7F04
:1412840080936500DC98DD9880910B0190910C0181709070B9
:141298008130E0E09E0771F480910B0190910C018E7F90934C
:1412AC000C0180930B01886090930C0180930B0180910901B0
:1412C00090910A01817090708130E0E09E0771F48091090167
:1412D40090910A018E7F90930A0180930901886090930A016C
:1412E8008093090104EB10E0B6DA00270E949E0061C08091CD
:1412FC000201833841F500271127B6D0C02EC092080101E0DB
:1413100010E0B0D0C02EC092070102E010E0AAD0C02EC09285
:14132400040174DCA09007018A2D8F708295A82E20900801CC
:14133800A2280A2D0E949E0002E010E08CDAA09004010A2DBC
:14134C000E949E0035C089E820900201821568F4822D8958B1
:1413600080930701282F01E010E07CD051DC00270E949E0056
:1413740023C083E8209002018215F0F4822D83588093080143
:14138800282F002711276AD03FDC00270E949E0011C089E99C
:14139C0020900201821560F4822D895980930401282F02E0BD
:1413B00010E058D02DDC00270E949E00222420920101B0CC2B
:1413C400289608958A939A93AA93EA938FB78A9396989798F6
:1413D800DA98DB98DE98809165008D7F809365008091650036
:1413EC008E7F80936500DC98DD9880910B0190910C01817043
:1414000090708130E0E09E0771F480910B0190910C01806230
:1414140090930C0180930B018E7F90930C0180930B01809108
:14142800090190910A01817090708130E0E09E0771F48091FD
:14143C00090190910A01806290930A01809309018E7F909309
:141450000A018093090189918FBFE991A99199918991189553
:14146400E199FECF1FBB0EBB2DBBE29AE19A0895E199FECFC7
:141478001FBB0EBBE09A0DB308956894DA92D12E04C0E8943F
:14148C00DA92D12ED32617FF04C0109500950F5F1F4F37FFC2
:1414A00004C0309520952F5F3F4F0E94620AD7FE04C0109592
:1414B40000950F5F1F4FD9900895689401C0E894EA92FA926C
:1414C8008A93EE24FF2480E1000F111FEE1CFF1CE216F30608
:1414DC0018F0E21AF30A03958A95A1F716F40E2D1F2D899101
:1414F000F990E9900895689401C0E8942A93FA92EA92FF2428
:14150400EE2420E1000FFF1CEE1CE11610F0E11A03952A9543
:14151800B9F70EF40E2DE990F99029910895EA93FA930A92D3
:14152C00E02FF12FD895002D3196D895102D3196D895202DF0
:141540003196D895302D0990F991E99108950A921A928A9367
:141554009A93029FC001129F900D039F900D8C019991899196
:141568001990099008957A936A935A934A93DA92CA92BA92A8
:14157C00AA920895A990B990C990D990499159916991799176
:14159000089500951095209530950F5F1F4F2F4F3F4F089571
:1415A4000F920990002031F036952795179507950A94F8CF84
:1415B8000F9008954A925A926A928A930E94440B11F155209A
:1415CC00E2F08FE14816C0F487E14816D1F058F4419489EE98
:1415E000481A05C035952795179507954A94D1F70EC087E126
:1415F400481A000F111F221F331F4A94D1F705C03FE7232FCC
:14160800132F032F04C0662011F00E94C90A8991699059909E
:14161C0049900895689401C0E8942227332746F017FD209569
:1416300017FD309503C0689401C0E8944A925A926A928A93F0
:1416440087E1482E5524662436F0332322F40E94C90A80E842
:14165800682E0E945D0B899169905990499008950FD029F074
:14166C00662011F00E94C90A98940895002329F4112319F424
:14168000222309F433230895F7DF99F08A93632E80E8682222
:14169400220F331F432E8FE7481A55248827580A269530E819
:1416A800232B33278991989408954424552466240895DEDFDE
:1416BC0009F40895AA93BA93D2019A938A938EE790E033239E
:1416D00049F03695279517950795A817B907CCF41196F5CF54
:1416E4008095909501962223BAF0000F111F221FA817B90733
:1416F80014F01197F6CF0027112722273327899199912D01F9
:14170C00B991A991089533270FEF102F2FE7322F8991999156
:141720002D0102C0AA93BA93A7DF49F0D201A158BF4F2D0174
:14173400342D220F369527953629B991A99108954A925A9240
:141748006A927A928A929A92AA92BA92CA92DA92EA92FA92E5
:14175C008A939A93089599918991F990E990D990C990B99041
:14177000A99099908990799069905990499008950E94A20B3A
:14178400AA93BA930E94440BE1F1E62CD52CC42CB32EA22E50
:14179800912E802E00811181228133810E94440B71F16E2481
:1417AC004C0C5D1C80E84816530664F581E848168FEF58063D
:1417C0006CF1A29EB12DA02D919E912D802DA09E800D911DBA
:1417D400A31FB31F829E800D911DA31FB31F929E900DA11DF3
:1417E800B31FA19E900DA11DB31F2B2F1A2F092F880F001F1E
:1417FC00111F221F331F0E945D0BB991A9910E94B10B08958D
:141810000FEF102F2FE78FE7482EF5CF0027102F202F302FAD
:14182400F0CFFA93EA93EA81FB810E94C00BE991F9912296D7
:02183800089511
:00000001FF
