:020000021000EC
:04E000000C9448F044
:020000021000EC
:04E010000C9480F5F7
:020000021000EC
:04E048000C944CFBED
:020000021000EC
:04E05C000C9497F792
:020000021000EC
:04E074000C9428F2EE
:020000021000EC
:14E08C000000000001E005BF02E005BFCFEFD0E1CDBFDEBF9D
:14E0A000C058D0400AEA08830024E4E0F1E012E0EC34F10702
:14E0B40011F00192FBCF0083ECE8F0EEA0E0B1E010EE01E0D5
:14E0C8000BBFE039F10721F0D89531960D92F9CF0E948CF29D
:14E0DC00FFCF0E9469FB0C81E02FF12F2BBF00936800E8953E
:14E0F000249608950E9469FBE02FF12F022E132E81E08093AB
:14E104006800E8952496089508C02090680020FCFCCF81E1A2
:14E1180080936800E8952090680026FCF4CF08950E94C8FBFC
:14E12C00219783E0888320910201309103010091000110910D
:14E140000101CDDFE3DF4427552789E091E0FA01E80FF91F90
:14E1540020803324322C222488E091E0FA01E80FF91F208198
:14E168003327220D331D8A01C1DF4E5F5F4F4030E1E05E07AE
:14E17C0034F385E0888320910201309103010091000110914C
:14E190000101A5DFBBDF21960C94CDFB22242BBA87E08ABB65
:14E1A40028BA80E887BB25BA24BA22BA86E081BB23B822B8EB
:14E1B8002092620087E080936100209265002092640008959A
:14E1CC0022242AB882E08BB986E08093950080E189B920920E
:14E1E000900088E98AB9089581E085BF222425BE2BBE0C94F3
:14E1F40000000895D1DFE8DF8AB387608ABB8BB38D7F8BBB0A
:14E208008BB3887F8BBB809161008760809361008091620037
:14E21C008B7F8093620080916200887F80936200BF9A88B3EC
:14E230008F7788BBD09A8BB38E7F8BBB80916100826080932F
:14E244006100809162008D7F8093620089B399278270907083
:14E258009595879581709070E0914A02F0914B02EE7FE82B70
:14E26C00F92BF0934B02E0934A0289B39927847090709595D1
:14E2800087959595879581709070880F991F82709070ED7F8A
:14E29400E82BF92BF0934B02E0934A02CF018B7F90934B0266
:14E2A80080934A02877F90934B0280934A028F7E90934B02B1
:14E2BC0080934A028F7D90934B0280934A028F7390934B02A2
:14E2D00080934A02907090934B0280934A0280B19927847027
:14E2E4009070959587959595879581709070E0914802F0916D
:14E2F8004902EE7FE82BF92BF0934902E093480280B19927A7
:14E30C008170907081709070880F991F82709070ED7FE82B5B
:14E32000F92BF0934902E0934802CF018B7F909349028093DF
:14E334004802877F90934902809348028F7E9093490280932C
:14E3480048028F7D90934902809348028F739093490280931D
:14E35C00480290709093490280934802449A83E088B9439A39
:14E37000449A88B7886088BF80916A00806C80936A0089B729
:14E38400886089BF80E88FBF929A0E9438FB0E9438FB0E9427
:14E3980038FB0E9438FB0E9438FB82B38B7F82BB08950E94D9
:14E3AC0069FB0E94BDFB21978FEF809313028093120261E0D9
:14E3C00080EAA82E4427552738C0FA010B841C84E00DF11D05
:14E3D400208030901202322430921202CC24DD2420901302DF
:14E3E8002882E09012022694209213022E2C26942092120298
:14E3FC0088818170813021F4822D8068809312028E2D8170E3
:14E41000813051F4209013022A242092130220901202262618
:14E4240020921202C60101966C018830E0E09E07BCF24F5FDA
:14E438005F4FC90102974817590708F4C2CF21960E94B2FB6D
:14E44C00249608952A928A932FB62A92222420921602209229
:14E460008A0080917D008B7F80937D0080917C008460809372
:14E474007C0029902FBE899129901895AA928FEF80930B0218
:14E4880080930C02222420920D02ACB05D9BFECF0CB9ACB016
:14E49C00579A22242EBC222339F480E398E59DBD8CBD85E0F1
:14E4B0008EBD06C080E096E09DBD8CBD81E08EBD86B7846001
:14E4C40086BF26B622FEFDCF22242EBC86B7846086BF8AB166
:14E4D8008F778AB9A9900895222420928A0080EF8093890084
:14E4EC008EEB8093880080917C00846080937C0085E0809390
:14E500008A0080917C00846080937C0080917D0084608093F8
:14E514007D0008950E9438FB222420921902209216023324D0
:14E528003092350220923402309233022092320220920E025F
:14E53C005DDE0E9438FB222420928A0081ED8093890080E2CD
:14E550008093880080917C00846080937C0080917D008B7F84
:14E5640080937D0085E080938A0080917C00846080937C0011
:14E5780020921602AEC080911902813009F097C080913202E5
:14E58C00909133028A3FE0E09E0709F581E08093160221E06C
:14E5A00005EB6EDF8FE0809331028AEF97EE9093350280930A
:14E5B40034020E9438FBFFD422242092190288B7886088BFF4
:14E5C80080916A00806C80936A0089B7886089BF6EC08091AC
:14E5DC003202909133028B3FE0E09E07C9F581E08093160228
:14E5F00021E005EB45DF8FE08093310220900B023324309277
:14E604003502209234022090340230903502322C22243092A0
:14E6180035022092340220900C02332440903402509035029D
:14E62C004228532850923502409234020E9438FBBED4222427
:14E640002092190288B7886088BF80916A00806C80936A00A7
:14E6540089B7886089BF2DC0222420928A0080917C00846062
:14E6680080937C0080917D008B7F80937D0021E008EB02DF12
:14E67C0020900B0233243092350220923402209034023090EF
:14E690003502322C22243092350220923402C1018F6F9093D7
:14E6A4003502809334028FE080933102DFD783D499DD809199
:14E6B8001902823071F422242092190288B7886088BF80918A
:14E6CC006A00806C80936A0089B7886089BF20907C0022FCAD
:14E6E00005C020901602222009F449CF222420928A008091AF
:14E6F4007C00846080937C0080917D008B7F80937D0020904B
:14E708001602222009F46CDD222420921602F2C1809119026E
:14E71C00823079F422242092190288B7886088BF80916A00CE
:14E73000806C80936A0089B7886089BFDFC18091190281307F
:14E7440009F0DAC180E020901602821508F0C6C0C5DE86E0E7
:14E7580091E0E0911402F0911502E80FF91F2090320230906A
:14E76C0033022082809114029091150201969093150280937F
:14E78000140280911602823039F45D9BFECF209032023090FE
:14E7940033022CB880911402909115028230E1E09E0709F0E8
:14E7A8009BC1222420928A0080917D008B7F80937D00809146
:14E7BC007C00846080937C0080911602813009F05DC02091B9
:14E7D0000601332700E011E00E946EFB18014090070155248E
:14E7E400240C351C442437FC4094552447FC509430920101CD
:14E7F80020920001509203014092020140E051E060E070E0BE
:14E80C005A924A923A922A928A019B010E947EFB10930101C1
:14E8200000930001309303012093020140E050E060E070E0F3
:14E8340004171507260737074CF480E0809300018093010165
:14E84800809302018093030140E05FEF60E070E040900201BE
:14E85C005090030120900001309001014215530564057505BF
:14E8700054F480E08093000180930201809303018FEF80931A
:14E88400010150DC2224209216028FE08093310222E031E07A
:14E8980006E011E086DD209013023324309235022092340235
:14E8AC002090340230903502322C22243092350220923402F6
:14E8C000209012023324409034025090350242285328509245
:14E8D400350240923402CAD66ED300C1209032023090330276
:14E8E800C1018032E0E09E0741F18032E0E09E070CF4F2C048
:14E8FC002090320230903302C1018A3FE0E09E0731F18B3F53
:14E91000E0E09E0709F430C08C3FE0E09E0709F452C08D3F96
:14E92400E0E09E0709F463C08E3FE0E09E0709F48FC08F3F0E
:14E93800E0E09E0709F4B0C0CFC082E0809331022224332425
:14E94C0030923502209234028DD631D3C3C021E005EB90DD8E
:14E960008FE0809331028AEF97EE90933502809334027ED6F9
:14E9740022D3B4C08FE08093310221E005EB7EDD20900B0268
:14E98800332430923502209234022090340230903502322C08
:14E99C002224309235022092340220900C0233244090340225
:14E9B0005090350242285328509235024092340257D6FBD23C
:14E9C4008DC08FE0809331028CEF97EE90933502809334029A
:14E9D8004BD6EFD281E0809316022224332430921502209295
:14E9EC00140278DD77C08FE08093310221E007EB41DD2090FF
:14EA00000B02332430923502209234022090340230903502E0
:14EA1400322C2224309235022092340220900C023324409084
:14EA28003402509035024228532850923502409234021AD697
:14EA3C00BED282E0809316022224332430921502209214026B
:14EA500047DD46C0222706EB13DD20900B0233243092350251
:14EA6400209234022090340230903502322C2224309235023C
:14EA78002092340220900C0233244090340250903502422806
:14EA8C00532850923502409234028FE0809331028ED220C0E5
:14EAA00021E008EBEDDC20900B0233243092350220923402B0
:14EAB4002090340230903502322C22243092350220923402EC
:14EAC800C1018F6F90933502809334028FE080933102CAD583
:14EADC006ED284DB22242092190288B7886088BF80916A008B
:14EAF000806C80936A0089B7886089BF0DCE08952A923A9239
:14EB04000A931A938A939A93AA93EA93FA932FB62A928FB73B
:14EB18008F778FBF89B7877F89BF222425BC332430921802AD
:14EB2C002092170209C0809117029091180201969093180208
:14EB40008093170280911702909118028430E0E09E0778F3AC
:14EB540088B7886088BF839901C0CDC1222424BC83E085BD09
:14EB680029C024B43324309205012092040180E590E0821596
:14EB7C00930508F4BCC183991BC02224332430921802209252
:14EB9000170209C08091170290911802019690931802809343
:14EBA400170280911702909118028830E0E09E0778F383993B
:14EBB80001C031C0D6CF24B43324309205012092040180E5DF
:14EBCC0090E08215930508F492C188B78870883001F522241C
:14EBE0003324309218022092170209C08091170290911802F5
:14EBF4000196909318028093170280911702909118028430F4
:14EC0800E0E09E0778F388B7886088BF80B38870883009F4DA
:14EC1C0001C0CFCF24B433243092050120920401222424BCB1
:14EC30002090040130900501C1018C33E0E09E0728F080E5F2
:14EC440090E08215930508F456C189E080931A02B3C024B427
:14EC58003324309205012092040180E590E08215930508F4D2
:14EC6C0046C183991BC022243324309218022092170209C089
:14EC800080911702909118020196909318028093170280910A
:14EC94001702909118028830E0E09E0778F3839901C031C0C2
:14ECA800D6CF24B43324309205012092040180E590E0821599
:14ECBC00930508F41CC188B78870883001F52224332430928F
:14ECD00018022092170209C080911702909118020196909363
:14ECE40018028093170280911702909118028430E0E09E0758
:14ECF80078F388B7886088BF80B38870883009F401C0CFCFF0
:14ED0C0024B433243092050120920401222424BC8091040109
:14ED2000909105018431E0E09E0720F483E080931902E3C056
:14ED34002090040130900501C1018431E0E09E0770F088325A
:14ED4800E0E09E0750F486E392E0E0911A02FF27E80FF91F71
:14ED5C0081E0808328C000910401109105010832E0E01E07FB
:14ED700070F00C33E0E01E0750F486E392E0E0911A02FF2739
:14ED8400E80FF91F2224208212C000910401109105010C3336
:14ED9800E0E01E0730F080E590E08017910708F052CF83E0E2
:14EDAC0080931902A4C080911A02815080931A0280E0209084
:14EDC0001A02821508F470CF222433243092330220923202D7
:14EDD40020903802222049F080913202909133028160909327
:14EDE80033028093320220903902222049F0809132029091CF
:14EDFC0033028260909333028093320220903A02222049F0E6
:14EE1000809132029091330284609093330280933202209020
:14EE24003B02222049F0809132029091330288609093330247
:14EE38008093320220903C02222049F080913202909133027B
:14EE4C008061909333028093320220903D02222049F08091B7
:14EE60003202909133028062909333028093320220903E02A3
:14EE7400222049F08091320290913302806490933302809325
:14EE8800320220903F02222049F08091320290913302806853
:14EE9C00909333028093320281E08093360282E080931A0286
:14EEB00012C086E392E0E0911A02FF27E80FF91F208030907F
:14EEC400360232243092360280911A028F5F80931A02809157
:14EED8001A028A3050F32090370230903602321421F481E070
:14EEEC00809319020FC082E0809319020BC088B7886088BF4C
:14EF000080916A00806C80936A0089B7886089BF222425BC82
:14EF1400789429902FBEF991E991A991999189911991099171
:14EF28003990299018951A922A928A939A931FB61A9289B337
:14EF3C0082708695813049F480914A0290914B0280629093F6
:14EF50004B0280934A0280B1847086958695813049F48091A7
:14EF6400480290914902806290934902809348028AB3876012
:14EF78008ABB8BB38D7F8BBB8BB3887F8BBB809161008760CC
:14EF8C0080936100809162008B7F8093620080916200887F91
:14EFA00080936200BF9A88B38F7788BB19901FBE9991899141
:14EFB4002990199018954A938FB78F778FBF929A8091310253
:14EFC800887086958695869580933002809131028470869554
:14EFDC00869580932F02809131028270869580932E0280911D
:14EFF0003102817080932D022FE030E00091340210913502E9
:14F00400007010780E94F7FB00932C022EE030E000913402C6
:14F0180010913502007010740E94F7FB00932B022DE030E0A7
:14F02C000091340210913502007010720E94F7FB00932A02EC
:14F040002CE030E00091340210913502007010710E94F7FB7C
:14F05400009329022BE030E000913402109135020070187038
:14F068000E94F7FB009328022AE030E000913402109135028A
:14F07C00007014700E94F7FB0093270229E030E0009134025C
:14F0900010913502007012700E94F7FB00932602809134020C
:14F0A40090913502807091701C01232C33242092250227E06C
:14F0B80030E00091340210913502007810700E94F7FB009376
:14F0CC00240226E030E00091340210913502007410700E94BF
:14F0E000F7FB0093230225E030E0009134021091350200724C
:14F0F40010700E94F7FB0093220280913402909135028071AD
:14F1080090701C0136942794369427943694279436942794C2
:14F11C00209221028091340290913502887090701C0136948C
:14F130002794369427943694279420922002809134029091CA
:14F144003502847090701C01369427943694279420921F0292
:14F158008091340290913502827090701C01369427942092BE
:14F16C001E0280913402909135028170907080931D0281E04C
:14F1800080931C0242E00DC08BE192E0E42FFF27E80FF91F35
:14F19400208030901C02322430921C024395463188F32224A3
:14F1A8003324309218022092170209C0809117029091180227
:14F1BC00019690931802809317028091170290911802803228
:14F1D000E0E09E0778F382B38B7F82BB222433243092180266
:14F1E4002092170209C080911702909118020196909318024A
:14F1F8008093170280911702909118028031E0E09E0778F3F1
:14F20C00919A22243324309218022092170209C0809117028C
:14F22000909118020196909318028093170280911702909154
:14F2340018028032E0E09E0778F382B38D7F82BB222433240F
:14F24800309218022092170209C08091170290911802019646
:14F25C00909318028093170280911702909118028031E0E05F
:14F270009E0778F3929A22243324309218022092170209C041
:14F28400809117029091180201969093180280931702809100
:14F298001702909118028032E0E09E0778F32224332430922D
:14F2AC0018022092170209C080911702909118020196909381
:14F2C00018028093170280911702909118028032E0E09E0778
:14F2D40078F322243324309218022092170209C08091170284
:14F2E80090911802019690931802809317028091170290918C
:14F2FC0018028032E0E09E0778F32224332430921802209237
:14F31000170209C080911702909118020196909318028093BB
:14F32400170280911702909118028032E0E09E0778F322248F
:14F338003324309218022092170209C0809117029091180295
:14F34C00019690931802809317028091170290911802803296
:14F36000E0E09E0778F382B38B7F82BB2224332430921802D4
:14F374002092170209C08091170290911802019690931802B8
:14F388008093170280911702909118028031E0E09E0778F35F
:14F39C0045E10CC18BE192E0E42FFF27E80FF91F2080222062
:14F3B00009F469C0919A22243324309218022092170209C0EB
:14F3C4008091170290911802019690931802809317028091BF
:14F3D8001702909118028032E0E09E0778F382B38D7F82BBCD
:14F3EC0022243324309218022092170209C0809117029091B5
:14F40000180201969093180280931702809117029091180279
:14F414008031E0E09E0778F3929A222433243092180220920C
:14F42800170209C080911702909118020196909318028093A2
:14F43C00170280911702909118028032E0E09E0778F382B387
:14F450008B7F82BB22243324309218022092170209C0809143
:14F46400170290911802019690931802809317028091170216
:14F47800909118028031E0E09E0778F398C0919A22243324A4
:14F48C00309218022092170209C08091170290911802019600
:14F4A000909318028093170280911702909118028032E0E018
:14F4B4009E0778F382B38D7F82BB222433243092180220928B
:14F4C800170209C08091170290911802019690931802809302
:14F4DC00170280911702909118028031E0E09E0778F3929AF1
:14F4F00022243324309218022092170209C0809117029091B0
:14F50400180201969093180280931702809117029091180274
:14F518008032E0E09E0778F322243324309218022092170219
:14F52C0009C08091170290911802019690931802809317029D
:14F5400080911702909118028032E0E09E0778F32224332433
:14F55400309218022092170209C08091170290911802019637
:14F56800909318028093170280911702909118028032E0E04F
:14F57C009E0778F382B38B7F82BB22243324309218022092C4
:14F59000170209C08091170290911802019690931802809339
:14F5A400170280911702909118028031E0E09E0778F34A9575
:14F5B80080E0841708F4F0CE919A2224332430921802209234
:14F5CC00170209C080911702909118020196909318028093FD
:14F5E000170280911702909118028032E0E09E0778F382B3E2
:14F5F4008D7F82BB22243324309218022092170209C080919C
:14F60800170290911802019690931802809317028091170270
:14F61C00909118028031E0E09E0778F3442719C0222433243D
:14F63000309218022092170209C0809117029091180201965A
:14F64400909318028093170280911702909118028032E0E072
:14F658009E0778F3439582E3841720F388B7886088BF789429
:14F66C004991089522242EBC85E19FEF9DBD8CBD85E08EBD9C
:14F6800086B7846086BF26B622FEFDCF22242EBC86B78460F7
:14F6940086BF08952A928A939A93EA93FA932FB62A928BE064
:14F6A80092E0E0910D02FF27E80FF91F2CB0208280910D0289
:14F6BC008F5F80930D0229902FBEF991E99199918991299083
:14F6D00018953A932A931A930A9308950A921A928A939A9376
:14F6E400029FC001129F900D039F900D8C01999189911990A9
:14F6F800099008950E94D2FB7A920E94EBFB59F177240E943E
:14F70C00F1FB19F48C019D0124C00A921A92089FB02CA12C49
:14F72000289F902C812C189FA00C911C871C099FA00C911CF1
:14F73400871C199F900C811C0A9F900C811C389F800C299F20
:14F74800800C1A9F800C0B9F800C199009900B2D1A2D292D8F
:14F75C00382D79900C94E0FBA990B990C990D990E990F9906A
:14F77000499159916991799108957A936A935A934A93FA92C0
:14F78400EA92DA92CA92BA92AA9208955A934A93BA92AA92B6
:14F798000895A990B9904991599108958A929A92AA92BA920D
:14F7AC00EA938A939A93AA93BA9389859A85AB85BC850895BD
:14F7C000B991A99199918991E991B990A99099908990249675
:14F7D4000895EE27E02BE12BE22BE32B0895EE27E82BE92B64
:14F7E800EA2BEB2B0895222321F0169507952A95FACF089583
:00000001FF
